:100000006F0000106F00C00F6F00800F6F00400F77
:100010006F00000F6F00C00E6F00800E6F00400E6B
:100020006F00000E6F00C00D6F00800D6F00400D5F
:100030006F00000D6F00C00C6F00800C6F00400C53
:100040006F00000C6F00C00B6F00800B6F00400B47
:100050006F00000B6F00C00A6F00800A6F00400A3B
:100060006F00000A6F00C0096F0080096F0040092F
:100070006F0000096F00C0086F0080086F00400823
:100080000000000000000000000000000000000070
:100090000000000000000000000000000000000060
:1000A0000000000000000000000000000000000050
:1000B0000000000000000000000000000000000040
:1000C0000000000000000000000000000000000030
:1000D0000000000000000000000000000000000020
:1000E0000000000000000000000000000000000010
:1000F0000000000000000000000000000000000000
:100100005D7116C21AC41EC672C876CA7ACC7ECE7B
:100110002AD02ED232D436D63AD83EDA42DC46DE67
:1001200006C0A2C41734050013044422F32210347D
:1001300096C0F32300309EC2F322203493D2F20102
:10014000639E0204F3222034B7030080FD13B3F250
:1001500072002D43638962000A8597000000938036
:10016000600B6F50006A8642910296C0924263848F
:1001700002000D4511A002558A852644397122C41A
:1001800026C64AC84ECA52CC56CE5AD05ED262D487
:1001900066D66AD86EDA0A866F50001B0323040005
:1001A0009303130023207400631703008A82032142
:1001B0004400411116C073252034B7020080FD129F
:1001C00033755500EF000008976201009382823F6B
:1001D0000E05AA9203A5020003A34200E700030054
:1001E00083230400FD132320740063930302024160
:1001F0000C4441112EC013050000EF80E04C8245F5
:10020000410119C5EF50C008173405001304041448
:100210008642964373901234739003302644924280
:100220002243B243424ED24E624FF24F0255925594
:100230002256B2564257D2576258F25882406161F4
:100240007300203082800000411106C6EFF0406E3E
:1002500097D08201E7802068EF408063EF60200B39
:10026000411106C622C42A84A947630DF5001375FF
:10027000F40F970080FFE780A0DE0145B2402244E2
:10028000410182803545970080FFE78060DDC5B77A
:10029000BDC5014601438148B1A0B757854013173A
:1002A000260032970E0793874746BA9703A847025E
:1002B000C28711A0DC5395C7E38E07FF37578540EF
:1002C00093162600B2968E061307474636971857A0
:1002D00058431843E300F7FE984FE31DA7FC3E8305
:1002E00085480506B757854083A74746E367F6FA72
:1002F000638A0800832743019CC10145828013055E
:1003000020108280130550108280411106C622C43D
:100310002A841C4591C79C4381C74845829711E5B3
:1003200008401C419C4382970145B2402244410150
:100330008280411106C622C42E841C4599C7DC4325
:1003400089C74845829711E02A842285B240224419
:1003500041018280011106CE22CC26CA4AC84EC66F
:10036000AA842E84B6893A8901EAB767814083A7B7
:1003700007C99C4382970DE988401C41FC4391C703
:100380004A86CE85829711E02A84B767814083A789
:1003900007C9DC43A28526858297F2406244D24495
:1003A0004249B2490561828011E02A842285F5B76D
:1003B0005C4199C30545828001458280AA87084136
:1003C00009C9411106C6ED3711CD0145B2404101C1
:1003D000828037078540032587DB88C37DF1196557
:1003E0000D05828019650D05D5B7011106CE22CC09
:1003F00026CA4AC84EC6AA848329850103A9018357
:1004000021A81109B767814083A707C9DC43A285EA
:10041000268582972A8439E1032409001DC4268594
:10042000413F05E5C0C0B767814083A707C99C432A
:10043000268582972A841DE1DC409C47CE8526854F
:10044000829761D123A204006DBF2685953721C113
:1004500003A70184894763EBE70001442285F2404A
:100460006244D2444249B24905618280EF90B05360
:10047000AA85DC40944337668140130646CA13853B
:100480008175970080FFE78060BA0144C1BF130403
:100490005010E9B7797106D622D426D24AD04ECE72
:1004A00052CC2A84AE84B28921372A89B767814029
:1004B00083A707C99C432285829729E9630909001C
:1004C0005C4003A9070663040900228A39A0032AB5
:1004D000040083270A0003A98700A6855285029994
:1004E000AA85638E090001ED6C0052850299AA85E8
:1004F00019E59840B2476304F70099658D05B76721
:10050000814083A707C9DC4322858297B2502254D9
:1005100092540259F249624A45618280797106D645
:1005200022D42AC62E84B767814083A707C99C4777
:100530006800829731E132455C419C4BB1C321C4D4
:10054000B767814083A707C99C43829715E5324569
:100550005C419C4B6C088297AA8501E9B247D84B55
:1005600019E37247D8CBF2471CC0B767814083A715
:1005700007C9DC4332458297B250225445618280DC
:1005800019651505D5BF13052010FDB7797106D67D
:1005900022D426D24AD04ECE6302051A2A891C41A3
:1005A0006381071A98436301071ADC436381071AC2
:1005B0008329050102C6BD4763FD3705B70788409B
:1005C00083A7C7FE9C433EC6B247232CF9004A8549
:1005D000C53309E54A85113D2A8461E92C004A8525
:1005E000353F2A8429E983274900FC5BB5C74A8542
:1005F000829709893DE52247B707000163F3E706C3
:1006000003A70184854763EAE70CB70700013EC4EE
:1006100089A8A94411A0BE846C004A85EFF0E021AE
:100620002A8499678D076316F5009387F4FFE344E6
:1006300090FE59D89DA883A70184A5CBEF90B03632
:10064000AA8537668140130646CA138581779700CD
:1006500080FFE780A09D91A803A70184854763EEF2
:10066000E70403A70184894763E7E708B767814088
:1006700083A707C99C434A8582972A841DE5BD4705
:1006800063EC370183274900BC4F4A858297930763
:100690008010630DF5082A84B767814083A707C9D6
:1006A000DC43A2854A8582972A842285B25022544F
:1006B00092540259F24945618280EF90D02EAA856A
:1006C00037668140130646CA375581401305052712
:1006D000970080FFE780809569B7EF90D02CAA85BE
:1006E00037668140130646CA1385C179970080FF9B
:1006F000E780C09319BFEF90102BAA85032709014B
:1007000093172700BA978607B75681409386C62E5F
:10071000BE9637668140130646CA37558140130599
:100720008521970080FFE780609089B783270901C2
:10073000F1170547E362F7F62A84B9BF13042010C6
:10074000ADB71304201095B713042010B9BF1304DC
:100750002010A1BF011106CE22CC26CAAA842E8465
:1007600023A0050002C66C00253619C50145F240DC
:100770006244D2440561828002C4B247858B99CB22
:10078000380089460546A685EFC00069A2471CC00F
:100790000545F1BF380085460546A6850145EFC0F1
:1007A000A067EDB7797106D622D426D24AD04ECEB4
:1007B00052CC4177B379E500330535412E95C167B9
:1007C000FD173309F5003379E9004E84014A29A861
:1007D000014A5285B250225492540259F249624A57
:1007E00045618280C1673E94B3872901E373F4FEBB
:1007F000B707884083A7C7FEDC43E37BF4FC02C64F
:100800006C002285813FAA8471DD324561DDC165BE
:10081000EFD06010268AF9B7411106C622C426C25D
:100820004AC001440149814409A88147054733175B
:10083000A7003369E900DD8C0504954763E2870270
:100840002285EFE0B07D9307F003E3E7A7FE1307EF
:1008500005FEE34C07FC8547B397E7000147D1BF8E
:100860004A85A685EFF06019B240224492440249BD
:1008700041018280411106C62E8597F07FFFE780F7
:10088000607C0145B24041018280411106C60945A4
:10089000EFD020050145B24041018280411106C6DA
:1008A0000945EFD020020145B24041018280014557
:1008B0008280411106C622C426C24AC02E843289D3
:1008C0002E85EF90C077954701A805800D0471989B
:1008D0002285EF90C076A68709E59384F7FF91C340
:1008E0006DF409C923208900B24022449244024990
:1008F000410182800144FDB7411106C622C42A8409
:10090000B707854083C7C7F789C705458145EF709D
:10091000B07FEF80102108C40145B240224441015C
:10092000828099E519C22320060013057010828089
:10093000411106C697C08301E78060EC411106C6ED
:100940002E85EF90206EB24041018280411106C693
:100950002E8597F07FFFE780E06E0145B2404101B0
:100960008280411106C6EF100007B240410182802B
:10097000411106C60145F5370145B240410182806B
:10098000411106C6EF10C002B24041018280411100
:1009900006C60145F5370145B2404101828041114B
:1009A00006C697F07FFFE780206AB7470F0093875E
:1009B00007243305F502B24041018280411106C689
:1009C000EFB04037B24041018280411106C6EFA02E
:1009D000D072B7470F00938707243305F502B24062
:1009E000410182809DC11C4198435C4B858993964F
:1009F000A50093F7F7BFD58F5CCB1C4198435C4BA8
:100A0000A60593F7F7DFCD8F5CCB828099C51C419B
:100A100098435C4B93E7F71F5CCB82801C419C435F
:100A2000D84385891396D501B70600E0FD16758F6A
:100A3000518FD8C3D84313969501B70600FEFD1613
:100A4000758F518FD8C3D8431396A501B70600FC04
:100A5000FD16758F518FD8C3D8431396B501B706CD
:100A600000F8FD16758F518FD8C3D8431396C50172
:100A7000B70600F0FD16758F518FD8C31C41944303
:100A8000DC42FA05370700C07D17F98FCD8FDCC235
:100A900082801C419443DC4A8589139615010177B5
:100AA0007D17F98FD18FDCCA1C419443DC4ACA05FB
:100AB0003707FCFF7D17F98FCD8FDCCA82801C4180
:100AC0009443DC42858913967501370780FF7D17B3
:100AD000F98FD18FDCC21C419443DC42E205370719
:100AE00000FF7D17F98FCD8FDCC282801C41D84377
:100AF0001C4F85898605F59BCD8F1CCF82801C41BC
:100B0000D8431C4F85898A05ED9BCD8F1CCF8280F1
:100B10001C419443DC428589DA053707C0FF7D1705
:100B2000F98FCD8FDCC282801C419443DC42139646
:100B3000F501370700807D17F98FD18FDCC21C418A
:100B40009443DC428589D6053707E0FF7D17F98F8E
:100B5000CD8FDCC28280411106C60841EF00505E95
:100B6000B24041018280411106C60841EF00D05ACF
:100B7000B2404101828001159D4763E8A7020A0542
:100B8000938701273E951C41828705458280114548
:100B900082801305400382801305401C8280130568
:100BA00040348280130500048280411106C697C03C
:100BB0008301E780C0C4214582802D4582800111D8
:100BC00006CE22CC26CA4AC84EC6AA892E84F377FE
:100BD00004305CC18144014919A0058085041DC40D
:100BE00093771400FDDB93973400CE970399870029
:100BF000130719002394E700E31109FE93973400CB
:100C0000CE97DC4785454E858297C1BF83A74900B3
:100C1000A18B73A0073063490900F2406244D244BB
:100C20004249B2490561828097C08301E78020BDB7
:100C3000011106CE22CC26CA4AC84EC6AA892E84E5
:100C4000F37704305CC10149814419A0058005098E
:100C50001DC493771400FDDB93173900CE9783945E
:100C60008700FD14C204C18423949700E5F0931714
:100C70003900CE97DC4781454E858297C1BF83A757
:100C80004900A18B73A0073063C90400F24062449D
:100C9000D2444249B2490561828097C08301E7800E
:100CA00000B637658140130545E28280411106C6D2
:100CB00022C426C2FD37F37704305CC1014435A05D
:100CC000CD37A2850841EF00D03DAA84D93FB76750
:100CD0008140131724009387C7DFBA979043458E4E
:100CE000A2850841EF00702D0504A547E3DA87FCD3
:100CF0004D3F5C41A18B73A00730B2402244924427
:100D000041018280411106C622C42A84593FAA8724
:100D10007377043058C1130710026300E40413070B
:100D20002002630EE40C130700026306E40097C080
:100D30008301E780C0AC18411843144B93E606408A
:100D400014CB144B93F6F6BF14CBDC43A18B73A0EA
:100D50000730B24022444101828018411843144BAD
:100D60004166D18E14CB144B41767D16F18E14CB97
:100D700018411843144B2166D18E14CB144B617665
:100D80007D16F18E14CB18411843144B37060040E2
:100D9000D18E14CB144B370600C07D16F18E14CBC8
:100DA00018411843144B37060002D18E14CB144B54
:100DB00037060004D18E14CB144B37060008D18EB1
:100DC00014CB144B37060020D18E14CB144B3706AE
:100DD00000FE7D16F18E14CB144B370600FC7D16F9
:100DE000F18E14CB144B370600F87D16F18E14CB20
:100DF000144B370600E07D16F18E14CBB9B71841BD
:100E00001843144B37060001D18E14CB144B370610
:100E100000FF7D16F18E14CB0DBF411106C622C412
:100E2000130705FE9D4763EEE7002A8441352285BE
:100E300099332A84BD35A2855933B24022444101F9
:100E4000828097C08301E780809B411106C622C43F
:100E5000130705FE9D4763EBE700313B2A8491357C
:100E6000A285F933B24022444101828097C08301B8
:100E7000E780E098411106C613054002793FB24071
:100E800041018280411106C6130540027D3FB240F8
:100E90004101828082808280411106C622C473741F
:100EA00004305D2C218873200430B240224441017B
:100EB0008280411106C622C473740430292E218811
:100EC00073200430B240224441018280411106C6A1
:100ED00022C473740430812E218873200430B24000
:100EE000224441018280411106C68545370585406F
:100EF0001305C5DCEF80807419E573770430B707FC
:100F0000854023A8E7DCB24041018280411106C63A
:100F10008545370585401305C5DCEF80807385471F
:100F20006305F500B24041018280B707854083A781
:100F300007DDA18B73A00730F5B7B76781409387B2
:100F400007EB03A5470C8280B7678140938707EBC7
:100F500003A5870C8280376581401305C51F8280F9
:100F6000011106CE22CC26CA4AC8AE84328911CDE0
:100F700085476307F50037140B601304044011A87C
:100F8000371400601304040029A037040060130420
:100F900004006303090C935649019317C900338673
:100FA0002741B3B7C7009D8E3385C400B337950082
:100FB000B697B335A000FD177D15BE95970080FF4D
:100FC000E78000A11307F5FF9307F00F63E6E7083A
:100FD00092043309A90233D6240393574600856649
:100FE000FD16F58FC207C1835848F58FFD76758FC2
:100FF000D98F5CC85C483D8A5206370710FF7D17C1
:10100000F98FD18F5CC8B7170B6093870740630BCC
:10101000F404B7070060938707006309F404376797
:101020000960130707001C4B3EC67D15B2471375B8
:10103000F50F3205B716F0FFFD16F58FC98F3EC6C6
:10104000B2471CCB8327840993E71700232CF408AD
:1010500083278409858BEDFFF2406244D2444249E4
:101060000561828097C08301E780A082B76609602E
:1010700093860600DC423EC41307F5FFA2471377B0
:10108000F70F32073716F0FF7D16F18FD98F3EC468
:10109000A247DCC245BFB7F70A60984F1367470005
:1010A00098CF984B1367170098CB1305F5F9137772
:1010B000F50FB14763EEE70813152700B7578140D6
:1010C0009387475D3E951C41828737070B60032558
:1010D000078213750520B70700019387F7F7232EC2
:1010E000F78085A837070B60032507821375051065
:1010F000B70700019387F7FB232EF78099A83707DE
:101100000B600325078285677D8DB70700019387F4
:10111000F7BF232EF78035A837070B60032507821A
:1011200013750540B70700019387F7EF232EF7806B
:101130000DA037070B60032507828567938707801B
:101140007D8DB70700019387F7DF232EF78011A06D
:101150000145133515008280011106CE22CC26CA26
:101160004AC84EC63384E6409D4763C287062A8933
:10117000B289BA840D37B7C70218938707E0AA97D8
:101180008A078C4337080002B3F50501EDF5A20983
:101190003369390123A027019043B70500026D8E02
:1011A00065FE884341811375F50F3355950005049D
:1011B000FD57B397870093C7F7FF93F7F70F7D8D20
:1011C000F2406244D2444249B2490561828097B0FC
:1011D0008301E780C062411106C622C426C24AC00C
:1011E0002A843289B684453DB7C70218938707E041
:1011F000AA978A079843B70500026D8F75F72209F1
:1012000033642401C204458C37070001598C80C324
:101210009843B7060002758F65FFB240224492449E
:10122000024941018280011106CE22CC26CA4AC859
:101230004EC652C456C23E84B389E6409D4763C140
:10124000370BAA8A328AB6843A89B135B7C50218F3
:10125000938505E0AA958A0503A80500B707000253
:101260003378F800E31408FE220A33EA4A0123A087
:10127000450103A80500B70700023378F800E31A18
:1012800008FE9441C18293F6F60FFD57339727016C
:101290001347F7FF8504B3949700458F758F850931
:1012A000B397370193C7F7FFE18FB3972701D98F22
:1012B000C2073707FF00F98FB3E74701370700017F
:1012C000D98F9CC19C4137070002F98FE5FFF2409E
:1012D0006244D2444249B249224A924A056182801C
:1012E00097B08301E780A0514841B7F7EDED9387B0
:1012F000E7DE3E95133515008280411106C622C4F3
:1013000026C24AC02A842E89B284F93F19CD0848E2
:101310008D2EA9E0CA8501460848A12419E9B240EA
:101320002244924402494101828097B08301E780C0
:10133000004D37C78142130787FBB7C681429386AA
:1013400046F61306D004B7C58142938585F6EFE0D3
:101350008068F1B7CA8501460848492469D137C772
:1013600081421307C7FEB7C68142938646F613062D
:10137000F004B7C58142938585F6EFE0C06545B7B7
:10138000011106CE22CC26CA4AC84EC6AA8432898A
:101390009307803EB389B70233B4B702B1370DC1AA
:1013A0008848C52463130904CE8522868848552AB7
:1013B00001EDF2406244D2444249B2490561828063
:1013C00097B08301E780A04337C78142130787FBAB
:1013D000B7C68142938646F613069005B7C581428B
:1013E000938585F6EFE0205FE9B7CE8522868848B1
:1013F000F52261D137C781421307C7FEB7C68142C4
:10140000938646F61306B005B7C58142938585F6E7
:10141000EFE0605C79BF411106C622C42A84E93539
:1014200009E5B2402244410182800848992CD5BF89
:101430001C41584133E5E7003335A0008280034664
:10144000F500058A9317260037078540130787DEC6
:10145000BA9798431C4D99C3544DD4CF5C4D144D4D
:1014600094C3814701481CC12322050123240500A0
:101470005C45B70600FFF58F5CC56304E5000145D8
:101480008280411106C6931726003707854013074F
:1014900087DEBA979C4381CB8843CC439D2C014582
:1014A000B240410182807D55FD55CDBF0346F50018
:1014B000058A9317260037078540130787DEBA97FA
:1014C0009C4399C3014731A81CCD931726003707C9
:1014D0008540130787DEBA9788C35CCD91A03E870D
:1014E0009C4F95C703280500584183A80700D443A3
:1014F0006366D700E395E6FEE37318FFD84F58CD37
:101500001CCDD84F08C313078501D8CF11A81C4F95
:101510001CCD81C793068501D4CF08CF610758CD74
:1015200099E99317260037078540130787DEBA9796
:101530009C436384A70001458280411106C64C414B
:101540000841C12A0145B24041018280411106C6CD
:10155000375585401305C54DEF507005B240410128
:1015600082803DC5011106CE22CC26CA4AC84EC68D
:101570002A84AE843289B707854083C7E7F6A1CFB6
:10158000AD22AA9433B5A4003306B9003309C500CF
:10159000F37904302285693D11CD1305301093F99C
:1015A000890073A00930F2406244D2444249B249F2
:1015B0000561828004C023222401232404005C44AA
:1015C000370700FFF98F5CC481452285C535C1BF4F
:1015D00013052010828013053010F1B749CD011199
:1015E00006CE22CC26CA4AC84EC652C456C22A8447
:1015F000AE89B284B707854083C7E7F6C1C3C1206F
:1016000063FF9502DD20B38AA90033B5AA00B38732
:10161000B4003309F500737A04302285113D05C901
:1016200013053010137A8A0073200A30F2406244A6
:10163000D2444249B249224A924A05618280639467
:10164000B400E36135FDA528AA89AE8465BF2320D7
:1016500054012322240123243401B7070001FD177C
:10166000FD8C5C44370700FFF98FC58F5CC4814552
:1016700022852D3D45BF13052010828013053010B3
:1016800075B7B707854083C7E7F69DC7411106C602
:1016900022C426C22A84F3740430593B19E9130585
:1016A0003010A18873A00430B2402244924441011A
:1016B000828022856933F5B71305301082801305C7
:1016C000200381458280411106C6B757854003A794
:1016D000474F7C5793E747007CD7B707854083A7E0
:1016E00047DF8297B24041018280411106C622C481
:1016F000375585409307454FC04381451305454FF6
:1017000097F07FFFE780C0CC0294B24022444101B1
:101710008280411106C622C426C24AC02A89AE84EC
:10172000328497C08201E780E01BB717814093871E
:101730008722131634003E962320260144C2904788
:10174000D4479843DC4363E6D7006396F60063749E
:10175000C7003A86BE868945375585401305454FF3
:1017600097F07FFFE78040C797C08201E780201A8B
:10177000B24022449244024941018280411106C68E
:1017800022C4EFB08043930740063304F502EFB064
:10179000C0432295B240224441018280B7170B60BA
:1017A00093870780A84B7981130740063305E5022C
:1017B000BC4BED839D8B3E958280A54763E2B70EBF
:1017C0008A059387811DBE959C4182871441DC4622
:1017D0007206370700107D17F98F5D8ED0C68280A4
:1017E0001441DC463D8A6206370700F17D17F98F08
:1017F000D18FDCC682801441DC463D8A5206370711
:1018000010FF7D17F98FD18FDCC682801441DC4632
:101810003D8A42063707F1FF7D17F98FD18FDCC66D
:1018200082801441DC463D8A320645777D17F98F68
:10183000D18FDCC682801441DC463D8A22067D774A
:101840001307F70FF98FD18FDCC6828054419C5269
:101850007206370700107D17F98F5D8E90D2828057
:1018600054419C523D8A6206370700F17D17F98F7B
:10187000D18F9CD2828054419C523D8A52063707B8
:1018800010FF7D17F98FD18F9CD2828054419C52DA
:101890003D8A42063707F1FF7D17F98FD18F9CD221
:1018A0008280A54763E8B7068A0593870120BE9525
:1018B0009C4182871C41C847718182801C41C84776
:1018C00061813D8982801C41C84751813D89828068
:1018D0001C41C84741813D8982801C41C8473181F4
:1018E0003D8982801C41C84721813D8982805C41BD
:1018F0008853718182805C41885361813D898280F7
:101900005C41885351813D8982805C41885341818B
:101910003D898280014582809DC11441DC4A8589D0
:101920001396050141777D17F98FD18FDCCA1441D9
:10193000DC4AB60579777D17F98FCD8FDCCA8280B6
:101940009DC11441DC4A85891396F50061777D17A6
:10195000F98FD18FDCCA1441DC4ABA0571777D1743
:10196000F98FCD8FDCCA82804111B767814083A790
:101970004723944B37070010558F98CBD84B3AC666
:1019800032459C4F3EC4A245C205C18141018280BF
:10199000411106C60945EFB0F072B24041018280A4
:1019A000411106C60945EFB0D073B24041018280B3
:1019B000411106C673770430B707854023A8E7E0D6
:1019C000EF00F00BB7058540938545E10145C93728
:1019D000B24041018280411106C6B707854083A508
:1019E00047E10145753FEF001011B707854083A718
:1019F00007E1A18B73A00730B24041018280411101
:101A000006C60945EFB05070B240410182801357BD
:101A100005011377F70F9357850093F7F70F1375A9
:101A2000F50F930600026312D70413070004638CBA
:101A3000E70013071004638EE700130700056380B7
:101A4000E702014582803515B54763F2A7020145DB
:101A500082802515A54763FEA700014582802D15CC
:101A6000854763FAA70001458280014582800545CC
:101A700082800545828005458280411106C6930813
:101A8000000263E3E8189308000263E30819B7381B
:101A900000609388080083AE880003AE880103A32A
:101AA000C801370F200023A4E80103AF8801B70F56
:101AB0000080336FFF0123ACE80103AF0802B70FCA
:101AC0000010FD1F337FFF01B70F0070336FFF0160
:101AD00023A0E80303AF0802C17F337FFF01336512
:101AE000AF0023A0A80203A58801333FB0007A0FFE
:101AF000B70F00C0FD1F3375F5013365E50123AC59
:101B0000A800FD1503A5C801EA05370F00047D1FD5
:101B10003375E501C98D23AEB80023A2C80036860F
:101B200063090800370688400326C6FE034696016F
:101B30003696B7360060938606008C4E3335C0006B
:101B40007605B70800E0FD18B3F51501C98D8CCEF8
:101B50007D16CC4E1376F60393F505FC4D8ED0CE54
:101B6000904EB335E000EE05370500F87D15698E1F
:101B70004D8E90CE55C37D171377F73FB736006073
:101B800093860600D052137606C0518FD8D2BCCEB1
:101B90009C4E333700017207370600F07D16F18F37
:101BA000D98F9CCE630C08061307F8FF1377F73F15
:101BB000B737006093870700945793F606C0558F98
:101BC00098D79843B7060400558F98C3B73700607D
:101BD00083A70700C983858BF5FBB7370060938720
:101BE000070023A4D70123ACC70123AE6700A84F89
:101BF000FD4763E80701FD57B397070193C7F7FF58
:101C00007D8DB2404101828097B08301E78020BF83
:101C100097B08301E780A0BE01478DB7014749BF58
:101C2000411106C6AE873287368881460146814516
:101C3000A935B24041018280011106CE22CC26CACC
:101C40004AC84EC652C4370488400325C4FE97E0F4
:101C50007FFFE780204C8327C4FE984393570701FA
:101C600093F7F70F9306D0096389D7049306200CE6
:101C70006385D7049306800C6381D706A14601468D
:101C800081451545713F131405014180A146014668
:101C90008145130550036937220542054181498C6E
:101CA00093740420414A01498149631A940681478B
:101CB000639B29096389070C55A8A1460146814504
:101CC0001545B93F131405014180937434F4C204DF
:101CD000C180214A01498149C9BF9357870093F7C1
:101CE000F70F93060004E39BD7F81377F70FD54758
:101CF000E3F6E7F8A146014681451545153713146B
:101D000005014180A1460146814513055003093F65
:101D10009379F50F13792500214A814479B7B707E4
:101D2000884003A5C7FE97E07FFFE780A03E81467D
:101D3000014681451945ED3581465286A685054502
:101D4000C5358547B5B7B707884003A5C7FE97E0F7
:101D50007FFFE780203C8146014681451945C93512
:101D600081462146CA85130510035D3DB7078840AB
:101D700003A5C7FE97E07FFFE780C0398146014693
:101D800081451145713D0145F2406244D2444249CA
:101D9000B249224A05618280411106C6914763E03B
:101DA000B7022A868E0513F8850F81470147A146A1
:101DB000E1451305A005D131B2404101828097B0C1
:101DC0008301E780C0A3411106C6E1460146814573
:101DD0001305F009B135931705013707FF00F98F97
:101DE000135705011377F70FD98F4167130707F0D2
:101DF000798D5D8DB24041018280411106C622C4B9
:101E000026C2B707884083A7C7FE8843093119C592
:101E10000145B240224492444101828085454145BA
:101E2000A53F1375F50F930700026317F50A03A783
:101E30000184894763E3E70681460146814513052E
:101E4000900BF93B81460146814513059007C93B3C
:101E50008146014681451305F00FD9331305007DF6
:101E600097E07FFFE780001E81460146814513050C
:101E7000B00A7D33514597E07FFFE780A01C37040F
:101E800088408324C4FE813788C08327C4FE8843EA
:101E9000EFF0FFB705C10145ADBFB7658140938540
:101EA0008527376581401305852597E07FFFE7800B
:101EB000E01759B783A7018499E37D5599BFB765AA
:101EC000814093858527376581401305852397E0F9
:101ED0007FFFE780A015D5B7014525BF411106C694
:101EE000EFE05FF9B24041018280411106C6EFE0A8
:101EF0007FF9B240410182808280411106C6EFE045
:101F00009FFEB24041018280411106C6EFF00F8072
:101F1000B24041018280828082808280014582803D
:101F20000145828001458280014582808280411185
:101F300006C622C4EF80A0102A8411C52285B240B3
:101F4000224441018280B767814083A7C7749D8B7B
:101F5000F5D737C6814213068643854537658140EC
:101F60001305C574EF803039D1BFB767814083A7AF
:101F7000C7749D8BF9CB011106CE22CC26CA001066
:101F80008A84230604FE8947A306F4FE01110A870A
:101F9000130607010DCE394509CA914763D7A7003B
:101FA000B7C78142938747455CCB230404FE89472A
:101FB000A304F4FE0DCEA14763D7A700B7C78142A3
:101FC0009387C7591CCF9306C701814731A83705AE
:101FD00000807D15D1B7938507FFA29583C585FF46
:101FE0002380B600850785068545E3F6F5FEB547EF
:101FF00063DBA704B9451DC28D462306D4FEA306A4
:1020000004FE230704FE8547A307F4FE2308D70038
:10201000A308070023090700A309F70093F5E57E4D
:10202000A60593E505048146376581401305C5740F
:10203000EF80903026810145130104FEF240624496
:10204000D2440561828091557DB701458280B76792
:10205000814083A7C7749D8BF9CB011106CE22CC9A
:1020600026CA00108A84230604FE8947A306F4FECC
:1020700001110A87130607010DCE394509CA914798
:1020800063D7A700B7C78142938747455CCB23043A
:1020900004FE8947A304F4FE0DCEA14763D7A70031
:1020A000B7C78142938707581CCF9306C701814762
:1020B00031A8370500807D15D1B7938507FFA2951C
:1020C00083C585FF2380B600850785068545E3F631
:1020D000F5FEB54763DBA704B9451DC28D4623064F
:1020E000D4FEA30604FE230704FE8547A307F4FEDF
:1020F0002308D700A308070023090700A309F70056
:1021000093F5E57EA60593E5050481463765814094
:102110001305C574EF80502226810145130104FE8A
:10212000F2406244D2440561828091557DB70145F9
:102130008280411106C622C4EF7090722A8411C5B4
:102140002285B240224441018280B767814083A743
:10215000C7749D8BF5D737C68142130686438545E4
:10216000376581401305C574EF80F018D1BF411168
:1021700006C6AA850545753FB240410182804111DE
:1021800006C6AA850545EF70B06DB2404101828058
:10219000411106C6EF70D06CB240410182804111FE
:1021A00006C6EFF0EF9DB24041018280411106C6A4
:1021B00022C4328401468146EF40605C2320040043
:1021C0000545B240224441018280411106C6EF40DC
:1021D00090000145B24041018280411106C6FD5583
:1021E0007D56EF40806F0145B24041018280054538
:1021F0008280411106C6EF60A059B2404101828041
:10220000411106C6EFF02FA1B24041018280411179
:1022100006C6EFF08F8EB24041018280411106C6A2
:10222000EF70F061B24041018280F37704301CC14D
:10223000014582801C41A18B73A00730828041112F
:1022400006C622C426C24041F374043029A05C446F
:1022500008488297404801CC83570400858BFDFBDA
:102260005C40F5D79C431844F98FEDD7CDB7A188D2
:1022700073A00430B2402244924441018280011193
:1022800006CE22CC26CA4AC84EC673790430B70798
:10229000854003A4C7F3B707854083C747F3A1EB85
:1022A000B70785400547238AE7F2B717002083A9BF
:1022B0000700F3740430228597E07FFFE780C04673
:1022C000A188F3A404300145EFE0DFBC337434018E
:1022D000B707854023AC87F2137989007320093052
:1022E000F2406244D2444249B2490561828097A0DB
:1022F0008301E780005A411106C622C426C2F37446
:102300000430B707854003A587F3B707854083C727
:1023100047F38DCBB7078540238A07F273740430E7
:1023200097E07FFFE7800040218873240430014557
:10233000EFE07FB6A18873A00430B24022449244FB
:102340004101828097A08301E780A05445C94111D3
:1023500006C622C4737404305C41B5C303D70700BA
:10236000136717002390E7005C4194439E06C20662
:10237000C186A186B6851C41D84311E797A0830189
:10238000E780E047584B11CF1C439E07C207C18727
:10239000A187E399F6FE83570700858BE5F7814710
:1023A00011A0854763C305028DCF1C4103D52700CB
:1023B0001946058997E07FFFE780C0371DA01C41C3
:1023C0008C438A05E1858547F1BF18418357270073
:1023D000858B85E3084345817D8997908601E78059
:1023E00040CA2188732004300145B2402244410193
:1023F00082802188732004302955C5BF29558280E9
:10240000411106C697B08601E780A0DAB2404101CB
:1024100082805C411449D84709E7DC43F04FF0C79C
:1024200011E28280411106C6AA851385460097C035
:102430008601E780A0D3B24041018280411106C6E7
:10244000373583421305050CE937B24041018280DC
:10245000011106CE22CC26CA4AC84EC652C42E89C5
:10246000B284032A45000327CA0085476305F7069F
:1024700001444A94B7070080FD17B3D78700858BC6
:10248000BDC3F3790430F94763E18702B7C78142DE
:10249000131724009387C799BA97884363470500A9
:1024A000854597C08601E78060BAF94763FD8706D6
:1024B000B767814083A7C7759D8BB1EB295593F909
:1024C000890073A00930F2406244D2444249B249C3
:1024D000224A05618280FD4763F4B700014451BF81
:1024E0001304000279B7B767814083A7C7759D8B36
:1024F00099E32955C9BF376682421306C6A98545A7
:10250000376581401305C575EF80E05EDDB737663E
:1025100082421306C6AB8545376581401305C575F4
:10252000EF80605D61BFB7C78142131724009387B6
:102530000792BA978545884397C08601E78060ADCA
:1025400093F704019DCBB74702188507A2978A0726
:1025500098431367071098C393F72400A5CF93F708
:102560004400A1C783274A001307C4010A07BA978A
:10257000D84313674700D8C3BDA0B547630CF40028
:10258000B74702188507A2978A0798431377F7EF92
:1025900098C3D9B7B7F70060984F1367071098CF63
:1025A000984F1377F7DF98CFE1BFB767814083A7D4
:1025B000C7759D8B81E71305A0F711B73766824277
:1025C0001306C6AC8545376581401305C575EF8098
:1025D0008052D5B783274A001307C4010A07BA9768
:1025E000D8436D9BD8C393F7040295CFB747021821
:1025F0008507A2978A0798431367070898C3B70708
:102600000200E58FF1CFB7070080FD17B3D7270190
:10261000858B85C793F70460A9C713070060638C97
:10262000E708295569BDB74702188507A2978A07A9
:1026300098431377F7F798C3D9B7B767814083A753
:10264000C7759D8B99E329559DBD37668242130658
:1026500006AF8545376581401305C575EF80A049F4
:10266000DDB7B74702188507A2978A079843FD761A
:102670009386F63F758F8566938606C0558F98C3FF
:10268000054933198900B71709609387070023A20A
:1026900027038146014693050008228597E07FFFC6
:1026A000E7800004B7070800E58F95C383274A0039
:1026B00023A4270191A8B74702188507A2978A0784
:1026C0009843FD769386F63F758F98C355BFB7073D
:1026D0000400E58F95CB83274A0023A627012DA070
:1026E0008567E58F95E3054733178700B7170960BE
:1026F0009387070098D7B747021893875755A29733
:102700008A071307000898C3C167E58F81CFB747D1
:1027100002188507A2978A0798431367072098C372
:10272000014571BB8967FD8C81ECB74702188507AD
:102730003E940A041C4093F7F7DF1CC0014541B3E7
:102740000145B5BB104918428327070893F717FCCA
:1027500093E727012320F7088327070893E717004B
:102760002320F7085C43856693860680D58F5CC37B
:1027700083270708858BEDFF544385679387078080
:10278000DD8E54C31442D842D98FDCC282804111FD
:1027900006C622C4004918405C4393E707405CC367
:1027A00055371440DC42056713070780D98FDCC218
:1027B000B24022444101828010491C42984F8966F0
:1027C000558F98CF984FF976FD16758F98CF1C428C
:1027D000984F8566558F98CF984FFD76FD16758F6B
:1027E00098CF828014499842DC5E13861700D0DEB1
:1027F000D1078A07BA970D6798C782801449984213
:10280000DC5E13861700D0DED1078A07BA9705670A
:1028100098C78280411106C622C426C2AA840049F4
:102820001440DC42056713070780D98FDCC21840CB
:102830005C4393E707025CC3232E040213054400A4
:102840009305401F0146EF40806011ED58589547B1
:102850006300F70258588D476301F702B2402244E3
:1028600092444101828026851D371305C0F8FDB7CB
:102870002685313F1305C0F8D5B74955C5B70111B5
:1028800006CE03280501A307B1008547232AF802D5
:102890008326080001470DA0DC4E3EC293070701C6
:1028A0003386270092470346F6FF93F707F0D18F50
:1028B0003EC29247DCCE0507E350E0FE8327880343
:1028C000858BC9C7A181A307B100832608000147F2
:1028D0006343E002DC4E3EC49307070133862700C2
:1028E000A2470346F6FF93F707F0D18F3EC4A247F5
:1028F000DCCE0507F1BF094713670710856793878B
:1029000007805D8F832608008327C803138617007E
:10291000232EC802D1078A07B69798C70327080055
:102920008327C80393861700232ED802D1078A076E
:10293000BA97096798C7832708007D57D8D313072C
:10294000805A98D7C13DF2400561828005476DB736
:10295000797106D622D426D24AD04ECE52CC56CA4F
:102960005AC8AA8A0329050103AA45008441232ADB
:102970000902896993890980096B15A093E90940C7
:10298000054489A0584E3AC6B2463387F400230066
:10299000D7008507E3C887FEA294330A8A40630004
:1029A0000A0852849307100263F4470113041002CB
:1029B0001374F40F7D141374F40F8547E300FAFCCD
:1029C00093F9F9BF93F909F0B3E9890003270900E6
:1029D0008327C90393861700232ED902D1078A07BC
:1029E000BA9723A43701032709008327C9039386D5
:1029F0001700232ED902D1078A07BA9723A46701AB
:102A0000832709007D57D8D31307805A98D7568556
:102A1000113563470500032609008147A5BF01451D
:102A2000B250225492540259F249624AD24A424B5D
:102A300045618280411106C622C426C24AC0AA84CA
:102A40002E8483C78500918B89CB13691600593B6F
:102A5000CA8526852D35634C0500A2852685CD3D8A
:102A60006347050083478400898B81EB0145B240B1
:102A700022449244024941018280268541332685C1
:102A8000513BE34605FE0145DDB7797106D622D4F8
:102A900026D24AD04ECE52CC56CA5AC8AA8A032A47
:102AA0000501C44183A905008547232AFA02056967
:102AB0001309098013690910096B21A89377F40F92
:102AC000137909F03369F90091EF1374F40FA299A7
:102AD000818CC9C4268493070002E3F197FE130496
:102AE0000002E9BF83260A00014739A8DC4E3EC632
:102AF0003386E900B2470346060093F707F0D18F0B
:102B00003EC6B247DCCE05079377F40FE340F7FEED
:102B100003270A008327CA0393861700232EDA02AD
:102B2000D1078A07BA9723A4270103270A0083271E
:102B3000CA0393861700232EDA02D1078A07BA97B1
:102B400023A4670183270A007D57D8D31307805A2F
:102B500098D75685C131E35A05F611A00145B25008
:102B6000225492540259F249624AD24A424B456178
:102B70008280411106C622C426C24AC0AA842E847D
:102B800083C78500918B89CB3289EFF0BFC5CA8599
:102B90002685F531634C0500A2852685FD35634702
:102BA000050083478400898B81EB0145B2402244B4
:102BB00092440249410182802685EFF03FC4268578
:102BC000EFF05FC5E34405FE0145CDB7011106CE28
:102BD00022CC26CA4AC84EC652C456C25AC003297D
:102BE0000501630606102A8AAE893284B68AB7A424
:102BF000070093840412832709009C479183858BE7
:102C000091CB0545EF3080019387F4FF638D040E6F
:102C1000BE84D5B783C7890093E747002384F900B2
:102C20004E87854729A0898AB9E631078507A2869C
:102C30006340F402E3DBD7FE834687008345470108
:102C400033C6B600058A65D29189F1FDA95411A059
:102C50008144D9EC130BC901FD557D565A85EF40CF
:102C6000001F83278903858B89CB9307F03FB3FA35
:102C70005701860AB1A0A954E9BF9307F007C5BF61
:102C80005285EFF0DFB05285EFF01FB30327090044
:102C90001C57F176F58F1CD7032709009167FD17A4
:102CA0005CD383C78900858B8DCB5686CE855285B4
:102CB0005133AA8463C904027D141374F40FB1095B
:102CC0001DC0032749039547E30CF7FA8327090042
:102CD0009C479183858BC5DB65B75686CE8552852B
:102CE000493DAA84C1BF5A85EF40600C11A08144C0
:102CF0002685F2406244D2444249B249224A924A6D
:102D0000024B05618280C154E5B7011106CE22CC89
:102D100026CA4AC84EC652C4AE84032A45000329B7
:102D200005012E8597C08601E780A043AA8997C038
:102D30008601E780003E2A84AA864E86A6854A85BB
:102D400097B08201E780003D83274A02A1C7374739
:102D50000F00130707243354E402B38787027D472B
:102D60006373F700FD4783260900D846FD8B019B5E
:102D7000D98FDCC683260900DC420567130707806C
:102D8000D98FDCC2F2406244D2444249B249224A5D
:102D900005618280032709005C4793E7F7015CC760
:102DA000D1BF011106CE22CC004902C65858854732
:102DB0006304F7025C5895C7B24709476388E70286
:102DC0000D47638FE7020547638FE702154763915D
:102DD000E70291475CD829A86C002285EFA09036C5
:102DE000E1BF6C002285EFA0303DF9B78D475CD87C
:102DF00013054400EF30B07BF240624405618280ED
:102E000095475CD8F5B795475CD8DDB7011106CE7C
:102E100022CC26CA4AC84EC6AA844041832905014D
:102E20008145084497C08601E7802047634A05062C
:102E30004840EF20306A49C94C44484097C0860159
:102E4000E780401448481C4C6354F00A8545B3950C
:102E5000F50093F5E50F5C4C93F70710DD8D014706
:102E6000A68637368040130626DA93E5054097801C
:102E70008601E78060572A8935CDB767814083A7EF
:102E800047769D8BD9CFAA863756824213060656BF
:102E900085453765814013054576EF70104751A091
:102EA000B767814083A747769D8B99E3295995A8F9
:102EB00037668242130686D98545376581401305FA
:102EC0004576EF705043DDB7B767814083A74776FB
:102ED0009D8B99E33559B1A0375682421306864C33
:102EE00085453765814013054576EF70D040DDB7E5
:102EF000814595B74E8597B08201E78020272685CA
:102F000097C08601E7808009085097C08601E78056
:102F1000A01793650501268597C08601E7802029C3
:102F20002A894A85F2406244D2444249B249056145
:102F3000828041118145654506C697E07FFFE780A5
:102F4000A0E1B7478140938707ED985FB24005073E
:102F500098DF41018280AA851305000217E37FFFF5
:102F6000670083DF011152C4370A88408327CAF6FD
:102F700026CAB754854083A7071922CC4AC84EC633
:102F800006CE56C2938404ACC058AA892E89829773
:102F900001CDD844C177F98F370701016396E70067
:102FA000638E090003A4041BF24022856244D244CC
:102FB0004249B249224A924A05618280B7D70A60E3
:102FC000804397608001E780E0238327CAF683AAC5
:102FD000440383A9041B83A78710330424412A894F
:102FE0008297BC5CE372F5FC33095903330939411C
:102FF000E37C24FB3E94098C45BFB767814083A7DF
:10300000C72E91C3828782804111B747814022C475
:1030100006C603A407ED97D08901E780E0312A872F
:10302000854611E40145B2402244410182801C40A2
:103030001044F98313F51700E307D5FEE305E4FE1A
:103040003284C5B75D7152DC370A8840A2C456DAB3
:103050005AD85ED662D466D26AD086C6A6C2CAC024
:103060004EDE6ECE0144370B0018B70B8840370C8C
:103070008840B70A0800A16C130ACAD1116D97E005
:103080007FFFE78020D819E161242A84612CAA8976
:10309000552CAA8497E07FFFE78080E1B367340175
:1030A000C58F2A89638F07102285852C5924B37513
:1030B000640191CD2E852EC697108001E780000116
:1030C000B24511E56D4597E07FFFE780E0C82685B2
:1030D000BD2C4A85AD2C93F5F40091C5694597E068
:1030E0007FFFE78060C793F7040F9DCF01453EC681
:1030F00097208001E780407323AEABE226859710CE
:103100008001E780E0F6AA8D014597208001E780E5
:10311000A071232CACE2B24763980D00BE856D45CB
:1031200097E07FFFE78040C3B3F7540199C7A685B6
:103130007D4597E07FFFE78020C2B377940199C770
:103140008145754597E07FFFE78000C183274A00EE
:10315000B374A40189C781C4B84B0507B8CBB707BE
:103160002000E18F99C78545394597E07FFFE780CB
:10317000A0BE81C8B7070600B377F900A9C34A8586
:10318000D93B9377040889C797E07FFFE780C0AAFF
:10319000B377540189C797E07FFFE78020AA937730
:1031A000041089C797E07FFFE78080A9E38909ECD5
:1031B0008145794597E07FFFE78000BAC9B5953B27
:1031C000C9B7B640264496440649F259625AD25AC3
:1031D000425BB25B225C925C025DF24D6161828077
:1031E000894763E3A708B707884083A7C7F641115B
:1031F00022C483A7871006C62A8482979307C00239
:103200003304F402B76781409387472F37470A603A
:1032100093064708B240A29788C394422244D4C37D
:103220009306C708944294C7930687089442D4C76C
:1032300093064709944294CB930607099442D4CB52
:10324000B7468140938606ED9042D44290CFD4CFCA
:10325000944694D39306C73A94421307473BD4D37A
:10326000184398D741018280828039712ACE09455E
:1032700006DE22DC26DA4AD84ED62ECC9537E24737
:103280007247B7368342376481409386C69F0D46A6
:103290009305000205451304442F97508701E780EA
:1032A000A06193044408B7398342373983425C48AC
:1032B0008328C400032884003EC21C48184093861B
:1032C000C9A03EC05C400D469305000205459750DD
:1032D0008701E780605E1C548328440203280402AF
:1032E000184C3EC05C4C930649A20D469305000263
:1032F00005451304C40297508701E780E05BE3189B
:1033000094FAF2506254D2544259B25921618280E7
:10331000B7570A6003A587C48280B7570A6023A6FF
:10332000A7C48280B7570A6003A547C385677D8D10
:103330008280B7570A60938787C398438566558F05
:1033400098C38280B7D70A6003A5070B8280B7D7DE
:103350000A6023AAA70A828037170A608327878F0B
:10336000B706000893F707F093E74700232CF78E82
:10337000B7070A6003A7C744558F23A6E74403A7EE
:10338000C746B70600E0FD16758F23A6E74603A7DC
:103390000745B7860080558F23A8E744B7760A60B3
:1033A00083A7864271771307F70FF98F0567130715
:1033B0000740D98F23A4F64282800111B7D70A6053
:1033C00026CA844322CC09644AC84EC652C406CEDB
:1033D00037D90A601304F470B7B98540130AB005F1
:1033E00083270900858F636CF40083A70985014654
:1033F0008545BC4B130530068297E31345FFF24029
:103400006244D2444249B249224A05618280411154
:1034100006C6EF80804E1307000289476306E50069
:10342000930765FE93B7170037478140A305F70A56
:1034300037670960832707137D15B2401375F50FB1
:1034400093F707F05D8D2328A71241018280411177
:1034500006C6193797E07FFFE78000F5B747814040
:103460009387C70503C5171283C50712EF007004C1
:1034700005651305858297E07FFFE78020F3EF0065
:10348000101197E07FFFE780E0EEEF00C078054580
:10349000EF00406B97E07FFFE780C0D3EF009034F0
:1034A00097E07FFFE78000F1EF007035B2400545FF
:1034B000410117E37FFF6700A3EB011126CAB7B4F0
:1034C000854083A7048506CE22CC9C434AC84EC6BD
:1034D00052C456C25AC0829737A90A60032B498149
:1034E00083274981B7090A60370A00E893E7474014
:1034F000232AF98083A7090C7D1A37070010B3F738
:103500004701D98F23A0F90CAA8A054597C08201EB
:10351000E78000A3ED3D0145EF00701A0545EF007F
:103520005025C9282145EF00503297E07FFFE78002
:10353000A0E497E07FFFE780E0C00145EF00B077AF
:1035400097E07FFFE78000E29145094537448140DD
:10355000952A1304C40597E07FFFE78020E1A523A7
:10356000EF00105E8123EF00D0340345C411938433
:10357000048597E07FFFE780E0BD97E07FFFE7806D
:1035800060E5F135054597E07FFFE78060BBEF0020
:10359000C06F97E07FFFE780A0DA6D2697E07FFF9E
:1035A000E780C0BE014597E07FFFE78060E001450E
:1035B000EF00301CA30B0400A30E041883A7090C12
:1035C00033FA470123A0490D232A69818347E4196F
:1035D00081C70145EF00F0259C406244F240D2448F
:1035E0004249B249224A024B03A347005685924AF8
:1035F00005610283411106C622C437B4854097E0B5
:103600007FFFE78020D28327048501468545FC5B48
:10361000114582978327048501468945FC5B114546
:1036200082978327048501468545FC5B1545829773
:103630008327048501468945FC5B154582978327CE
:10364000048501468545FC5B0145829783270485F7
:1036500001468945FC5B0145829783270485014625
:103660008545FC5B0545829783270485014689458E
:10367000FC5B05458297832704851306001085456A
:10368000FC5B094582978327048513060010854556
:10369000FC5B0D458297832704851306001089453E
:1036A000FC5B094582978327048513060010894532
:1036B000FC5B0D4582972244B240410117E37FFF36
:1036C000670083C6B7070A6003A7070CB7C6FF5B8E
:1036D000FD16758F23A0E70C03A7070CB7060002A1
:1036E000558F23A0E70CB747814083C7771F99C345
:1036F00089450145B7070A6003A7070C9205C98DE4
:10370000B70602FEC6053705FE01FD16758FE98D69
:10371000D98D23A0B70C03A7470D1377F78713673D
:10372000073023AAE70C370780191307972423A42F
:10373000E70C37578225130707E523A6E70C82809D
:10374000797162C437BC854083270C8506D622D4A4
:1037500003A8070626D24AD04ECE52CC56CA5AC823
:103760005EC666C26AC085472A84AE8413052006F9
:1037700085453289368A2D469946BA8A1947029874
:1037800083270C852D468545BC4B13052006894CA7
:10379000829783270C8501468545BC4B2A8B1305F0
:1037A0003006829783270C85937B750F1365850000
:1037B000BC4B85459379F50F0D461305700682972E
:1037C0009367450093F7F70F1375B50F139707012C
:1037D0002205598DB75881405D8D814693070002BF
:1037E00041470148A54E9388C86F130F70060D4ED0
:1037F00013032006AD4F9305300691429543194CB3
:10380000054D13F6F60F63605603B25022549254DE
:103810000259F249624AD24A424BB24B224C924C74
:10382000024D4561828063EFCE0C0A064696104237
:103830000286230064002380A4011386170023005E
:10384000F9009377F60F85066DBFA3006400A3808F
:10385000940113861700A300F900E5B72301B40013
:10386000238104002301E9001306170023247A01B1
:103870001377F60FC9BFA301B400A3818401138697
:103880001700A301F90075BF2302B400238274005E
:10389000138617002302F9006DB7A302B400A382B8
:1038A000540013861700A302F90061BF2303B4007C
:1038B0002383C401138617002303F90059B7A30318
:1038C000B400A3830400A303E90013061700232E0A
:1038D0003A0179BF230464002384F4012304E9003E
:1038E0001306170023206A0361B7A304E401A3842D
:1038F000C401A3040901130618002322AA021378A5
:10390000F60F91B73306D400230006003386D400A7
:10391000230006003306D900230006001396260074
:1039200052962320060005B737070A608327070C45
:10393000B70600040945D58F2320F70C17C37FFF76
:103940006700437037070A608327C70C93F7071097
:10395000E5DF82805971A6D2CAD0CECED2CCD6CAEB
:10396000DAC8DEC6E2C4E6C286D6A2D4EAC06EDEFB
:103970002AC2AE8B328C3A8A02CE02D002D202D454
:1039800002D6B684014B3709FF00854A8D49994C10
:1039900063176A03D285680897D07FFFE780807D30
:1039A000B650265496540659F649664AD64A464BAE
:1039B000B64B264C964C064DF25D6561828092476F
:1039C00033876B01034D0700338767010347070007
:1039D000220D8C40336DED0033076C010347070067
:1039E000C205B3F525011374F7001183B3E5A501F2
:1039F000A28619C793064400631457019306140066
:103A00007C08338667012300D6003A852EC63AC467
:103A100097D07FFFE780407422474204AA8D4180FF
:103A20009376F50FB2453DE3330734031D4693DD2E
:103A30008D0036C693FDFD0F36973A853AC497F050
:103A40008901E78080A233858D00330535038C40E2
:103A5000B2461D46A205B3F52501B3E5A501B38D18
:103A60009D03369597F08901E78020A08C4022477E
:103A70001D46B375B900B3E5A5013305B70197F04D
:103A80008901E780809E050B910419B763175701E0
:103A9000330534031D463695DDB7131514000D4666
:103AA000EA85D5BF1D71341070080C0848002947FD
:103AB00086CE7931341070080C0848002947593DEA
:103AC000F6402561828037170F0FB7170A607D1700
:103AD00023ACE7803717FF00130747F623AEE780D4
:103AE00003A70781FD76BD06758F1367075023A8CE
:103AF000E7802D671307A7AA23A0E78203A7078102
:103B0000B70690FFFD16758FB7062000558F23A8C6
:103B1000E78003A74781B7E60060137707F01367D4
:103B2000870023AAE7809C4237070020D98F9CC2D8
:103B3000B7160B60FC4A7D17F98F37070080D98FC5
:103B4000FCCA8280B7770A60F84325C5B7063F00F4
:103B5000558FF8C3F843F1769386F60F758F896613
:103B600093860610558FF8C303A74712C176938634
:103B7000F63F758FA16693860640558F23A2E71204
:103B800003A7471237860A60C576419B1367370043
:103B900023A2E7125842FD16758FA566558F58C2AD
:103BA00003A74710137707E01367271E23A2E71028
:103BB0008280B706C1FFFD16758FB7063E00558F90
:103BC000F8C3F843F1769386F60F758F896693866E
:103BD0000680558FF8C383A6471241771307F73F36
:103BE000F98E9965CD8E23A2D71283A64712378608
:103BF0000A60C19A93E6460023A2D7125842C576BE
:103C0000FD16758F4D8F58C203A74710137707E035
:103C10001367871C61BFB7860A6083A706C0370792
:103C2000E0FF1307F77FF98F2967D98F23A0F6C02C
:103C3000B7170A6003A6878F41779305F70F6D8E3C
:103C40001567598E37D7400123ACC78E1307E7811C
:103C500023A6E6C603A606C337070E0A137606C0D8
:103C60001366E60123A8C6C283A6C78FC206C18217
:103C7000D98E23AED78E03A7C78FB56693860680ED
:103C80006D8F558F23AEE78E828037770A605C5741
:103C9000B7060001FD1693F707F093E7970E5CD780
:103CA0008327070AF58FB70600E9D58F2320F70A87
:103CB0008280B7770A601307F5FF03A6C713931630
:103CC00027013708FC01B3F60601370804FE7D180A
:103CD00033760601D18E23AED71283A647090A0791
:103CE0001377C71F93F636E0558F23AAE70821669E
:103CF000D45713178500130606F0718F61761306EB
:103D0000F60FF18E558FD8D7B7160A6003A78695A0
:103D10007D763D06718F1205498F23ACE69493851D
:103D2000050503A7869537F60F00B205F18D371606
:103D3000F0FF7D16718FD98D23ACB694D457370719
:103D400000011306F7FFF18E37070032D98ED4D762
:103D5000D857B7068000558FD8D7D857B70680FFF9
:103D6000FD16758FD8D703A78712B70600D2718FBB
:103D7000558F23A4E7128280B7860A6083A706CDF9
:103D800037070F002D07D98F23A8F6CC828037770D
:103D90000A60832707409966370600FFD58F2320E6
:103DA000F740B7870A6083A6878437050001F18E44
:103DB000373604001306F63AD18E23A4D78483A69F
:103DC0008784370600E17D16F18E37060017D18E05
:103DD00023A4D78403A68780F1769385F6076D8E9A
:103DE0008D66558E23A4C78083A6C78D3706C0FF76
:103DF0007D16ED8E93E6061023AED78C83A6478EF4
:103E0000B715F0FFFD15F18E23A2D78E83A607C349
:103E1000ED8E23A8D7C283A6C790FD759385F57F45
:103E2000ED8E23A6D79083A687CAB7051000CD8E46
:103E300023A4D7CA83A50798B70600FEFD16F58D03
:103E400023A0B79883A50789ED8E23A8D78883A5DB
:103E50000789C98D23A8B78883A587A26D8E23A45F
:103E6000C7A283264742370620E07D16F18EC98E11
:103E70002322D74283A607CD37060F003D06D18EF9
:103E800023A8D7CC83A607C037A60A6093E60620EE
:103E900023A0D7C08327C681856693860680D58FE9
:103EA000232EF6808327874393F7F7F3232CF742DB
:103EB0008327874393F7F7EF232CF74275BD411112
:103EC00006C60DC9B7070B6003A74715B706001054
:103ED000FD16758F23AAE71403A7C70CB70600F0D9
:103EE000FD16758F23A6E70C1305400697C07FFFCC
:103EF000E7804015B7070B6003A74715B70600F02A
:103F0000558F23AAE71403A7C70CB7060010558FD7
:103F100023A6E70C03A747159316470063C80602BC
:103F200003A74715B7060008558F23AAE71403A770
:103F30004715B70600FCFD16758F23AAE71403A7E3
:103F40004715B7060004558F23AAE714B7070B607F
:103F500003A747159316570063C9060003A7471523
:103F6000B7060004558F23AAE714B24041016FF051
:103F7000CFC4411126C2B7140A6083A7049122C49A
:103F80007D741304F40F06C64AC0E18F1DCD056988
:103F900013070980D98F23A8F490054597C07FFFA8
:103FA000E780400A83A70491130909A07D8C33643C
:103FB000240123A884902244B2409244024905453A
:103FC000410117C37FFF6700E30793E7072023A89A
:103FD000F490054597C07FFFE780C00683A7049152
:103FE0007D8CC1BFB7770A60984FB7068000558FA8
:103FF00098CF984FB7060010558F98CF8280B7178B
:104000000A6003A70790B7060002558F23A0E79028
:1040100003A70790B706C0FFFD16758F23A0E79092
:1040200003A70790B70680FEFD16758F23A0E790C3
:10403000828037A70A608327C78111C593E72700CD
:10404000232EF7808280F59BE5BFB7070B6003A6A0
:104050004782131745009376077C1377F683558FB5
:1040600023A2E78203A7478205811375F50313771F
:1040700007FC498F23A2E78203A787821377F78380
:10408000558F23A4E78203A78782137707FC498F04
:1040900023A4E78203A7C7821377F783558F23A64C
:1040A000E78203A7C782137707FC598D23A6A7824F
:1040B0008280411126C2B7B4854083A7048522C4FB
:1040C000374481401304C4058346D40EBC4F06C652
:1040D0005146854513057006829783A7048583465C
:1040E000D40E5546BC4F854513057006829783A7AD
:1040F00004858346E40E5946BC4F8545130570067A
:10410000829783A704858346E40E5D46BC4F8545B0
:1041100013057006829783A704858346D40E6146F3
:10412000BC4F854513057006829783A70485834697
:10413000D40E6546BC4F854513057006829783A74C
:1041400004858346040F7146BC4F854513057006F0
:10415000829783A704858346040F7546BC4F854527
:1041600013057006829783A704858346040F79465A
:10417000BC4F93E60604854513057006829783A716
:1041800004858346040F7D46BC4F854513057006A4
:10419000829783A704858346940E1146BC4F8545BC
:1041A00013057006829783A704858346940E1546EF
:1041B000BC4F854513057006829783A70485834607
:1041C000A40E1946BC4F854513057006829783A738
:1041D00004858346A40E1D46BC4F85451305700615
:1041E000829783A704858346940E3146BC4F85454C
:1041F00013057006829783A704858346940E35467F
:10420000BC4F854513057006829783A704858346B6
:10421000A40E3946BC4F854513057006829783A7C7
:1042200004858346A40E2244B240924403A387052A
:104230003D4685451305700641010283411122C4A4
:1042400037B485408327048506C693062007BC4FF4
:10425000094685451305B006829783270485930692
:10426000C0030D46BC4F85451305B00682978327D2
:1042700004859306400F1146BC4F85451305B006D3
:1042800082978327048589461546BC4F85451305CB
:10429000B006829783270485930680081946BC4F91
:1042A00085451305B0068297832704859306700B16
:1042B0001D46BC4F85451305B006829783270485AC
:1042C000930610082146BC4F85451305B00682971A
:1042D00083270485930680060146BC4F8545130558
:1042E0002006829783270485930680021146BC4FDF
:1042F000854513052006829783270485374781402B
:104300008346271FBC4F3D468545130520068297EF
:1043100083270485930640042D46BC4F854513052D
:1043200020068297832704852244B24003A3870591
:104330009306600209468545130570064101028314
:1043400039714AD837B985408327098506DE22DCD2
:10435000DC5B26DA02C0231201002303010002C441
:10436000231601002307010002C8231A0100230BB2
:10437000010002CC231E0100230F010002D02312F2
:1043800001022303010202D42316010223070102C2
:104390008297B7776B6B9387B7B63EC09D6793875D
:1043A000B7B62312F1009307B0062303F100B70755
:1043B0000405938727303EC4930760702316F100ED
:1043C000A1472307F100B747F402938727C73EC8E8
:1043D000ED7793878778231AF100930710F8230B62
:1043E000F1008D67938787862314F102B7478140D8
:1043F00083C7271F1305B00637040B602305F1029E
:10440000B7676262938727263ECC99679387777652
:10441000231EF10093077006230FF100B7070F0B5F
:10442000938707403ED0930720202312F10289474B
:104430002303F10293074004A305F10289679387E0
:1044400067622316F102930760022307F1028327B4
:104450000985BC438297B7071000C1177D8DB70748
:10446000020003270482C1177D8D81779384F700B2
:10447000658F598D2320A4823C1018103408100831
:104480002C000A8581481D4897D07FFFE780C0E552
:10449000832704820967130707F0E58FD98F23204C
:1044A000F482832709859C5F8297F2506254D2542C
:1044B000425921618280411122C426C23744814081
:1044C000B7B4854006C683A704851304C40515C97F
:1044D00003A80706094789478D46114681451305FC
:1044E0006006029883A7048511468145BC4B1305DD
:1044F000600682972305A404B240224492444101FD
:1045000082808346A4042244B240924403A38705D8
:10451000114681451305600641010283397106DEAB
:1045200022DC26DA4AD84ED652D456D25AD05ECEA3
:1045300062CC66CAAA8CAE8483AB0500C177B3FB9C
:10454000FB0003AA4500337AFA0003ACC500337CB4
:10455000FC0083AA0501B3FAFA0001498147014B27
:104560006144A5A883A7018489CFEF50D043AA85D1
:10457000A286138601DC138581DC97C07FFFE7806C
:10458000E0AA97808301E780C03011C703A70184A8
:10459000894763E3E70EA247D8446384E71698404F
:1045A0006389E716370780BF3E97B7060800636840
:1045B000D700370700B0BA97116763F3E700050922
:1045C000B247A29713848700B75785409387C712D5
:1045D00083C7170063872715CE87938917003D4748
:1045E000636FF702854621462C002285EFC0E00E5E
:1045F00035F92247B70700BEBA97B7060001E3E6D0
:10460000D7F8B70780BFBA97B7060800E3EFD7F629
:104610002DDFB70700B0BA979166E3E8D7F6638C51
:104620000910C1476389F910014597C07FFFE780F2
:10463000E0A40945EF90C02463810C1202C25C0023
:10464000D848D686628685456685EF80C06D5C0059
:104650009844D2865E8685456685EF80C06CDC48CE
:10466000E297FD1737070042636CEC0E37070043F3
:1046700063E5E7128147F5A0EF50F032AA85A24723
:10468000370700BE3E97B70600016360D702B70642
:1046900080BFBE963706080063E9C60099C7B70613
:1046A00000B0BE96116663F6C602B70680BFBE961E
:1046B0003706080063E2C602B7060001636DD70241
:1046C000370700B03E979166637AD702938641DB45
:1046D00031A0938641DA19A09386C1D93248C288A5
:1046E00013078400138601DC138581DF97C07FFFE9
:1046F000E780C0934DB5938681DACDB7938601DB11
:10470000F1BF930A840023A854014177B3FAEA0069
:1047100079B5130A840023A244014177337AEA0071
:1047200051B5E31B0BEA9347F4FFBD8BA2971384AB
:104730001700054B55B583A7018481CFEF50B026F4
:10474000AA85138601DC138501E397C07FFFE7800C
:10475000E08D97808301E780C013EF80E055F9BDBD
:10476000814713F6170037870C6054431346F6FF52
:10477000F18E54C38983544393C7F7FFF58F5CC30D
:104780009C44DE97FD173707004263EAEB003707CA
:10479000004363E3E706814721A0A547D9B78147D6
:1047A00013F6170037870C6054431346F6FFF18E5B
:1047B00054C38983544393C7F7FFF58F5CC30945FE
:1047C000EF90E00D8844C167FD173E9541810A05D1
:1047D00093050040898D97C07FFFE78020EDF25060
:1047E0006254D2544259B259225A925A025BF24B45
:1047F000624CD24C21618280A5475DB7411106C64B
:1048000097C2FFFF9382028073905230F377043097
:104810009701010093810120EF10C03DEF00407A25
:104820001DE5B7258140938545100145EFF01FCF69
:10483000EF0030180145EF00807803A70184894715
:1048400063E9E702EFB05FA0B2404101828083A735
:10485000018481CFEF503015AA85138601DC1385C2
:1048600041E597B07FFFE780607C97808301E78018
:104870004002EF505013AA8583A601EAA98213864D
:1048800001DC1385C1E797B07FFFE780207A5DBF29
:10489000411106C622C4EFC0602DEFC0602019E9A7
:1048A000EFB09FF797808201E7804080B2402244BA
:1048B000410182802A8483A7018489CFEF50B00E02
:1048C000AA85A286138641EA138501EB97B07FFF84
:1048D000E780C07597808301E780A0FB411106C681
:1048E0008146014681451305A007EFD06FB3B70796
:1048F000884003A5C7FE97C07FFFE780A081B24034
:1049000041018280411106C622C426C2AA8483477F
:104910003500BD8B0947638DE7046365F704A1CFBC
:104920000547639DE704138441EE03A7018489478B
:1049300063ECE704B72700609847B7070001F98FD9
:10494000ADE3B7071000F98FC1E3B7078000F98F17
:10495000BDEF9167F98FBDEF89677D8F3DCF1384E0
:1049600041F191A03D47639EE700138441EF75BF7D
:104970001384C1EE5DBF1384C1ED45BF1384C1EE46
:104980006DB71384C1EE55B7EF50F001AA85A2862A
:10499000138641EA138541F497B07FFFE7800069F1
:1049A00051BF1384C1EF03A70184894763EAE7027B
:1049B00083C73400918311476366F7068A0713871C
:1049C00041FABA979C438287138401F0E9BF1384AC
:1049D00081F0D1BF1384C1F0F9B7138401F2E1B7BC
:1049E000EF50607CAA85A286138641EA138541F6C2
:1049F00097B07FFFE780806365BF1384C1F203A790
:104A00000184894763E3E702B240224492444101B2
:104A10008280138441F3E5B7138481F3CDB7138407
:104A2000C1F3F1BF138401F3D9BFEF50C077AA855A
:104A3000A286138641EA138541F897B07FFFE7808D
:104A4000E05ED9B7011106CE834735009183114747
:104A50006360F7068A07138781FBBA979C438287B6
:104A600085473EC60945EF80B061B707884003A57A
:104A7000C7FEB245C167FD17130700108566416682
:104A8000D205084197B07FFFE780C06D0945EF80F0
:104A90001061F2400561828089473EC6E1B79147C7
:104AA0003EC6C9B7A1473EC675BFC1473EC65DBF3A
:104AB00089473EC645BF411106C622C4B707884094
:104AC00003A4C7FEEFD02FB008C0B240224441017A
:104AD0008280B7270060984F1367070C98CF984BD8
:104AE0001377F7C198CB984B019B98CB82804111EB
:104AF00006C622C42A84AA85754597C07FFFE78031
:104B0000A0C0A285654597C07FFFE780E0BFA28572
:104B1000794597C07FFFE78020BFA285614597C098
:104B20007FFFE78060BEA285714597C07FFFE78069
:104B3000A0BDA285694597C07FFFE780E0BCB24079
:104B4000224441018280411106C605454D37513747
:104B5000B24041018280411106C622C4ED37EFF018
:104B6000FFD7EFD06F8D375485401307C4128347AA
:104B7000370093E7F700A301F7001305C412EFF025
:104B80007FD81305C412EFF0FFEBEFB0B040014542
:104B9000B240224441018280411106C697B07FFF96
:104BA000E7808049014597B07FFFE780204DEF7097
:104BB0006018EF609054716613060620B7470F0027
:104BC00093870724B305F5020145EFC06FB9B240E2
:104BD00041018280011106CE22CC26CA4AC84EC6A7
:104BE00052C456C22A840347C5008347D500A20792
:104BF000D98F35476383E70483A7018499EB6D550B
:104C0000F2406244D2444249B249224A924A056182
:104C10008280EF504059AA850347C4008347D400DF
:104C2000A2075D8FB5461386C1FC138581FD97B041
:104C30007FFFE780A03F6D55E1B7AE84EFC01FB4A2
:104C4000AA8993074006B35AF502337AF50203475F
:104C5000F40083470401A20733E9E700854763F4C2
:104C60009700014571BF637C250383A7018499E305
:104C70007D553DA0EF502053AA85930640065288EB
:104C8000D6873377D902B356D9021386C1FC138570
:104C9000C10097B07FFFE78060397D5511A00145C5
:104CA0008547E39FF4F4834714010344240122045D
:104CB0005D8CC167FD17E305F4F439D0E37234F578
:104CC000B7170B6093870780BC43858B95FB83A741
:104CD000018499E37D552DB7EF50E04CAA859306EA
:104CE00040065288D6873377D402B356D40213864F
:104CF000C1FC1385010597B07FFFE78020337D5508
:104D000001B7411106C603A70184894763EAE7009A
:104D100003A70184894763E1E702B2404101828031
:104D2000EF506048AA851386C1FC1385410997B0EE
:104D30007FFFE780A02FE9BFEF50E046AA851386EA
:104D4000C1FC1385010B97B07FFFE780202EF1B7E0
:104D5000411106C685466146B75585409385C51203
:104D60000145EFB0901701E5B2404101828083A771
:104D7000018499E36D55CDBFEF50E042AA851386BB
:104D8000C1FC1385010E97B07FFFE780202ADDB7B5
:104D9000011106CE02C4B7270B60938707C03EC639
:104DA000280097B07FFFE780E05F8145280097B03B
:104DB0007FFFE780A060280097B07FFFE780C05E9C
:104DC00085473EC0B7870060938707003EC20A85CB
:104DD00097B07FFFE780005D81450A8597B07FFF30
:104DE000E780C05D0A8597B07FFFE780E05BF24017
:104DF00005618280411106C622C426C2EFC01F98F9
:104E000093074006B354F5023374F50203A70184F7
:104E1000894763EFE7008145375585401305C51283
:104E2000EFF05FDB05E5B24022449244410182800D
:104E3000EF506037AA852287A6861386C1FC1385AA
:104E4000411197B07FFFE780601EF1B77D55E1BF4C
:104E5000011106CEB767096093870700D84F3AC69D
:104E60003247C1769386F60F758F9366075036C624
:104E70003247D8CF8145054597B07FFFE7800030A6
:104E80008545054597B07FFFE780402F8545014563
:104E900097B07FFFE78000348545054597B07FFFD9
:104EA000E7804033B7F70A60984F1367470098CF01
:104EB000984B1367170098CBF2400561828009C9AF
:104EC00037370B608327C7C0ED9B2326F7C082804E
:104ED000411106C697808301E780609237370B60E7
:104EE0008327C7C0F59B2326F7C009C9832747C07E
:104EF000B7060080D58F2322F7C08280B7360B60BB
:104F000083A746C0370700807D17F98F23A2F6C01C
:104F10008280411106C605455D370545C137B2405F
:104F200041018280B7270B603747D850130717AA73
:104F300023A0E7C203A7C7C1B7060400558F23AE5D
:104F4000E7C023A007C28280B767096003A70710E4
:104F50001367170023A0E71003A70710759B23A072
:104F6000E710B7270C600D47F8C38280411106C6D1
:104F7000014597B07FFFE780600AA547630CF50005
:104F80006515A94763EDA70093073045B3D7A70080
:104F9000858B91C703A70184854763E6E7006D37DA
:104FA000B24041018280EF500020AA851386C1FCE7
:104FB0001385811397B07FFFE7804007CDB78280CC
:104FC000411106C622C4EFF0BFE8EFF09FF4EFF006
:104FD0007FF5B7470B6023A2078CB7A7096023A210
:104FE000078CB797096023A2070CEFC00009EFB048
:104FF000604CEFF07FBAEFF0DFD0EF801004EF707D
:10500000704DEFF05FABEFC05FDF15C52A8483A75B
:10501000018491E72285B240224441018280EF5011
:105020008018AA85138641161385C11697B07FFF95
:10503000E780C0FFC5B7EFF0BFD12A8461FDEFF074
:105040007FDB2A8461F9EFF01FB12A8461F5EFF06C
:10505000FFF1EFF0FFD3112075BF411106C6B7670E
:10506000096003A707081367270023A0E70803A721
:105070000708759B23A0E70803A7070813674700E5
:1050800023A0E70803A74708B7064000558F23A2CF
:10509000E70803A74708B706D0FFFD16758F23A2C0
:1050A000E70803A74708B716F0FFFD16758F23A280
:1050B000E708B7070B6003A74715B7060004558F2D
:1050C00023AAE71403A74715B7060008558F23AA9C
:1050D000E7148947014785461D468145130590061B
:1050E000EFB0DFDE85470D478D461D468145130530
:1050F0009006EFB0BFDD8547114791461D468145BB
:1051000013059006EFB09FDC8547194799461D4669
:10511000814513059006EFB07FDBA14701478D461F
:105120001146814513059006EFB05FDA93076006DC
:1051300001479D460D46814513059006EFB01FD9E6
:10514000A14701478D460546814513059006EFB0FE
:10515000FFD79307600601479D4601468145130529
:105160009006EFB0BFD6B7E700603757060098CF7C
:105170009843B786FCFFFD16758FA166558F98C3BF
:105180009843E1769386F607758F1367077898C37F
:10519000D843B71600FFFD16758FB7860C00558FE4
:1051A000D8C3D843B7060001558FD8C3B2404101D8
:1051B0008280411106C6B7E70060D843B70600FFFA
:1051C000FD16758FD8C3370700017D1798CF930759
:1051D000000601478D461146814513059006EFB044
:1051E000FFCE814701479D460D4681451305900638
:1051F000EFB0DFCD9307000601478D460546814598
:1052000013059006EFB09FCC814701479D460146AC
:10521000814513059006EFB07FCB81470147854656
:105220001D46814513059006EFB05FCA81470D47C3
:105230008D461D46814513059006EFB03FC9814755
:10524000114791461D46814513059006EFB01FC8D2
:105250008147194799461D46814513059006EFB0D1
:10526000FFC6B7060B6083A74615370700FC7D17FE
:10527000F98F23AAF614B76709603747400023A2C5
:10528000E708154723A0E708B240410182800000EB
:1052900023A21504A0C5E4C523A8250523AA350526
:1052A00023AC450523AE550523A0650723A275074A
:1052B00023A4850723A6950723A8A50723AAB50736
:1052C00023A0250423A0B50E032105040322850E87
:1052D00083204504204564450329050583294505A8
:1052E000032A8505832AC505032B0506832B45065E
:1052F000032C8506832CC506032D0507832D450742
:105300008280411106C697108201E78060297300F0
:10531000501097108201E780C028A14773A0073082
:10532000B2404101828001458280130505058280DB
:10533000C14763F3A7004145B7D781420A05938768
:10534000C773AA9788438280797106D622D426D261
:105350004AD04ECE52CC56CA0018AA89AE843289A1
:10536000732A2034B7070080FD17337AFA00B77725
:10537000814083A7C7809D8BADE7B777814083A726
:10538000C7809D8BF9CF5285EFF09FFA8A8A8547B7
:10539000230EF4FC8D47A30EF4FC79710A871306E3
:1053A000070121CEC94519CEAE86914763D7B70014
:1053B000B7D781429387473F5CCBA14763D4D700DF
:1053C000232C47018547230CF4FC8D47A30CF4FCE8
:1053D00029C6B14763D3B70048CF93060702814778
:1053E00015A8379680421306462C854537758140AF
:1053F0001305C580EF50207049B7B7050080FD1533
:105400005DB7138507FE2295034585FF2380A6001F
:10541000850785060545E376F5FEC54763D2B718CF
:10542000C9451DC29146230ED4FCA30E04FC230FD4
:1054300004FC8547A30FF4FC2308D700A30807004A
:1054400023090700A309F70093F5657FA60593E5F7
:1054500005048146377581401305C580EF50C06D46
:105460005681F3263034B777814083A7C7809D8B60
:10547000639A0712C5CCB777814083A7C7809D8BFD
:10548000639E0712B777814083A7C7809D8B639582
:105490000714B777814083A7C7809D8B639C07144F
:1054A000B777814083A7C7809D8B63930716B77733
:1054B000814083A7C7809D8B639A0716B777814089
:1054C00083A7C7809D8B63910718B777814083A717
:1054D000C7809D8B63980718B777814083A7C780E3
:1054E0009D8B639F0718B777814083A7C7809D8BEB
:1054F0006395071AB777814083A7C7809D8B639E0A
:10550000071AB777814083A7C7809D8B6394071CD8
:10551000B777814083A7C7809D8B639A071CB777B5
:10552000814083A7C7809D8B6390071E6303090694
:10553000B777814083A7C7809D8B6393071EB7779A
:10554000814083A7C7809D8B639C071EB7778140EE
:1055500083A7C7809D8B63950720B777814083A77A
:10556000C7809D8B639E0720B777814083A7C78044
:105570009D8B63970722B777814083A7C7809D8B58
:1055800063900724B777814083A7C7809D8B639979
:105590000724CA852685712BA6854E85EF00300528
:1055A000915541B537D681421306864085453775FA
:1055B00081401305C580EF5040556DBD9450D840D3
:1055C00037D68142130686418545377581401305DC
:1055D000C580EF50E0547DB5D450984437D6814211
:1055E000130646438545377581401305C580EF5046
:1055F000205345B59454D84437D681421306064506
:105600008545377581401305C580EF50605149BD10
:10561000D454984837D681421306C6468545377517
:1056200081401305C580EF50A04F51B59458D8481C
:1056300037D6814213068648854537758140130564
:10564000C580EF50E04D9DBDD458984C37D681426F
:105650001306464A8545377581401305C580EF50CE
:10566000204CA5B5945CD84C37D681421306064C25
:105670008545377581401305C580EF50604AA9BD47
:10568000D45C37D681421306C64D854537758140B7
:105690001305C580EF506047B9B52685EFF0FFC808
:1056A000AA8637D681421306C64E85453775814096
:1056B0001305C580EF50604535BD944037D6814213
:1056C0001306C64F8545377581401305C580EF50D9
:1056D000C04305BDB44037D681421306C650854548
:1056E000377581401305C580EF50204215B5F44051
:1056F00037D681421306C65185453775814013055B
:10570000C580EF50804021BD379680421306462C5D
:105710008545377581401305C580EF50C03D39B5CB
:10572000832689000327090237D681421306C65211
:105730008545377581401305C580EF50603E01B542
:105740008326C9000327490237D6814213068654AF
:105750008545377581401305C580EF50603CFDB32A
:10576000832609010327890237D68142130646564C
:105770008545377581401305C580EF50603AF1BB10
:10578000832649010327C90237D6814213060658EA
:105790008545377581401305C580EF506038E9B302
:1057A000832689010327090337D681421306C65988
:1057B0008545377581401305C580EF50603665BB60
:1057C0008326C9010327490337D681421306865B26
:1057D0008545377581401305C580EF5060345DB352
:1057E000379680421306462C854537758140130550
:1057F000C580EF50403071BB411106C60146EFF045
:10580000BFB4411106C622C42A84EFF0DFB111C132
:105810000945A285EFF05FFE411106C6F32620344C
:10582000B7070080FD17FD8EB777814083A7C7803B
:105830009D8B89E781450545EFF01FFC37D68142F6
:10584000130606788545377581401305C580EF50EE
:10585000C02BCDB7411106C622C42A84B285368634
:10586000A12E2285B240224441018280130606FB0C
:10587000419A14D258D21CD62326060389679387EF
:1058800007887CC2B7570242938787243CC230C145
:10589000B7078040938787207CC12320A50E828094
:1058A0001305A0F78280411106C622C426C22A84AD
:1058B0009304800013068000B73583429385057FEB
:1058C00097B07FFFE780C0BE130680008145330597
:1058D000940097B07FFFE78060BDB24022449244BD
:1058E00041018280411106C622C426C24AC02A89CB
:1058F00013048000930780003E94B384854026857E
:10590000EFF07FFA2324990E2285B240224492447C
:10591000024941018280937735008DE303A7050D8D
:1059200083A7450DBA97C19B6366E5006366F500E2
:105930000145828001458280054582800145828043
:1059400093773500A1E389CDB737854083A78734A6
:1059500081EB411106C6EFF01FFCB240410182808D
:1059600037A7814013070783856793870780BA9716
:105970006366E5006366F50001458280014582802B
:105980000545828001458280797106D622D426D2CF
:105990004AD04ECE52CC56CA5AC85EC662C466C2FF
:1059A000AA8B2E8CB28A368A3A8B91CA3685EFF052
:1059B000DF972A8403290A048149814C0DA891CFDD
:1059C00037378540130787341847130707046306E2
:1059D000F700804303A94700C5B70A8437698040B0
:1059E00013098998D1BF03290400A68C11049D478F
:1059F00063CD3703A2845286D6852285029B15C5C6
:105A000063F58C02B707004293870700E36DF9FC4A
:105A1000B7970A42938707C2E377F9FC2686CA85BF
:105A20006285829B19C185097DBFB2502254925470
:105A30000259F249624AD24A424BB24B224C924C32
:105A400045618280B777814083A7C7809D8BC5CF92
:105A5000011106CE22CC26CA0010032805009307A8
:105A600018001CC18A8479718A871387070151C77E
:105A7000D14605CB3685914863D8D800B7D8814246
:105A80009388887A23AA1701A14863D4A80023AC7D
:105A9000070131486353A800D0CF41466353A600A5
:105AA0008CD34D46635FD604D14515C39546230676
:105AB000D4FEA30604FE230704FEA30704FE2388E6
:105AC000D700A388070023890700A389070093F55F
:105AD000457FA60593E5050481463A8637758140E2
