:100000006F0000106F00C00F6F00800F6F00400F77
:100010006F00000F6F00C00E6F00800E6F00400E6B
:100020006F00000E6F00C00D6F00800D6F00400D5F
:100030006F00000D6F00C00C6F00800C6F00400C53
:100040006F00000C6F00C00B6F00800B6F00400B47
:100050006F00000B6F00C00A6F00800A6F00400A3B
:100060006F00000A6F00C0096F0080096F0040092F
:100070006F0000096F00C0086F0080086F00400823
:100080000000000000000000000000000000000070
:100090000000000000000000000000000000000060
:1000A0000000000000000000000000000000000050
:1000B0000000000000000000000000000000000040
:1000C0000000000000000000000000000000000030
:1000D0000000000000000000000000000000000020
:1000E0000000000000000000000000000000000010
:1000F0000000000000000000000000000000000000
:100100005D7116C21AC41EC672C876CA7ACC7ECE7B
:100110002AD02ED232D436D63AD83EDA42DC46DE67
:1001200006C0A2C41724010013044422F322103491
:1001300096C0F32300309EC2F322203493D2F20102
:10014000639E0204F3222034B7030080FD13B3F250
:1001500072002D43638962000A8597000000938036
:10016000600B6F30804E8642910296C0924263844B
:1001700002000D4511A002558A852644397122C41A
:1001800026C64AC84ECA52CC56CE5AD05ED262D487
:1001900066D66AD86EDA0A866F30401B03230400E5
:1001A0009303130023207400631703008A82032142
:1001B0004400411116C073252034B7020080FD129F
:1001C00033755500EF00000897E2000093828237F4
:1001D0000E05AA9203A5020003A34200E700030054
:1001E00083230400FD132320740063930302024160
:1001F0000C4441112EC013050000EF50400C824505
:10020000410119C5EF30000917240100130404143B
:100210008642964373901234739003302644924280
:100220002243B243424ED24E624FF24F0255925594
:100230002256B2564257D2576258F25882406161F4
:100240007300203082800000411106C6EFA0506D7F
:1002500097808001E7800038EF20E064EF30F057AE
:10026000411106C622C42A84A947630DF5001375FF
:10027000F40F970080FFE780A0DE0145B2402244E2
:10028000410182803545970080FFE78060DDC5B77A
:10029000BDC5014601438148B1A0B727814013176E
:1002A000260032970E079387871ABA9703A847024A
:1002B000C28711A0DC5395C7E38E07FF3727814023
:1002C00093162600B2968E061307871A369718578C
:1002D00058431843E300F7FE984FE31DA7FC3E8305
:1002E00085480506B727814083A7871AE367F6FA92
:1002F000638A0800832743019CC10145828013055E
:1003000020108280130550108280411106C622C43D
:100310002A841C4591C79C4381C74845829711E5B3
:1003200008401C419C4382970145B2402244410150
:100330008280411106C622C42E841C4599C7DC4325
:1003400089C74845829711E02A842285B240224419
:1003500041018280011106CE22CC26CA4AC84EC66F
:10036000AA842E84B6893A8901EAB7E7804083A738
:1003700047019C4382970DE988401C41FC4391C78B
:100380004A86CE85829711E02A84B7E7804083A70A
:100390004701DC43A28526858297F2406244D2441D
:1003A0004249B2490561828011E02A842285F5B76D
:1003B0005C4199C30545828001458280AA87084136
:1003C00009C9411106C6ED3711CD0145B2404101C1
:1003D0008280372781400325878988C37DF119658D
:1003E0000D05828019650D05D5B7011106CE22CC09
:1003F00026CA4AC84EC6AA8483298501B7D7804039
:1004000003A907DF21A81109B7E7804083A74701A7
:10041000DC43A285268582972A8439E103240900DA
:100420001DC42685713705E5C0C0B7E7804083A7A6
:1004300047019C43268582972A841DE1DC409C4726
:10044000CE852685829761D123A204006DBF2685C3
:10045000853721C103A70181894763EBE700014488
:100460002285F2406244D2444249B2490561828009
:10047000EF503052AA85DC40944337E680401306A3
:1004800086021385015F970080FFE78020BA014450
:10049000C1BF13045010E9B7797106D622D426D211
:1004A0004AD04ECE52CC2A84AE84B28911372A89E2
:1004B000B7E7804083A747019C432285829729E9BB
:1004C000630909005C4003A9070663040900228A46
:1004D00039A0032A040083270A0003A98700A68500
:1004E00052850299AA85638E090001ED6C00528540
:1004F0000299AA8519E59840B2476304F700996507
:100500008D05B7E7804083A74701DC4322858297AA
:10051000B250225492540259F249624A4561828093
:10052000797106D622D42AC62E84B7E7804083A7E5
:1005300047019C476800829731E132455C419C4B02
:10054000B1C321C4B7E7804083A747019C4382978A
:1005500015E532455C419C4B6C088297AA8501E900
:10056000B247D84B19E37247D8CBF2471CC0B7E764
:10057000804083A74701DC4332458297B250225422
:100580004561828019651505D5BF13052010FDB79B
:10059000797106D622D426D24AD04ECE630E0518E3
:1005A0002A891C41638D07189843630D0718DC43A3
:1005B000638D07188329050102C6BD4763FD370512
:1005C000B707884083A7C7FE9C433EC6B247232C8B
:1005D000F9004A85F13B09E54A85013D2A8461E934
:1005E0002C004A85353F2A8429E983274900FC5B92
:1005F000B5C74A85829709893DE52247B7070001BB
:1006000063F3E70603A70181854763E8E70CB707B3
:1006100000013EC489A8A94411A0BE846C004A858B
:10062000EFA0B0202A8499678D076316F5009387A1
:10063000F4FFE34490FE59D89DA883A70181A5CB80
:10064000EF503035AA8537E68040130686021385C1
:100650000161970080FFE780609D91A803A7018159
:10066000854763EEE70403A70181894763E5E7084F
:10067000B7E7804083A747019C434A8582972A8435
:100680001DE5BD4763EC370183274900BC4F4A8510
:100690008297930780106309F5082A84B7E78040A2
:1006A00083A74701DC43A2854A8582972A84228555
:1006B000B250225492540259F24945618280EF505F
:1006C000502DAA8537E68040130686021385816F78
:1006D000970080FFE780809579B7EF50902BAA852F
:1006E00037E680401306860213854163970080FF3A
:1006F000E780C09329BFEF50D029AA8503270901BD
:1007000093172700BA978607B7E680409386C6D529
:10071000BE9637E68040130686021385016A97006D
:1007200080FFE780A090A9B783270901F11705474B
:10073000E366F7F62A849DB7130420108DBF1304D7
:100740002010B5B7130420109DB71304201085B7EF
:10075000011106CE22CC26CAAA842E8423A005002D
:1007600002C66C00353619C50145F2406244D244D8
:100770000561828002C4B247858B99CB38008946D7
:100780000546A685EF703069A2471CC00545F1BF3C
:10079000380085460546A6850145EF70D067EDB760
:1007A000797106D622D426D24AD04ECE52CC417789
:1007B000B379E500330535412E95C167FD1733093F
:1007C000F5003379E9004E84014A29A8014A52858F
:1007D000B250225492540259F249624A45618280D1
:1007E000C1673E94B3872901E373F4FEB7078840DD
:1007F00083A7C7FEDC43E37BF4FC02C66C002285C2
:10080000813FAA8471DD324561DDC165EF80B00FA3
:10081000268AF9B7411106C622C426C24AC001443D
:100820000149814409A8814705473317A700336967
:10083000E900DD8C0504954763E287022285EFA07D
:10084000E07C9307F003E3E7A7FE130705FEE34C04
:1008500007FC8547B397E7000147D1BF4A85A685C6
:10086000EFA0700FB24022449244024941018280BD
:10087000411106C62E8597F07FFFE780A07C0145D9
:10088000B24041018280411106C60945EF80500502
:100890000145B24041018280411106C60945EF8001
:1008A00050020145B24041018280014582804111E0
:1008B00006C622C426C24AC02E8432892E85EF5035
:1008C000C077954701A805800D0471982285EF50E7
:1008D000C076A68709E59384F7FF91C36DF409C933
:1008E00023208900B240224492440249410182807F
:1008F0000144FDB7411106C622C42A84EF5040448A
:1009000081473387A5006365A7043E9795473377F2
:10091000F7023307E5403335E500B387A540B7D686
:10092000CCCC1386D6CCB387C7029386C6CCB3068D
:10093000D702B697B306C7023337C702BA97FE0786
:1009400013D716005D8F18C4B24022444101828043
:10095000854765BF411106C622C42A84B727814056
:1009600083C7C78F89C705458145EF40503422852D
:1009700051370145B24022444101828099E519C2B4
:1009800023200600130570108280411106C697903F
:100990008001E78040CB411106C62E85EF5060688C
:1009A000B24041018280411106C62E8597F07FFF3B
:1009B000E78040690145B24041018280411106C68D
:1009C000EF005020B24041018280411106C601452E
:1009D000F5370145B24041018280411106C6EF0062
:1009E000301CB24041018280411106C60145F537F5
:1009F0000145B24041018280411106C6EF60900579
:100A0000B7470F00938707243305F502B240410131
:100A100082809DC11C4198435C4B85899396A500BB
:100A200093F7F7BFD58F5CCB1C4198435C4BA60571
:100A300093F7F7DFCD8F5CCB828099C51C4198433B
:100A40005C4B93E7F71F5CCB82801C419C43D843EF
:100A500085891396D501B70600E0FD16758F518F75
:100A6000D8C3D84313969501B70600FEFD16758FBF
:100A7000518FD8C3D8431396A501B70600FCFD16C5
:100A8000758F518FD8C3D8431396B501B70600F8B8
:100A9000FD16758F518FD8C3D8431396C501B7067D
:100AA00000F0FD16758F518FD8C31C419443DC4272
:100AB000FA05370700C07D17F98FCD8FDCC2828021
:100AC0001C419443DC4A85891396150101777D17F3
:100AD000F98FD18FDCCA1C419443DC4ACA05370721
:100AE000FCFF7D17F98FCD8FDCCA82801C419443B7
:100AF000DC42858913967501370780FF7D17F98FD2
:100B0000D18FDCC21C419443DC42E205370700FF71
:100B10007D17F98FCD8FDCC282801C41D8431C4FDA
:100B200085898605F59BCD8F1CCF82801C41D843DB
:100B30001C4F85898A05ED9BCD8F1CCF82801C417F
:100B40009443DC428589DA053707C0FF7D17F98FAA
:100B5000CD8FDCC282801C419443DC421396F501A8
:100B6000370700807D17F98FD18FDCC21C41944379
:100B7000DC428589D6053707E0FF7D17F98FCD8FD9
:100B8000DCC28280411106C60841EF00607AB240A3
:100B900041018280411106C60841EF00E076B24073
:100BA0004101828001159D4763E8A7020A059387EA
:100BB00081103E951C4182870545828011458280C7
:100BC0001305400382801305401C828013054034C6
:100BD0008280130500048280411106C6979080012F
:100BE000E78060A6214582802D458280011106CED6
:100BF00022CC26CA4AC84EC6AA892E84F37704306E
:100C00005CC18144014919A0058085041DC4937706
:100C10001400FDDB93973400CE97039987001307E8
:100C200019002394E700E31109FE93973400CE974F
:100C3000DC4785454E858297C1BF83A74900A18BBC
:100C400073A0073063490900F2406244D24442492C
:100C5000B2490561828097908001E780C09E0111B2
:100C600006CE22CC26CA4AC84EC6AA892E84F3775D
:100C700004305CC10149814419A0058005091DC4E7
:100C800093771400FDDB93173900CE978394870088
:100C9000FD14C204C18423949700E5F09317390032
:100CA000CE97DC4781454E858297C1BF83A7490017
:100CB000A18B73A0073063C90400F2406244D244A0
:100CC0004249B2490561828097908001E780A097F0
:100CD00037E580401305851A8280411106C622C47B
:100CE00026C2FD37F37704305CC1014425A0CD371F
:100CF000A2850841792BAA84E13FB7E7804013170A
:100D0000240093870718BA979043458EA28508411F
:100D100069290504A547E3DC87FC5D3F5C41A18BA5
:100D200073A00730B24022449244410182804111B5
:100D300006C622C4130705FE9D4763EEE7002A841A
:100D4000693F228585352A846137A2854535B240C1
:100D500022444101828097908001E780C08E41113A
:100D600006C622C4130705FE9D4763EBE7001D3D41
:100D70002A84B93FA285E535B240224441018280F0
:100D800097908001E780208C82808280411106C686
:100D900022C4737404309924218873200430B24033
:100DA000224441018280411106C622C4737404307A
:100DB0006D24218873200430B24022444101828096
:100DC000411106C622C473740430C52421887320DF
:100DD0000430B24022444101828037E5804013054F
:100DE00005238280011106CE22CC26CA4AC8AE84D1
:100DF000328911CD85476307F50037140B60130462
:100E0000044011A8371400601304040029A037041B
:100E10000060130404006303090C935649019317FF
:100E2000C90033862741B3B7C7009D8E3385C40000
:100E3000B3379500B697B335A000FD177D15BE9565
:100E4000970080FFE780C0B81307F5FF9307F00F06
:100E500063E6E70892043309A90233D624039357C3
:100E600046008566FD16F58FC207C1835848F58F89
:100E7000FD76758FD98F5CC85C483D8A520637076E
:100E800010FF7D17F98FD18F5CC8B7170B60938760
:100E90000740630BF404B7070060938707006309FA
:100EA000F40437670960130707001C4B3EC67D1525
:100EB000B2471375F50F3205B716F0FFFD16F58F23
:100EC000C98F3EC6B2471CCB8327840993E717001E
:100ED000232CF40883278409858BEDFFF2406244BC
:100EE000D24442490561828097808001E780407842
:100EF000B766096093860600DC423EC41307F5FF1F
:100F0000A2471377F70F32073716F0FF7D16F18FE0
:100F1000D98F3EC4A247DCC245BFB7F70A60984FDD
:100F20001367470098CF984B1367170098CB1305AA
:100F3000F5F91377F50FB14763EEE70813152700AE
:100F4000B7E78040938707FE3E951C4182873707AD
:100F50000B600325078213750520B70700019387EF
:100F6000F7F7232EF78085A837070B600325078244
:100F700013750510B70700019387F7FB232EF78041
:100F800099A837070B600325078285677D8DB70712
:100F900000019387F7BF232EF78035A837070B6032
:100FA0000325078213750540B70700019387F7EF04
:100FB000232EF7800DA037070B6003250782856776
:100FC000938707807D8DB70700019387F7DF232E76
:100FD000F78011A00145133515008280011106CE5E
:100FE00022CC26CA4AC84EC63384E6409D4763C217
:100FF00087062A89B289BA840D37B7C70218938742
:1010000007E0AA978A078C4337080002B3F5050169
:10101000EDF5A2093369390123A027019043B705F3
:1010200000026D8E65FE884341811375F50F3355BF
:1010300095000504FD57B397870093C7F7FF93F713
:10104000F70F7D8DF2406244D2444249B2490561B6
:10105000828097808001E780005F411106C622C42C
:1010600026C24AC02A843289B684453DB7C70218D1
:10107000938707E0AA978A079843B70500026D8F08
:1010800075F7220933642401C204458C3707000137
:10109000598C80C39843B7060002758F65FFB24034
:1010A00022449244024941018280011106CE22CCA1
:1010B00026CA4AC84EC652C456C23E84B389E640C8
:1010C0009D4763C1370BAA8A328AB6843A89B13503
:1010D000B7C50218938505E0AA958A0503A80500FF
:1010E000B70700023378F800E31408FE220A33EA57
:1010F0004A0123A0450103A80500B7070002337881
:10110000F800E31A08FE9441C18293F6F60FFD57EA
:10111000339727011347F7FF8504B3949700458F52
:10112000758F8509B397370193C7F7FFE18FB397A1
:101130002701D98FC2073707FF00F98FB3E74701AF
:1011400037070001D98F9CC19C4137070002F98FF6
:10115000E5FFF2406244D2444249B249224A924AEF
:101160000561828097808001E780E04D411106C6CD
:1011700022C4EF706024930740063304F502EF7039
:10118000A0242295B240224441018280B7170B600F
:1011900093870780A84B7981130740063305E50242
:1011A000BC4BED839D8B3E958280A54763E2B70ED5
:1011B0008A0593870107BE959C4182871441DC46CE
:1011C0007206370700107D17F98F5D8ED0C68280BA
:1011D0001441DC463D8A6206370700F17D17F98F1E
:1011E000D18FDCC682801441DC463D8A5206370727
:1011F00010FF7D17F98FD18FDCC682801441DC4649
:101200003D8A42063707F1FF7D17F98FD18FDCC683
:1012100082801441DC463D8A320645777D17F98F7E
:10122000D18FDCC682801441DC463D8A22067D7760
:101230001307F70FF98FD18FDCC6828054419C527F
:101240007206370700107D17F98F5D8E90D282806D
:1012500054419C523D8A6206370700F17D17F98F91
:10126000D18F9CD2828054419C523D8A52063707CE
:1012700010FF7D17F98FD18F9CD2828054419C52F0
:101280003D8A42063707F1FF7D17F98FD18F9CD237
:101290008280A54763E8B7068A0593878109BE95D2
:1012A0009C4182871C41C847718182801C41C8478C
:1012B00061813D8982801C41C84751813D8982807E
:1012C0001C41C84741813D8982801C41C84731810A
:1012D0003D8982801C41C84721813D8982805C41D3
:1012E0008853718182805C41885361813D8982800D
:1012F0005C41885351813D8982805C4188534181A2
:101300003D898280014582809DC11441DC4A8589E6
:101310001396050141777D17F98FD18FDCCA1441EF
:10132000DC4AB60579777D17F98FCD8FDCCA8280CC
:101330009DC11441DC4A85891396F50061777D17BC
:10134000F98FD18FDCCA1441DC4ABA0571777D1759
:10135000F98FCD8FDCCA82804111B7E7804083A727
:101360008726944B37070010558F98CBD84B3AC639
:1013700032459C4F3EC4A245C205C18141018280D5
:10138000411106C60945EF70D053B2404101828039
:10139000411106C60945EF70B054B2404101828048
:1013A000411106C673770430B727814023A2E78C2A
:1013B0009923B72581409385858C0145D137B2406B
:1013C00041018280411106C6B727814083A5878CE1
:1013D00001457D3F692BB727814083A7478CA18BAF
:1013E00073A00730B2404101828013570501137783
:1013F000F70F9357850093F7F70F1375F50F9306C3
:1014000000026312D70413070004638CE70013077C
:101410001004638EE700130700056380E7020145AF
:1014200082803515B54763F2A702014582802515F4
:10143000A54763FEA700014582802D15854763FA05
:10144000A7000145828001458280054582800545CF
:10145000828005458280411106C69308000263E33D
:10146000E8189308000263E30819B738006093880E
:10147000080083AE880003AE880103A3C801370FBC
:10148000200023A4E80103AF8801B70F0080336F69
:10149000FF0123ACE80103AF0802B70F0010FD1FE6
:1014A000337FFF01B70F0070336FFF0123A0E80304
:1014B00003AF0802C17F337FFF013365AF0023A074
:1014C000A80203A58801333FB0007A0FB70F00C010
:1014D000FD1F3375F5013365E50123ACA800FD154B
:1014E00003A5C801EA05370F00047D1F3375E50128
:1014F000C98D23AEB80023A2C80036866309080050
:10150000370688400326C6FE034696013696B73650
:101510000060938606008C4E3335C0007605B70810
:1015200000E0FD18B3F51501C98D8CCE7D16CC4EAB
:101530001376F60393F505FC4D8ED0CE904EB33561
:10154000E000EE05370500F87D15698E4D8E90CED2
:1015500055C37D171377F73FB736006093860600B3
:10156000D052137606C0518FD8D2BCCE9C4E3337A2
:1015700000017207370600F07D16F18FD98F9CCEDF
:10158000630C08061307F8FF1377F73FB7370060BF
:1015900093870700945793F606C0558F98D79843C2
:1015A000B7060400558F98C3B737006083A70700BC
:1015B000C983858BF5FBB73700609387070023A4A9
:1015C000D70123ACC70123AE6700A84FFD4763E8EE
:1015D0000701FD57B397070193C7F7FF7D8DB24011
:1015E0004101828097808001E780E005978080013B
:1015F000E780600501478DB7014749BF411106C625
:10160000AE8732873688814601468145A935B2408A
:1016100041018280011106CE22CC26CA4AC84EC69C
:1016200052C4370488400325C4FE97F07FFFE7804B
:1016300060AE8327C4FE98439357070193F7F70FD3
:101640009306D0096389D7049306200C6385D704D9
:101650009306800C6381D706A14601468145154556
:10166000713F131405014180A146014681451305D0
:1016700050036937220542054181498C9374042047
:10168000414A01498149631A94068147639B2909AC
:101690006389070C55A8A146014681451545B93F08
:1016A000131405014180937434F4C204C180214AAB
:1016B00001498149C9BF9357870093F7F70F9306F4
:1016C0000004E39BD7F81377F70FD547E3F6E7F865
:1016D000A146014681451545153713140501418082
:1016E000A1460146814513055003093F9379F50F43
:1016F00013792500214A814479B7B707884003A5AB
:10170000C7FE97F07FFFE780E0A081460146814554
:101710001945ED3581465286A6850545C53585476F
:10172000B5B7B707884003A5C7FE97F07FFFE780EE
:10173000609E8146014681451945C935814621464D
:10174000CA85130510035D3DB707884003A5C7FE92
:1017500097F07FFFE780009C814601468145114557
:10176000713D0145F2406244D2444249B249224AA5
:1017700005618280411106C6914763E0B7022A865F
:101780008E0513F8850F81470147A146E1451305F2
:10179000A005D131B2404101828097808001E7806D
:1017A00080EA411106C6E146014681451305F0096C
:1017B000B135931705013707FF00F98F135705015E
:1017C0001377F70FD98F4167130707F0798D5D8D78
:1017D000B24041018280411106C622C426C2B70729
:1017E000884083A7C7FE8843093119C50145B24027
:1017F000224492444101828085454145A53F1375AD
:10180000F50F930700026316F50A03A701818947C4
:1018100063E2E7068146014681451305900BF93BDB
:1018200081460146814513059007C93B8146014623
:1018300081451305F00FD9331305007D97F07FFF25
:10184000E78040808146014681451305B00A7D331B
:10185000514597E07FFFE780E07E3704884083248E
:10186000C4FE813788C08327C4FE8843BD3E05C1BE
:101870000145B5BFB7E580409385C52A37E580406F
:101880001305C52897E07FFFE780407A61B783A7FB
:10189000018199E37D55A1BFB7E580409385C52AB5
:1018A00037E580401305C52697E07FFFE780007885
:1018B000D5B701452DBF411106C622C426C24041FD
:1018C000F374043029A05C4408488297404801CC56
:1018D00083570400858BFDFB5C40F5D79C4318447F
:1018E000F98FEDD7CDB7A18873A00430B240224460
:1018F000924441018280011106CE22CC26CA4AC8F8
:101900004EC673790430B727814003A4C78DB7272B
:10191000814083C7478DA1EBB72781400547238AC4
:10192000E78CB717002083A90700F37404302285E1
:1019300097F07FFFE78040DFA188F3A404300145E2
:10194000EFF08FC433743401B727814023AC878C08
:101950001379890073200930F2406244D24442492D
:10196000B2490561828097808001E78060D0411193
:1019700006C622C426C2F3740430B727814003A5EB
:10198000878DB727814083C7478D8DCBB72781408F
:10199000238A078C7374043097F07FFFE78080D828
:1019A0002188732404300145EFF02FBEA18873A075
:1019B0000430B240224492444101828097808001E9
:1019C000E78000CB45C9411106C622C473740430B8
:1019D0005C41B5C303D70700136717002390E700E6
:1019E0005C4194439E06C206C186A186B6851C4111
:1019F000D84311E797808001E780E0C4584B11CFAE
:101A00001C439E07C207C187A187E399F6FE83574F
:101A10000700858BE5F7814711A0854763C3050261
:101A20008DCF1C4103D527001946058997F07FFF0C
:101A3000E78040D01DA01C418C438A05E185854785
:101A4000F1BF184183572700858B85E30843458103
:101A50007D8997A08001E78020B52188732004301C
:101A60000145B24022444101828021887320043024
:101A70002955C5BF295582805C411449D84709E7DB
:101A8000DC43F04FF0C711E28280411106C6AA85FF
:101A90001385460097B08001E780403AB24041018B
:101AA0008280411106C637B5804213058542E93769
:101AB000B24041018280011106CE22CC26CA4AC81A
:101AC0004EC652C42E89B284032A45000327CA0099
:101AD0008547630CF70801444A94B7070080FD1757
:101AE000B3D78700858BD1CBF3790430F94763E115
:101AF0008702B77780421317240093878779BA97B4
:101B0000884363470500854597B08001E780402101
:101B1000F94763E18708B77780421317240093875A
:101B2000C771BA978545884397B08001E780A01BAD
:101B300093F70401C1CBB74702188507A2978A071C
:101B400098431367071098C393F72400F1C393F7E2
:101B50004400CDC383274A001307C4010A07BA977C
:101B6000D84313674700D8C36DA8FD4763F4B70097
:101B700001449DB71304000285B7378680421306DF
:101B8000067D854537E580401305856EEF40307A48
:101B900029550DA0378680421306067F854537E517
:101BA00080401305856EEF409078295593F98900A0
:101BB00073A00930F2406244D2444249B249224AF9
:101BC00005618280B547630CF400B74702188507AA
:101BD000A2978A0798431377F7EF98C3B5B7B7F77B
:101BE0000060984F1367071098CF984F1377F7DF6F
:101BF00098CFE1BF3796804213060680854537E5CA
:101C000080401305856EEF4090721305A0F779BFF1
:101C100083274A001307C4010A07BA97D8436D9B6C
:101C2000D8C393F7040295CFB74702188507A29748
:101C30008A0798431367070898C3B7070200E58F20
:101C4000F9C7B7070080FD17B3D72701858B85C774
:101C500093F7046095CF130700606385E708295563
:101C6000B1B7B74702188507A2978A079843137739
:101C7000F7F798C3D9B73796804213064682854551
:101C800037E580401305856EEF40706A295539BFEE
:101C9000B74702188507A2978A079843FD7693866F
:101CA000F63F758F8566938606C0558F98C30549A4
:101CB00033198900B71709609387070023A2270308
:101CC0008146014693050008228597F07FFFE78053
:101CD00020A1B7070800E58F95C383274A0023A4F6
:101CE000270191A8B74702188507A2978A0798434A
:101CF000FD769386F63F758F98C355BFB7070400EE
:101D0000E58F95CB83274A0023A627012DA0856761
:101D1000E58F95E3054733178700B7170960938769
:101D2000070098D7B747021893875755A2978A0795
:101D30001307000898C3C167E58F81CFB747021822
:101D40008507A2978A0798431367072098C3014520
:101D5000B1BD8967FD8C81ECB747021885073E94B9
:101D60000A041C4093F7F7DF1CC0014581B501450B
:101D700035BD104918428327070893F717FC93E7EE
:101D800027012320F7088327070893E7170023205C
:101D9000F7085C43856693860680D58F5CC38327EE
:101DA0000708858BEDFF5443856793870780DD8E99
:101DB00054C31442D842D98FDCC28280411106C676
:101DC00022C4004918405C4393E707405CC3553781
:101DD0001440DC42056713070780D98FDCC2B2408C
:101DE00022444101828010491C42984F8966558FD8
:101DF00098CF984FF976FD16758F98CF1C42984F63
:101E00008566558F98CF984FFD76FD16758F98CFC4
:101E1000828014499842DC5613861700D0D6D10729
:101E20008A07BA970D6798C7828014499842DC5692
:101E300013861700D0D6D1078A07BA97056798C7C7
:101E40008280411106C622C426C2AA8400491440D9
:101E5000DC42056713070780D98FDCC218405C435A
:101E600093E707025CC3232604021305440085653B
:101E7000938585380146EF20E04511ED5850954790
:101E80006300F70258508D476301F702B2402244C5
:101E9000924441018280268515371305C0F8FDB7AD
:101EA0002685293F1305C0F8D5B74955C5B7011197
:101EB00006CE03280501A307B10085472322F802B7
:101EC0008326080001470DA0DC4E3EC293070701A0
:101ED0003386270092470346F6FF93F707F0D18F2A
:101EE0003EC29247DCCE0507E350E0FE832788021E
:101EF000858BC9C7A181A307B100832608000147CC
:101F00006343E002DC4E3EC493070701338627009B
:101F1000A2470346F6FF93F707F0D18F3EC4A247CE
:101F2000DCCE0507F1BF0947136707108567938764
:101F300007805D8F832608008327C8021386170059
:101F40002326C802D1078A07B69798C70327080037
:101F50008327C802938617002326D802D1078A0751
:101F6000BA97096798C7832708007D57D8D3130706
:101F7000805A98D7F935F2400561828005476DB7E0
:101F8000797106D622D426D24AD04ECE52CC56CA29
:101F90005AC8AA8A0329050103AA450084412322BD
:101FA0000902896993890980096B15A093E90940A1
:101FB000054489A0584E3AC6B2463387F400230040
:101FC000D7008507E3C887FEA294330A8A406300DE
:101FD0000A0852849307100263F4470113041002A5
:101FE0001374F40F7D141374F40F8547E300FAFCA7
:101FF00093F9F9BF93F909F0B3E9890003270900C0
:102000008327C902938617002326D902D1078A079E
:10201000BA9723A43701032709008327C9029386AF
:1020200017002326D902D1078A07BA9723A467018C
:10203000832709007D57D8D31307805A98D7568530
:10204000093563470500032609008147A5BF0145FF
:10205000B250225492540259F249624AD24A424B37
:1020600045618280411106C622C426C24AC0AA84A4
:102070002E8483C78500918B89CB13691600513B51
:10208000CA8526852D35634C0500A2852685CD3D64
:102090006347050083478400898B81EB0145B2408B
:1020A000224492440249410182802685BD3B268517
:1020B000493BE34605FE0145DDB7797106D622D4DA
:1020C00026D24AD04ECE52CC56CA5AC8AA8A032A21
:1020D0000501C44183A9050085472322FA02056949
:1020E0001309098013690910096B21A89377F40F6C
:1020F000137909F03369F90091EF1374F40FA29981
:10210000818CC9C4268493070002E3F197FE13046F
:102110000002E9BF83260A00014739A8DC4E3EC60B
:102120003386E900B2470346060093F707F0D18FE4
:102130003EC6B247DCCE05079377F40FE340F7FEC7
:1021400003270A008327CA02938617002326DA0290
:10215000D1078A07BA9723A4270103270A008327F8
:10216000CA02938617002326DA02D1078A07BA9794
:1021700023A4670183270A007D57D8D31307805A09
:1021800098D756857D39E35A05F611A00145B2501E
:10219000225492540259F249624AD24A424B456152
:1021A0008280411106C622C426C24AC0AA842E8457
:1021B00083C78500918B81CB3289A139CA85268559
:1021C000FD31634C0500A2852685C53D63470500AA
:1021D00083478400898B81EB0145B24022449244BD
:1021E0000249410182802685893126859939E34655
:1021F00005FE0145DDB7011106CE22CC26CA4AC82C
:102200004EC652C456C25AC00329050163060610C1
:102210002A8AAE893284B68AB7A40700938404124E
:10222000832709009C479183858B91CB0545EF104F
:10223000C07B9387F4FF638D040EBE84D5B783C73C
:10224000890093E747002384F9004E87854729A03A
:10225000898AB9E631078507A2866340F402E3DB89
:10226000D7FE834687008345470133C6B600058AFB
:1022700065D29189F1FDA95411A08144D9EC130BC9
:102280004901FD557D565A85EF20C00483278902F8
:10229000858B89CB9307F03FB3FA5701860AB1A02B
:1022A000A954E9BF9307F007C5BF5285EFF01FB1EE
:1022B0005285EFF05FB3032709001C57F176F58FC5
:1022C0001CD7032709009167FD175CD383C78900DA
:1022D000858B8DCB5686CE8552856933AA8463C99A
:1022E00004027D141374F40FB1091DC003274902C1
:1022F0009547E30CF7FA832709009C479183858B68
:10230000C5DB65B75686CE855285613DAA84C1BFBF
:102310005A85EF10B07211A081442685F2406244C4
:10232000D2444249B249224A924A024B0561828014
:10233000C154E5B7011106CE22CC26CA4AC84EC602
:1023400052C4AE84032A4500032905012E8597C097
:102350008001E780E0A2AA8997C08001E780C09D44
:102360002A84AA864E86A6854A8597708001E780D2
:10237000A09583274A02A1C737470F0013070724F8
:102380003354E402B38787027D476373F700FD4748
:1023900083260900D846FD8B019BD98FDCC6832696
:1023A0000900DC42056713070780D98FDCC2F240C1
:1023B0006244D2444249B249224A056182800327DD
:1023C00009005C4793E7F7015CC7D1BF011106CE56
:1023D00022CC004902C6585085476304F7025C507E
:1023E00095C7B24709476388E7020D47638FE70245
:1023F0000547638FE70215476391E70291475CD079
:1024000029A86C002285EF60F052E1BF6C002285A4
:10241000EF609059F9B78D475CD013054400EF1079
:10242000F061F24062440561828095475CD0F5B767
:1024300095475CD0DDB7011106CE22CC26CA4AC82A
:102440004EC6AA844041832905018145084497C0AE
:102450008001E78040A4634605084840EF10A06073
:1024600051CD4C44484097B08001E780A075484862
:102470001C4C6352F00A8545B395F50093F5E50FC2
:102480005C4C93F70710DD8D0147A6863726804008
:102490001306C63C93E5054097908001E780A0466F
:1024A0002A8925ED4E8597708001E7802087268553
:1024B00097B08001E7808072085097B08001E78074
:1024C000A07F93650501268597C08001E780E08F96
:1024D0002A894A85F2406244D2444249B2490561A0
:1024E000828037968042130686AD854537E5804069
:1024F0001305856FEF40A0632959E1BF37968042ED
:10250000130686AF854537E580401305856FEF409C
:10251000006235597DBF8145A5B7AA8637968042AE
:1025200013060686854537E580401305856FEF4025
:10253000406145B7397106DE22DC26DA4AD84ED62C
:1025400052D456D25AD05ECE62CC66CAAA8CAE8421
:1025500083AB0500C177B3FBFB0003AA4500337AC8
:10256000FA0003ACC500337CFC0083AA0501B3FA72
:10257000FA0001498147014B6144A5A883A7018165
:1025800089CFEF301041AA85A286138681C51385B5
:1025900001C697E07FFFE78060A997708001E78020
:1025A000200D11C703A70181894763E3E70EA24706
:1025B000D8446384E71698406389E716370780BFDD
:1025C0003E97B70608006368D700370700B0BA9790
:1025D000116763F3E7000509B247A29713848700E8
:1025E000B72781409387071983C71700638727158B
:1025F000CE87938917003D47636FF70285462146D2
:102600002C002285EF90300335F92247B70700BE32
:10261000BA97B7060001E3E6D7F8B70780BFBA97C5
:10262000B7060800E3EFD7F62DDFB70700B0BA977B
:102630009166E3E8D7F6638C0910C1476389F91006
:10264000014597E07FFFE78060A30945EF603023F5
:1026500063810C1202C25C00D848D686628685452A
:102660006685EF50306C5C009844D2865E86854566
:102670006685EF50306BDC48E297FD173707004264
:10268000636CEC0E3707004363E5E7128147F5A062
:10269000EF303030AA85A247370700BE3E97B70615
:1026A00000016360D702B70680BFBE9637060800F8
:1026B00063E9C60099C7B70600B0BE96116663F617
:1026C000C602B70680BFBE963706080063E2C602A0
:1026D000B7060001636DD702370700B03E979166D9
:1026E000637AD7029386C1C431A09386C1C319A06F
:1026F000938641C33248C28813078400138681C57C
:10270000138501C997E07FFFE78040924DB593861E
:1027100001C4CDB7938681C4F1BF930A840023A876
:1027200054014177B3FAEA0079B5130A840023A271
:1027300044014177337AEA0051B5E31B0BEA934732
:10274000F4FFBD8BA29713841700054B55B583A7E3
:10275000018181CFEF30F023AA85138681C51385CF
:1027600081CC97E07FFFE780608C97708001E780E5
:1027700020F0EF505054F9BD814713F6170037870A
:102780000C6054431346F6FFF18E54C389835443BF
:1027900093C7F7FFF58F5CC39C44DE97FD1737079F
:1027A000004263EAEB003707004363E3E706814733
:1027B00021A0A547D9B7814713F6170037870C60CA
:1027C00054431346F6FFF18E54C38983544393C791
:1027D000F7FFF58F5CC30945EF60500C8844C16773
:1027E000FD173E9541810A0593050040898D97E0CC
:1027F0007FFFE780A0EBF2506254D2544259B259A5
:10280000225A925A025BF24B624CD24C2161828076
:10281000A5475DB7411106C697D2FFFF9382827E1E
:1028200073905230F377043097B10000938101DC4C
:10283000EF104019EF00A07915E5B7C580409385EA
:10284000457D0145C539EF0030170145EF0000789F
:1028500003A70181894763E9E702EFD0FF9EB240F9
:102860004101828083A7018181CFEF309012AA8538
:10287000138681C51385C1CE97D07FFFE780007B8B
:1028800097708001E780C0DEEF30B010AA8583A684
:1028900081D3A982138681C5138541D197D07FFF4B
:1028A000E780C0785DBF411106C622C4EF90D021F9
:1028B000EF90D01419E9EFD0FFF597508001E78031
:1028C000A057B2402244410182802A8483A701811B
:1028D00089CFEF30100CAA85A2861386C1D3138549
:1028E00081D497D07FFFE780607497708001E78084
:1028F00020D8411106C68146014681451305A0072F
:10290000EFE0DFCFB707884003A5C7FE97E07FFF62
:10291000E7804080B24041018280411106C622C456
:1029200026C2AA8483473500BD8B0947638DE7041F
:102930006365F704A1CF0547639DE7041384C1D7FE
:1029400003A70181894763ECE704B7270060984734
:10295000B7070001F98FADE3B7071000F98FC1E3A6
:10296000B7078000F98FBDEF9167F98FBDEF8967D9
:102970007D8F3DCF1384C1DA91A03D47639EE70070
:102980001384C1D875BF138441D85DBF138441D768
:1029900045BF138441D86DB7138441D855B7EF3084
:1029A000407FAA85A2861386C1D31385C1DD97D047
:1029B0007FFFE780A06751BF138441D903A701813E
:1029C000894763EAE70283C734009183114763664E
:1029D000F7068A071387C1E3BA979C43828713845B
:1029E00081D9E9BF138401DAD1BF138441DAF9B781
:1029F000138481DBE1B7EF30C079AA85A286138604
:102A0000C1D31385C1DF97D07FFFE780206265BF08
:102A1000138441DC03A70181894763E3E702B240E5
:102A200022449244410182801384C1DCE5B71384BF
:102A300001DDCDB7138441DDF1BF138481DCD9BF43
:102A4000EF302075AA85A2861386C1D31385C1E114
:102A500097D07FFFE780805DD9B7011106CE83470D
:102A60003500918311476360F7068A07138701E5F4
:102A7000BA979C43828785473EC60945EF60206030
:102A8000B707884003A5C7FEB245C167FD17130706
:102A9000001085664166D205084197D07FFFE78028
:102AA000606C0945EF60805FF24005618280894774
:102AB0003EC6E1B791473EC6C9B7A1473EC675BFFE
:102AC000C1473EC65DBF89473EC645BF411106C6E8
:102AD00022C4B707884003A4C7FEEFE09FCC08C01C
:102AE000B240224441018280B7270060984F1367AB
:102AF000070C98CF984B1377F7C198CB984B019B55
:102B000098CB8280411106C622C42A84AA857545C5
:102B100097E07FFFE78040BFA285654597E07FFF94
:102B2000E78080BEA285794597E07FFFE780C0BD42
:102B3000A285614597E07FFFE78000BDA2857145D2
:102B400097E07FFFE78040BCA285694597E07FFF63
:102B5000E78080BBB240224441018280411106C619
:102B600005454D375137B24041018280411106C6BB
:102B700022C4ED37BD3BEFE0FFA9372481401307A6
:102B800004198347370093E7F700A301F700130503
:102B90000419613313050419C935EF9060350145F7
:102BA000B240224441018280411106C697D07FFF86
:102BB000E7808048014597D07FFFE780204CEF40B9
:102BC000102DEF402069716613060620B7470F00ED
:102BD00093870724B305F5020145EFE0AFA0B240AB
:102BE00041018280011106CE22CC26CA4AC84EC6B7
:102BF00052C456C22A840347C5008347D500A207A2
:102C0000D98F35476383E70483A7018199EB6D551D
:102C1000F2406244D2444249B249224A924A056192
:102C20008280EF300057AA850347C4008347D40051
:102C3000A2075D8FB546138641E6138501E797D05D
:102C40007FFFE780A03E6D55E1B7AE84EFE00FD285
:102C5000AA8993074006B35AF502337AF50203476F
:102C6000F40083470401A20733E9E700854763F4D2
:102C70009700014571BF637C250383A7018199E318
:102C80007D553DA0EF30E050AA859306400652885E
:102C9000D6873377D902B356D902138641E6138516
:102CA00041EA97D07FFFE78060387D5511A001454C
:102CB0008547E39FF4F4834714010344240122046D
:102CC0005D8CC167FD17E305F4F439D0E37234F588
:102CD000B7170B6093870780BC43858B95FB83A751
:102CE000018199E37D552DB7EF30A04AAA8593065F
:102CF00040065288D6873377D402B356D40213865F
:102D000041E6138581EE97D07FFFE78020327D5525
:102D100001B7411106C603A70181894763EAE700AD
:102D200003A70181894763E1E702B2404101828044
:102D3000EF302046AA85138641E61385C1F297D06D
:102D40007FFFE780A02EE9BFEF30A044AA8513865D
:102D500041E6138581F497D07FFFE780202DF1B7FE
:102D6000411106C685466146B72581409385051900
:102D70000145EF90400C01E5B2404101828083A7FC
:102D8000018199E36D55CDBFEF30A040AA85138630
:102D900041E6138581F797D07FFFE7802029DDB7D3
:102DA000011106CE02C4B7270B60938707C03EC649
:102DB000280097D07FFFE780E05E8145280097D00C
:102DC0007FFFE780A05F280097D07FFFE780C05D8E
:102DD00085473EC0B7870060938707003EC20A85DB
:102DE00097D07FFFE780005C81450A8597D07FFF01
:102DF000E780C05C0A8597D07FFFE780E05AF24009
:102E000005618280411106C622C426C2EFE00FB6DA
:102E100093074006B354F5023374F50203A701810A
:102E2000894763EEE7008145372581401305051981
:102E3000553B05E5B2402244924441018280EF3087
:102E40004035AA852287A686138641E61385C1FAF6
:102E500097D07FFFE780801DF9B77D55E1BF011155
:102E600006CEB767096093870700D84F3AC6324746
:102E7000C1769386F60F758F9366075036C6324734
:102E8000D8CF8145054597D07FFFE780202F854526
:102E9000054597D07FFFE780602E8545014597D097
:102EA0007FFFE78020338545054597D07FFFE7808A
:102EB0006032B7F70A60984F1367470098CF984B76
:102EC0001367170098CBF2400561828009C9373734
:102ED0000B608327C7C0ED9B2326F7C0828041117A
:102EE00006C697608001E780007637370B6083273E
:102EF000C7C0F59B2326F7C009C9832747C0B7067B
:102F00000080D58F2322F7C08280B7360B6083A75D
:102F100046C0370700807D17F98F23A2F6C0828054
:102F2000411106C605455D370545C137B24041012F
:102F30008280B7270B603747D850130717AA23A002
:102F4000E7C203A7C7C1B7060400558F23AEE7C089
:102F500023A007C28280B767096003A70710136721
:102F6000170023A0E71003A70710759B23A0E71005
:102F7000B7270C600D47F8C38280411106C6014592
:102F800097D07FFFE7808009A547630CF5006515A2
:102F9000A94763EDA70093073045B3D7A700858BFA
:102FA00091C703A70181854763E6E7006D37B2400B
:102FB00041018280EF30E01DAA85138641E613852A
:102FC00001FD97D07FFFE7806006CDB78280411179
:102FD00006C622C46935A937A93FB7470B6023A2AB
:102FE000078CB7A7096023A2078CB797096023A2B3
:102FF000070CEF90003BEF80B041EFF0FFBAEFF02D
:103000005FD1EF606003EF50C04CEFF03FACEFE0FA
:103010008FFC15C52A8483A7018191E72285B240E0
:10302000224441018280EF30C016AA851386C1FF79
:103030001385410097D07FFFE78040FFC5B7EFF0D1
:103040003FD22A8461FDEFF0FFDB2A8461F9EFF0C3
:10305000FFB12A8461F51537EFF09FD411207DBFB1
:10306000411106C6B767096003A707081367270061
:1030700023A0E70803A70708759B23A0E70803A779
:1030800007081367470023A0E70803A74708B70608
:103090004000558F23A2E70803A74708B706D0FFD3
:1030A000FD16758F23A2E70803A74708B716F0FFA0
:1030B000FD16758F23A2E708B7070B6003A7471516
:1030C000B7060004558F23AAE71403A74715B706D0
:1030D0000008558F23AAE7148947014785461D46F6
:1030E000814513059006EFD0BFCD85470D478D462E
:1030F0001D46814513059006EFD09FCC85471147AB
:1031000091461D46814513059006EFD07FCB85473C
:10311000194799461D46814513059006EFD05FCAB1
:10312000A14701478D461146814513059006EFD012
:103130003FC99307600601479D460D46814513052B
:103140009006EFD0FFC7A14701478D460546814550
:1031500013059006EFD0DFC69307600601479D4632
:103160000146814513059006EFD09FC5B7E7006083
:103170003757060098CF9843B786FCFFFD16758F2A
:10318000A166558F98C39843E1769386F607758FAD
:103190001367077898C3D843B71600FFFD16758FDD
:1031A000B7860C00558FD8C3D843B7060001558F9A
:1031B000D8C3B24041018280411106C6B7E7006022
:1031C000D843B70600FFFD16758FD8C33707000137
:1031D0007D1798CF9307000601478D46114681451C
:1031E00013059006EFD0DFBD814701479D460D4690
:1031F000814513059006EFD0BFBC93070006014739
:103200008D460546814513059006EFD07FBB81476B
:1032100001479D460146814513059006EFD05FBAF0
:103220008147014785461D46814513059006EFD02D
:103230003FB981470D478D461D46814513059006D0
:10324000EFD01FB88147114791461D4681451305B0
:103250009006EFD0FFB68147194799461D46814534
:1032600013059006EFD0DFB5B7060B6083A74615B0
:10327000370700FC7D17F98F23AAF614B76709609A
:103280003747400023A2E708154723A0E708B240CC
:103290004101828023AA150280DDC4DD23A025051B
:1032A00023A2350523A4450523A6550523A86505B6
:1032B00023AA750523AC850523AE950523A0A50794
:1032C00023A2B50723A8250223A2B50803210503DD
:1032D0000322C50883204503005D445D03290504DE
:1032E00083294504032A8504832AC504032B050585
:1032F000832B4505032C8505832CC505032D050669
:10330000832D45068280411106C697508001E780D3
:10331000609F7300501097508001E780C09EA147C6
:1033200073A00730B24041018280014582801305BD
:1033300005058280C14763F3A7004145B7878042F6
:103340000A05938747D7AA9788438280797106D662
:1033500022D426D24AD04ECE52CC56CA00182A8A3F
:10336000AE843289F32A2034B7070080FD17B3FA00
:10337000FA00378680421306C694854537E58040BB
:1033800013050574EF30A07A56856D378A89854715
:10339000230EF4FC8D47A30EF4FC79710A87130603
:1033A000070121C2C94519CEAE86914763D7B70040
:1033B000B78780429387C7A25CCBA14763D4D7006D
:1033C000232C57018547230CF4FC8D47A30CF4FCF8
:1033D0000DCAB14763D3B70048CF930607028147B0
:1033E00031A8B7050080FD157DBF138507FE229526
:1033F000034585FF2380A600850785060545E376FE
:10340000F5FEC54763DCB722C9451DC29146230EB0
:10341000D4FCA30E04FC230F04FC8547A30FF4FC8B
:103420002308D700A308070023090700A309F70012
:1034300093F5657FA60593E505048146B7EA8040CC
:1034400013850A74EF30C0724E81F326303437860C
:103450008042130606A4854513850A74EF30606E1A
:10346000638D04109450D84037868042130606A519
:10347000854513850A74EF30206ED4509844378602
:1034800080421306C6A6854513850A74EF30C06CCA
:103490009454D84437868042130686A88545138500
:1034A0000A74EF30606BD454984837868042130614
:1034B00046AA854513850A74EF30006A9458D848A7
:1034C00037868042130606AC854513850A74EF30B3
:1034D000A068D458984C378680421306C6AD8545FF
:1034E00013850A74EF304067945CD84C378680426D
:1034F000130686AF854513850A74EF30E065D45C0A
:1035000037868042130646B1854513850A74EF302D
:1035100040632685EFF0BFE1AA8637868042130616
:1035200046B2854513850A74EF30A0619440378612
:103530008042130646B3854513850A74EF306060F8
:10354000B44037868042130646B4854513850A7415
:10355000EF30205FF44037868042130646B585453C
:1035600013850A74EF30E05D378680421306C694F7
:10357000854513850A74EF30805B630B090A832647
:1035800089000327090237868042130646B685451F
:10359000B7E9804013850974EF30005C8326C900C9
:1035A0000327490237868042130606B885451385EE
:1035B0000974EF30605A8326090103278902378690
:1035C00080421306C6B9854513850974EF30C0588B
:1035D000832649010327C90237868042130686BB2A
:1035E000854513850974EF30205783268901032709
:1035F000090337868042130646BD85451385097445
:10360000EF3080558326C90103274903378680425E
:10361000130606BF854513850974EF30E0533786DE
:1036200080421306C694854513850974EF302050F7
:10363000CA852685F524A6855285D9299155F1B3E9
:10364000411106C60146EFF07FD0411106C622C4E3
:103650002A84EFF09FCD11C10945A285D5374111CC
:1036600006C6F3262034B7070080FD17FD8E378687
:103670008042130686DB854537E5804013050574D7
:10368000EF30204C81450545653F411106C622C4F7
:103690002A84B2853686D52C2285B2402244410147
:1036A0008280130606FB419A14D258D21CD62326D8
:1036B00006038967938707887CC2B77700429387A0
:1036C000C76A3CC210D9B7078040938787205CD96E
:1036D0002322A50882801305A0F78280411106C627
:1036E00022C426C22A849304000013060000B7B542
:1036F00080429385C55F97D07FFFE78060DB13062C
:10370000800081453305940097D07FFFE78000DA81
:10371000B2402244924441018280411106C622C433
:1037200026C24AC02A8913040000930780003E94F1
:10373000B384854026855D37232699082285B240CB
:10374000224492440249410182809377350099EFE7
:10375000F859BC5DBA97C19B6366E5006366F500E6
:103760000145828001458280054582800145828035
:10377000937735009DEF81CDB727814083A78734AC
:1037800099E7411106C6D137B2404101828037F72F
:103790008040130707A6856793870780BA976366FB
:1037A000E5006366F500014582800145828005459C
:1037B000828001458280797106D622D426D24AD0F1
:1037C0004ECE52CC56CA5AC85EC662C466C2AA8BD6
:1037D0002E8CB28A368A3A8B91CA3685EFF03FB585
:1037E0002A8403290A048149814C0DA891CF3727E7
:1037F0008140130787341847130707036306F70050
:10380000804303A94700C5B70A84373980401309AC
:10381000697BD1BF03290400A68C11049D4763CDA9
:103820003703A2845286D6852285029B15C563F58F
:103830008C02B707004293870700E36DF9FCB7F7E6
:1038400000429387C730E377F9FC2686CA856285F4
:10385000829B19C185097DBFB250225492540259EE
:10386000F249624AD24A424BB24B224C924C4561D9
:103870008280011106CE22CC0010B28603280500FA
:10388000930718001CC179718A871386070159C2F2
:10389000514705CA3A85914863D8E800B788804205
:1038A000938808DE23AA1701A14863D4A80023AC9B
:1038B000070131486353A800D4CFC14663D3A600A3
:1038C0008CD3CD4663DCE604D14515C215472306EB
:1038D000E4FEA30604FE230704FEA30704FE2388D8
:1038E000E700A388070023890700A389070093F551
:1038F000457FA60593E50504814637E5804013051D
:103900000574EF30E0260545130104FEF2406244E1
:1039100005618280370700807D17A5BF915575B777
:10392000011106CE22CC26CA4AC82A84AE8402C619
:1039300037868042130606E0854537E98040130547
:103940000974EF30C01E37268140A6873737804084
:1039500013070777A2861306863410466C00374596
:10396000804013052587EFF01FE537868042130658
:10397000C694854513050974EF30601BF24062441C
:10398000D2444249056182808280411106C622C428
:1039900026C22E84B284CD3FB7E780400E059387C0
:1039A0000754AA9784C3C0C3B24022449244410141
:1039B0008280411106C697D07FFFE78020AFB240DA
:1039C00041018280411106C63725814013060586D4
:1039D000B73781409387074D3386C740814513052C
:1039E0000586C13FB2404101828011E182804111D0
:1039F00006C622C426C22A8497B08001E780402DE3
:103A0000AA84120497B08001E780802C058DE36BB7
:103A100085FEB2402244924441018280411106C693
:103A200022C42A845C4995CF829701CD6348050260
:103A30009307F00F63D4A7001305F00F5C442380B5
:103A4000A70058448347170093E71700A300F70027
:103A50003305A040B2402244410182803305A0409A
:103A6000C1BF0145F9BF19CD584583471700858B64
:103A700091C78347070089C701458280014582803D
:103A80000545828001458280914763E4A7020A05CB
:103A9000938741883E951C418287138541828280AD
:103AA0001385818482801385818582801385418678
:103AB000828013854187828013854183828001CD76
:103AC000411106C6EF00D04711C98347050091CBCD
:103AD000B24041018280138581898280138581896A
:103AE000C5BF13858189EDB7F377043001A041117B
:103AF00006C622C42A84EF2030551386018A8545E4
:103B000037E5804013050574EF3060022285E93FF8
:103B1000797106D622D426D24AD04ECE52CC56CA7D
:103B20000018AA84AE8973790430B72A8140938A39
:103B30008A3403AA8A00EFF03FF503C80A018A8A93
:103B40008547230EF4FC8D47A30EF4FC79710A8798
:103B50001306070139C2D94601CEB685914763D510
:103B6000D7009387018B5CCBA14763D3B70004CF09
:103B70008547230CF4FC8D47A30CF4FC1DCEB685C1
:103B8000B14763D3D70048CFC14763D4B7002320E0
:103B9000070393054702814731A8B7060080FD1649
:103BA00065BF138507FE2295034585FF2380A50089
:103BB000850785050545E376F5FED54763DFD7081C
:103BC000D9471DC29545230EB4FCA30E04FC230F58
:103BD00004FC8546A30FD4FC2308B700A308070004
:103BE00023090700A309D70093F7677FA60793E58A
:103BF0000704814637E5804013050574EF205077B0
:103C000056815285EFF0BFEB8A8A8547230EF4FC7C
:103C10008D47A30EF4FC79710A871306070121C2B0
:103C2000C94509CEAE86914763D5B7009387818D8C
:103C30005CCBA14763D4D700232C47018547230CD5
:103C4000F4FC8D47A30CF4FC1DCAB14763D3B70045
:103C500048CF93060702814705A091579DB7B70546
:103C60000080FD157DBF138507FE2295034585FF66
:103C70002380A600850785060545E376F5FEC54742
:103C800063D9B706C9471DC29145230EB4FCA30EE4
:103C900004FC230F04FC8546A30FD4FC2308B700C3
:103CA000A308070023090700A309D70093F7677F3C
:103CB000A60793E50704814637E5804013050574A0
:103CC000EF20106B5681CE852685EFF05FE21379E9
:103CD0008900732009305285EF10B028130104FDCC
:103CE000B250225492540259F249624AD24A456172
:103CF0008280915749BF797106D622D426D24AD004
:103D00004ECE2A8413193500B309A9009209B724AD
:103D10008140938484DCA699260593162400A296FC
:103D20008A0602C285473EC0BD4801488147372701
:103D30008140130787343697B74680409386A600A4
:103D400013060020B7F5804093850526AA954E8579
:103D5000EF00302183C7D900ED9BA386F900B25054
:103D6000225492540259F24945618280411106C69B
:103D700022C426C2AA84131725009387818FBA977D
:103D8000804321A01C4082972104138714000A0756
:103D90009387818FBA979C43637BF40048407DD121
:103DA0008347C501858BEDF3EFF05FC7F1BFB240EC
:103DB0002244924441018280411106C6B286B36713
:103DC000B60091E7EF108078B240410182802E86E4
:103DD000B7558040938585E76105EF109043EDB7B7
:103DE000011106CE22CC37B480421304844E2DA09C
:103DF0005C503EC21C503EC08328C401032884018D
:103E00005C481848544410444C400840EF0070157A
:103E10001C40A0D713040403B7B780429387874E92
:103E2000E368F4FCEF10202637B480421304844E7C
:103E300031A00840EFF05FF813040403B7B78042E5
:103E40009387874E637AF4000C545054FD57E392E5
:103E5000B7FEE303F6FEF1BFEF10C02FF24062445D
:103E600005618280411106C6B72781400547238E30
:103E7000E78E0D45EFF09FEFEF20201F1145EFF08B
:103E8000FFEEEFF0FFF597208001E780402CB72789
:103E90008140938787E503C7C700799B2386E700A6
:103EA000B24041018280411106C622C426C24AC0E6
:103EB000F3740430B72781409387873403A98700C0
:103EC000D5572320F908F3770430EF10601E630FF5
:103ED000A9002A84B72781409387873488C7EF10C9
:103EE000901ACA8503254408EFF0CFBAA18873A0C1
:103EF0000430B2402244924402494101828041117F
:103F000006C6EFF05FFA411106C622C42A84EFF01C
:103F10009FDE93173400A29792073727814013073B
:103F200087DCBA973727814013078734931624001C
:103F3000338686000A063A965CC6230886009317E5
:103F4000B40037F68040130606A6B297056613063E
:103F50000680B297A2968A0636975CC3B240224486
:103F600041018280011106CE22CC26CA4AC8EF1038
:103F7000403BB7278140B7248140138984E593876C
:103F8000873423AA27019387018F3EC285473EC00D
:103F90008148014881470147B7468040938646E6FD
:103FA0000566B7F5804093850546138584E5EF00E7
:103FB000407B2A848347D900ED9BA306F900138533
:103FC00084E5EF00F05D0145EFF0FFF32285F2405C
:103FD0006244D244424905618280411106C60145CE
:103FE000EFF0DFD80142EF20406A3725814013050A
:103FF00085EEEF0090020545EFF05FD70945EFF041
:10400000FFD6EFF03FF6EFF09FEF411106C6F377D2
:104010000430EFF04FAFE5BF010082806353B5007D
:10402000AA85930710F863C4F5002E8582801305D6
:1040300010F8828008458307E5006394B7000145C6
:104040008280411106C6EF00506AB2404101828071
:10405000232405002326050008C148C101458280AC
:10406000011106CE22CC26CA4AC84EC652C42A84A2
:10407000F37404305C4595EFC5EB37278140130797
:10408000873418470307E70018C885075CC4B727BB
:104090008140938787349C471CC4A18873A0043057
:1040A0000145F2406244D2444249B249224A056184
:1040B0008280AE89328914453727814013078734BF
:1040C0001847E38BE6FAB367B600ADC3038AE60090
:1040D000D2850305E700EFF07FF4634E4505014A02
:1040E000CE864A872286A6853725814013058536E8
:1040F000EF1040165DD5F37404301C44A9C71C4072
:104100006301F4049DCF0C480385E700EFF01FF135
:10411000AA852285EFF01FF20DE963180A02A18833
:1041200073A004305555B5BF1848B9BFA18873A016
:1041300004304155BDB7AA852285EFF0BFEF2A8A2A
:1041400045B70C48F9B7E30C0AFCA6853725814032
:1041500013058536EF1060135555A1B7011106CE32
:1041600022CC26CA4AC84EC6184545CB2A84B72752
:104170008140938787349C476313F70A5C45054762
:10418000637DF700FD175CC581442685F2406244DB
:10419000D2444249B24905618280F37904300C4926
:1041A000EFF05FE90329040063008902B3342001C2
:1041B000631E090023242401A1E02326040093F9AF
:1041C000890073A00930D1B70149CDB70327490051
:1041D000832709001CC3D8C3232009002322090018
:1041E0008347D900F59BA306F90023240900130592
:1041F0008901EF1050187DBF8307E9001CC82320F8
:1042000009084A85EF00D039CE853725814013054E
:104210008536EF10800781448DBFA954BDB7FD548A
:10422000ADB709CA636AB6000CC550C508C148C11C
:10423000014582802955828029558280011106CE50
:1042400022CC26CA4AC84EC62A8473790430044157
:10425000630B9502B33990008DE8639C09041C44FC
:104260005844638FE7040547BA971CC48147B9EBEC
:104270001379890073200930F2406244D2444249E4
:10428000B249056182808144F1B7D8409C401CC38B
:10429000D8C323A0040023A2040083C7D400F59B45
:1042A000A386F40023A4040013858401EF10B00C4E
:1042B0006DB723A004082685EF00902E854745BFE3
:1042C00001475DB7CA853725814013058536EF0064
:1042D000D07B5DB7737804301C4589CBFD171CC5B6
:1042E000137888007320083001458280B367B600D8
:1042F00085C3411106C6AE8632872A86C285372518
:10430000814013058536EF00F074B2404101828090
:1043100013788800732008304155828089C91C4277
:104320009CC15C41630CF6002320060082801C4285
:104330001CC15841E31AE6FE5CC1FDB74CC1EDB7A4
:1043400001CD411106C6014681451305C509EF108F
:104350002042B240410182800145828025CD411139
:1043600006C622C426C22A84AE84B727814093871A
:1043700087349847832705096303F70481473E86FE
:104380008327C40A13D72700058B93D63700858A65
:10439000858BB9C311C339C291C239C323A00400AC
:1043A000832784099DC384C3232C94082285EFF0BE
:1043B0003FF90545B2402244924441018280BD2626
:1043C00019E185476DBF81475DBF232C9408232ADF
:1043D0009408E9BF295582803555E9BF4155D9BFB9
:1043E0004155C9BF411106C622C426C24AC0AE8487
:1043F0005C4513D71700058B21E72A848983858BB9
:10440000A9EB9C419DC75C44858B9DC71C449CC007
:104410000949A2858840EFF07FF4634405025C44BB
:1044200093E747005CC49C401CC4635920014A8543
:1044300019A81C459CC1C1BF0549E1BF4A8511A00F
:10444000415523A00400B240224492440249410154
:1044500082800145FDB7411106C65C45BD9B5CC528
:104460004105EFF0BFDDB24041018280411106C637
:1044700022C45C45F59B5CC5B727814003A4478EE9
:104480001DC41C4091C319C081453DA0A287EDBF4A
:104490002286372581401305458EEFF03FE813054E
:1044A0008400EFF0BFD9B240224441018280A2874C
:1044B000E1BF3E873E84BA877DD45840E30AA7FC1B
:1044C000A285E5DB98437DD7F5F73E87E5B7411137
:1044D00006C622C426C24AC0AA847379043003A443
:1044E000440925C81C4023AAF40803A78409630AC9
:1044F000E40883A7C40A93E7270023A6F40A5C44D0
:1045000013E7170058C4ED9B93E717005CC45C40A9
:1045100013798900732009302285829773790430DA
:104520005C44F99B5CC49183858BC1E75C448583C3
:10453000858BC1E783A7C40AF59B23A6F40AA18350
:10454000858B1379890073200930C1FBEF00D05EA1
:1045500069B783A7C40A13D72700058BED9B23A651
:10456000F40A1DE39183858B85CB23A6040A137976
:10457000890073200930B24022449244024941012B
:10458000828023ACF408B5B71384440A01468545FC
:104590002285EF10E01D7DF98147FD567D5713867A
:1045A000C409CA853725814013058536EF10C0231D
:1045B0002DB72285EFF03FEA95BF2285EFF01FEB84
:1045C00095BF232005002322050023240500232670
:1045D00005004CC18280011106CE22CC2AC62E8550
:1045E000737404306C00EFF0FFDF21887320043017
:1045F000F240624405618280411106C622C4EFF098
:104600009FFD2A846347A0002285B24022444101D5
:10461000828073750430EF00B030FDB7411106C6DB
:10462000AA8537258140130505F9EFF0FFFCB2405C
:1046300041018280011106CE22CC26CA2A84B68886
:10464000BA84232A0508232C05089307C509232EBD
:10465000F5082320F50A9307450A2322F50A2324A7
:10466000F50A29CF83474700A1EF85472326F40A9F
:104670007D57FD573AC43EC602C001488147228794
:10468000B74680409386E64C2285912A91CC8C4097
:1046900099C122855D2083C7540099C78347C40010
:1046A00093E717002306F4002285EF00306A2328E1
:1046B0008408F2406244D2440561828085477DB718
:1046C0009307101065B7011106CE22CC26CA4AC83E
:1046D0004EC6AA842E891304F6004198B38985003A
:1046E000CE85EFF08F833D05419923AA2407A0DCF6
:1046F000E8DC3385A940F2406244D2444249B249E1
:1047000005618280411106C6B286B367B60091E7A3
:10471000EF00D063B240410182802E86B7558040C1
:10472000938585E76105EF10C02EEDB7B72781406F
:1047300003A587343335A0008280130580FA828078
:1047400001458280232405002306D500A306C50069
:104750002307B500A3070500232C0500232E050021
:104760008280011106CE22CC26CA4AC84EC652C447
:1047700056C25AC02A842E89B284B6893A8ABE8A21
:10478000428BC6859307C5067CD53CD98256114617
:10479000EFF05FFB2686CA852285EFF0DFF2AA8460
:1047A0005A88D6875287CE862A86CA852285EFE028
:1047B0005FEF23240406B7278140938787349C4703
:1047C00083A787082324F4082685F2406244D24454
:1047D0004249B249224A924A024B05618280011144
:1047E00006CE22CC26CA4AC82A842259B25402C212
:1047F00002531AC0EFF0FFF6FD5763942701638759
:10480000F400CA8526862285EFF0DFEF2285F2408C
:104810006244D244424905618280411106C622C4E5
:104820002A848547A306F5002306F500232A0506FA
:10483000232C0506EF109002B72781409387873419
:1048400080C7B24022444101828001458280834773
:10485000D500139787016187634A070E13F7F701A5
:1048600075E7411106C622C493E707F8A306F500D1
:10487000B7278140938787349C4F372781401307A0
:1048800007366394E70281470DA0D84358C11CC185
:1048900008C3C8C3B9A0BE86372781401307873431
:1048A000584F6381E6029C4385C399CF8306E50098
:1048B0000387E700E381E6FE158FE348E0FCBE8650
:1048C000E1FFDDB78147CDB7B727814093878734B4
:1048D000D44F372781401307073618C154C188C207
:1048E000C8CFB727814093878734804FB72781404F
:1048F000938707366308F40215C4B727814093876E
:10490000873498478347D700FD8B9DE38356E700A4
:104910009307F00763FED700B7278140938787345A
:10492000D8CB0DA0B727814093878734C047F1B714
:10493000630587002285EF001075B72781409387B4
:104940008734C0CBB2402244410182808280411131
:1049500006C622C48347D500139787016187634148
:104960000704B7278140938787349847804FB7273C
:104970008140938707366302F40421C06305A704CE
:104980008347D700FD8BA1E38356E7009307F00729
:1049900063FBD702B727814093878734D8CB35A8EC
:1049A00093F7F707A306F50058411C411CC3D8C371
:1049B00023200500232205006DB7B7278140938788
:1049C0008734C04765BF630587002285EF00B06B61
:1049D000B727814093878734C0CBB240224441013E
:1049E0008280411106C622C426C22A84AE84EFF01A
:1049F0001FF68347D40093E72700A306F400B9C449
:104A000004C49C406390F402814729A8D84358C04D
:104A10001CC000C3C0C31DA83E87D4406301D70299
:104A20009C4385C399CF8306E4000387E700E385B1
:104A3000E6FE158FE34CE0FC3E87E5F3DDB78147EA
:104A4000CDB7DC4004C05CC080C3C0C0B2402244CB
:104A5000924441018280411106C66105EF10A01108
:104A6000B24041018280411106C622C426C24AC01A
:104A7000AA842A8900416300850421C058401C4053
:104A80001CC3D8C323200400232204008347D4007E
:104A9000F59BA306F4002324040013058401EF1002
:104AA000800D232004082285EFF07FDA8040E31692
:104AB00089FC0144D9B70144C9B7B24022449244A9
:104AC000024941018280011106CE22CC26CA4AC881
:104AD0004EC652C456C2AA842E84B72781409387FB
:104AE000873403A987008347D90013F707063DCB16
:104AF00013F7070225CFA14933F7F90025E7B3E7FC
:104B0000F900A306F900139787016187634207063E
:104B1000A147638EF906814AB7278140938787347E
:104B200003AA8701B727814093870736630EFA0AE5
:104B3000630C0A0AB7278140938787349C476385B3
:104B400047015285EF003054B7278140938787345F
:104B500023AA4701C1476387F9004A85EFE0BFB741
:104B6000639B0A082188732004305DA8C14969B796
:104B700093F7F707A306F9000327490083270900E5
:104B80001CC3D8C3232009002322090051B783275F
:104B9000890095C303274900832709001CC3D8C394
:104BA00023200900232209008347D900F59BA3068F
:104BB000F900232409004A85EFF0FFE91305C9062F
:104BC000EFF07FEAB7278140938787349C476304DF
:104BD000F900814A91B7B727814083A7873499E3C9
:104BE000814A1DBF854A0DBFB7278140938787340F
:104BF00003AAC70081B7B7278140938787349C47B2
:104C000023A2F70837258140130585EEEFF0FFC09A
:104C100091BF73740430EFF02FC0218873200430EB
:104C200083C7D40093F70706EDF7F2406244D244FD
:104C30004249B249224A924A05618280B286FD57B2
:104C40006395B7006313F6008280411106C62E8675
:104C5000B7558040938585E76105EF00905BB240D2
:104C600041018280411106C622C426C24AC02A845C
:104C70003289B684EFF0FFD6CA8526862285EFF00A
:104C8000FFFBB2402244924402494101828041111B
:104C900006C622C48347D500139787016187634501
:104CA00007028347D50093E707F8A306F500B72767
:104CB0008140938787349C4F3727814013070736FD
:104CC0006391E704814735A893F7F707A306F5003A
:104CD00058411C411CC3D8C32320050023220500D2
:104CE000C9B7D84358C11CC108C3C8C3B9A0BE8640
:104CF0003727814013078734584F6381E6029C436E
:104D000085C399CF8306E5000387E700E381E6FECC
:104D1000158FE348E0FCBE86E1FFDDB78147CDB7E4
:104D2000B727814093878734D44F372781401307B3
:104D3000073618C154C188C2C8CFB72781409387AE
:104D400087349847804FB72781409387073663059C
:104D5000F4021DC06308A7028347D700FD8B9DE3C3
:104D60008356E7009307F00763FED700B72781401B
:104D700093878734D8CB0DA0B7278140938787349A
:104D8000C047C9BF630587002285EF00D02FB72732
:104D9000814093878734C0CBB24022444101828056
:104DA000411106C622C426C22A848147F374043006
:104DB00031A093F7840073A00730854789EB2285E3
:104DC000EFF0BFA87DF52285EFF07FA8DDB7B240F8
:104DD00022449244410182808147F37604302DA021
:104DE00058411C411CC3D8C32320050023220500C1
:104DF0008347D500F59BA306F5002324050093F710
:104E0000860073A00730854781E71C45F1FBC5BFCD
:104E10008280411106C622C426C22A848147F374C7
:104E2000043031A88347D400ED9BA306F40022850B
:104E3000EFF0FFA193F7840073A00730854785EB5F
:104E40008347D40093F78702F5F71C44E1DF58400D
:104E50001C401CC3D8C32320040023220400834722
:104E6000D400F59BA306F4002324040065BFB240E0
:104E70002244924441018280411106C68545211594
:104E8000EFF03FF9B240410182802A878147737673
:104E90000430014539A001459377860073A007309F
:104EA00085478DE70843E308A7FE7DD554411C41A3
:104EB0009CC2D4C323200500232205008347D500CC
:104EC000F59BA306F50023240500F9B78280411164
:104ED00006C622C42A84EFF03FF013058401EF00D8
:104EE0009049B240224441018280011106CE22CC79
:104EF00026CA4AC84EC652C42A84AE848147F37972
:104F000004300149D5A093F7F707A306F4005840F1
:104F10001C401CC3D8C32320040023220400939602
:104F20008401E1862307D4008347D40093E707F880
:104F3000A306F400B7278140938787349C4F372717
:104F40008140130707366394E70281470DA0D843D9
:104F500058C01CC000C3C0C3A9A03E8637278140EB
:104F600013078734584F630FE6009C4391CF89CFD6
:104F70000387E700E383E6FE158FE34AE0FC3E8605
:104F8000F1FFEDB78147DDB7B727814093878734BD
:104F9000D44F372781401307073618C054C080C24A
:104FA000C0CFB72781409387873403AA8701B727EB
:104FB0008140938707366306FA0463040A04B7271F
:104FC0008140938787349C476305FA005285EF0040
:104FD000900BB72781409387873423AA470193F723
:104FE000890073A007308547D1E78347D40013F7C2
:104FF000F7011339170001DB898B99EB2307940024
:10500000F9BFB72781409387873403AAC70045BFFC
:10501000144458401C401CC3D8C32320040023223E
:1050200004001396840161862307C4009C426390A8
:10503000F602814729A8D84358C01CC000C3C0C38A
:1050400079BF3E87CC42630FB7009C4391CF89CF95
:105050000387E700E307E6FE118FE34EE0FC3E879F
:10506000F5F3EDB78147DDB7DC4214C05CC080C307
:10507000C0C2B5B74A85F2406244D2444249B249FF
:10508000224A056182808147F376043005A0B72764
:1050900081409387873498478347F700FD17A3071C
:1050A000F70093F7860073A007308547EDD3828021
:1050B000B727814093878734C84B8280411106C649
:1050C00022C426C24AC02A84B727814093878734E6
:1050D00003A98700D5572320F908F3770430EFF0B0
:1050E0003FFD630FA900AA84B727814093878734C7
:1050F00088C7EF004079CA8503A54408EFE08F997F
:10510000218873200430B7278140938787349C47D8
:1051100003A50708B240224492440249410182801B
:10512000937785008DC7372781400327873405E3B0
:105130003727814013078734544B18476389E600AB
:10514000411106C6EFF09FF7B2404101828073A083
:1051500007308280411106C622C426C28147F374FB
:10516000043035A03727814013078734404799A082
:10517000638587002285EF000071B7278140938700
:105180008734C0CB93F7840073A007308547B9E319
:1051900037278140130787341C4783C6F7008506ED
:1051A000A387D700004F3727814013070736E30B4B
:1051B000E4FA4DD803C7D7007D8B5DFB83D6E700AB
:1051C0001307F007E376D7FA3727814013078734B0
:1051D0005CCB4DBF73750430EFF09FF4B2402244B6
:1051E000924441018280411106C622C426C24AC0AF
:1051F0002E84B72781409387873403A98700D5572A
:105200002320F908B7278140938787366384A70056
:10521000F3770430EFF0DFE9AA84630DA900B72724
:1052200081409387873488C7B92DCA8503A5440870
:10523000EFE04F86218873200430B72781409387A1
:1052400087349C4703A50708B24022449244024990
:1052500041018280411106C622C42E84B285368661
:10526000BA86F3770430B72781409387873488471D
:10527000EFF05F9FA2853725814013058536EFF05B
:105280009FF6B24022444101828093F785008DC78A
:10529000372781400327873405E3372781401307E9
:1052A0008734544B18476389E600411106C6EFF076
:1052B0009FF3B2404101828073A007308280B727FC
:1052C000814093878734D84B944723A2A60898C778
:1052D000032547088280411106C622C426C24AC05F
:1052E000AA842A8900416304A400014521A0014445
:1052F000EDBF054501CC2285EFF07FBD2285EFF0A3
:105300003FAA8040E31789FE0144E5B7B24022443A
:105310009244024941018280930745005CC11CC54B
:105320008280411106C6372581401305C535EFF04F
:10533000BFFEB24041018280411106C622C426C28E
:10534000F3740430B7278140938787349847DC4F44
:105350006308F7001C435443184398C254C319A868
:105360008147D5BF3727814013078734584F63885B
:10537000E7029C439DC737278140130787341047B6
:105380008306E6000387E700E38EE6FC158FE35B08
:10539000E0FCD84358C21CC210C3D0C30DA0814743
:1053A000D1BFB7278140938787349847D04FB7261E
:1053B00081409386063614C350C318C2D8CFB7278E
:1053C000814093878734804FB72781409387073682
:1053D000630DF4021DC8B7278140938787349C472B
:1053E0006304F40022854521B727814093878734E1
:1053F000C0CBA6853725814013058536EFF0BFDE8B
:10540000B2402244924441018280B7278140938771
:105410008734C047C9B7011106CE22CC26CA4AC874
:105420004EC6B3E7A500A5C7AA842E84F37904303D
:10543000372981401309893403258900EFF02FD1E2
:10544000032589002686A286B7558040938585E787
:105450006105C1232A84032789008347D70093E786
:105460004700A306F700CE85372581401305853612
:10547000EFF07FD7832789009857DC5709CF014584
:10548000F2406244D2444249B24905618280EFF061
:10549000BFEA0145F5B737070080E392E7FEEF006A
:1054A00050093305A440E34DA0FC0145D1BF411193
:1054B00006C622C426C22A84AE84EFF0DFF5AA878E
:1054C0007D576305E40693D6F74113879700B337FA
:1054D000F700B6973A86BE8689E7B9EFA54563FD22
:1054E000E504914563E0D5068145B306F70063E323
:1054F000C604AE961546B3F6C602B306D740333798
:10550000D700998F37D7CCCC1306D7CCB387C70237
:105510001307C7CC3387E602BA973385C602B3B602
:10552000C602B697FE0705815D8D01A82285E39C22
:10553000E4F821A0854575BF0145B240224492445C
:1055400041018280370500807D15C5BF411106C627
:1055500022C426C2F37404308347D500918B89EBB3
:10556000A18873A00430B240224492444101828059
:105570002A84610509258347D400ED9BA306F40026
:105580002285EFF0CFACA6853725814013058536FF
:10559000EFF0BFCFC9BFB7278140938787348847D3
:1055A0008280011106CE22CC26CA4AC84EC652C4F9
:1055B00056C28347C50093F91700737904308344BA
:1055C000D50093F7840085EF2A84CA8A130AC5069A
:1055D000EFF0AFA735C193E40402A3069400B72708
:1055E000814083A787348DCBCA852285EFF0AFCD6C
:1055F000638B0900114581427300000029A01379D3
:10560000890073200930F2406244D2444249B249D1
:10561000224A924A05618280B7278140D2859387CA
:1056200087348847EFF0EFBBCA85372581401305E3
:105630008536EFF05FBB6DBF93E78400A306F400EF
:10564000E207E18763C707081C4485C358401C4034
:105650001CC3D8C323200400232204008347D400A2
:10566000F59BA306F40023240400130584012123E1
:105670005285EFF04FBFB727814093878734984713
:105680006308E406014AB727814093878734844F33
:10569000B7278140938707366385F406BDC063044E
:1056A00097002685CD22B727814093878734C4CBC6
:1056B0002285EFE04F82631C0A04B727814093875D
:1056C00087349C476303F4061379890073200930FB
:1056D00005B793F4F40793E48400A30694005840BC
:1056E0001C401CC3D8C32320040023220400A9BFEC
:1056F000B727814083A7873499E3014A69B7054AF0
:1057000059B7B727814093878734C44749BFB72724
:105710008140938787349C4723A2F708372581402F
:10572000130585EEEFF06F8F49BFB727814083A740
:105730008734D9FB8347C400858B89EBD685372511
:10574000814013058536EFF01FAA5DB513798900F6
:10575000732009301145814273000000F37A043050
:10576000F1BF411106C6EFF0DFE3B2404101828094
:10577000011106CE22CC26CA4AC84EC652C4AA84FB
:105780002E8AB289814773790430014531A093771D
:10579000890073A007308547A1E38040E38984FE38
:1057A0007DD4232044092328340158401C401CC3C5
:1057B000D8C323200400232204008347D400F59B90
:1057C000A306F40023240400130584016D2622851A
:1057D000EFF0EF87054565BFF2406244D24442498D
:1057E000B249224A05618280411106C622C43E8424
:1057F000EFF05FA601C8B7278140938787349C47A5
:105800009C4B1CC0B240224441018280B72781409A
:10581000938787F7B307F5408D8737B7AAAA130791
:10582000B7AAB387E702372781401307C78EBA9715
:1058300005472380E70082800357E5009307F007C0
:1058400063E9E70283A7818195C70307E500B727CE
:10585000814083A7078F6342F7028347D500FD8B02
:1058600099EFB7278140938787DC630CF500854764
:1058700011A0814713F5170082808147E5BF81475A
:10588000D5BF8147C5BF411106C622C426C24AC042
:105890002A89B72781409387873483C407011394EB
:1058A000140026940E04B7278140938787F73E940F
:1058B0002285D124B72781409387C78EBE94238049
:1058C00004004A85EFF05FF719E5B24022449244A4
:1058D00002494101828003A681817D169356F641DB
:1058E000B76580409385C58022852522F9BF411187
:1058F00006C622C426C273740430B727814093873A
:105900008734844783C70701372781401307C78E31
:10591000BA9783C7070081CF2685EFF0FFF101C951
:1059200083C7D400FD8B81CF2685EFF0DFF521887A
:1059300073200430B2402244924441018280268583
:10594000EFF0EFB4D5B79387C18188436303F500C7
:1059500082800145F5BF09C91387C181584363049B
:10596000E5000841828001458280411106C622C4BB
:105970002A84EFF05FFE01CD1C4954491848504875
:105980003E97B337F700B296B69718C95CC958402E
:105990001C401CC3D8C32320040023220400B240AF
:1059A000224441018280411106C622C42A84EFF0BC
:1059B0009FF905CD18495C499356F441330587405A
:1059C0003337A700958F998F634BF00099C763CC4D
:1059D0000700B240224441018280E35A05FE3705A8
:1059E00000807D15FDB70145EDB7370500807D15B9
:1059F000CDB7B727814083A7478F99C301458280E0
:105A0000411106C697908001E780A029B24041016C
:105A10008280797106D622D426D24AD04ECE52CC7C
:105A200056CA5AC85EC62A84B289B68AFD576389A7
:105A3000C7000CC48147F37B043001498144C1A8ED
:105A4000E399F6FE014981444A85A685B250225465
:105A500092540259F249624AD24A424BB24B4561D2
:105A60008280EFF01FF92A8A93841900B3B63401BB
:105A7000D6961357F541AA94B3B7A4003697BA97B0
:105A800004C85CC837278140032987870327C78755
:105A90002699B3349900BA97BE94054B75A011E3CB
:105AA000CDE38547014771A8B306D7403337D70008
:105AB000918F998F14C85CC8EFF0FFE90DC91449A4
:105AC000504918485C4863C6C700E31FF6FCE37DF5
:105AD000D7FC3387E640B3B6E6001D8E158E18C995
