:100000006F0000106F00C00F6F00800F6F00400F77
:100010006F00000F6F00C00E6F00800E6F00400E6B
:100020006F00000E6F00C00D6F00800D6F00400D5F
:100030006F00000D6F00C00C6F00800C6F00400C53
:100040006F00000C6F00C00B6F00800B6F00400B47
:100050006F00000B6F00C00A6F00800A6F00400A3B
:100060006F00000A6F00C0096F0080096F0040092F
:100070006F0000096F00C0086F0080086F00400823
:100080000000000000000000000000000000000070
:100090000000000000000000000000000000000060
:1000A0000000000000000000000000000000000050
:1000B0000000000000000000000000000000000040
:1000C0000000000000000000000000000000000030
:1000D0000000000000000000000000000000000020
:1000E0000000000000000000000000000000000010
:1000F0000000000000000000000000000000000000
:100100005D7116C21AC41EC672C876CA7ACC7ECE7B
:100110002AD02ED232D436D63AD83EDA42DC46DE67
:1001200006C0A2C4176404001304C4D0F322103420
:1001300096C0F32300309EC2F322203493D2F20102
:10014000639F0206F3222034B7030080FD13B3F24D
:1001500072002D43638862020A8539718322850407
:1001600016C426C64AC84ECA52CC56CE5AD05ED203
:1001700062D466D66AD86EDA23262504EF60E026BC
:10018000216145A88642910296C092426384020092
:100190000D4511A002558A85397183A2850416C4C4
:1001A00026C64AC84ECA52CC56CE5AD05ED262D467
:1001B00066D66AD86EDA23A625046F50B05703239B
:1001C00004009303130023207400631703008A8242
:1001D00003214400411116C073252034B70200806A
:1001E000FD1233755500EF002008977201009382CD
:1001F00062B80E05AA9203A5020003A34200E7001D
:10020000030083230400FD1323207400639303027F
:1002100002410C4441112EC013050000EF9040052F
:100220008245410119C5EF5070451764040013045D
:1002300064C0864296437390123473900330264410
:1002400092422243B243424ED24E624FF24F025587
:1002500092552256B2564257D2576258F2588240AF
:10026000616173002030000082800000411106C6E9
:10027000EF00817797F08201E78060CAEF50C01FDE
:10028000EF607041411106C622C42A84A947630D5C
:10029000F5001375F40F970080FFE78060DC0145DF
:1002A000B2402244410182803545970080FFE780BB
:1002B00020DBC5B7411106C6EFE0C05FB240410187
:1002C0008280797106D622D426D24AD04ECE2A898F
:1002D0002E84B289B684EF20802B02C67C0026874C
:1002E000CE862286CA850145EFD0F016B30794006A
:1002F000370700426369E400FD173707004363E0F6
:10030000E704814711A0814713F6170037870C6077
:1003100054431346F6FFF18E54C38983544393C765
:10032000F7FFF58F5CC3A68522856937EF2080280B
:10033000B250225492540259F24945618280A54735
:10034000E1B7411106C622C426C22A84AE84EF203A
:1003500000242686A2850145EFD0101FEF208025BE
:10036000B2402244924441018280BDC5014601430E
:100370008148B1A0B78784401317260032970E0733
:100380009387C7F1BA9703A84702C28711A0DC532D
:1003900095C7E38E07FF3787844093162600B296F1
:1003A0008E061307C7F13697185758431843E300D2
:1003B000F7FE984FE31DA7FC3E8385480506B787E7
:1003C000844083A7C7F1E367F6FA638A08008327AE
:1003D00043019CC1014582801305201082801305D2
:1003E00050108280411106C6EF10D078B240410112
:1003F0008280411106C622C42A841C4591C79C43B1
:1004000081C74845829711E508401C419C4382976B
:100410000145B240224441018280411106C622C4F6
:100420002E841C4599C7DC4389C74845829711E053
:100430002A842285B240224441018280011106CEE5
:1004400022CC26CA4AC84EC6AA842E84B6893A89C6
:1004500001EAB767814083A747439C4382970DE930
:1004600088401C41FC4391C74A86CE85829711E0A3
:100470002A84B767814083A74743DC43A28526854A
:100480008297F2406244D2444249B2490561828077
:1004900011E02A842285F5B75C4199C30545828025
:1004A00001458280AA87084109C9411106C6ED3776
:1004B00011CD0145B2404101828037F783400325C9
:1004C000876788C37DF119650D05828019650D0563
:1004D000D5B7011106CE22CC26CA4AC84EC6AA8478
:1004E0008329850103A9818321A81109B767814068
:1004F00083A74743DC43A285268582972A8439E176
:10050000032409001DC42685413F05E5C0C0B76727
:10051000814083A747439C43268582972A841DE117
:10052000DC409C47CE852685829761D123A20400BA
:100530006DBF2685953731C103A78184894763EB59
:10054000E70001442285F2406244D2444249B24964
:1005500005618280EFA0F028AA85DC4094433766CD
:100560008140130686443765814013050583970053
:1005700080FFE780A0AB0144F1B713045010D9B756
:10058000797106D622D426D24AD04ECE52CC2A84B5
:10059000AE84B28911372A89B767814083A7474360
:1005A0009C432285829729E9630909005C4003A9DD
:1005B000070663040900228A39A0032A040083275E
:1005C0000A0003A98700A68552850299AA85638E31
:1005D000090001ED6C0052850299AA8519E5984041
:1005E000B2476304F70099658D05B767814083A71B
:1005F0004743DC4322858297B250225492540259D9
:10060000F249624A45618280797106D622D42AC6AF
:100610002E84B767814083A747439C476800829731
:1006200031E132455C419C4BB1C321C4B767814085
:1006300083A747439C43829715E532455C419C4B19
:100640006C088297AA8501E9B247D84B19E3724733
:10065000D8CBF2471CC0B767814083A74743DC4330
:1006600032458297B2502254456182801965150542
:10067000D5BF13052010FDB7797106D622D426D236
:100680004AD04ECE6306051A2A891C416385071A93
:1006900098436305071ADC436385071A832905011C
:1006A00002C6BD4763FD3705B707884083A7C7FE6D
:1006B0009C433EC6B247232CF9004A85F13B09E52D
:1006C0004A85013D2A8471E92C004A85353F2A84F8
:1006D00029E983274900FC5BA5CB4A8582970989D4
:1006E0002DE92247B707000163F5E70603A78184D8
:1006F000854763ECE70CB70700013EC499A8A944FD
:1007000011A0BE846C004A85EF00A11E2A8499675F
:100710008D076316F5009387F4FFE34490FE59D8E4
:10072000ADA883A78184B5CBEFA0B00BAA853766AF
:10073000814013068644376581401305058597007F
:1007400080FFE780A08E91A803A78184854763EE90
:10075000E70403A78184894763E9E708B767814015
:1007600083A747439C434A8582972A841DE5BD475A
:1007700063EC370183274900BC4F4A858297930772
:100780008010630FF5082A84B767814083A7474329
:10079000DC43A2854A8582972A842285B25022545E
:1007A00092540259F24945618280EFA09003AA85D4
:1007B000376681401306864437658140130585936B
:1007C000970080FFE780808669B7EFA09001AA8537
:1007D0003766814013068644376581401305458797
:1007E000970080FFE780808439B7EFA0807FAA85DB
:1007F0000327090193172700BA978607B766814038
:100800009386469BBE9637668140130686443765BD
:1008100081401305058E970080FFE78020813DBF52
:1008200083270901F1170547E360F7F62A84A9BF7A
:10083000130420109DB71304201085B71304201053
:10084000A9BF1304201091BF397106DE22DC26DA1D
:100850004AD84ED652D456D25AD02AC62E89B284FD
:10086000B767814083A747439C47680082972A84E3
:100870006312051CB247D843144F6382061A584FBF
:100880006302071A91CB9847184719C72686CA856D
:10089000C8470297631B051832455C41D84F59C7BA
:1008A00083AA470283A907026384091833F73A032E
:1008B000631D07185849636D2719330A9900636C43
:1008C000471933773903631B071833F73403631A67
:1008D000071863810416985F29C783C70703B1C34C
:1008E000B767814083A747439C4382972A84631359
:1008F0000514814701483ECC42CE32455C419C5FA5
:100900002C088297AA8511E562487245B367A80052
:10091000A5EBB767814083A74743DC433245829705
:100920002A8463190410268A4A8B59A0814A9DBFE4
:1009300013161500FD47998F3316F600B357E800DC
:10094000D18F1DA00507B247DC4383C60703E352DE
:10095000D7FCE1F1D45B93173700BE96930707FEEF
:10096000E3C807FCB357F500858BE9DF9042DC4212
:10097000B297E37946FDE377F9FC99659905D9B714
:100980002E87D1B732455C419C4FDA8582974E9BCA
:10099000330A3A41637E9A043DED63000A08B76763
:1009A000814083A74743DC4381453245829729E54F
:1009B00032455C41BC5789C7814582972A843DE90D
:1009C000B767814083A747439C43324582971DE523
:1009D000E38A0AFAE3685AFBB3775B03C5F732454B
:1009E0005C41DC4FDA858297569B330A5A415DB7EA
:1009F00097D08301E780805C054611A00146B76768
:100A0000814083A74743DC472687CA86AA853245AB
:100A100082972A8405A00546DDB70546CDB719643F
:100A2000150409A81964150431A01304201019A095
:100A300019640D042285F2506254D2544259B259BD
:100A4000225A925A025B2161828019640D04DDB73B
:100A500013042010C5B713042010E9BF130420109D
:100A6000D1BF13042010F9B7397106DE22DC26DA73
:100A70004AD84ED652D456D25AD02AC6AE893289D6
:100A8000B684B767814083A747439C476800829735
:100A90002A847DE5B247D843384375CF6380091077
:100AA000D84B63602711B3069900636FD70EE9C86E
:100AB000370480BF4E94370708003334E40088437E
:100AC0001C419C5BCE858297418D1375F50FA68ADC
:100AD000916763F39700916A05E102CE32471C47A4
:100AE0009C4B81CB7008D685484782972A8AF24A68
:100AF00021E91304101069A0014A99A0CE85A9A884
:100B000032455C41BC43DA864A8682972A8431E9C1
:100B1000B767814083A74743DC43AA853245829764
:100B20002A8463090A005A86D2854E85970080FF81
:100B3000E78000985A99B3846441DA991DE895C812
:100B4000B767814083A747439C43324582972A84F5
:100B50000DE1E3050AFAD285268BE3F39AFA568B68
:100B600045B7B767814083A74743DC43AA85324531
:100B7000829732471C47DC4B81C7D2854847829712
:100B80002285F2506254D2544259B259225A925A92
:100B9000025B2161828019641504DDB71304201003
:100BA000C5B713042010E9BF13042010D1BF1D7175
:100BB00086CEA2CCA6CACAC8CEC6D2C4D6C2DAC015
:100BC0005EDE62DC2AC6AE89B28B368AB7678140A8
:100BD00083A747439C47680082972A8463110516C0
:100BE000B247D84378436301071491CB984718471D
:100BF00019C75286DE85C8470297631A0512638BB0
:100C0000091232475C4B63EA7713B3864B0163E505
:100C1000D71463060A12370480BF4E94B707080042
:100C20003334F40008431C41DC53CE858297336C87
:100C30008500137CFC0FD2845E8BA9A8CE8A324536
:100C40005C41BC5789C7814582972A846DE9B767A3
:100C5000814083A747439C43324582972A8425E9F4
:100C600032455C41FC43CA865A86D68582972A84DF
:100C7000B384244163F9440559E5D1C8B76781407D
:100C800083A74743DC43AA85324582972A8435ED02
:100C90004A9BCA9963080C0026898967E3F097FA92
:100CA000096969BF26899307000263F49700130955
:100CB00000024A86CE85080897F07FFFE780407FD4
:100CC000930A0101ADBF97D08301E780202F014631
:100CD000B767814083A74743DC475287DE86A285FA
:100CE0003245829729CD83A78184B1CBB7658140F6
:100CF00093858544376581401305854197F07FFFD3
:100D0000E780C0322DA80546E1B70546D1B7B767E1
:100D1000814083A74743DC475287DE860546AA8584
:100D2000324582972A8421A81964150409A813045E
:100D3000201031A01304201019A0130420102285C4
:100D4000F6406644D6444649B649264A964A064B7A
:100D5000F25B625C2561828013042010CDB739718B
:100D600006DE22DC26DA4AD84ED62AC6AE84B289FE
:100D70003689B767814083A747439C4768008297BD
:100D80002A8421E9B3872401370788400327C7FE57
:100D90005843636EF702630E0902638409044175C8
:100DA000658D898C380874080146B3852401EFF0FD
:100DB00030232A8419ED4A86F245A6954E8597F090
:100DC0007FFFE780E06E6245EFF0D02D19A013049D
:100DD00040102285F2506254D2544259B2592161D6
:100DE000828013042010F5B7197186DEA2DCA6DA22
:100DF000CAD8CED6D2D4D6D2DAD0DECE2AC6AE89E2
:100E0000328AB684B767814083A747439C4768000E
:100E100082972A84631C0520B247D8437843630233
:100E2000072037F7834003278767639FE71E91CB2F
:100E30009847184719C72686CE85C8470297631377
:100E4000052063040A20B38799003245584963613D
:100E5000F72093F7F900B9E7638A041C13F9F4004B
:100E600063150906370B80BF529BB70708006378EC
:100E7000FB0EB767814083A747439C4382972A8430
:100E800079CD83A781846383071AB76581409385F1
:100E90008544376581401305853797F07FFFE780EC
:100EA000E01869A283A7818481E713042010BDAAFA
:100EB000B765814093858544376581401305853D3D
:100EC00097F07FFFE7808016CDB783A7818481E705
:100ED00013044010A1AAB765814093858544376506
:100EE00081401305C53997F07FFFE7802014CDB707
:100EF00093F7FA0191E7B38724417D47636AF708C6
:100F00004146B3052A01080897F07FFFE780405A61
:100F1000C146B68BB7070800636BFB00B76781401B
:100F200083A747439C43324582972A844DE9324543
:100F30005C41BC4BDE8656860C0882972A8445E1CC
:100F4000B7070800636CFB00B767814083A747437E
:100F5000DC438145324582972A8451E15E9963756D
:100F60009904B30A390193F7FA03D9F3B3872441FB
:100F70001307F003E37EF7F613060004B3052A0116
:100F8000080897F07FFFE780A0529306000451B74E
:100F900013060002B3052A01080897F07FFFE780D7
:100FA000205193060002B5B7B7070800637CFB0029
:100FB000B767814083A74743DC4381453245829729
:100FC0002A8411EDB767814083A74743DC47268712
:100FD000CE860146A285324582972A8481A8376948
:100FE000814083274943DC438145324582978327EB
:100FF0004943DC472687CE860146A2853245829743
:1010000015C583A781849DC3B765814093858544B9
:10101000376581401305C53597F07FFFE7800001F4
:1010200031A01964150419A0130460102285F6502C
:101030006654D6544659B659265A965A065BF64B0C
:101040000961828013042010D5B713042010F9BF62
:1010500013042010E1BF011106CE22CC26CAAA84B7
:101060002E8423A0050002C66C00EFF00FB019C556
:101070000145F2406244D2440561828002C4B24715
:10108000858B99CB380089460546A685EFC0B052BE
:10109000A2471CC00545F1BF380085460546A68518
:1010A0000145EFC05051EDB7797106D622D426D252
:1010B0004AD04ECE52CC4177B379E5003305354165
:1010C0002E95C167FD173309F5003379E9004E8489
:1010D000014A29A8014A5285B25022549254025919
:1010E000F249624A45618280C1673E94B387290113
:1010F000E373F4FEB707884083A7C7FEDC43E37BB6
:10110000F4FC02C66C002285B937AA8471DD324531
:1011100061DDC165EFD0007A268AF9B7411106C6B4
:1011200022C426C24AC001440149814409A881471A
:1011300005473317A7003369E900DD8C050495479F
:1011400063E287022285EFF080679307F003E3E70D
:10115000A7FE130705FEE34C07FC8547B397E7009E
:101160000147D1BF4A85A685EFF0B014B2402244B2
:101170009244024941018280411106C62E8597F0B2
:101180007FFFE78020EC0145B240410182804111A0
:1011900006C60945EFD0C06E0145B24041018280CC
:1011A000411106C60945EFD0C06B0145B24041016F
:1011B000828001458280411106C622C426C24AC0EF
:1011C0002E8432892E85EF90B027954701A805809F
:1011D0000D0471982285EF90B026A68709E59384C7
:1011E000F7FF91C36DF409C923208900B24022445E
:1011F00092440249410182800144FDB7411106C673
:1012000022C42A84EF80B05081473387A5006365EC
:10121000A7043E9795473377F7023307E540333508
:10122000E500B387A540B7D6CCCC1386D6CCB38720
:10123000C7029386C6CCB306D702B697B306C702D9
:101240003337C702BA97FE0713D716005D8F18C44D
:10125000B240224441018280854765BF411106C6E4
:1012600022C42A84B707844083C7978089C705456D
:101270008145EF80E023228551370145B240224469
:101280004101828099E519C22320060013057010E0
:101290008280411106C697D08301E78020D2411198
:1012A00006C62E85EF903018B24041018280411170
:1012B00006C62E8597F07FFFE780C0D80145B24073
:1012C00041018280411106C6EF10C02EB24041019B
:1012D0008280411106C60145F5370145B240410102
:1012E0008280411106C6EF10802AB24041018280FF
:1012F000411106C60145F5370145B24041018280E2
:10130000411106C697F07FFFE78000D4B7470F0072
:10131000938707243305F502B240410182804111D1
:1013200006C6EFB0B014B24041018280411106C63A
:10133000EFB02050B7470F00938707243305F5021D
:10134000B240410182809DC11C4198435C4B85891C
:101350009396A50093F7F7BFD58F5CCB1C419843BC
:101360005C4BA60593F7F7DFCD8F5CCB828099C5E8
:101370001C4198435C4B93E7F71F5CCB82801C4178
:101380009C43D84385891396D501B70600E0FD1626
:10139000758F518FD8C3D84313969501B70600FEB9
:1013A000FD16758F518FD8C3D8431396A501B70684
:1013B00000FCFD16758F518FD8C3D8431396B50125
:1013C000B70600F8FD16758F518FD8C3D843139612
:1013D000C501B70600F0FD16758F518FD8C31C41AB
:1013E0009443DC42FA05370700C07D17F98FCD8F93
:1013F000DCC282801C419443DC4A85891396150126
:1014000001777D17F98FD18FDCCA1C419443DC4AE8
:10141000CA053707FCFF7D17F98FCD8FDCCA8280A4
:101420001C419443DC42858913967501370780FF80
:101430007D17F98FD18FDCC21C419443DC42E20559
:10144000370700FF7D17F98FCD8FDCC282801C41EA
:10145000D8431C4F85898605F59BCD8F1CCF828094
:101460001C41D8431C4F85898A05ED9BCD8F1CCF2D
:1014700082801C419443DC428589DA053707C0FF2E
:101480007D17F98FCD8FDCC282801C419443DC42F2
:101490001396F501370700807D17F98FD18FDCC2D5
:1014A0001C419443DC428589D6053707E0FF7D1750
:1014B000F98FCD8FDCC28280411106C60841EF1042
:1014C0000006B24041018280411106C60841EF107A
:1014D0008002B2404101828001159D4763E8A70266
:1014E0000A05938701323E951C418287054582801B
:1014F000114582801305400382801305401C8280C1
:10150000130540348280130500048280411106C611
:1015100097D08301E78080AA214582802D45828073
:10152000011106CE22CC26CA4AC84EC6AA892E84EC
:10153000F37704305CC18144014919A0058085041A
:101540001DC493771400FDDB93973400CE97039965
:101550008700130719002394E700E31109FE93970E
:101560003400CE97DC4785454E858297C1BF83A75F
:101570004900A18B73A0073063490900F24062441F
:10158000D2444249B2490561828097D08301E78005
:10159000E0A2011106CE22CC26CA4AC84EC6AA89AC
:1015A0002E84F37704305CC10149814419A0058081
:1015B00005091DC493771400FDDB93173900CE97FE
:1015C00083948700FD14C204C18423949700E5F03E
:1015D00093173900CE97DC4781454E858297C1BF6E
:1015E00083A74900A18B73A0073063C90400F240B0
:1015F0006244D2444249B2490561828097D0830156
:10160000E780C09B376581401305855C828041116E
:1016100006C622C426C2FD37F37704305CC10144FC
:1016200035A0CD37A2850841EF009065AA84D93F47
:10163000B7678140131724009387075ABA979043DE
:10164000458EA2850841EF0030550504A547E3DA31
:1016500087FC4D3F5C41A18B73A00730B240224410
:10166000924441018280411106C622C42A84593F16
:10167000AA877377043058C1130710026300E4048B
:1016800013072002630EE40C130700026306E40054
:1016900097D08301E780809218411843144B93E65A
:1016A000064014CB144B93F6F6BF14CBDC43A18B4E
:1016B00073A00730B2402244410182801841184390
:1016C000144B4166D18E14CB144B41767D16F18EAE
:1016D00014CB18411843144B2166D18E14CB144BF4
:1016E00061767D16F18E14CB18411843144B3706E2
:1016F0000040D18E14CB144B370600C07D16F18EFE
:1017000014CB18411843144B37060002D18E14CB6A
:10171000144B37060004D18E14CB144B3706000847
:10172000D18E14CB144B37060020D18E14CB144B22
:10173000370600FE7D16F18E14CB144B370600FCE5
:101740007D16F18E14CB144B370600F87D16F18E02
:1017500014CB144B370600E07D16F18E14CBB9B7CD
:1017600018411843144B37060001D18E14CB144B8B
:10177000370600FF7D16F18E14CB0DBF411106C652
:1017800022C4130705FE9D4763EEE7002A84413516
:10179000228599332A84BD35A2855933B24022442B
:1017A0004101828097D08301E7804081411106C6C4
:1017B00022C4130705FE9D4763EBE700313B2A84F3
:1017C0009135A285F933B24022444101828097C00D
:1017D0008301E780A07E411106C613054002793FD0
:1017E000B24041018280411106C6130540027D3F8F
:1017F000B2404101828082808280411106C622C4AB
:10180000737404305D2C218873200430B24022446C
:1018100041018280411106C622C473740430292E0E
:10182000218873200430B24022444101828041115A
:1018300006C622C473740430812E218873200430BC
:10184000B240224441018280411106C6854537F5E8
:1018500083401305C568EF80901D19E57377043048
:10186000B7F7834023A8E768B24041018280411165
:1018700006C6854537F583401305C568EF80901C83
:1018800085476305F500B24041018280B7F7834088
:1018900083A70769A18B73A00730F5B7B7678140AD
:1018A0009387476503A5470C8280B767814093877C
:1018B000476503A5870C8280377581401305059A1B
:1018C0008280011106CE22CC26CA4AC8AE84328953
:1018D00011CD85476307F50037140B6013040440EE
:1018E00011A8371400601304040029A03704006015
:1018F000130404006303090C935649019317C900AC
:1019000033862741B3B7C7009D8E3385C400B337F4
:101910009500B697B335A000FD177D15BE9597F0DD
:101920007FFFE780E00A1307F5FF9307F00F63E6F8
:10193000E70892043309A90233D6240393574600DB
:101940008566FD16F58FC207C1835848F58FFD7671
:10195000758FD98F5CC85C483D8A5206370710FFE7
:101960007D17F98FD18F5CC8B7170B60938707403D
:10197000630BF404B7070060938707006309F4045E
:1019800037670960130707001C4B3EC67D15B24739
:101990001375F50F3205B716F0FFFD16F58FC98FD9
:1019A0003EC6B2471CCB8327840993E71700232C3C
:1019B000F40883278409858BEDFFF2406244D2440A
:1019C00042490561828097C08301E7808069B766DC
:1019D000096093860600DC423EC41307F5FFA24768
:1019E0001377F70F32073716F0FF7D16F18FD98F77
:1019F0003EC4A247DCC245BFB7F70A60984F1367E1
:101A0000470098CF984B1367170098CB1305F5F94B
:101A10001377F50FB14763EEE70813152700B76793
:101A200081409387C7C93E951C41828737070B6069
:101A30000325078213750520B70700019387F7F781
:101A4000232EF78085A837070B60032507821375BF
:101A50000510B70700019387F7FB232EF78099A89D
:101A600037070B600325078285677D8DB707000167
:101A70009387F7BF232EF78035A837070B60032520
:101A8000078213750540B70700019387F7EF232EF0
:101A9000F7800DA037070B600325078285679387C2
:101AA00007807D8DB70700019387F7DF232EF7802E
:101AB00011A00145133515008280011106CE22CCFC
:101AC00026CA4AC84EC63384E6409D4763C287068D
:101AD0002A89B289BA840D37B7C70218938707E0FD
:101AE000AA978A078C4337080002B3F50501EDF584
:101AF000A2093369390123A027019043B7050002E9
:101B00006D8E65FE884341811375F50F3355950041
:101B10000504FD57B397870093C7F7FF93F7F70FB7
:101B20007D8DF2406244D2444249B24905618280CF
:101B300097C08301E7808048411106C622C426C2AF
:101B40004AC02A843289B684453DB7C702189387B4
:101B500007E0AA978A079843B70500026D8F75F7CB
:101B6000220933642401C204458C37070001598CD3
:101B700080C39843B7060002758F65FFB2402244C8
:101B80009244024941018280011106CE22CC26CA2C
:101B90004AC84EC652C456C23E84B389E6409D47E9
:101BA00063C1370BAA8A328AB6843A89B135B7C580
:101BB0000218938505E0AA958A0503A80500B707D2
:101BC00000023378F800E31408FE220A33EA4A01DF
:101BD00023A0450103A80500B70700023378F800E9
:101BE000E31A08FE9441C18293F6F60FFD5733972E
:101BF00027011347F7FF8504B3949700458F758F2E
:101C00008509B397370193C7F7FFE18FB397270192
:101C1000D98FC2073707FF00F98FB3E747013707AE
:101C20000001D98F9CC19C4137070002F98FE5FF65
:101C3000F2406244D2444249B249224A924A056182
:101C4000828097C08301E7806037411106C6014555
:101C500097E07FFFE7808042054597E07FFFE780C0
:101C6000E041B7A70A60938707807D5798CB23A8E8
:101C70000700B7F70A60938707003D47D8D323A230
:101C80000702B7670960984F1367270098CF9843FA
:101C90001367270098C3D84713672700D8C7F84BA6
:101CA00013672700F8CB03A7C70B1367270023AEE2
:101CB000E70A03A7070B1367270023A8E70A03A770
:101CC00087101367270023A4E71003A7C70913672A
:101CD000270023AEE70803A787091367270023AC73
:101CE000E708984F759B98CF9843759B98C3D84742
:101CF000759BD8C7F84B759BF8CB03A7C70B759B93
:101D000023AEE70A03A7070B759B23A8E70A03A7DF
:101D10008710759B23A4E71003A7C709759B23AE03
:101D2000E70803A78709759B23ACE70803A7870C7F
:101D30001367270023A4E70C03A7070E13672700E8
:101D400023A0E70E03A7870D1367270023ACE70C3A
:101D500003A7470E1367270023A2E70E03A7070D6B
:101D60001367270023A8E70C03A7C70C13672700F6
:101D700023A6E70C03A7870C759B23A4E70C03A7F6
:101D8000070E759B23A0E70E03A7870D759B23AC59
:101D9000E70C03A7470E759B23A2E70E03A7070DC9
:101DA000759B23A8E70C03A7C70C759B23A6E70C1C
:101DB000B24041018280797106D622D4F377043093
:101DC000814601468145280897E07FFFE780C05C97
:101DD000EFA0B01D9307803EB3B5A7021306803E67
:101DE00081463385A70297F07FFFE78060BE2A8493
:101DF000280897E07FFFE780E05A8D4622868145DC
:101E0000280897E07FFFE780A05991462286854504
:101E1000280897E07FFFE780A0588545280897E0CD
:101E20007FFFE780A059280897E07FFFE780C05731
:101E300085473EC8B7870060938707003ECA0808F9
:101E400097E07FFFE7800056080897E07FFFE78074
:101E50002056080897E07FFFE780005589473EC479
:101E6000B7970060938707003EC6280097E07FFF82
:101E7000E7804053280097E07FFFE7806053280009
:101E800097E07FFFE780405297F07FFFE7808080F8
:101E90006D3BEFA0104A014597E07FFFE780C01F30
:101EA00001A04841B7F7EDED9387E7DE3E95133586
:101EB00015008280411106C622C426C24AC02A8467
:101EC0002E89B284F93F19CD08488D2EA9E0CA8524
:101ED00001460848A12419E9B2402244924402492B
:101EE0004101828097C08301E780400D37C781425E
:101EF00013078744B7C681429386463F1306D00432
:101F0000B7C581429385853FEFE07038F1B7CA8548
:101F100001460848492469D137C781421307C7479A
:101F2000B7C681429386463F1306F004B7C5814287
:101F30009385853FEFE0B03545B7011106CE22CC41
:101F400026CA4AC84EC6AA8432899307803EB389FE
:101F5000B70233B4B702B1370DC18848C524631343
:101F60000904CE8522868848552A01EDF240624454
:101F7000D2444249B2490561828097C08301E7801B
:101F8000E00337C7814213078744B7C6814293866F
:101F9000463F13069005B7C581429385853FEFE024
:101FA000102FE9B7CE8522868848F52261D137C740
:101FB00081421307C747B7C681429386463F13063F
:101FC000B005B7C581429385853FEFE0502C79BFBE
:101FD000411106C622C42A84E93509E5B2402244EB
:101FE000410182800848992CD5BF1C41584133E5F6
:101FF000E7003335A00082800346F500058A931779
:10200000260037F783401307876ABA9798431C4D19
:1020100099C3544DD4CF5C4D144D94C381470148AE
:102020001CC123220501232405005C45B70600FFDF
:10203000F58F5CC56304E50001458280411106C649
:102040009317260037F783401307876ABA979C4394
:1020500081CB8843CC439D2C0145B2404101828015
:102060007D55FD55CDBF0346F500058A9317260023
:1020700037F783401307876ABA979C4399C3014790
:1020800031A81CCD9317260037F783401307876AC2
:10209000BA9788C35CCD91A03E879C4F95C7032813
:1020A0000500584183A80700D4436366D700E39531
:1020B000E6FEE37318FFD84F58CD1CCDD84F08C3A8
:1020C00013078501D8CF11A81C4F1CCD81C79306DB
:1020D0008501D4CF08CF610758CD99E99317260021
:1020E00037F783401307876ABA979C436384A70036
:1020F00001458280411106C64C410841C12A014573
:10210000B24041018280411106C6378584401305E3
:1021100045F9EF505002B240410182803DC50111A6
:1021200006CE22CC26CA4AC84EC62A84AE8432893C
:10213000B7F7834083C7B77FA1CFAD22AA9433B549
:10214000A4003306B9003309C500F37904302285B1
:10215000693D11CD1305301093F9890073A0093042
:10216000F2406244D2444249B2490561828004C0CF
:1021700023222401232404005C44370700FFF98F45
:102180005CC481452285C535C1BF130520108280FE
:1021900013053010F1B749CD011106CE22CC26CA65
:1021A0004AC84EC652C456C22A84AE89B284B7F712
:1021B000834083C7B77FC1C3C12063FF9502DD2081
:1021C000B38AA90033B5AA00B387B4003309F50078
:1021D000737A04302285113D05C913053010137A36
:1021E0008A0073200A30F2406244D2444249B24924
:1021F000224A924A056182806394B400E36135FD0E
:10220000A528AA89AE8465BF232054012322240176
:1022100023243401B7070001FD17FD8C5C44370708
:1022200000FFF98FC58F5CC4814522852D3D45BFD8
:102230001305201082801305301075B7B7F783405F
:1022400083C7B77F9DC7411106C622C426C22A8410
:10225000F3740430593B19E913053010A18873A0B9
:102260000430B24022449244410182802285693385
:10227000F5B7130530108280130520038145828055
:10228000411106C6B787844003A7C7FA7C5793E776
:1022900047007CD7B7F7834083A7476B8297B2404C
:1022A00041018280411106C622C4378584409307CC
:1022B000C5FAC04381451305C5FA97E07FFFE78063
:1022C00020110294B240224441018280411106C68D
:1022D00022C426C24AC02A89AE84328497D08201A1
:1022E000E780C0C4B72781409387872D1316340039
:1022F0003E962320260144C29047D4479843DC43AE
:1023000063E6D7006396F6006374C7003A86BE861C
:102310008945378584401305C5FA97E07FFFE7803C
:10232000A00B97D08201E78000C3B24022449244C0
:10233000024941018280411106C622C4EFB0E07A11
:10234000930740063304F502EFB0207B2295B2409C
:10235000224441018280B7170B6093870780A84B06
:102360007981130740063305E502BC4BED839D8B55
:102370003E958280B7170B6093870780DC5BC9832B
:102380009D8B014511A0858399C713F7170065DF61
:1023900013451500CDBF8280A54763E2B70E8A05BD
:1023A00093878128BE959C4182871441DC46720642
:1023B000370700107D17F98F5D8ED0C682801441DB
:1023C000DC463D8A6206370700F17D17F98FD18F11
:1023D000DCC682801441DC463D8A5206370710FF76
:1023E0007D17F98FD18FDCC682801441DC463D8A8F
:1023F00042063707F1FF7D17F98FD18FDCC6828047
:102400001441DC463D8A320645777D17F98FD18F1E
:10241000DCC682801441DC463D8A22067D771307A4
:10242000F70FF98FD18FDCC6828054419C5272061F
:10243000370700107D17F98F5D8E90D2828054414E
:102440009C523D8A6206370700F17D17F98FD18FC4
:102450009CD2828054419C523D8A5206370710FF1D
:102460007D17F98FD18F9CD2828054419C523D8A36
:1024700042063707F1FF7D17F98FD18F9CD28280FA
:10248000A54763E8B7068A059387012BBE959C4153
:1024900082871C41C847718182801C41C847618185
:1024A0003D8982801C41C84751813D8982801C4101
:1024B000C84741813D8982801C41C84731813D899F
:1024C00082801C41C84721813D8982805C418853BC
:1024D000718182805C41885361813D8982805C4149
:1024E000885351813D8982805C41885341813D8977
:1024F0008280014582809DC11441DC4A8589139602
:10250000050141777D17F98FD18FDCCA1441DC4A70
:10251000B60579777D17F98FCD8FDCCA82809DC192
:102520001441DC4A85891396F50061777D17F98F90
:10253000D18FDCCA1441DC4ABA0571777D17F98F57
:10254000CD8FDCCA82804111B777814083A7879DF8
:10255000944B37070010558F98CBD84B3AC632456D
:102560009C4F3EC4A245C205C181410182804111F8
:1025700006C60945EFC0E02EB240410182804111FC
:1025800006C60945EFC0C02FB2404101828041110B
:1025900006C673770430B7F7834023AAE76CEF00D1
:1025A000700CB7F583409385856D0145C937B240FE
:1025B00041018280411106C6B7F7834083A5876D2C
:1025C0000145753FEF009011B7F7834083A7476D32
:1025D000A18B73A00730B24041018280411106C631
:1025E0000945EFC0402CB2404101828013570501DC
:1025F0001377F70F9357850093F7F70F1375F50FC0
:10260000930600026312D70413070004638CE700EB
:1026100013071004638EE700130700056380E702C9
:10262000014582803515B54763F2A70201458280D6
:102630002515A54763FEA700014582802D15854716
:1026400063FAA700014582800145828005458280AA
:102650000545828005458280411106C69308000227
:1026600063E3E8189308000263E30819B7380060D1
:102670009388080083AE880003AE880103A3C801D5
:10268000370F200023A4E80103AF8801B70F0080B3
:10269000336FFF0123ACE80103AF0802B70F00104E
:1026A000FD1F337FFF01B70F0070336FFF0123A0C1
:1026B000E80303AF0802C17F337FFF013365AF003A
:1026C00023A0A80203A58801333FB0007A0FB70FFB
:1026D00000C0FD1F3375F5013365E50123ACA8008B
:1026E000FD1503A5C801EA05370F00047D1F3375EA
:1026F000E501C98D23AEB80023A2C8003686630960
:102700000800370688400326C6FE03469601369623
:10271000B7360060938606008C4E3335C0007605D0
:10272000B70800E0FD18B3F51501C98D8CCE7D16F4
:10273000CC4E1376F60393F505FC4D8ED0CE904E1D
:10274000B335E000EE05370500F87D15698E4D8E36
:1027500090CE55C37D171377F73FB7360060938649
:102760000600D052137606C0518FD8D2BCCE9C4EF4
:10277000333700017207370600F07D16F18FD98FCD
:102780009CCE630C08061307F8FF1377F73FB737A3
:10279000006093870700945793F606C0558F98D72B
:1027A0009843B7060400558F98C3B737006083A7D6
:1027B0000700C983858BF5FBB73700609387070057
:1027C00023A4D70123ACC70123AE6700A84FFD4760
:1027D00063E80701FD57B397070193C7F7FF7D8DA6
:1027E000B2404101828097B08301E780207D97B09D
:1027F0008301E780A07C01478DB7014749BF4111A4
:1028000006C6AE8732873688814601468145A9359E
:10281000B24041018280011106CE22CC26CA4AC8AC
:102820004EC652C4370488400325C4FE97E07FFF9C
:10283000E780408E8327C4FE98439357070193F7A0
:10284000F70F9306D0096389D7049306200C63859C
:10285000D7049306800C6381D706A14601468145C3
:102860001545713F131405014180A146014681457C
:10287000130550036937220542054181498C937441
:102880000420414A01498149631A94068147639BA8
:1028900029096389070C55A8A146014681451545BC
:1028A000B93F131405014180937434F4C204C1800C
:1028B000214A01498149C9BF9357870093F7F70F10
:1028C00093060004E39BD7F81377F70FD547E3F699
:1028D000E7F8A14601468145154515371314050152
:1028E0004180A1460146814513055003093F937974
:1028F000F50F13792500214A814479B7B70788403D
:1029000003A5C7FE97E07FFFE780C08081460146B0
:1029100081451945ED3581465286A6850545C53563
:102920008547B5B7B707884003A5C7FE97D07FFF97
:10293000E780407E8146014681451945C93581467B
:102940002146CA85130510035D3DB707884003A5DE
:10295000C7FE97D07FFFE780E07B81460146814537
:102960001145713D0145F2406244D2444249B249A9
:10297000224A05618280411106C6914763E0B70291
:102980002A868E0513F8850F81470147A146E14548
:102990001305A005D131B2404101828097B0830177
:1029A000E780C061411106C6E14601468145130535
:1029B000F009B135931705013707FF00F98F135759
:1029C00005011377F70FD98F4167130707F0798D4A
:1029D0005D8DB24041018280411106C622C426C2EB
:1029E000B707884083A7C7FE8843093119C5014549
:1029F000B240224492444101828085454145A53F31
:102A00001375F50F930700026317F50A03A7818476
:102A1000894763E3E7068146014681451305900B2C
:102A2000F93B81460146814513059007C93B814624
:102A3000014681451305F00FD9331305007D97D06A
:102A40007FFFE78020608146014681451305B00A7B
:102A50007D33514597D07FFFE780C05E37048840C3
:102A60008324C4FE813788C08327C4FE8843EFF0E7
:102A7000FFB705C10145ADBFB77581409385C5A1BD
:102A8000377581401305C59F97D07FFFE780005AB7
:102A900059B783A7818499E37D5599BFB775814064
:102AA0009385C5A1377581401305C59D97D07FFFDC
:102AB000E780C057D5B7014525BF411106C6EFE0F5
:102AC0009FD1B24041018280411106C6EFE0BFD1E3
:102AD000B240410182808280411106C6EFE0DFD61C
:102AE000B24041018280411106C6EFE05FD8B2409A
:102AF0004101828005458280411106C6EF80401465
:102B0000B24041018280411106C6EF60F002B2403E
:102B100041018280411106C6EFF08FCBB2404101E6
:102B20008280411106C6EFF0EFB8B24041018280C9
:102B3000F37704301CC1014582801C41A18B73A036
:102B400007308280931725003E950605828082809B
:102B50008280014582800145828001458280014555
:102B600082808280411106C622C4EF80600D2A84D3
:102B700011C52285B240224441018280B77781404D
:102B800083A747F09D8BF5D737D68142130646942D
:102B9000854537758140130545F0EF803065D1BF1D
:102BA000B777814083A747F09D8BF9CB011106CE03
:102BB00022CC26CA00108A84230604FE8947A30675
:102BC000F4FE01110A87130607010DCE394509CA23
:102BD000914763D7A700B7D78142938707965CCB0D
:102BE000230404FE8947A304F4FE0DCEA14763D756
:102BF000A700B7D78142938787AA1CCF9306C70146
:102C0000814731A8370500807D15D1B7938507FF2F
:102C1000A29583C585FF2380B60085078506854577
:102C2000E3F6F5FEB54763DBA704B9451DC28D4643
:102C30002306D4FEA30604FE230704FE8547A3074C
:102C4000F4FE2308D700A308070023090700A309FF
:102C5000F70093F5E57EA60593E5050481463775F3
:102C60008140130545F0EF80905C268101451301FA
:102C700004FEF2406244D2440561828091557DB7E2
:102C800001458280B777814083A747F09D8BF9CBC0
:102C9000011106CE22CC26CA00108A84230604FE27
:102CA0008947A306F4FE01110A87130607010DCE1A
:102CB000394509CA914763D7A700B7D7814293879F
:102CC00007965CCB230404FE8947A304F4FE0DCED3
:102CD000A14763D7A700B7D781429387C7A81CCF66
:102CE0009306C701814731A8370500807D15D1B70C
:102CF000938507FFA29583C585FF2380B6008507CE
:102D000085068545E3F6F5FEB54763DBA704B945BF
:102D10001DC28D462306D4FEA30604FE230704FE2F
:102D20008547A307F4FE2308D700A308070023095B
:102D30000700A309F70093F5E57EA60593E50504D2
:102D4000814637758140130545F0EF80504E26814E
:102D50000145130104FEF2406244D24405618280C1
:102D600091557DB701458280411106C622C4EF709E
:102D7000506F2A8411C52285B240224441018280CD
:102D8000B777814083A747F09D8BF5D737D681422F
:102D900013064694854537758140130545F0EF804D
:102DA000F044D1BF411106C6AA850545753FB24022
:102DB00041018280411106C6AA850545EF70706AFF
:102DC000B24041018280411106C6EF709069B24065
:102DD00041018280411106C6EFF02F96B2404101B9
:102DE0008280411106C622C4328401468146EF40EA
:102DF0008051232004000545B240224441018280D5
:102E0000411106C6EF40A0750145B24041018280E4
:102E1000411106C6FD557D56EF40A0640145B24004
:102E200041018280411106C622C426C24041F3748A
:102E3000043029A05C4408488297404801CC83575D
:102E40000400858BFDFB5C40F5D79C431844F98F4B
:102E5000EDD7CDB7A18873A00430B240224492448C
:102E600041018280011106CE22CC26CA4AC84EC634
:102E700073790430B7F7834003A4877CB7F78340A6
:102E800083C7077CA1EBB7F7834005472380E77C26
:102E9000B717002083A90700F3740430228597E058
:102EA0007FFFE7806088A188F3A404300145EFE04C
:102EB0009F9433743401B7F7834023A2877C13793E
:102EC000890073200930F2406244D2444249B24939
:102ED0000561828097B08301E780A018411106C682
:102EE00022C426C2F3740430B7F7834003A5477C9D
:102EF000B7F7834083C7077C8DCBB7F78340238028
:102F0000077C7374043097E07FFFE780A0812188FD
:102F1000732404300145EFE03F8EA18873A0043094
:102F2000B240224492444101828097B08301E780FD
:102F3000401345C9411106C622C4737404305C4174
:102F4000B5C303D70700136717002390E7005C4160
:102F500094439E06C206C186A186B6851C41D8430D
:102F600011E797B08301E7806005584B11CF1C43F0
:102F70009E07C207C187A187E399F6FE8357070022
:102F8000858BE5F7814711A0854763C305028DCF87
:102F90001C4103D527001946058997D07FFFE7809C
:102FA00060791DA01C418C438A05E1858547F1BFEE
:102FB000184183572700858B85E3084345817D8928
:102FC00097B08601E78060012188732004300145B5
:102FD000B240224441018280218873200430295567
:102FE000C5BF29558280411106C697D08601E7806A
:102FF00000F8B240410182805C411449D84709E79A
:10300000DC43F04FF0C711E28280411106C6AA8569
:103010001385460097E08601E7804001B2404101F8
:103020008280411106C6379583421305C56DE93785
:10303000B24041018280011106CE22CC26CA4AC884
:103040004EC652C42E89B284032A45000327CA0003
:1030500085476305F70601444A94B7070080FD17CA
:10306000B3D78700858BBDC3F3790430F94763E19B
:103070008702B7C7814213172400938707E5BA97E1
:10308000884363470500854597E08601E78000E8AF
:10309000F94763FD8706B777814083A707F29D8BC9
:1030A000B1EB295593F9890073A00930F2406244CD
:1030B000D2444249B249224A05618280FD4763F405
:1030C000B700014451BF1304000279B7B7778140BC
:1030D00083A707F29D8B99E32955C9BF37C6824262
:1030E00013064685854537758140130505F2EF8047
:1030F000F00FDDB737C68242130646878545377520
:103100008140130505F2EF80700E61BFB7C78142A1
:1031100013172400938747DDBA978545884397E0C6
:103120008601E78000DB93F704019DCBB7470218C7
:103130008507A2978A0798431367071098C393F7E8
:103140002400A5CF93F74400A1C783274A001307A3
:10315000C4010A07BA97D84313674700D8C3BDA074
:10316000B547630CF400B74702188507A2978A0792
:1031700098431377F7EF98C3D9B7B7F70060984F24
:103180001367071098CF984F1377F7DF98CFE1BFF9
:10319000B777814083A707F29D8B81E71305A0F7DE
:1031A00011B737C682421306468885453775814078
:1031B000130505F2EF809003D5B783274A00130764
:1031C000C4010A07BA97D8436D9BD8C393F704028A
:1031D00095CFB74702188507A2978A0798431367C8
:1031E000070898C3B7070200E58FF1CFB707008043
:1031F000FD17B3D72701858B85C793F70460A9C74F
:1032000013070060638CE708295569BDB7470218AA
:103210008507A2978A0798431377F7F798C3D9B71A
:10322000B777814083A707F29D8B99E329559DBD10
:1032300037C682421306868A854537758140130555
:1032400005F2EF80A07ADDB7B74702188507A2978D
:103250008A079843FD769386F63F758F8566938639
:1032600006C0558F98C3054933198900B7170960FF
:103270009387070023A22703814601469305000890
:10328000228597D07FFFE780A045B7070800E58F2C
:1032900095C383274A0023A4270191A8B7470218A2
:1032A0008507A2978A079843FD769386F63F758F28
:1032B00098C355BFB7070400E58F95CB83274A0015
:1032C00023A627012DA08567E58F95E305473317D2
:1032D0008700B71709609387070098D7B747021888
:1032E00093875755A2978A071307000898C3C167A9
:1032F000E58F81CFB74702188507A2978A079843C1
:103300001367072098C3014571BB8967FD8C81EC69
:10331000B747021885073E940A041C4093F7F7DF6D
:103320001CC0014541B30145B5BB10491842832774
:10333000070893F717FC93E727012320F708832753
:10334000070893E717002320F7085C4385669386F8
:103350000680D58F5CC383270708858BEDFF544318
:10336000856793870780DD8E54C31442D842D98F76
:10337000DCC28280411106C622C4004918405C4369
:1033800093E707405CC355371440DC4205671307D9
:103390000780D98FDCC2B2402244410182801049AB
:1033A0001C42984F8966558F98CF984FF976FD1635
:1033B000758F98CF1C42984F8566558F98CF984F40
:1033C000FD76FD16758F98CF828014499842DC5E99
:1033D00013861700D0DED1078A07BA970D6798C702
:1033E000828014499842DC5E13861700D0DED10734
:1033F0008A07BA97056798C78280411106C622C41A
:1034000026C2AA8400491440DC42056713070780DE
:10341000D98FDCC218405C4393E707025CC3232EBC
:103420000402130544008565938585380146EF4005
:10343000805A11ED585895476300F70258588D4748
:103440006301F702B2402244924441018280268502
:1034500015371305C0F8FDB72685293F1305C0F8B9
:10346000D5B74955C5B7011106CE03280501A307F5
:10347000B1008547232AF8028326080001470DA0E2
:10348000DC4E3EC29307070133862700924703466E
:10349000F6FF93F707F0D18F3EC29247DCCE0507C7
:1034A000E350E0FE83278803858BC9C7A181A3076A
:1034B000B1008326080001476343E002DC4E3EC4AE
:1034C0009307070133862700A2470346F6FF93F7C9
:1034D00007F0D18F3EC4A247DCCE0507F1BF0947F4
:1034E000136707108567938707805D8F8326080021
:1034F0008327C80313861700232EC802D1078A0723
:10350000B69798C7032708008327C8039386170038
:10351000232ED802D1078A07BA97096798C783274D
:1035200008007D57D8D31307805A98D7F935F24051
:103530000561828005476DB7797106D622D426D2FF
:103540004AD04ECE52CC56CA5AC8AA8A032905017F
:1035500003AA45008441232A0902896993890980C5
:10356000096B15A093E90940054489A0584E3AC655
:10357000B2463387F4002300D7008507E3C887FEEF
:10358000A294330A8A4063000A0852849307100207
:1035900063F44701130410021374F40F7D141374C1
:1035A000F40F8547E300FAFC93F9F9BF93F909F0AA
:1035B000B3E98900032709008327C903938617000D
:1035C000232ED902D1078A07BA9723A437010327EC
:1035D00009008327C90393861700232ED902D10738
:1035E0008A07BA9723A46701832709007D57D8D398
:1035F0001307805A98D75685093563470500032677
:1036000009008147A5BF0145B25022549254025986
:10361000F249624AD24A424B45618280411106C654
:1036200022C426C24AC0AA842E8483C78500918BF7
:1036300089CB13691600513BCA8526852D35634C0D
:103640000500A2852685CD3D63470500834784009C
:10365000898B81EB0145B2402244924402494101E9
:1036600082802685BD3B2685493BE34605FE014514
:10367000DDB7797106D622D426D24AD04ECE52CCAE
:1036800056CA5AC8AA8A032A0501C44183A905005B
:103690008547232AFA02056913090980136909106D
:1036A000096B21A89377F40F137909F03369F900B6
:1036B00091EF1374F40FA299818CC9C426849307E7
:1036C0000002E3F197FE13040002E9BF83260A001B
:1036D000014739A8DC4E3EC63386E900B2470346AF
:1036E000060093F707F0D18F3EC6B247DCCE050740
:1036F0009377F40FE340F7FE03270A008327CA03FA
:1037000093861700232EDA02D1078A07BA9723A4DB
:10371000270103270A008327CA0393861700232E55
:10372000DA02D1078A07BA9723A4670183270A0020
:103730007D57D8D31307805A98D756857D39E35AD9
:1037400005F611A00145B250225492540259F24993
:10375000624AD24A424B45618280411106C622C468
:1037600026C24AC0AA842E8483C78500918B89CB48
:103770003289EFF09FC5CA852685F531634C050077
:10378000A2852685FD356347050083478400898B24
:1037900081EB0145B24022449244024941018280BA
:1037A0002685EFF01FC42685EFF03FC5E34405FEF4
:1037B0000145CDB7011106CE22CC26CA4AC84EC655
:1037C00052C456C25AC003290501630606102A8A4C
:1037D000AE893284B68AB7A4070093840412832783
:1037E00009009C479183858B91CB0545EF30800183
:1037F0009387F4FF638D040EBE84D5B783C7890019
:1038000093E747002384F9004E87854729A0898ADA
:10381000B9E631078507A2866340F402E3DBD7FEF1
:10382000834687008345470133C6B600058A65D2C3
:103830009189F1FDA95411A08144D9EC130BC90160
:10384000FD557D565A85EF40001983278903858BE6
:1038500089CB9307F03FB3FA5701860AB1A0A95468
:10386000E9BF9307F007C5BF5285EFF0BFB052859F
:10387000EFF0FFB2032709001C57F176F58F1CD734
:10388000032709009167FD175CD383C78900858BE7
:103890008DCB5686CE8552855133AA8463C90402E6
:1038A0007D141374F40FB1091DC003274903954714
:1038B000E30CF7FA832709009C479183858BC5DBCE
:1038C00065B75686CE855285493DAA84C1BF5A85C3
:1038D000EF40600611A081442685F2406244D24444
:1038E0004249B249224A924A024B05618280C15440
:1038F000E5B7011106CE22CC26CA4AC84EC652C42C
:10390000AE84032A4500032905012E8597E0860130
:10391000E780A06EAA8997E08601E78000692A8483
:10392000AA864E86A6854A8597C08201E780C0EEAA
:1039300083274A02A1C737470F00130707243354D0
:10394000E402B38787027D476373F700FD47832650
:103950000900D846FD8B019BD98FDCC68326090060
:10396000DC42056713070780D98FDCC2F24062444E
:10397000D2444249B249224A0561828003270900A4
:103980005C4793E7F7015CC7D1BF011106CE22CC9B
:10399000004902C6585885476304F7025C5895C72A
:1039A000B24709476388E7020D47638FE70205477F
:1039B000638FE70215476391E70291475CD829A816
:1039C0006C002285EFA0F071E1BF6C002285EFA0B2
:1039D0009078F9B78D475CD813054400EF30B07587
:1039E000F24062440561828095475CD8F5B79547FF
:1039F0005CD8DDB7011106CE22CC26CA4AC84EC615
:103A0000AA844041832905018145084497E0860145
:103A1000E7802072634A05064840EF20306A49C9B2
:103A20004C44484097E08601E780C04148481C4C20
:103A30006354F00A8545B395F50093F5E50F5C4CAA
:103A400093F70710DD8D0147A686374680401306A1
:103A5000A69893E5054097B08601E780608E2A8995
:103A600035CDB777814083A787F29D8BD9CFAA86C2
:103A700037B6824213068631854537758140130576
:103A800085F2EF70F07751A0B777814083A787F276
:103A90009D8B99E3295995A837C68242130646B3F0
:103AA000854537758140130585F2EF703074DDB7B9
:103AB000B777814083A787F29D8B99E33559B1A0F1
:103AC00037B68242130606288545377581401305AF
:103AD00085F2EF70B071DDB7814595B74E8597C01F
:103AE0008201E780E0D8268597E08601E780203DC7
:103AF000085097E08601E7806036936505012685CA
:103B000097E08601E78020542A894A85F240624482
:103B1000D2444249B24905618280411181456545DF
:103B200006C697D07FFFE7802023B7478140938761
:103B3000474E985FB240050798DF41018280AA8511
:103B40001305000217D37FFF67000321011152C440
:103B5000370A88408327CAF626CAB774844083A7E9
:103B6000071922CC4AC84EC606CE56C29384845A40
:103B7000C058AA892E89829701CDD844C177F98F80
:103B8000370701016396E700638E090003A4041B55
:103B9000F24022856244D2444249B249224A924AC2
:103BA00005618280B7D70A60804397508001E78023
:103BB00060658327CAF683AA440383A9041B83A7ED
:103BC0008710330424412A898297BC5CE372F5FC98
:103BD0003309590333093941E37C24FB3E94098CB2
:103BE00045BFB777814083A707A991C382878280A9
:103BF0004111B747814022C406C603A4474E97101F
:103C00008A01E78060C72A87854611E40145B240F2
:103C10002244410182801C401044F98313F51700AF
:103C2000E307D5FEE305E4FE3284C5B75D7152DCDF
:103C3000370A8840A2C456DA5AD85ED662D466D211
:103C40006AD086C6A6C2CAC04EDE6ECE0144370B0D
:103C50000018B70B8840370C8840B70A0800A16CE1
:103C6000130ACAD1116D97D07FFFE780A01919E11F
:103C700061242A84612CAA89552CAA8497D07FFFBD
:103C8000E7800023B3673401C58F2A89638F07104B
:103C90002285852C5924B375640191CD2E852EC6BD
:103CA00097008001E7808042B24511E56D4597D0CD
:103CB0007FFFE780600A2685BD2C4A85AD2C93F5F1
:103CC000F40091C5694597D07FFFE780E00893F73E
:103CD000040F9DCF01453EC697208001E780C0B408
:103CE00023AEABE2268597008001E7806038AA8D7D
:103CF000014597208001E78020B3232CACE2B24736
:103D000063980D00BE856D4597D07FFFE780C004A6
:103D1000B3F7540199C7A6857D4597D07FFFE7800B
:103D2000A003B377940199C78145754597D07FFF6C
:103D3000E780800283274A00B374A40189C781C445
:103D4000B84B0507B8CBB7072000E18F99C7854569
:103D5000394597D07FFFE780200081C8B70706006C
:103D6000B377F900A9C34A85D93B9377040889C77B
:103D700097D07FFFE78040ECB377540189C797D095
:103D80007FFFE780A0EB9377041089C797D07FFF70
:103D9000E78000EBE38909EC8145794597D07FFF07
:103DA000E78080FBC9B5953BC9B7B6402644964429
:103DB0000649F259625AD25A425BB25B225C925C6B
:103DC000025DF24D61618280894763E3A708B7070E
:103DD000884083A7C7F6411122C483A7871006C66F
:103DE0002A8482979307C0023304F402B777814094
:103DF000938787A937470A6093064708B240A2977E
:103E000088C394422244D4C39306C708944294C7FB
:103E1000930687089442D4C793064709944294CBEB
:103E2000930607099442D4CBB74681409386464E09
:103E30009042D44290CFD4CF944694D39306C73ABD
:103E400094421307473BD4D3184398D7410182804B
:103E5000828039712ACE094506DE22DC26DA4AD86C
:103E60004ED62ECC9537E2477247B79683423774C9
:103E70008140938606000D46930500020545130414
:103E800084A997908701E78020F793044408B799A5
:103E90008342379983425C488328C4000328840006
:103EA0003EC21C481840938609013EC05C400D4646
:103EB00093050002054597908701E780E0F31C54C5
:103EC0008328440203280402184C3EC05C4C93062D
:103ED00089020D469305000205451304C40297901C
:103EE0008701E78060F1E31894FAF2506254D254EB
:103EF0004259B25921618280B7570A6003A587C42D
:103F00008280B7570A6023A6A7C48280B7570A6089
:103F100003A547C385677D8D8280B7570A60938765
:103F200087C398438566558F98C38280B7D70A6048
:103F300003A5070B8280B7D70A6023AAA70A82804D
:103F400037170A608327878FB706000893F707F0B3
:103F500093E74700232CF78EB7070A6003A7C744EF
:103F6000558F23A6E74403A7C746B70600E0FD1612
:103F7000758F23A6E74603A70745B7860080558FB0
:103F800023A8E744B7760A6083A7864271771307B0
:103F9000F70FF98F056713070740D98F23A4F6425F
:103FA00082800111B7D70A6026CA844322CC0964F3
:103FB0004AC84EC652C406CE37D90A601304F470FC
:103FC000B7D98440130AB00583270900858F636C35
:103FD000F40083A7094601468545BC4B130530060E
:103FE0008297E31345FFF2406244D2444249B2490A
:103FF000224A05618280411106C6EF8090031307B3
:10400000000289476306E500930765FE93B7170032
:1040100037478140A30FF76A376709608327071383
:104020007D15B2401375F50F93F707F05D8D2328CA
:10403000A71241018280411106C6193797D07FFF30
:10404000E7808036B74781409387076703C517121B
:1040500083C50712EF00700405651305858297D0AC
:104060007FFFE780A034EF00101197D07FFFE7803B
:104070006030EF00C0780545EF00406B97D07FFFC0
:10408000E7804015EF00903497D07FFFE7808032C3
:10409000EF007035B2400545410117D37FFF67003F
:1040A000232D011126CAB7D4844083A7044606CE27
:1040B00022CC9C434AC84EC652C456C25AC08297AC
:1040C00037A90A60032B498183274981B7090A6010
:1040D000370A00E893E74740232AF98083A7090CB1
:1040E0007D1A37070010B3F74701D98F23A0F90CC9
:1040F000AA8A054597C08201E780C054ED3D01457D
:10410000EF00701A0545EF005025C9282145EF0042
:10411000503297D07FFFE780202697D07FFFE7803F
:1041200060020145EF00B07797D07FFFE7808023E2
:104130009145094537448140952A1304046797D077
:104140007FFFE780A022A523EF00105E8123EF0010
:10415000D0340345C4119384044697D07FFFE78091
:1041600060FF97D07FFFE780E026F135054597D0C7
:104170007FFFE780E0FCEF00C06F97D07FFFE78014
:10418000201C6D2697D07FFFE7804000014597D027
:104190007FFFE780E0210145EF00301CA30B040006
:1041A000A30E041883A7090C33FA470123A0490D75
:1041B000232A69818347E41981C70145EF00F0256F
:1041C0009C406244F240D2444249B249224A024BE6
:1041D00003A347005685924A05610283411106C632
:1041E00022C437D4844097D07FFFE780A013832771
:1041F000044601468545FC5B1145829783270446AA
:1042000001468945FC5B1145829783270446014698
:104210008545FC5B15458297832704460146894501
:10422000FC5B154582978327044601468545FC5B68
:10423000014582978327044601468945FC5B014579
:1042400082978327044601468545FC5B0545829796
:104250008327044601468945FC5B054582978327F1
:104260000446130600108545FC5B094582978327A9
:104270000446130600108545FC5B0D458297832795
:104280000446130600108945FC5B09458297832785
:104290000446130600108945FC5B0D4582972244B5
:1042A000B240410117D37FFF67000308B7070A60D8
:1042B00003A7070CB7C6FF5BFD16758F23A0E70C9D
:1042C00003A7070CB7060002558F23A0E70CB757CA
:1042D000814083C7B78099C389450145B7070A6004
:1042E00003A7070C9205C98DB70602FEC605370560
:1042F000FE01FD16758FE98DD98D23A0B70C03A79C
:10430000470D1377F7871367073023AAE70C3707A2
:1043100080191307972423A4E70C37578225130726
:1043200007E523A6E70C8280797162C437DC8440FC
:1043300083270C4606D622D403A8070626D24AD0E5
:104340004ECE52CC56CA5AC85EC666C26AC08547AF
:104350002A84AE841305200685453289368A2D4687
:104360009946BA8A1947029883270C462D468545F7
:10437000BC4B13052006894C829783270C460146C7
:104380008545BC4B2A8B13053006829783270C4644
:10439000937B750F13658500BC4B85459379F50FAD
:1043A0000D461305700682979367450093F7F70F44
:1043B0001375B50F139707012205598DB768814012
:1043C0005D8D81469307000241470148A54E9388C1
:1043D00048DC130F70060D4E13032006AD4F9305F6
:1043E000300691429543194C054D13F6F60F636064
:1043F0005603B250225492540259F249624AD24AA8
:10440000424BB24B224C924C024D4561828063EF8D
:10441000CE0C0A06469610420286230064002380D2
:10442000A401138617002300F9009377F60F850681
:104430006DBFA3006400A380940113861700A3003E
:10444000F900E5B72301B400238104002301E9004A
:104450001306170023247A011377F60FC9BFA301AF
:10446000B400A381840113861700A301F90075BF6E
:104470002302B40023827400138617002302F9007C
:104480006DB7A302B400A382540013861700A302E1
:10449000F90061BF2303B4002383C401138617000E
:1044A0002303F90059B7A303B400A3830400A303B3
:1044B000E90013061700232E3A0179BF2304640094
:1044C0002384F4012304E9001306170023206A0360
:1044D00061B7A304E401A384C401A3040901130682
:1044E00018002322AA021378F60F91B73306D400DE
:1044F000230006003386D400230006003306D900CB
:10450000230006001396260052962320060005B7C6
:1045100037070A608327070CB70600040945D58FC3
:104520002320F70C17C37FFF6700C3B137070A606A
:104530008327C70C93F70710E5DF82805971A6D255
:10454000CAD0CECED2CCD6CADAC8DEC6E2C4E6C263
:1045500086D6A2D4EAC06EDE2AC2AE8B328C3A8AEC
:1045600002CE02D002D202D402D6B684014B370961
:10457000FF00854A8D49994C63176A03D285680804
:1045800097D07FFFE78000BFB65026549654065957
:10459000F649664AD64A464BB64B264C964C064DD3
:1045A000F25D65618280924733876B01034D07009E
:1045B0003387670103470700220D8C40336DED0000
:1045C00033076C0103470700C205B3F525011374D7
:1045D000F7001183B3E5A501A28619C7930644002D
:1045E00063145701930614007C0833866701230087
:1045F000D6003A852EC63AC497D07FFFE780C0B573
:1046000022474204AA8D41809376F50FB2453DE3DF
:10461000330734031D4693DD8D0036C693FDFD0F31
:1046200036973A853AC497208A01E7800038338567
:104630008D00330535038C40B2461D46A205B3F507
:104640002501B3E5A501B38D9D03369597208A0119
:10465000E780A0358C4022471D46B375B900B3E50D
:10466000A5013305B70197208A01E7800034050BC7
:10467000910419B763175701330534031D46369566
:10468000DDB7131514000D46EA85D5BF1D71341032
:1046900070080C084800294786CE7931341070081C
:1046A0000C0848002947593DF6402561828037179C
:1046B0000F0FB7170A607D1723ACE7803717FF008D
:1046C000130747F623AEE78003A70781FD76BD06F3
:1046D000758F1367075023A8E7802D671307A7AAD4
:1046E00023A0E78203A70781B70690FFFD16758F09
:1046F000B7062000558F23A8E78003A74781B7E6B8
:104700000060137707F01367870023AAE7809C42B5
:1047100037070020D98F9CC2B7160B60FC4A7D1763
:10472000F98F37070080D98FFCCA8280B7770A607B
:10473000F84325C5B7063F00558FF8C3F843F17617
:104740009386F60F758F896693860610558FF8C38A
:1047500003A74712C1769386F63F758FA1669386AD
:104760000640558F23A2E71203A7471237860A6037
:10477000C576419B1367370023A2E7125842FD1606
:10478000758FA566558F58C203A74710137707E0AA
:104790001367271E23A2E7108280B706C1FFFD160C
:1047A000758FB7063E00558FF8C3F843F1769386B0
:1047B000F60F758F896693860680558FF8C383A69A
:1047C000471241771307F73FF98E9965CD8E23A2E3
:1047D000D71283A6471237860A60C19A93E646002D
:1047E00023A2D7125842C576FD16758F4D8F58C239
:1047F00003A74710137707E01367871C61BFB786CD
:104800000A6083A706C03707E0FF1307F77FF98F19
:104810002967D98F23A0F6C0B7170A6003A6878F30
:1048200041779305F70F6D8E1567598E37D7400185
:1048300023ACC78E1307E78123A6E6C603A606C3EB
:1048400037070E0A137606C01366E60123A8C6C210
:1048500083A6C78FC206C182D98E23AED78E03A787
:10486000C78FB566938606806D8F558F23AEE78E12
:10487000828037770A605C57B7060001FD1693F710
:1048800007F093E7970E5CD78327070AF58FB706E3
:1048900000E9D58F2320F70A8280B7770A601307D3
:1048A000F5FF03A6C713931627013708FC01B3F6DB
:1048B0000601370804FE7D1833760601D18E23AE3B
:1048C000D71283A647090A071377C71F93F636E066
:1048D000558F23AAE7082166D457131785001306BE
:1048E00006F0718F61761306F60FF18E558FD8D7CB
:1048F000B7160A6003A786957D763D06718F12056F
:10490000498F23ACE6949385050503A7869537F672
:104910000F00B205F18D3716F0FF7D16718FD98D1E
:1049200023ACB694D457370700011306F7FFF18E76
:1049300037070032D98ED4D7D857B7068000558FA5
:10494000D8D7D857B70680FFFD16758FD8D703A7DD
:104950008712B70600D2718F558F23A4E712828089
:10496000B7860A6083A706CD37070F002D07D98FBA
:1049700023A8F6CC828037770A60832707409966A0
:10498000370600FFD58F2320F740B7870A6083A63C
:10499000878437050001F18E373604001306F63A96
:1049A000D18E23A4D78483A68784370600E17D16A1
:1049B000F18E37060017D18E23A4D78403A68780F3
:1049C000F1769385F6076D8E8D66558E23A4C7808C
:1049D00083A6C78D3706C0FF7D16ED8E93E60610C1
:1049E00023AED78C83A6478EB715F0FFFD15F18E49
:1049F00023A2D78E83A607C3ED8E23A8D7C283A692
:104A0000C790FD759385F57FED8E23A6D79083A67D
:104A100087CAB7051000CD8E23A4D7CA83A50798EF
:104A2000B70600FEFD16F58D23A0B79883A507896C
:104A3000ED8E23A8D78883A50789C98D23A8B788B9
:104A400083A587A26D8E23A4C7A28326474237067B
:104A500020E07D16F18EC98E2322D74283A607CD92
:104A600037060F003D06D18E23A8D7CC83A607C0FA
:104A700037A60A6093E6062023A0D7C08327C68105
:104A8000856693860680D58F232EF68083278743FD
:104A900093F7F7F3232CF7428327874393F7F7EF36
:104AA000232CF74275BD411106C60DC9B7070B602F
:104AB00003A74715B7060010FD16758F23AAE71444
:104AC00003A7C70CB70600F0FD16758F23A6E70CE9
:104AD0001305400697B07FFFE780C056B7070B600D
:104AE00003A74715B70600F0558F23AAE71403A7BD
:104AF000C70CB7060010558F23A6E70C03A7471570
:104B00009316470063C8060203A74715B7060008B7
:104B1000558F23AAE71403A74715B70600FCFD1617
:104B2000758F23AAE71403A74715B7060004558F0E
:104B300023AAE714B7070B6003A74715931657007E
:104B400063C9060003A74715B7060004558F23AABB
:104B5000E714B24041016FF0CFC4411126C2B7142F
:104B60000A6083A7049122C47D741304F40F06C65F
:104B70004AC0E18F1DCD056913070980D98F23A88D
:104B8000F490054597B07FFFE780C04B83A7049161
:104B9000130909A07D8C3364240123A88490224446
:104BA000B240924402490545410117B37FFF6700B7
:104BB000634993E7072023A8F490054597B07FFF4A
:104BC000E780404883A704917D8CC1BFB7770A6016
:104BD000984FB7068000558F98CF984FB7060010B2
:104BE000558F98CF8280B7170A6003A70790B70642
:104BF0000002558F23A0E79003A70790B706C0FFD8
:104C0000FD16758F23A0E79003A70790B70680FED7
:104C1000FD16758F23A0E790828037A70A6083274F
:104C2000C78111C593E72700232EF7808280F59B6B
:104C3000E5BFB7070B6003A64782131745009376BD
:104C4000077C1377F683558F23A2E78203A7478259
:104C500005811375F503137707FC498F23A2E782BB
:104C600003A787821377F783558F23A4E78203A7CF
:104C70008782137707FC498F23A4E78203A7C782A3
:104C80001377F783558F23A6E78203A7C78213778D
:104C900007FC598D23A6A7828280411126C2B7D472
:104CA000844083A7044622C4374481401304046728
:104CB0008346D40EBC4F06C6514685451305700683
:104CC000829783A704468346D40E5546BC4F85453C
:104CD00013057006829783A704468346E40E59465F
:104CE000BC4F854513057006829783A7044683460B
:104CF000E40E5D46BC4F854513057006829783A779
:104D000004468346D40E6146BC4F854513057006A4
:104D1000829783A704468346D40E6546BC4F8545DB
:104D200013057006829783A704468346040F7146D5
:104D3000BC4F854513057006829783A704468346BA
:104D4000040F7546BC4F854513057006829783A7EF
:104D500004468346040F7946BC4F93E60604854516
:104D600013057006829783A704468346040F7D4689
:104D7000BC4F854513057006829783A7044683467A
:104D8000940E1146BC4F854513057006829783A784
:104D900004468346940E1546BC4F854513057006A0
:104DA000829783A704468346A40E1946BC4F8545C7
:104DB00013057006829783A704468346A40E1D46FA
:104DC000BC4F854513057006829783A7044683462A
:104DD000940E3146BC4F854513057006829783A714
:104DE00004468346940E3546BC4F85451305700630
:104DF000829783A704468346A40E3946BC4F854557
:104E000013057006829783A704468346A40E2244A6
:104E1000B240924403A387053D46854513057006BD
:104E200041010283411122C437D4844083270446C0
:104E300006C693062007BC4F094685451305B006F4
:104E40008297832704469306C0030D46BC4F8545D1
:104E50001305B0068297832704469306400F114638
:104E6000BC4F85451305B0068297832704468946C3
:104E70001546BC4F85451305B00682978327044627
:104E8000930680081946BC4F85451305B0068297E6
:104E9000832704469306700B1D46BC4F85451305BA
:104EA000B006829783270446930610082146BC4F1C
:104EB00085451305B006829783270446930680062E
:104EC0000146BC4F8545130520068297832704467B
:104ED000930680021146BC4F854513052006829734
:104EE000832704463757814083466780BC4F3D4641
:104EF00085451305200682978327044693064004C0
:104F00002D46BC4F8545130520068297832704460E
:104F10002244B24003A387059306600209468545F3
:104F2000130570064101028339714AD837D984408C
:104F30008327094606DE22DCDC5B26DA02C0231268
:104F400001002303010002C423160100230701000E
:104F500002C8231A0100230B010002CC231E01000A
:104F6000230F010002D0231201022303010202D405
:104F700023160102230701028297B7776B6B938791
:104F8000B7B63EC09D679387B7B62312F10093076B
:104F9000B0062303F100B7070405938727303EC40A
:104FA000930760702316F100A1472307F100B7476C
:104FB000F402938727C73EC8ED7793878778231A33
:104FC000F100930710F8230BF1008D679387878614
:104FD0002314F102B757814083C767801305B006D9
:104FE00037040B602305F102B767626293872726B7
:104FF0003ECC996793877776231EF100930770065E
:10500000230FF100B7070F0B938707403ED093079C
:1050100020202312F10289472303F1029307400461
:10502000A305F1028967938767622316F10293074C
:1050300060022307F10283270946BC438297B70722
:105040001000C1177D8DB707020003270482C11726
:105050007D8D81779384F700658F598D2320A482FD
:105060003C101810340810082C000A8581481D488F
:1050700097C07FFFE78040278327048209671307D3
:1050800007F0E58FD98F2320F482832709469C5FA0
:105090008297F2506254D254425921618280411168
:1050A00022C426C237448140B7D4844006C683A7B1
:1050B00004461304046715C903A80706094789476E
:1050C0008D461146814513056006029883A7044664
:1050D00011468145BC4B1305600682972305A40445
:1050E000B24022449244410182808346A404224477
:1050F000B240924403A3870511468145130560061B
:1051000041010283397106DE22DC26DA4AD84ED606
:1051100052D456D25AD05ECE62CC66CAAA8CAE8425
:1051200083AB0500C177B3FBFB0003AA4500337ACC
:10513000FA0003ACC500337CFC0083AA0501B3FA76
:10514000FA0001498147014B6144A5A883A78184E6
:1051500089CFEF501069AA85A286138601E71385CF
:1051600081E797B07FFFE78060EC97908301E7804D
:1051700040EF11C703A78184894763E3E70EA24785
:10518000D8446384E71698406389E716370780BFE1
:105190003E97B70608006368D700370700B0BA9794
:1051A000116763F3E7000509B247A29713848700EC
:1051B000B7878440938747BC83C717006387271549
:1051C000CE87938917003D47636FF70285462146D6
:1051D0002C002285EFC0E05B35F92247B70700BEFF
:1051E000BA97B7060001E3E6D7F8B70780BFBA97CA
:1051F000B7060800E3EFD7F62DDFB70700B0BA9780
:105200009166E3E8D7F6638C0910C1476389F9100A
:10521000014597B07FFFE78060E60945EF90206089
:1052200063810C1202C25C00D848D686628685452E
:105230006685EF8050225C009844D2865E86854564
:105240006685EF805021DC48E297FD173707004262
:10525000636CEC0E3707004363E5E7128147F5A066
:10526000EF503058AA85A247370700BE3E97B706D1
:1052700000016360D702B70680BFBE9637060800FC
:1052800063E9C60099C7B70600B0BE96116663F61B
:10529000C602B70680BFBE963706080063E2C602A4
:1052A000B7060001636DD702370700B03E979166DD
:1052B000637AD702938641E631A0938641E519A02F
:1052C0009386C1E43248C28813078400138601E73D
:1052D000138581EA97B07FFFE78040D54DB593866F
:1052E00081E5CDB7938601E6F1BF930A840023A838
:1052F00054014177B3FAEA0079B5130A840023A276
:1053000044014177337AEA0051B5E31B0BEA934736
:10531000F4FFBD8BA29713841700054B55B583A7E7
:10532000818481CFEF50F04BAA85138601E7138566
:1053300001EE97B07FFFE78060CF97908301E78011
:1053400040D2EF80700AF9BD814713F61700378706
:105350000C6054431346F6FFF18E54C389835443C3
:1053600093C7F7FFF58F5CC39C44DE97FD173707A3
:10537000004263EAEB003707004363E3E706814737
:1053800021A0A547D9B7814713F6170037870C60CE
:1053900054431346F6FFF18E54C38983544393C795
:1053A000F7FFF58F5CC30945EF9040498844C1671A
:1053B000FD173E9541810A0593050040898D97B000
:1053C0007FFFE780A02EF2506254D2544259B25966
:1053D000225A925A025BF24B624CD24C216182807B
:1053E000A5475DB7411106C697B2FFFF938282C100
:1053F00073905230F377043097010100938101C319
:10540000EF10C03DEF00A07A1DE5B73581409385D0
:10541000051E0145EFF01FCFEF0090180145EF008A
:10542000E07803A78184894763E9E702EFA01FE4DE
:10543000B2404101828083A7818481CFEF50703ACE
:10544000AA85138601E7138541F097B07FFFE780B7
:10545000E0BD97908301E780C0C0EF509038AA85E7
:1054600083A601F5A982138601E71385C1F297B0DF
:105470007FFFE780A0BB5DBF411106C622C4EFC01D
:10548000607AEFC0606D19E9EFB05FC99780820163
:10549000E780E0BCB2402244410182802A8483A795
:1054A000818489CFEF50F033AA85A286138641F517
:1054B000138501F697B07FFFE78040B7979083018F
:1054C000E78020BA411106C6814601468145130591
:1054D000A007EFD0CFB2B707884003A5C7FE97B0AB
:1054E0007FFFE78020C3B24041018280411106C6A0
:1054F00022C426C2AA8483473500BD8B0947638D29
:10550000E7046365F704A1CF0547639DE7041384AF
:1055100041F903A78184894763ECE704B72700605A
:105520009847B7070001F98FADE3B7071000F98F6F
:10553000C1E3B7078000F98FBDEF9167F98FBDEF29
:1055400089677D8F3DCF138441FC91A03D47639EC9
:10555000E700138441FA75BF1384C1F95DBF13845A
:10556000C1F845BF1384C1F96DB71384C1F955B7AC
:10557000EF503027AA85A286138641F5138541FF97
:1055800097B07FFFE78080AA51BF1384C1FA03A7B9
:105590008184894763EAE70283C734009183114716
:1055A0006366F7068A0713874105BA979C4382878B
:1055B000138401FBE9BF138481FBD1BF1384C1FBBA
:1055C000F9B7138401FDE1B7EF50B021AA85A28697
:1055D000138641F51385410197B07FFFE78000A551
:1055E00065BF1384C1FD03A78184894763E3E70294
:1055F000B2402244924441018280138441FEE5B7C7
:10560000138481FECDB71384C1FEF1BF138401FE64
:10561000D9BFEF50101DAA85A286138641F51385C8
:10562000410397B07FFFE78060A0D9B7011106CE94
:1056300083473500918311476360F7068A07138714
:105640008106BA979C43828785473EC60945EF90FD
:10565000001DB707884003A5C7FEB245C167FD1707
:105660001307001085664166D205084197B07FFF99
:10567000E78040AF0945EF90601CF24005618280F1
:1056800089473EC6E1B791473EC6C9B7A1473EC666
:1056900075BFC1473EC65DBF89473EC645BF411184
:1056A00006C622C4B707884003A4C7FEEFD08FAF59
:1056B00008C0B240224441018280B7270060984F61
:1056C0001367070C98CF984B1377F7C198CB984B7B
:1056D000019B98CB8280411106C622C42A84AA85E8
:1056E000754597B07FFFE7802002A285654597B09A
:1056F0007FFFE7806001A285794597B07FFFE78053
:10570000A000A285614597B07FFFE780E0FFA285FA
:10571000714597B07FFFE78020FFA285694597B06C
:105720007FFFE78060FEB240224441018280411148
:1057300006C605454D375137B240410182804111BF
:1057400006C622C4ED37EFF0FFD7EFD0CF8C3784F9
:105750008440130744BC8347370093E7F700A30155
:10576000F700130544BCEFF07FD8130544BCEFF0FD
:10577000FFEBEFC0A00D0145B24022444101828001
:10578000411106C697B07FFFE780008B014597B0B7
:105790007FFFE780A08EEF70604DEF70800971662B
:1057A00013060620B7470F0093870724B305F502B9
:1057B0000145EFC00F91B24041018280011106CE38
:1057C00022CC26CA4AC84EC652C456C22A840347AF
:1057D000C5008347D500A207D98F35476383E70407
:1057E00083A7818499EB6D55F2406244D2444249CB
:1057F000B249224A924A05618280EF50807EAA8592
:105800000347C4008347D400A2075D8FB5461386C3
:10581000C1071385810897B07FFFE78020816D5510
:10582000E1B7AE84EFC03FB1AA8993074006B35AEF
:10583000F502337AF5020347F40083470401A20717
:1058400033E9E700854763F49700014571BF637C46
:10585000250383A7818499E37D553DA0EF506078AF
:10586000AA85930640065288D6873377D902B35665
:10587000D9021386C1071385C10B97A07FFFE7806C
:10588000E07A7D5511A001458547E39FF4F48347F5
:1058900014010344240122045D8CC167FD17E30554
:1058A000F4F439D0E37234F5B7170B6093870780AF
:1058B000BC43858B95FB83A7818499E37D552DB7E8
:1058C000EF502072AA85930640065288D687337718
:1058D000D402B356D4021386C1071385011097A0D2
:1058E0007FFFE780A0747D5501B7411106C603A76D
:1058F0008184894763EAE70003A78184894763E1DC
:10590000E702B24041018280EF50A06DAA85138664
:10591000C1071385411497A07FFFE7802071E9BF7D
:10592000EF50206CAA851386C1071385011697A036
:105930007FFFE780A06FF1B7411106C6854661463B
:10594000B7858440938545BC0145EFB0906401E57F
:10595000B2404101828083A7818499E36D55CDBF18
:10596000EF502068AA851386C1071385011997A0F7
:105970007FFFE780A06BDDB7011106CE02C4B72719
:105980000B60938707C03EC6280097B07FFFE78073
:1059900060A18145280097B07FFFE78020A2280002
:1059A00097B07FFFE78040A085473EC0B787006083
:1059B000938707003EC20A8597B07FFFE780809EED
:1059C00081450A8597B07FFFE780409F0A8597B0A1
:1059D0007FFFE780609DF24005618280411106C62D
:1059E00022C426C2EFC03F9593074006B354F50288
:1059F0003374F50203A78184894763EFE70081458B
:105A000037858440130545BCEFF05FDB05E5B24008
:105A10002244924441018280EF50A05CAA852287F3
:105A2000A6861386C1071385411C97A07FFFE780D8
:105A3000E05FF1B77D55E1BF011106CEB7670960A0
:105A400093870700D84F3AC63247C1769386F60F40
:105A5000758F9366075036C63247D8CF81450545C6
:105A600097A07FFFE78080718545054597A07FFF60
:105A7000E780C0708545014597A07FFFE78080756E
:105A80008545054597A07FFFE780C074B7F70A609A
:105A9000984F1367470098CF984B1367170098CB20
:105AA000F2400561828009C937370B608327C7C080
:105AB000ED9B2326F7C08280411106C697808301A3
:105AC000E780C04F37370B608327C7C0F59B23267D
:105AD000F7C009C9832747C0B7060080D58F2322A6
