:100000006F0000106F00C00F6F00800F6F00400F77
:100010006F00000F6F00C00E6F00800E6F00400E6B
:100020006F00000E6F00C00D6F00800D6F00400D5F
:100030006F00000D6F00C00C6F00800C6F00400C53
:100040006F00000C6F00C00B6F00800B6F00400B47
:100050006F00000B6F00C00A6F00800A6F00400A3B
:100060006F00000A6F00C0096F0080096F0040092F
:100070006F0000096F00C0086F0080086F00400823
:100080000000000000000000000000000000000070
:100090000000000000000000000000000000000060
:1000A0000000000000000000000000000000000050
:1000B0000000000000000000000000000000000040
:1000C0000000000000000000000000000000000030
:1000D0000000000000000000000000000000000020
:1000E0000000000000000000000000000000000010
:1000F0000000000000000000000000000000000000
:100100005D7116C21AC41EC672C876CA7ACC7ECE7B
:100110002AD02ED232D436D63AD83EDA42DC46DE67
:1001200006C0A2C417440100130484ECF322103467
:1001300096C0F32300309EC2F322203493D2F20102
:10014000639E0204F3222034B7030080FD13B3F250
:1001500072002D43638962000A8597000000938036
:10016000600B6F30C04F8642910296C0924263840A
:1001700002000D4511A002558A852644397122C41A
:1001800026C64AC84ECA52CC56CE5AD05ED262D487
:1001900066D66AD86EDA0A866F30801C03230400A4
:1001A0009303130023207400631703008A82032142
:1001B0004400411116C073252034B7020080FD129F
:1001C00033755500EF00000897F200009382823FDC
:1001D0000E05AA9203A5020003A34200E700030054
:1001E00083230400FD132320740063930302024160
:1001F0000C4441112EC013050000EF5000628245EF
:10020000410119C5EF30400A17440100130444DED0
:100210008642964373901234739003302644924280
:100220002243B243424ED24E624FF24F0255925594
:100230002256B2564257D2576258F25882406161F4
:100240007300203082800000411106C6EFB0305E9E
:1002500097A08001E78060B6EF200066EF30305E47
:10026000411106C622C42A84A947630DF5001375FF
:10027000F40F970080FFE780A0DE0145B2402244E2
:10028000410182803545970080FFE78060DDC5B77A
:10029000BDC5014601438148B1A0B747814013174E
:1002A000260032970E079387C7D4BA9703A8470250
:1002B000C28711A0DC5395C7E38E07FF3747814003
:1002C00093162600B2968E061307C7D43697185792
:1002D00058431843E300F7FE984FE31DA7FC3E8305
:1002E00085480506B747814083A7C7D4E367F6FA78
:1002F000638A0800832743019CC10145828013055E
:1003000020108280130550108280411106C622C43D
:100310002A841C4591C79C4381C74845829711E5B3
:1003200008401C419C4382970145B2402244410150
:100330008280411106C622C42E841C4599C7DC4325
:1003400089C74845829711E02A842285B240224419
:1003500041018280011106CE22CC26CA4AC84EC66F
:10036000AA842E84B6893A8901EAB7F7804083A728
:1003700047099C4382970DE988401C41FC4391C783
:100380004A86CE85829711E02A84B7F7804083A7FA
:100390004709DC43A28526858297F2406244D24415
:1003A0004249B2490561828011E02A842285F5B76D
:1003B0005C4199C30545828001458280AA87084136
:1003C00009C9411106C6ED3711CD0145B2404101C1
:1003D0008280373781400325072188C37DF1196565
:1003E0000D05828019650D05D5B7011106CE22CC09
:1003F00026CA4AC84EC6AA848329850103A9018159
:1004000021A81109B7F7804083A74709DC43A285DB
:10041000268582972A8439E1032409001DC4268594
:10042000413F05E5C0C0B7F7804083A747099C431B
:10043000268582972A841DE1DC409C47CE8526854F
:10044000829761D123A204006DBF2685953721C113
:1004500003A78181894763EBE70001442285F240CD
:100460006244D2444249B24905618280EF608046CD
:10047000AA85DC40944337F680401306860A13852C
:100480008173970080FFE78060BA0144C1BF130405
:100490005010E9B7797106D622D426D24AD04ECE72
:1004A00052CC2A84AE84B28921372A89B7F780409A
:1004B00083A747099C432285829729E9630909009C
:1004C0005C4003A9070663040900228A39A0032AB5
:1004D000040083270A0003A98700A6855285029994
:1004E000AA85638E090001ED6C0052850299AA85E8
:1004F00019E59840B2476304F70099658D05B7F791
:10050000804083A74709DC4322858297B25022545A
:1005100092540259F249624A45618280797106D645
:1005200022D42AC62E84B7F7804083A747099C4768
:100530006800829731E132455C419C4BB1C321C4D4
:10054000B7F7804083A747099C43829715E532455A
:100550005C419C4B6C088297AA8501E9B247D84B55
:1005600019E37247D8CBF2471CC0B7F7804083A786
:100570004709DC4332458297B2502254456182805C
:1005800019651505D5BF13052010FDB7797106D67D
:1005900022D426D24AD04ECE6300051A2A891C41A5
:1005A000638F07189843630F0718DC43638F07189E
:1005B0008329050102C6BD4763FD3705B70788409B
:1005C00083A7C7FE9C433EC6B247232CF9004A8549
:1005D000C53309E54A85113D2A8461E92C004A8525
:1005E000353F2A8429E983274900FC5BB5C74A8542
:1005F000829709893DE52247B707000163F3E706C3
:1006000003A78181854763EAE70CB70700013EC471
:1006100089A8A94411A0BE846C004A85EFB0D0110E
:100620002A8499678D076316F5009387F4FFE344E6
:1006300090FE59D89DA883A78181A5CBEF60802922
:10064000AA8537F680401306860A138581759700C0
:1006500080FFE780A09D91A803A78181854763EE75
:10066000E70403A78181894763E7E708B7F780407C
:1006700083A747099C434A8582972A841DE5BD4785
:1006800063EC370183274900BC4F4A858297930763
:100690008010630BF5082A84B7F7804083A74709C9
:1006A000DC43A2854A8582972A842285B25022544F
:1006B00092540259F24945618280EF60A021AA85D7
:1006C00037F680401306860A37F58040130505D6B5
:1006D000970080FFE780809569B7EF60A01FAA852B
:1006E00037F680401306860A1385C177970080FF8E
:1006F000E780C09319BFEF60E01DAA8503270901B9
:1007000093172700BA978607B7F680409386C6DD11
:10071000BE9637F680401306860A1385817E9700C1
:1007200080FFE780A09099B783270901F11705475B
:10073000E364F7F62A848DB713042010BDB71304C1
:100740002010A5B7130420108DB713042010B1BFDB
:10075000011106CE22CC26CAAA842E8423A005002D
:1007600002C66C00353619C50145F2406244D244D8
:100770000561828002C4B247858B99CB38008946D7
:100780000546A685EF80105AA2471CC00545F1BF5B
:10079000380085460546A6850145EF80B058EDB77F
:1007A000797106D622D426D24AD04ECE52CC417789
:1007B000B379E500330535412E95C167FD1733093F
:1007C000F5003379E9004E84014A29A8014A52858F
:1007D000B250225492540259F249624A45618280D1
:1007E000C1673E94B3872901E373F4FEB7078840DD
:1007F00083A7C7FEDC43E37BF4FC02C66C002285C2
:10080000813FAA8471DD324561DDC165EF909000C2
:10081000268AF9B7411106C622C426C24AC001443D
:100820000149814409A8814705473317A700336967
:10083000E900DD8C0504954763E287022285EFB06D
:10084000C06D9307F003E3E7A7FE130705FEE34C33
:1008500007FC8547B397E7000147D1BF4A85A685C6
:10086000EFB05000B24022449244024941018280DC
:10087000411106C62E8597F07FFFE780A07C0145D9
:10088000B24041018280411106C60945EF902076B1
:100890000145B24041018280411106C60945EF90F1
:1008A00020730145B240410182800145828041119F
:1008B00006C622C426C24AC02E8432892E85EF5035
:1008C0003073954701A805800D0471982285EF507B
:1008D0003072A68709E59384F7FF91C36DF409C9C7
:1008E00023208900B240224492440249410182807F
:1008F0000144FDB7411106C622C42A84EF50101AE4
:1009000081473387A5006365A7043E9795473377F2
:10091000F7023307E5403335E500B387A540B7D686
:10092000CCCC1386D6CCB387C7029386C6CCB3068D
:10093000D702B697B306C7023337C702BA97FE0786
:1009400013D716005D8F18C4B24022444101828043
:10095000854765BF411106C622C42A84B737814046
:1009600083C7472789C705458145EF50000A22857F
:1009700051370145B24022444101828099E519C2B4
:1009800023200600130570108280411106C697A02F
:100990008001E780A049411106C62E85EF50B06363
:1009A000B24041018280411106C62E8597F07FFF3B
:1009B000E78040690145B24041018280411106C68D
:1009C000EF005020B24041018280411106C601452E
:1009D000F5370145B24041018280411106C6EF0062
:1009E000301CB24041018280411106C60145F537F5
:1009F0000145B24041018280411106C6EF70607628
:100A0000B7470F00938707243305F502B240410131
:100A100082809DC11C4198435C4B85899396A500BB
:100A200093F7F7BFD58F5CCB1C4198435C4BA60571
:100A300093F7F7DFCD8F5CCB828099C51C4198433B
:100A40005C4B93E7F71F5CCB82801C419C43D843EF
:100A500085891396D501B70600E0FD16758F518F75
:100A6000D8C3D84313969501B70600FEFD16758FBF
:100A7000518FD8C3D8431396A501B70600FCFD16C5
:100A8000758F518FD8C3D8431396B501B70600F8B8
:100A9000FD16758F518FD8C3D8431396C501B7067D
:100AA00000F0FD16758F518FD8C31C419443DC4272
:100AB000FA05370700C07D17F98FCD8FDCC2828021
:100AC0001C419443DC4A85891396150101777D17F3
:100AD000F98FD18FDCCA1C419443DC4ACA05370721
:100AE000FCFF7D17F98FCD8FDCCA82801C419443B7
:100AF000DC42858913967501370780FF7D17F98FD2
:100B0000D18FDCC21C419443DC42E205370700FF71
:100B10007D17F98FCD8FDCC282801C41D8431C4FDA
:100B200085898605F59BCD8F1CCF82801C41D843DB
:100B30001C4F85898A05ED9BCD8F1CCF82801C417F
:100B40009443DC428589DA053707C0FF7D17F98FAA
:100B5000CD8FDCC282801C419443DC421396F501A8
:100B6000370700807D17F98FD18FDCC21C41944379
:100B7000DC428589D6053707E0FF7D17F98FCD8FD9
:100B8000DCC28280411106C60841EF00607AB240A3
:100B900041018280411106C60841EF00E076B24073
:100BA0004101828001159D4763E8A7020A059387EA
:100BB00001253E951C418287054582801145828032
:100BC0001305400382801305401C828013054034C6
:100BD0008280130500048280411106C697A080011F
:100BE000E780C024214582802D458280011106CEF8
:100BF00022CC26CA4AC84EC6AA892E84F37704306E
:100C00005CC18144014919A0058085041DC4937706
:100C10001400FDDB93973400CE97039987001307E8
:100C200019002394E700E31109FE93973400CE974F
:100C3000DC4785454E858297C1BF83A74900A18BBC
:100C400073A0073063490900F2406244D24442492C
:100C5000B2490561828097A08001E780201D0111C3
:100C600006CE22CC26CA4AC84EC6AA892E84F3775D
:100C700004305CC10149814419A0058005091DC4E7
:100C800093771400FDDB93173900CE978394870088
:100C9000FD14C204C18423949700E5F09317390032
:100CA000CE97DC4781454E858297C1BF83A7490017
:100CB000A18B73A0073063C90400F2406244D244A0
:100CC0004249B2490561828097A08001E780001601
:100CD00037F58040130585228280411106C622C463
:100CE00026C2FD37F37704305CC1014425A0CD371F
:100CF000A2850841792BAA84E13FB7F780401317FA
:100D0000240093870720BA979043458EA285084117
:100D100069290504A547E3DC87FC5D3F5C41A18BA5
:100D200073A00730B24022449244410182804111B5
:100D300006C622C4130705FE9D4763EEE7002A841A
:100D4000693F228585352A846137A2854535B240C1
:100D500022444101828097A08001E780200D41114B
:100D600006C622C4130705FE9D4763EBE7001D3D41
:100D70002A84B93FA285E535B240224441018280F0
:100D800097A08001E780800A82808280411106C698
:100D900022C4737404309924218873200430B24033
:100DA000224441018280411106C622C4737404307A
:100DB0006D24218873200430B24022444101828096
:100DC000411106C622C473740430C52421887320DF
:100DD0000430B24022444101828037F5804013053F
:100DE000052B8280011106CE22CC26CA4AC8AE84C9
:100DF000328911CD85476307F50037140B60130462
:100E0000044011A8371400601304040029A037041B
:100E10000060130404006303090C935649019317FF
:100E2000C90033862741B3B7C7009D8E3385C40000
:100E3000B3379500B697B335A000FD177D15BE9565
:100E4000970080FFE780C0B81307F5FF9307F00F06
:100E500063E6E70892043309A90233D624039357C3
:100E600046008566FD16F58FC207C1835848F58F89
:100E7000FD76758FD98F5CC85C483D8A520637076E
:100E800010FF7D17F98FD18F5CC8B7170B60938760
:100E90000740630BF404B7070060938707006309FA
:100EA000F40437670960130707001C4B3EC67D1525
:100EB000B2471375F50F3205B716F0FFFD16F58F23
:100EC000C98F3EC6B2471CCB8327840993E717001E
:100ED000232CF40883278409858BEDFFF2406244BC
:100EE000D24442490561828097A08001E78020FDBD
:100EF000B766096093860600DC423EC41307F5FF1F
:100F0000A2471377F70F32073716F0FF7D16F18FE0
:100F1000D98F3EC4A247DCC245BFB7F70A60984FDD
:100F20001367470098CF984B1367170098CB1305AA
:100F3000F5F91377F50FB14763EEE70813152700AE
:100F4000B7F78040938707063E951C418287370795
:100F50000B600325078213750520B70700019387EF
:100F6000F7F7232EF78085A837070B600325078244
:100F700013750510B70700019387F7FB232EF78041
:100F800099A837070B600325078285677D8DB70712
:100F900000019387F7BF232EF78035A837070B6032
:100FA0000325078213750540B70700019387F7EF04
:100FB000232EF7800DA037070B6003250782856776
:100FC000938707807D8DB70700019387F7DF232E76
:100FD000F78011A00145133515008280011106CE5E
:100FE00022CC26CA4AC84EC63384E6409D4763C217
:100FF00087062A89B289BA840D37B7C70218938742
:1010000007E0AA978A078C4337080002B3F5050169
:10101000EDF5A2093369390123A027019043B705F3
:1010200000026D8E65FE884341811375F50F3355BF
:1010300095000504FD57B397870093C7F7FF93F713
:10104000F70F7D8DF2406244D2444249B2490561B6
:10105000828097A08001E78060DD411106C622C42E
:1010600026C24AC02A843289B684453DB7C70218D1
:10107000938707E0AA978A079843B70500026D8F08
:1010800075F7220933642401C204458C3707000137
:10109000598C80C39843B7060002758F65FFB24034
:1010A00022449244024941018280011106CE22CCA1
:1010B00026CA4AC84EC652C456C23E84B389E640C8
:1010C0009D4763C1370BAA8A328AB6843A89B13503
:1010D000B7C50218938505E0AA958A0503A80500FF
:1010E000B70700023378F800E31408FE220A33EA57
:1010F0004A0123A0450103A80500B7070002337881
:10110000F800E31A08FE9441C18293F6F60FFD57EA
:10111000339727011347F7FF8504B3949700458F52
:10112000758F8509B397370193C7F7FFE18FB397A1
:101130002701D98FC2073707FF00F98FB3E74701AF
:1011400037070001D98F9CC19C4137070002F98FF6
:10115000E5FFF2406244D2444249B249224A924AEF
:101160000561828097A08001E78040CC411106C6CE
:1011700022C4EF804015930740063304F502EF8048
:1011800080152295B240224441018280B7170B603E
:1011900093870780A84B7981130740063305E50242
:1011A000BC4BED839D8B3E958280A54763E2B70ED5
:1011B0008A059387811BBE959C4182871441DC463A
:1011C0007206370700107D17F98F5D8ED0C68280BA
:1011D0001441DC463D8A6206370700F17D17F98F1E
:1011E000D18FDCC682801441DC463D8A5206370727
:1011F00010FF7D17F98FD18FDCC682801441DC4649
:101200003D8A42063707F1FF7D17F98FD18FDCC683
:1012100082801441DC463D8A320645777D17F98F7E
:10122000D18FDCC682801441DC463D8A22067D7760
:101230001307F70FF98FD18FDCC6828054419C527F
:101240007206370700107D17F98F5D8E90D282806D
:1012500054419C523D8A6206370700F17D17F98F91
:10126000D18F9CD2828054419C523D8A52063707CE
:1012700010FF7D17F98FD18F9CD2828054419C52F0
:101280003D8A42063707F1FF7D17F98FD18F9CD237
:101290008280A54763E8B7068A059387011EBE953D
:1012A0009C4182871C41C847718182801C41C8478C
:1012B00061813D8982801C41C84751813D8982807E
:1012C0001C41C84741813D8982801C41C84731810A
:1012D0003D8982801C41C84721813D8982805C41D3
:1012E0008853718182805C41885361813D8982800D
:1012F0005C41885351813D8982805C4188534181A2
:101300003D898280014582809DC11441DC4A8589E6
:101310001396050141777D17F98FD18FDCCA1441EF
:10132000DC4AB60579777D17F98FCD8FDCCA8280CC
:101330009DC11441DC4A85891396F50061777D17BC
:10134000F98FD18FDCCA1441DC4ABA0571777D1759
:10135000F98FCD8FDCCA82804111B7F7804083A717
:10136000872E944B37070010558F98CBD84B3AC631
:1013700032459C4F3EC4A245C205C18141018280D5
:10138000411106C60945EF80B044B2404101828058
:10139000411106C60945EF809045B2404101828067
:1013A000411106C673770430B737814023AEE72278
:1013B0009923B7358140938505240145D137B24043
:1013C00041018280411106C6B737814083A50724B9
:1013D00001457D3F692BB737814083A7C723A18B88
:1013E00073A00730B2404101828013570501137783
:1013F000F70F9357850093F7F70F1375F50F9306C3
:1014000000026312D70413070004638CE70013077C
:101410001004638EE700130700056380E7020145AF
:1014200082803515B54763F2A702014582802515F4
:10143000A54763FEA700014582802D15854763FA05
:10144000A7000145828001458280054582800545CF
:10145000828005458280411106C69308000263E33D
:10146000E8189308000263E30819B738006093880E
:10147000080083AE880003AE880103A3C801370FBC
:10148000200023A4E80103AF8801B70F0080336F69
:10149000FF0123ACE80103AF0802B70F0010FD1FE6
:1014A000337FFF01B70F0070336FFF0123A0E80304
:1014B00003AF0802C17F337FFF013365AF0023A074
:1014C000A80203A58801333FB0007A0FB70F00C010
:1014D000FD1F3375F5013365E50123ACA800FD154B
:1014E00003A5C801EA05370F00047D1F3375E50128
:1014F000C98D23AEB80023A2C80036866309080050
:10150000370688400326C6FE034696013696B73650
:101510000060938606008C4E3335C0007605B70810
:1015200000E0FD18B3F51501C98D8CCE7D16CC4EAB
:101530001376F60393F505FC4D8ED0CE904EB33561
:10154000E000EE05370500F87D15698E4D8E90CED2
:1015500055C37D171377F73FB736006093860600B3
:10156000D052137606C0518FD8D2BCCE9C4E3337A2
:1015700000017207370600F07D16F18FD98F9CCEDF
:10158000630C08061307F8FF1377F73FB7370060BF
:1015900093870700945793F606C0558F98D79843C2
:1015A000B7060400558F98C3B737006083A70700BC
:1015B000C983858BF5FBB73700609387070023A4A9
:1015C000D70123ACC70123AE6700A84FFD4763E8EE
:1015D0000701FD57B397070193C7F7FF7D8DB24011
:1015E0004101828097A08001E780408497A080011C
:1015F000E780C08301478DB7014749BF411106C647
:10160000AE8732873688814601468145A935B2408A
:1016100041018280011106CE22CC26CA4AC84EC69C
:1016200052C4370488400325C4FE97F07FFFE7804B
:1016300060AE8327C4FE98439357070193F7F70FD3
:101640009306D0096389D7049306200C6385D704D9
:101650009306800C6381D706A14601468145154556
:10166000713F131405014180A146014681451305D0
:1016700050036937220542054181498C9374042047
:10168000414A01498149631A94068147639B2909AC
:101690006389070C55A8A146014681451545B93F08
:1016A000131405014180937434F4C204C180214AAB
:1016B00001498149C9BF9357870093F7F70F9306F4
:1016C0000004E39BD7F81377F70FD547E3F6E7F865
:1016D000A146014681451545153713140501418082
:1016E000A1460146814513055003093F9379F50F43
:1016F00013792500214A814479B7B707884003A5AB
:10170000C7FE97F07FFFE780E0A081460146814554
:101710001945ED3581465286A6850545C53585476F
:10172000B5B7B707884003A5C7FE97F07FFFE780EE
:10173000609E8146014681451945C935814621464D
:10174000CA85130510035D3DB707884003A5C7FE92
:1017500097F07FFFE780009C814601468145114557
:10176000713D0145F2406244D2444249B249224AA5
:1017700005618280411106C6914763E0B7022A865F
:101780008E0513F8850F81470147A146E1451305F2
:10179000A005D131B2404101828097908001E7805D
:1017A000E068411106C6E146014681451305F0098E
:1017B000B135931705013707FF00F98F135705015E
:1017C0001377F70FD98F4167130707F0798D5D8D78
:1017D000B24041018280411106C622C426C2B70729
:1017E000884083A7C7FE8843093119C50145B24027
:1017F000224492444101828085454145A53F1375AD
:10180000F50F930700026316F50A03A78181894744
:1018100063E2E7068146014681451305900BF93BDB
:1018200081460146814513059007C93B8146014623
:1018300081451305F00FD9331305007D97F07FFF25
:10184000E78040808146014681451305B00A7D331B
:10185000514597E07FFFE780E07E3704884083248E
:10186000C4FE813788C08327C4FE8843BD3E05C1BE
:101870000145B5BFB7F580409385C53237F5804047
:101880001305C53097E07FFFE780407A61B783A7F3
:10189000818199E37D55A1BFB7F580409385C5321D
:1018A00037F580401305C52E97E07FFFE78000786D
:1018B000D5B701452DBF411106C622C426C24041FD
:1018C000F374043029A05C4408488297404801CC56
:1018D00083570400858BFDFB5C40F5D79C4318447F
:1018E000F98FEDD7CDB7A18873A00430B240224460
:1018F000924441018280011106CE22CC26CA4AC8F8
:101900004EC673790430B737814003A44725B737F3
:10191000814083C7C724A1EBB737814005472386A1
:10192000E724B717002083A90700F3740430228549
:1019300097F07FFFE78040DFA188F3A404300145E2
:10194000EFF08FC433743401B737814023A8872464
:101950001379890073200930F2406244D24442492D
:10196000B2490561828097908001E780405541111E
:1019700006C622C426C2F3740430B737814003A5DB
:101980000725B737814083C7C7248DCBB737814040
:10199000238607247374043097F07FFFE78080D894
:1019A0002188732404300145EFF02FBEA18873A075
:1019B0000430B240224492444101828097908001D9
:1019C000E780E04F45C9411106C622C47374043054
:1019D0005C41B5C303D70700136717002390E700E6
:1019E0005C4194439E06C206C186A186B6851C4111
:1019F000D84311E797908001E7804043584B11CFBF
:101A00001C439E07C207C187A187E399F6FE83574F
:101A10000700858BE5F7814711A0854763C3050261
:101A20008DCF1C4103D527001946058997F07FFF0C
:101A3000E78040D01DA01C418C438A05E185854785
:101A4000F1BF184183572700858B85E30843458103
:101A50007D8997D08001E78060F32188732004306E
:101A60000145B24022444101828021887320043024
:101A70002955C5BF29558280411106C697F08001BE
:101A8000E78020F7B240410182805C411449D84789
:101A900009E7DC43F04FF0C711E28280411106C62E
:101AA000AA851385460097008101E780A0D6B24041
:101AB00041018280411106C637C5804213050536B3
:101AC000E937B24041018280011106CE22CC26CAFC
:101AD0004AC84EC652C42E89B284032A4500032741
:101AE000CA008547630CF70801444A94B707008091
:101AF000FD17B3D78700858BD1CBF3790430F94735
:101B000063E18702B7878042131724009387878E8B
:101B1000BA97884363470500854597008101E780B0
:101B200060BDF94763E18708B78780421317240037
:101B30009387C786BA978545884397008101E780D8
:101B4000C0B793F70401C1CBB74702188507A29726
:101B50008A0798431367071098C393F72400F1C3CB
:101B600093F74400CDC383274A001307C4010A0733
:101B7000BA97D84313674700D8C36DA8FD4763F4ED
:101B8000B70001449DB71304000285B73796804221
:101B90001306060A85453705814013054580EF5039
:101BA000206F29550DA0379680421306060C8545F7
:101BB0003705814013054580EF50806D295593F915
:101BC000890073A00930F2406244D2444249B249CC
:101BD000224A05618280B547630CF400B7470218BA
:101BE0008507A2978A0798431377F7EF98C3B5B78D
:101BF000B7F70060984F1367071098CF984F137787
:101C0000F7DF98CFE1BF379680421306060D854572
:101C10003705814013054580EF5080671305A0F715
:101C200079BF83274A001307C4010A07BA97D8432C
:101C30006D9BD8C393F7040295CFB7470218850769
:101C4000A2978A0798431367070898C3B70702004B
:101C5000E58FF9C7B7070080FD17B3D72701858B3C
:101C600085C793F7046095CF130700606385E70885
:101C70002955B1B7B74702188507A2978A07984335
:101C80001377F7F798C3D9B7379680421306460FF4
:101C900085453705814013054580EF50605F295524
:101CA00039BFB74702188507A2978A079843FD7680
:101CB0009386F63F758F8566938606C0558F98C3C9
:101CC000054933198900B71709609387070023A2D4
:101CD00027038146014693050008228597F07FFF80
:101CE000E78000A0B7070800E58F95C383274A0067
:101CF00023A4270191A8B74702188507A2978A074E
:101D00009843FD769386F63F758F98C355BFB70706
:101D10000400E58F95CB83274A0023A627012DA039
:101D20008567E58F95E3054733178700B717096087
:101D30009387070098D7B747021893875755A297FC
:101D40008A071307000898C3C167E58F81CFB7479B
:101D500002188507A2978A0798431367072098C33C
:101D60000145B1BD8967FD8C81ECB7470218850735
:101D70003E940A041C4093F7F7DF1CC0014581B56F
:101D8000014535BD104918428327070893F717FC12
:101D900093E727012320F7088327070893E7170015
:101DA0002320F7085C43856693860680D58F5CC345
:101DB00083270708858BEDFF54438567938707804A
:101DC000DD8E54C31442D842D98FDCC282804111C7
:101DD00006C622C4004918405C4393E707405CC331
:101DE00055371440DC42056713070780D98FDCC2E2
:101DF000B24022444101828010491C42984F8966BA
:101E0000558F98CF984FF976FD16758F98CF1C4255
:101E1000984F8566558F98CF984FFD76FD16758F34
:101E200098CF828014499842DC5E13861700D0DE7A
:101E3000D1078A07BA970D6798C7828014499842DC
:101E4000DC5E13861700D0DED1078A07BA970567D4
:101E500098C78280411106C622C426C2AA840049BE
:101E60001440DC42056713070780D98FDCC2184095
:101E70005C4393E707025CC3232E0402130544006E
:101E80008565938585380146EF20501111ED58582E
:101E900095476300F70258588D476301F702B24037
:101EA0002244924441018280268515371305C0F8EB
:101EB000FDB72685293F1305C0F8D5B74955C5B7E5
:101EC000011106CE03280501A307B1008547232A87
:101ED000F8028326080001470DA0DC4E3EC293079E
:101EE00007013386270092470346F6FF93F707F072
:101EF000D18F3EC29247DCCE0507E350E0FE832738
:101F00008803858BC9C7A181A307B1008326080078
:101F100001476343E002DC4E3EC49307070133866A
:101F20002700A2470346F6FF93F707F0D18F3EC480
:101F3000A247DCCE0507F1BF094713670710856785
:101F4000938707805D8F832608008327C803138645
:101F50001700232EC802D1078A07B69798C7032710
:101F600008008327C80393861700232ED802D107C1
:101F70008A07BA97096798C7832708007D57D8D37F
:101F80001307805A98D7F935F240056182800547DA
:101F90006DB7797106D622D426D24AD04ECE52CC15
:101FA00056CA5AC8AA8A0329050103AA45008441D2
:101FB000232A0902896993890980096B15A093E98D
:101FC0000940054489A0584E3AC6B2463387F4000A
:101FD0002300D7008507E3C887FEA294330A8A400E
:101FE00063000A0852849307100263F44701130444
:101FF00010021374F40F7D141374F40F8547E3007B
:10200000FAFC93F9F9BF93F909F0B3E989000327C2
:1020100009008327C90393861700232ED902D1070D
:102020008A07BA9723A43701032709008327C90326
:1020300093861700232ED902D1078A07BA9723A4C3
:102040006701832709007D57D8D31307805A98D793
:102050005685093563470500032609008147A5BF5A
:102060000145B250225492540259F249624AD24A6E
:10207000424B45618280411106C622C426C24AC035
:10208000AA842E8483C78500918B89CB136916009F
:10209000513BCA8526852D35634C0500A2852685D2
:1020A000CD3D6347050083478400898B81EB014563
:1020B000B240224492440249410182802685BD3BC0
:1020C0002685493BE34605FE0145DDB7797106D615
:1020D00022D426D24AD04ECE52CC56CA5AC8AA8A48
:1020E000032A0501C44183A905008547232AFA0272
:1020F00005691309098013690910096B21A89377F1
:10210000F40F137909F03369F90091EF1374F40FA8
:10211000A299818CC9C4268493070002E3F197FE3B
:1021200013040002E9BF83260A00014739A8DC4EE8
:102130003EC63386E900B2470346060093F707F030
:10214000D18F3EC6B247DCCE05079377F40FE3404C
:10215000F7FE03270A008327CA0393861700232E5E
:10216000DA02D1078A07BA9723A4270103270A00B6
:102170008327CA0393861700232EDA02D1078A0722
:10218000BA9723A4670183270A007D57D8D3130782
:10219000805A98D756857D39E35A05F611A0014536
:1021A000B250225492540259F249624AD24A424BE6
:1021B00045618280411106C622C426C24AC0AA8453
:1021C0002E8483C78500918B81CB3289A139CA8542
:1021D0002685FD31634C0500A2852685C53D6347F4
:1021E000050083478400898B81EB0145B24022447E
:1021F0009244024941018280268589312685993998
:10220000E34605FE0145DDB7011106CE22CC26CA04
:102210004AC84EC652C456C25AC0032905016306B5
:1022200006102A8AAE893284B68AB7A4070093843E
:102230000412832709009C479183858B91CB054528
:10224000EF10E07B9387F4FF638D040EBE84D5B757
:1022500083C7890093E747002384F9004E878547A9
:1022600029A0898AB9E631078507A2866340F4026E
:10227000E3DBD7FE834687008345470133C6B600BC
:10228000058A65D29189F1FDA95411A08144D9EC48
:10229000130BC901FD557D565A85EF202050832729
:1022A0008903858B89CB9307F03FB3FA5701860AE0
:1022B000B1A0A954E9BF9307F007C5BF5285EFF05D
:1022C0001FB15285EFF05FB3032709001C57F17669
:1022D000F58F1CD7032709009167FD175CD383C7CF
:1022E0008900858B8DCB5686CE8552856933AA842D
:1022F00063C904027D141374F40FB1091DC00327D0
:1023000049039547E30CF7FA832709009C4791831B
:10231000858BC5DB65B75686CE855285613DAA841F
:10232000C1BF5A85EF20803D11A081442685F2402F
:102330006244D2444249B249224A924A024B056160
:102340008280C154E5B7011106CE22CC26CA4AC804
:102350004EC652C4AE84032A4500032905012E85CA
:1023600097008101E7802040AA8997008101E780DA
:10237000003B2A84AA864E86A6854A8597808001DE
:10238000E780E01283274A02A1C737470F001307EF
:1023900007243354E402B38787027D476373F70051
:1023A000FD4783260900D846FD8B019BD98FDCC6EB
:1023B00083260900DC42056713070780D98FDCC23A
:1023C000F2406244D2444249B249224A05618280C5
:1023D000032709005C4793E7F7015CC7D1BF0111F0
:1023E00006CE22CC004902C6585885476304F7023E
:1023F0005C5895C7B24709476388E7020D47638F6A
:10240000E7020547638FE70215476391E7029147AB
:102410005CD829A86C002285EF70B042E1BF6C0047
:102420002285EF705049F9B78D475CD813054400F9
:10243000EF20C02CF24062440561828095475CD851
:10244000F5B795475CD8DDB7011106CE22CC26CA78
:102450004AC84EC6AA8440418329050181450844E3
:1024600097008101E780A041634605084840EF10CE
:10247000C06051CD4C44484097008101E780E01294
:1024800048481C4C6352F00A8545B395F50093F516
:10249000E50F5C4C93F70710DD8D0147A6863726C4
:1024A00080401306E63D93E5054097D08001E78024
:1024B00040842A8925ED4E8597808001E78060045D
:1024C000268597008101E780C00F085097008101A1
:1024D000E780E01C93650501268597008101E78070
:1024E000402D2A894A85F2406244D2444249B24989
:1024F0000561828037968042130606388545370588
:10250000814013054581EF40B0582959E1BF379606
:102510008042130646AF8545370581401305458146
:10252000EF40105735597DBF8145A5B7AA8637962C
:1025300080421306C6B8854537058140130545819D
:10254000EF40505645B7397106DE22DC26DA4AD80C
:102550004ED652D456D25AD05ECE62CC66CAAA8C1F
:10256000AE8483AB0500C177B3FBFB0003AA450033
:10257000337AFA0003ACC500337CFC0083AA050162
:10258000B3FAFA0001498147014B6144A5A883A72A
:10259000818189CFEF400034AA85A286138601DAB3
:1025A000138581DA97E07FFFE78040A8979080014C
:1025B000E780E09011C703A78181894763E3E70EB5
:1025C000A247D8446384E71698406389E716370723
:1025D00080BF3E97B70608006368D700370700B092
:1025E000BA97116763F3E7000509B247A29713840E
:1025F0008700B7478140938787D083C717006387D9
:102600002715CE87938917003D47636FF7028546EC
:1026100021462C002285EFA0007335F92247B70729
:1026200000BEBA97B7060001E3E6D7F8B70780BF48
:10263000BA97B7060800E3EFD7F62DDFB70700B06B
:10264000BA979166E3E8D7F6638C0910C1476389AE
:10265000F910014597E07FFFE78040A20945EF7040
:10266000F01263810C1202C25C00D848D6866286E2
:1026700085456685EF60F05B5C009844D2865E8697
:1026800085456685EF60F05ADC48E297FD1737070D
:102690000042636CEC0E3707004363E5E7128147A5
:1026A000F5A0EF402023AA85A247370700BE3E973A
:1026B000B70600016360D702B70680BFBE96370633
:1026C000080063E9C60099C7B70600B0BE96116658
:1026D00063F6C602B70680BFBE963706080063E2FF
:1026E000C602B7060001636DD702370700B03E97F8
:1026F0009166637AD702938641D931A0938641D8F7
:1027000019A09386C1D73248C28813078400138664
:1027100001DA138581DD97E07FFFE78020914DB5D9
:10272000938681D8CDB7938601D9F1BF930A8400EF
:1027300023A854014177B3FAEA0079B5130A84005B
:1027400023A244014177337AEA0051B5E31B0BEA37
:102750009347F4FFBD8BA29713841700054B55B523
:1027600083A7818181CFEF40E016AA85138601DA25
:10277000138501E197E07FFFE780408B9780800120
:10278000E780E073EF601044F9BD814713F617004E
:1027900037870C6054431346F6FFF18E54C3898388
:1027A000544393C7F7FFF58F5CC39C44DE97FD1736
:1027B0003707004263EAEB003707004363E3E706AD
:1027C000814721A0A547D9B7814713F6170037875E
:1027D0000C6054431346F6FFF18E54C3898354436F
:1027E00093C7F7FFF58F5CC30945EF70007C884401
:1027F000C167FD173E9541810A0593050040898D0B
:1028000097E07FFFE78080EAF2506254D254425949
:10281000B259225A925A025BF24B624CD24C21615D
:102820008280A5475DB7411106C697D2FFFF93820C
:10283000627D73905230F377043097C1000093812A
:1028400061CEEF106019EF00A07915E5B7D5804093
:102850009385456E0145C539EF0030170145EF00FE
:10286000007803A78181894763E9E702EFD0DF9D04
:10287000B2404101828083A7818181CFEF408005F2
:10288000AA85138601DA138541E397D07FFFE7809D
:10289000E07997808001E7808062EF40A003AA85FD
:1028A00083A601E8A982138601DA1385C1E597D0D2
:1028B0007FFFE780A0775DBF411106C622C4EFA06D
:1028C000B011EFA0B00419E9EFD0DFF497708001E8
:1028D000E780E0D4B2402244410182802A8483A769
:1028E000818189CFEF30107FAA85A286138641E8C7
:1028F000138501E997D07FFFE780407397808001BF
:10290000E780E05B411106C681460146814513051B
:10291000A007EFE0BFCEB707884003A5C7FE97D05A
:102920007FFFE780207FB24041018280411106C6CF
:1029300022C426C2AA8483473500BD8B0947638D14
:10294000E7046365F704A1CF0547639DE70413849B
:1029500041EC03A78181894763ECE704B727006056
:102960009847B7070001F98FADE3B7071000F98F5B
:10297000C1E3B7078000F98FBDEF9167F98FBDEF15
:1029800089677D8F3DCF138441EF91A03D47639EC2
:10299000E700138441ED75BF1384C1EC5DBF138460
:1029A000C1EB45BF1384C1EC6DB71384C1EC55B7BF
:1029B000EF305072AA85A286138641E8138541F252
:1029C00097D07FFFE780806651BF1384C1ED03A7D6
:1029D0008181894763EAE70283C734009183114705
:1029E0006366F7068A07138741F8BA979C43828784
:1029F000138401EEE9BF138481EED1BF1384C1EECD
:102A0000F9B7138401F0E1B7EF30D06CAA85A28644
:102A1000138641E8138541F497D07FFFE78000617A
:102A200065BF1384C1F003A78181894763E3E7028F
:102A3000B2402244924441018280138441F1E5B7BF
:102A4000138481F1CDB71384C1F1F1BF138401F177
:102A5000D9BFEF303068AA85A286138641E8138576
:102A600041F697D07FFFE780605CD9B7011106CEB1
:102A700083473500918311476360F7068A07138700
:102A800081F9BA979C43828785473EC60945EF7016
:102A9000E04FB707884003A5C7FEB245C167FD17E1
:102AA0001307001085664166D205084197D07FFF65
:102AB000E780406B0945EF70404FF240056182802E
:102AC00089473EC6E1B791473EC6C9B7A1473EC652
:102AD00075BFC1473EC65DBF89473EC645BF411170
:102AE00006C622C4B707884003A4C7FEEFE07FCB29
:102AF00008C0B240224441018280B7270060984F4D
:102B00001367070C98CF984B1377F7C198CB984B66
:102B1000019B98CB8280411106C622C42A84AA85D3
:102B2000754597E07FFFE78020BEA285654597E069
:102B30007FFFE78060BDA285794597E07FFFE78052
:102B4000A0BCA285614597E07FFFE780E0BBA2853E
:102B5000714597E07FFFE78020BBA285694597E03C
:102B60007FFFE78060BAB240224441018280411178
:102B700006C605454D375137B240410182804111AB
:102B800006C622C4ED37BD3BEFE0DFA837448140E5
:102B9000130784D08347370093E7F700A301F700BA
:102BA000130584D06133130584D0C935EFA04025C7
:102BB0000145B240224441018280411106C697D0AE
:102BC0007FFFE7806047014597D07FFFE780004B9C
:102BD000EF50D01CEF50E058716613060620B7473F
:102BE0000F0093870724B305F5020145EFE08F9F9F
:102BF000B24041018280011106CE22CC26CA4AC8C9
:102C00004EC652C456C22A840347C5008347D50026
:102C1000A207D98F35476383E70483A7818199EBA6
:102C20006D55F2406244D2444249B249224A924A26
:102C300005618280EF30104AAA850347C4008347AC
:102C4000D400A2075D8FB5461386C1FA138581FBB8
:102C500097D07FFFE780803D6D55E1B7AE84EFE010
:102C6000EFD0AA8993074006B35AF502337AF502EA
:102C70000347F40083470401A20733E9E7008547CF
:102C800063F49700014571BF637C250383A78181AD
:102C900099E37D553DA0EF30F043AA8593064006A9
:102CA0005288D6873377D902B356D9021386C1FA30
:102CB0001385C1FE97D07FFFE78040377D5511A077
:102CC00001458547E39FF4F483471401034424013D
:102CD00022045D8CC167FD17E305F4F439D0E3727B
:102CE00034F5B7170B6093870780BC43858B95FB42
:102CF00083A7818199E37D552DB7EF30B03DAA853B
:102D0000930640065288D6873377D402B356D4024E
:102D10001386C1FA1385010397D07FFFE780003146
:102D20007D5501B7411106C603A78181894763EA32
:102D3000E70003A78181894763E1E702B2404101CF
:102D40008280EF303039AA851386C1FA1385410796
:102D500097D07FFFE780802DE9BFEF30B037AA859D
:102D60001386C1FA1385010997D07FFFE780002CF5
:102D7000F1B7411106C685466146B7458140938546
:102D800085D00145EF90307C01E5B2404101828061
:102D900083A7818199E36D55CDBFEF30B033AA850C
:102DA0001386C1FA1385010C97D07FFFE7800028B6
:102DB000DDB7011106CE02C4B7270B60938707C0A9
:102DC0003EC6280097D07FFFE780C05D8145280080
:102DD00097D07FFFE780805E280097D07FFFE78055
:102DE000A05C85473EC0B7870060938707003EC25E
:102DF0000A8597D07FFFE780E05A81450A8597D002
:102E00007FFFE780A05B0A8597D07FFFE780C059EE
:102E1000F24005618280411106C622C426C2EFE05D
:102E2000EFB493074006B354F5023374F50203A7D9
:102E30008181894763EEE70081453745814013056D
:102E400085D0553B05E5B240224492444101828041
:102E5000EF305028AA852287A6861386C1FA1385EB
:102E6000410F97D07FFFE780601CF9B77D55E1BF28
:102E7000011106CEB767096093870700D84F3AC69D
:102E80003247C1769386F60F758F9366075036C624
:102E90003247D8CF8145054597D07FFFE780002E88
:102EA0008545054597D07FFFE780402D8545014545
:102EB00097D07FFFE78000328545054597D07FFF9B
:102EC000E7804031B7F70A60984F1367470098CF03
:102ED000984B1367170098CBF2400561828009C9AF
:102EE00037370B608327C7C0ED9B2326F7C082804E
:102EF000411106C697808001E78040F337370B60A9
:102F00008327C7C0F59B2326F7C009C9832747C07D
:102F1000B7060080D58F2322F7C08280B7360B60BA
:102F200083A746C0370700807D17F98F23A2F6C01C
:102F30008280411106C605455D370545C137B2405F
:102F400041018280B7270B603747D850130717AA73
:102F500023A0E7C203A7C7C1B7060400558F23AE5D
:102F6000E7C023A007C28280B767096003A70710E4
:102F70001367170023A0E71003A70710759B23A072
:102F8000E710B7270C600D47F8C38280411106C6D1
:102F9000014597D07FFFE7806008A547630CF500E7
:102FA0006515A94763EDA70093073045B3D7A70080
:102FB000858B91C703A78181854763E6E7006D375D
:102FC000B24041018280EF30F010AA851386C1FA29
:102FD0001385811197D07FFFE7804005CDB78280B0
:102FE000411106C622C46935A937A93FB7470B600E
:102FF00023A2078CB7A7096023A2078CB7970960A3
:1030000023A2070CEFA0E02AEF909031EFF0FFBA77
:10301000EFF05FD1EF603073EF60803CEFF03FACDA
:10302000EFE06FFB15C52A8483A7818191E7228594
:10303000B240224441018280EF30D009AA85138634
:1030400041141385C11497D07FFFE78020FEC5B7D8
:10305000EFF03FD22A8461FDEFF0FFDB2A8461F9B3
:10306000EFF0FFB12A8461F51537EFF09FD41120FE
:103070007DBF411106C6B767096003A7070813673C
:10308000270023A0E70803A70708759B23A0E708EC
:1030900003A707081367470023A0E70803A747080B
:1030A000B7064000558F23A2E70803A74708B706D5
:1030B000D0FFFD16758F23A2E70803A74708B716B0
:1030C000F0FFFD16758F23A2E708B7070B6003A773
:1030D0004715B7060004558F23AAE71403A7471521
:1030E000B7060008558F23AAE7148947014785468C
:1030F0001D46814513059006EFD09FCC85470D47AF
:103100008D461D46814513059006EFD07FCB854740
:10311000114791461D46814513059006EFD05FCAC1
:103120008547194799461D46814513059006EFD0FE
:103130003FC9A14701478D461146814513059006B9
:10314000EFD01FC89307600601479D460D46814595
:1031500013059006EFD0DFC6A14701478D4605460F
:10316000814513059006EFD0BFC593076006014760
:103170009D460146814513059006EFD07FC4B7E711
:1031800000603757060098CF9843B786FCFFFD16BE
:10319000758FA166558F98C39843E1769386F6079D
:1031A000758F1367077898C3D843B71600FFFD16CD
:1031B000758FB7860C00558FD8C3D843B70600016A
:1031C000558FD8C3B24041018280411106C6B7E78E
:1031D0000060D843B70600FFFD16758FD8C33707C8
:1031E00000017D1798CF9307000601478D461146D1
:1031F000814513059006EFD0BFBC814701479D462E
:103200000D46814513059006EFD09FBB930700063E
:1032100001478D460546814513059006EFD05FBAFC
:10322000814701479D460146814513059006EFD031
:103230003FB98147014785461D46814513059006E4
:10324000EFD01FB881470D478D461D4681451305B8
:103250009006EFD0FFB68147114791461D46814544
:1032600013059006EFD0DFB58147194799461D46F3
:10327000814513059006EFD0BFB4B7060B6083A756
:103280004615370700FC7D17F98F23AAF614B76798
:1032900009603747400023A2E708154723A0E70845
:1032A000B24041018280000023AA150280DDC4DD06
:1032B00023A0250523A2350523A4450523A65505EE
:1032C00023A8650523AA750523AC850523AE9505BE
:1032D00023A0A50723A2B50723A8250223A4B50888
:1032E000032105030322050983204503005D445D96
:1032F0000329050483294504032A8504832AC50478
:10330000032B0505832B4505032C8505832CC5055B
:10331000032D0506832D45068280411106C6976060
:103320008001E780801C7300501097608001E78067
:10333000E01BA14773A00730B240410182800145E4
:103340008280130505058280C14763F3A7004145CC
:10335000B78780420A05938747ECAA978843828003
:10336000797106D622D426D24AD04ECE52CC56CA35
:1033700000182A8AAE843289F32A2034B7070080E5
:10338000FD17B3FAFA00378680421306C6A98545B1
:10339000370581401305C587EF30906F56856D372F
:1033A0008A898547230EF4FC8D47A30EF4FC7971BE
:1033B0000A871306070121C2C94519CEAE86914777
:1033C00063D7B700B78780429387C7B75CCBA14765
:1033D00063D4D700232C57018547230CF4FC8D4779
:1033E000A30CF4FC0DCAB14763D3B70048CF9306D2
:1033F0000702814731A8B7050080FD157DBF138501
:1034000007FE2295034585FF2380A60085078506D4
:103410000545E376F5FEC54763DCB722C9451DC205
:103420009146230ED4FCA30E04FC230F04FC854715
:10343000A30FF4FC2308D700A30807002309070003
:10344000A309F70093F5657FA60593E5050481467A
:10345000B70A81401385CA87EF30B0674E81F326E3
:10346000303437868042130606B985451385CA87EE
:10347000EF305063638D04109450D84037868042FB
:10348000130606BA85451385CA87EF301063D450FA
:103490009844378680421306C6BB85451385CA8784
:1034A000EF30B0619454D84437868042130686BD0D
:1034B00085451385CA87EF305060D45498483786C5
:1034C0008042130646BF85451385CA87EF30F05EFC
:1034D0009458D84837868042130606C1854513851F
:1034E000CA87EF30905DD458984C378680421306D7
:1034F000C6C285451385CA87EF30305C945CD84CD2
:1035000037868042130686C485451385CA87EF3007
:10351000D05AD45C37868042130646C6854513854B
:10352000CA87EF3030582685EFF0BFE1AA8637868C
:103530008042130646C785451385CA87EF309056EB
:10354000944037868042130646C885451385CA874E
:10355000EF305055B44037868042130646C9854542
:103560001385CA87EF301054F44037868042130623
:1035700046CA85451385CA87EF30D05237868042C8
:103580001306C6A985451385CA87EF307050630BB3
:10359000090A832689000327090237868042130619
:1035A00046CB8545B70981401385C987EF30F05078
:1035B0008326C9000327490237868042130606CDB9
:1035C00085451385C987EF30504F832609010327AE
:1035D0008902378680421306C6CE85451385C98782
:1035E000EF30B04D832649010327C9023786804258
:1035F000130686D085451385C987EF30104C832686
:1036000089010327090337868042130646D2854580
:103610001385C987EF30704A8326C9010327490300
:1036200037868042130606D485451385C987EF3057
:10363000D048378680421306C6A985451385C987B9
:10364000EF301045CA852685F524A6855285152BB1
:103650009155F1B3411106C60146EFF07FD04111FB
:1036600006C622C42A84EFF09FCD11C10945A28568
:10367000D537411106C6F3262034B7070080FD1761
:10368000FD8E37868042130686F0854537058140DA
:103690001305C587EF30104181450545653F411150
:1036A00006C622C42A84B2853686D52C2285B2402D
:1036B000224441018280130606FB419A14D258D25B
:1036C0001CD6232606038967938707887CC2B79791
:1036D0000042938747E53CC210D9B70780409387E3
:1036E00087205CD92324A50882801305A0F7828057
:1036F000411106C622C426C22A8493040000130680
:103700000000B7C580429385855997D07FFFE78039
:1037100020DA1306800081453305940097D07FFF9F
:10372000E780C0D8B24022449244410182804111D6
:1037300006C622C426C24AC02A8913040000930781
:1037400080003E94B384854026855D372328990800
:103750002285B240224492440249410182809377FB
:10376000350099EFB85DFC5DBA97C19B6366E500D3
:103770006366F500014582800145828005458280AF
:1037800001458280937735009DEF81CDB747814019
:1037900083A7C7FE99E7411106C6D137B240410160
:1037A000828037078140130707FB8567938707806F
:1037B000BA976366E5006366F500014582800145BE
:1037C00082800545828001458280797106D622D4A7
:1037D00026D24AD04ECE52CC56CA5AC85EC662C411
:1037E00066C2AA8B2E8CB28A368A3A8B91CA3685EB
:1037F000EFF03FB52A8403290A048149814C0DA8C2
:1038000091CF374781401307C7FE184713070703B7
:103810006306F700804303A94700C5B70A84373918
:1038200080401309A97CD1BF03290400A68C110490
:103830009D4763CD3703A2845286D6852285029B9D
:1038400015C563F58C02B707004293870700E36D47
:10385000F9FCB7470142938787D7E377F9FC2686BF
:10386000CA856285829B19C185097DBFB2502254E9
:1038700092540259F249624AD24A424BB24B224C0C
:10388000924C45618280011106CE22CC0010B28696
:1038900003280500930718001CC179718A871386D5
:1038A000070159C2514705CA3A85914863D8E800D3
:1038B000B7888042938808F323AA1701A14863D4EC
:1038C000A80023AC070131486353A800D4CFC146F8
:1038D00063D3A6008CD3CD4663DCE604D14515C284
:1038E00015472306E4FEA30604FE230704FEA307F0
:1038F00004FE2388E700A388070023890700A38923
:10390000070093F5457FA60593E505048146370535
:1039100081401305C587EF30D01B0545130104FE18
:10392000F240624405618280370700807D17A5BFA1
:10393000915575B7011106CE22CC26CA4AC82A84F1
:10394000AE8402C637868042130606F585453709E0
:1039500081401305C987EF30B01337468140A687F1
:103960003737804013074778A2861306C6FE1046F5
:103970006C003745804013056588EFF01FE53786FA
:1039800080421306C6A985451305C987EF3050103C
:10399000F2406244D24442490561828082804111F2
:1039A00006C622C426C22E84B284CD3FB7F780401B
:1039B0000E059387075CAA9784C3C0C3B240224414
:1039C000924441018280411106C697D07FFFE78073
:1039D000E0ADB24041018280411106C637358140D9
:1039E0001306851CB7578140938707183386C74055
:1039F00081451305851CC13FB2404101828011E120
:103A00008280411106C622C426C22A849700810101
:103A1000E780C0CAAA84120497008101E78000CA27
:103A2000058DE36B85FEB2402244924441018280C1
:103A3000411106C622C42A845C4995CF829701CDE4
:103A4000634805029307F00F63D4A7001305F00F36
:103A50005C442380A70058448347170093E717006E
:103A6000A300F7003305A040B24022444101828008
:103A70003305A040C1BF0145F9BF19CD5845834763
:103A80001700858B91C78347070089C7014582804E
:103A9000014582800545828001458280411106C62C
:103AA00022C426C2AA8431C583470500A9C737C4EA
:103AB000804213040434B7C780429387074463737A
:103AC000F4020C40638B9500268597D07FFFE7803A
:103AD000609F01C513040402F9BF2285793F01E507
:103AE000014411A001442285B24022449244410184
:103AF00082802A84CDBF0144FDB7914763E4A702C9
:103B00000A059387C1883E951C4182871385C1822F
:103B100082801385018582801385018682801385CA
:103B2000C18682801385C18782801385C18382808C
:103B300001CD411106C6EF10601611C9834705007B
:103B400091CBB240410182801385018A8280138526
:103B5000018AC5BF1385018AEDB7F377043001A050
:103B6000411106C622C42A84EF30E0431386818ABD
:103B70008545370581401305C587EF306071228583
:103B8000E93F797106D622D426D24AD04ECE52CC05
:103B900056CA0018AA84AE8973790430B74A8140A6
:103BA000938ACAFE03AA8A00EFF03FF503C80A0110
:103BB0008A8A8547230EF4FC8D47A30EF4FC7971A5
:103BC0000A871306070139C2D94601CEB685914747
:103BD00063D5D7009387818B5CCBA14763D3B700B4
:103BE00004CF8547230CF4FC8D47A30CF4FC1DCEB9
:103BF000B685B14763D3D70048CFC14763D4B70078
:103C00002320070393054702814731A8B7060080A8
:103C1000FD1665BF138507FE2295034585FF2380AA
:103C2000A500850785050545E376F5FED54763DFE5
:103C3000D708D9471DC29545230EB4FCA30E04FC3A
:103C4000230F04FC8546A30FD4FC2308B700A30868
:103C5000070023090700A309D70093F7677FA6078A
:103C600093E507048146370581401305C587EF308A
:103C7000406656815285EFF0BFEB8A8A8547230E56
:103C8000F4FC8D47A30EF4FC79710A871306070133
:103C900021C2C94509CEAE86914763D5B700938747
:103CA000018E5CCBA14763D4D700232C4701854705
:103CB000230CF4FC8D47A30CF4FC1DCAB14763D35D
:103CC000B70048CF93060702814705A091579DB7DB
:103CD000B7050080FD157DBF138507FE22950345BE
:103CE00085FF2380A600850785060545E376F5FE5A
:103CF000C54763D9B706C9471DC29145230EB4FC19
:103D0000A30E04FC230F04FC8546A30FD4FC230858
:103D1000B700A308070023090700A309D70093F7FA
:103D2000677FA60793E507048146370581401305A1
:103D3000C587EF30005A5681CE852685EFF05FE2C9
:103D400013798900732009305285EF1050771301E1
:103D500004FDB250225492540259F249624AD24AA6
:103D600045618280915749BF011106CE22CC1304D0
:103D7000800933048502B7478140938707923E94B8
:103D80001313950093162500AA968A0602C285474A
:103D90003EC0BD4801488147374781401307C7FEF1
:103DA0003697B74680409386862113060020B705D4
:103DB00081409385057B9A952285EF00507083475B
:103DC000D400ED9BA306F400F240624405618280BA
:103DD000411106C622C426C2AA8413172500938760
:103DE0000190BA97804321A01C4082972104138739
:103DF00014000A0793870190BA979C43637BF400F1
:103E000048407DD18347C501858BEDF3EFF05FC25C
:103E1000F1BFB2402244924441018280411106C662
:103E2000B286B367B60091E7EF101048B240410187
:103E300082802E86B75580409385453D6105EF20F1
:103E40000013EDB7011106CE22CC37C48042130413
:103E500004442DA05C503EC21C503EC08328C401C7
:103E6000032884015C481848544410444C400840DE
:103E7000EF00F0641C40A0D713040403B7C78042CE
:103E800093870744E368F4FCEF10A07537C48042C1
:103E90001304044431A00840EFF05FF81304040356
:103EA000B7C7804293870744637AF4000C54505498
:103EB000FD57E392B7FEE303F6FEF1BFEF10407F3C
:103EC000F240624405618280411106C6B7378140E5
:103ED0000547238AE7260D45EFF09FEFEF20F01509
:103EE0001145EFF0FFEEEFF0FFF597408001E7801E
:103EF000E094B74781409387879B03C7C700799BAE
:103F00002386E700B24041018280411106C622C4E7
:103F100026C24AC0F3740430B74781409387C7FE76
:103F200003A98700D5572322F908F3770430EF104F
:103F3000E06D630FA9002A84B74781409387C7FECD
:103F400088C7EF10106ACA8503258408EFF0CFB543
:103F5000A18873A00430B240224492440249410136
:103F60008280411106C6EFF05FFA411106C622C4F5
:103F70002A84EFF07FDF130680093306C402B747B7
:103F80008140938707923E96B74781409387C7FE4B
:103F900013172400B30687008A06BE96D0C623886E
:103FA00086009316B40037068140130606FBB296CE
:103FB000056613060680B29622970A07BA97D4C3FD
:103FC000B240224441018280011106CE22CC26CA91
:103FD0004AC8EF10D00AB7478140B74481401389DF
:103FE000849B9387C7FE23AA27019387818F3EC2B4
:103FF00085473EC08148014881470147B746804018
:10400000938686EC0566B71581409385059B1385DD
:10401000849BEF00D04A2A848347D900ED9BA306F6
:10402000F9001385849BEF10602D0145EFF0FFF33D
:104030002285F2406244D2444249056182804111A6
:1040400006C60145EFF0DFD80142EF20F0593745B1
:104050008140130505A5EF0010520545EFF05FD72D
:104060000945EFF0FFD6EFF03FF6EFF09FEF41117B
:1040700006C61307C50058C518C997408001E780D8
:10408000600FB24041018280411106C622C437F45C
:1040900080401304047339A010444C402285EFF093
:1040A0001FFD5104B7F7804093874774E366F4FE21
:1040B0000145B240224441018280411106C622C41A
:1040C00026C24AC02A8413094501F374043097407C
:1040D0008001E780E0E91305C400EF10807511E965
:1040E000A18873A00430B2402244924402494101A5
:1040F0008280A6854A85EF10006FF5B754491C45AC
:1041000033E7F6000D8B1DE32326050018497D17C4
:10411000B386E602B69739A0544594C35CC55449AA
:10412000958F7D17E35A07FE0145828029558280CD
:10413000411106C622C437F480401304447101457E
:1041400011A07104B7F78040938707736377F40079
:104150002285EFF0BFFAE35605FEB240224441014A
:10416000828005458280011106CE22CC26CA4AC82B
:104170004EC652C456C22A84AE84EFF09FFE15C9C3
:1041800093098400737904305C448DCB5C449CC0FB
:1041900044C41C4CFD171CCC9377890073A00730D6
:1041A000F2406244D2444249B249224A924A0561ED
:1041B00082801145814273000000DDB7032A0400AC
:1041C00063044403B33A400163120A02E3800AFC29
:1041D00023220A0823289A005285EF102012CA854C
:1041E0004E85EF1040606DBF014AE9BF03274A00CA
:1041F00083270A001CC3D8C323200A0023220A00F5
:104200008347DA00F59BA306FA0023240A0013056E
:104210008A01EF10106C5DBF411106C6F3770430C0
:10422000EFF0AF8FE5BF010082806353B500AA8530
:10423000930710F863C4F5002E858280130510F8EB
:10424000828008458307E5006394B70001458280BA
:10425000411106C6EF10201FB24041018280232485
:1042600005002326050008C148C1014582800111CF
:1042700006CE22CC26CA4AC84EC652C42A84F3743B
:1042800004305C4595EFC5EB374781401307C7FE07
:1042900018470307E70018C885075CC4B747814083
:1042A0009387C7FE9C471CC4A18873A004300145B6
:1042B000F2406244D2444249B249224A05618280B6
:1042C000AE8932891445374781401307C7FE184726
:1042D000E38BE6FAB367B600ADC3038AE600D28586
:1042E0000305E700EFF07FF4634E4505014ACE86F3
:1042F0004A872286A685374581401305C500EF1001
:10430000204B5DD5F37404301C44A9C71C406301E5
:10431000F4049DCF0C480385E700EFF01FF1AA8558
:104320002285EFF01FF20DE963180A02A18873A03D
:1043300004305555B5BF1848B9BFA18873A00430E3
:104340004155BDB7AA852285EFF0BFEF2A8A45B750
:104350000C48F9B7E30C0AFCA685374581401305E4
:10436000C500EF1040485555A1B7011106CE22CC2B
:1043700026CA4AC84EC6184545CB2A84B74781404D
:104380009387C7FE9C476313F70A5C450547637D27
:10439000F700FD175CC581442685F2406244D24493
:1043A0004249B24905618280F37904300C49EFF04B
:1043B0005FE90329040063008902B3342001631E0E
:1043C000090023242401A1E02326040093F9890095
:1043D00073A00930D1B70149CDB70327490083271E
:1043E00009001CC3D8C323200900232209008347E6
:1043F000D900F59BA306F9002324090013058901C0
:10440000EF10304D7DBF8307E9001CC82322090847
:104410004A85EF00B06ECE85374581401305C50053
:10442000EF10603C81448DBFA954BDB7FD54ADB7BA
:104430009C418D8B9CC1584119C71C438D8BCD8FDE
:104440001CC34CC182804CC10CC182808DC1AE871F
:1044500098419375C7FF8D4663F6E60218420D8BAF
:104460004D8F18C298430D8B518F98C3828018418D
:104470001C428D8BD98F1CC210C15C4191C38280BC
:1044800050C18280411106C6B285EFF07FFAB2407A
:1044900041018280411106C6232205080CC9EF00A4
:1044A000F065B24041018280797106D622D426D2CD
:1044B0004AD04ECE52CC56CA5AC85EC62A84AE895D
:1044C0003289368A930B8500737B043019C38329A4
:1044D000450093078400044463879704B33A90002F
:1044E000A9E463980A06631B0A06232009004A868A
:1044F000CE852285EFF09FF5914513050401EF204D
:10450000202125C9DA855E85EF10E02D814A568588
:10451000B250225492540259F249624AD24A424B52
:10452000B24B45618280814455BFD8409C401CC33A
:10453000D8C323A0040023A2040083C7D400F59BA2
:10454000A386F40023A4040013858401EF107038BF
:1045500049BFCA852685EFF0FFF36DB72145EF20EF
:10456000202C19C52322250185471CC12A8941B762
:10457000D15A93758B0073A0053051BF15C11C41F2
:104580008D8B99CF411106C622C4404191E5228509
:10459000B240224441018280EF20E0232285CDBF3A
:1045A00082802320050023220500930785001CC577
:1045B0005CC5930705011CC95CC98280011106CE48
:1045C00022CC26CA4AC84EC62A849309850073792C
:1045D00004300445638599028DE4A1C88145268590
:1045E000EFF05FEB8544A14513050401EF20401275
:1045F0001DED95EC13798900732009302DA88144B5
:10460000E1BFD8409C401CC3D8C323A0040023A210
:10461000040083C7D400F59BA386F40023A4040000
:1046200013858401EF10F02A55BF81446DBFCA8500
:104630004E85EF10401BF2406244D2444249B249D9
:1046400005618280411106C62E8605478146814557
:10465000EFF09FE5B24041018280411106C62E86EF
:10466000014781468145EFF03FE4B240410182803D
:10467000411106C622C4AA8713088500737404304A
:1046800008411DC11841719B98C3D443630CD500E8
:104690008545EFF0BFEE218873200430B2402244FC
:1046A00041018280D8C3EDB7B367B60085C3AE863B
:1046B00032874286A2854285EF10800F09EDB74709
:1046C00081409387C7FE9C47884BC9BF21887320D0
:1046D00004300145E1B70145D1B709CE636EB6009C
:1046E0000CC550C508C148C1930705011CC95CC968
:1046F000014582802955828029558280011106CE8C
:1047000022CC26CA4AC84EC62A8473790430044192
:10471000630F9502B33990008DEC639009061C4439
:1047200058446383E7060547BA971CC489451305B7
:104730000401EF10F07D39E9137989007320093005
:10474000F2406244D2444249B249056182808144C8
:10475000D1B7D8409C401CC3D8C323A0040023A2D7
:10476000040083C7D400F59BA386F40023A40400AF
:1047700013858401EF10F0154DB723A20408268598
:10478000EF00D037054545BF014779BFCA8537459A
:1047900081401305C500EF1000055DB77378043044
:1047A0001C4589CBFD171CC5137888007320083081
:1047B00001458280B367B60085C3411106C6AE8647
:1047C00032872A86C285374581401305C500EF0030
:1047D000307EB24041018280137888007320083017
:1047E00041558280011106CE22CC26CA4AC84EC647
:1047F000AA84F379043001492DA8014435A8584012
:104800001C401CC3D8C32320040023220400834778
:10481000D400F59BA306F4002324040013058401AF
:10482000EF10300BD5572322F4082285EF00102D0E
:1048300005498040E38384FC79F06DF423A40400EF
:10484000894513850401EF10B06C01E96317090075
:1048500093F9890073A0093001A8CE8537458140BE
:104860001305C500EF003078F2406244D24442495B
:10487000B2490561828089C91C429CC15C41630CBC
:10488000F6002320060082801C421CC15841E31A16
:10489000E6FE5CC1FDB74CC1EDB701CD411106C6C6
:1048A000014681451305450AEF104042B2404101DF
:1048B00082800145828025CD411106C622C426C2D0
:1048C0002A84AE84B74781409387C7FE98478327E1
:1048D00085096303F70481473E868327440B13D77A
:1048E0002700058B93D63700858A858BB9C311C302
:1048F00039C291C239C323A004008327040A9DC38F
:1049000084C32320940A2285EFF03FF90545B24085
:104910002244924441018280852E19E185476DBF72
:1049200081475DBF2320940A232E9408E9BF2955AF
:1049300082803555E9BF4155D9BF4155C9BF4111A5
:1049400006C622C426C24AC0AE845C4513D71700EF
:10495000058B21E72A848983858BA9EB9C419DC720
:104960005C44858B9DC71C449CC00949A285884036
:10497000EFF07FF4634405025C4493E747005CC4B6
:104980009C401CC4635920014A8519A81C459CC140
:10499000C1BF0549E1BF4A8511A0415523A00400CC
:1049A000B240224492440249410182800145FDB750
:1049B000411106C65C45BD9B5CC54105EFF01FD4A7
:1049C000B24041018280411106C622C45C45F59B7C
:1049D0005CC5B737814003A4C7251DC41C4091C3E3
:1049E00019C081453DA0A287EDBF228637358140A1
:1049F0001305C525EFF03FE813058400EFF01FD045
:104A0000B240224441018280A287E1BF3E873E84BA
:104A1000BA877DD45840E30AA7FCA285E5DB98431A
:104A20007DD7F5F73E87E5B7411106C622C426C2F9
:104A30004AC0AA847379043003A4C40925C81C4061
:104A400023AEF40803A7040A630AE40883A7440B0F
:104A500093E7270023AAF40A5C4413E7170058C41D
:104A6000ED9B93E717005CC45C40137989007320C9
:104A7000093022858297737904305C44F99B5CC4C9
:104A80009183858BC1E75C448583858BC1E783A7D0
:104A9000440BF59B23AAF40AA183858B1379890023
:104AA00073200930C1FBEF00F05E69B783A7440BA8
:104AB00013D72700058BED9B23AAF40A1DE39183EE
:104AC000858B85CB23AA040A1379890073200930CA
:104AD000B2402244924402494101828023A0F40A58
:104AE000B5B71384C40A014685452285EF10001E20
:104AF0007DF98147FD567D571386440ACA8537459F
:104B000081401305C500EF10E0232DB72285EFF09B
:104B10003FEA95BF2285EFF01FEB95BF23200500EC
:104B20002322050023240500232605004CC1828092
:104B3000011106CE22CC2AC62E85737404306C0077
:104B4000EFF0FFDF218873200430F24062440561FA
:104B50008280411106C622C4EFF09FFD2A8463477C
:104B6000A0002285B2402244410182807375043046
:104B7000EF00D030FDB7411106C6AA853745814008
:104B8000130505B0EFF0FFFCB24041018280011136
:104B900006CE22CC26CA2A84B688BA84232E0508DB
:104BA0002320050A9307450A2322F50A2324F50A40
:104BB0009307C50A2326F50A2328F50A29CF834738
:104BC0004700A1EF8547232AF40A7D57FD573AC4D1
:104BD0003EC602C0014881472287B756804093866F
:104BE00086A22285992A91CC8C4099C12285652084
:104BF00083C7540099C78347C40093E7170023066F
:104C0000F4002285EF00506A232C8408F2406244AD
:104C1000D2440561828085477DB79307101065B740
:104C2000011106CE22CC26CA4AC84EC6AA842E89B5
:104C30001304F6004198B3898500CE85EFE03FAFBD
:104C40003D05419923AC2407E0DC23A0A40833856B
:104C5000A940F2406244D2444249B249056182808F
:104C6000411106C6B286B367B60091E7EF00D06384
:104C7000B240410182802E86B75580409385453DE4
:104C80006105EF10C02EEDB7B747814003A5C7FE01
:104C90003335A0008280130580FA8280014582802E
:104CA000232405002306D500A306C5002307B5006D
:104CB000A3070500232C0500232E05008280011187
:104CC00006CE22CC26CA4AC84EC652C456C25AC0C4
:104CD0002A842E89B284B6893A8ABE8A428BC685D6
:104CE0009307C5067CD53CD982561146EFF05FFB91
:104CF0002686CA852285EFF0BFF2AA845A88D68715
:104D00005287CE862A86CA852285EFE0DF9A232441
:104D10000406B74781409387C7FE9C4783A7C7080F
:104D20002326F4082685F2406244D2444249B2491F
:104D3000224A924A024B05618280011106CE22CCA2
:104D400026CA4AC82A842259B25402C202531AC03F
:104D5000EFF0FFF6FD57639427016387F400CA85DF
:104D600026862285EFF0DFEF2285F2406244D244AE
:104D7000424905618280411106C622C42A848547C2
:104D8000A306F5002306F500232C0506232E0506B1
:104D9000EF103028B74781409387C7FE80C7B240E5
:104DA000224441018280014582808347D5001397C8
:104DB00087016187634A070E13F7F70175E7411111
:104DC00006C622C493E707F8A306F500B74781405B
:104DD0009387C7FE9C4F3747814013074700639472
:104DE000E70281470DA0D84358C11CC108C3C8C3FE
:104DF000B9A0BE86374781401307C7FE584F63816D
:104E0000E6029C4385C399CF8306E5000387E7004C
:104E1000E381E6FE158FE348E0FCBE86E1FFDDB7E7
:104E20008147CDB7B74781409387C7FED44F3747F7
:104E300081401307470018C154C188C2C8CFB74783
:104E400081409387C7FE804FB747814093874700D3
:104E50006308F40215C4B74781409387C7FE98479B
:104E60008347D700FD8B9DE38356E7009307F00748
:104E700063FED700B74781409387C7FED8CB0DA00C
:104E8000B74781409387C7FEC047F1B763058700E6
:104E90002285EF001075B74781409387C7FEC0CBCE
:104EA000B2402244410182808280411106C622C460
:104EB0008347D50013978701618763410704B7478C
:104EC00081409387C7FE9847804FB74781409387BB
:104ED00047006302F40421C06305A7048347D70099
:104EE000FD8BA1E38356E7009307F00763FBD7022E
:104EF000B74781409387C7FED8CB35A893F7F7070C
:104F0000A306F50058411C411CC3D8C3232005004B
:104F1000232205006DB7B74781409387C7FEC0477E
:104F200065BF630587002285EF00B06BB7478140FE
:104F30009387C7FEC0CBB240224441018280411119
:104F400006C622C426C22A84AE84EFF01FF6834729
:104F5000D40093E72700A306F400B9C404C49C401E
:104F60006390F402814729A8D84358C01CC000C3ED
:104F7000C0C31DA83E87D4406301D7029C4385C3AC
:104F800099CF8306E4000387E700E385E6FE158FEB
:104F9000E34CE0FC3E87E5F3DDB78147CDB7DC406D
:104FA00004C05CC080C3C0C0B240224492444101EE
:104FB0008280411106C66105EF10A011B240410187
:104FC0008280411106C622C426C24AC0AA842A8908
:104FD00000416300850421C058401C401CC3D8C355
:104FE00023200400232204008347D400F59BA3065A
:104FF000F4002324040013058401EF10800D232204
:1050000004082285EFF07FDA8040E31689FC014432
:10501000D9B70144C9B7B240224492440249410180
:105020008280011106CE22CC26CA4AC84EC652C47E
:1050300056C2AA842E84B74781409387C7FE03A92E
:1050400087008347D90013F707063DCB13F7070204
:1050500025CFA14933F7F90025E7B3E7F900A30607
:10506000F90013978701618763420706A147638EA2
:10507000F906814AB74781409387C7FE03AA870193
:10508000B747814093874700630EFA0A630C0A0A08
:10509000B74781409387C7FE9C4763854701528588
:1050A000EF003054B74781409387C7FE23AA4701DA
:1050B000C1476387F9004A85EFE02FE3639B0A0845
:1050C0002188732004305DA8C14969B793F7F707B9
:1050D000A306F90003274900832709001CC3D8C38E
:1050E000232009002322090051B78327890095C393
:1050F00003274900832709001CC3D8C323200900C4
:10510000232209008347D900F59BA306F900232435
:1051100009004A85EFF0FFE91305C906EFF07FEAC1
:10512000B74781409387C7FE9C476304F900814AD3
:1051300091B7B747814083A7C7FE99E3814A1DBF56
:10514000854A0DBFB74781409387C7FE03AAC700B2
:1051500081B7B74781409387C7FE9C4723A4F708D0
:1051600037458140130505A5EFF0FFC091BF73746B
:105170000430EFF04F8B21887320043083C7D400B4
:1051800093F70706EDF7F2406244D2444249B24930
:10519000224A924A05618280B286FD576395B70024
:1051A0006313F6008280411106C62E86B7558040F3
:1051B0009385453D6105EF00905BB24041018280DF
:1051C000411106C622C426C24AC02A843289B68446
:1051D000EFF0FFD6CA8526862285EFF0FFFBB240AE
:1051E00022449244024941018280411106C622C4F0
:1051F0008347D5001397870161876345070283477B
:10520000D50093E707F8A306F500B74781409387D9
:10521000C7FE9C4F37478140130747006391E7045F
:10522000814735A893F7F707A306F50058411C41BD
:105230001CC3D8C32320050023220500C9B7D843C7
:1052400058C11CC108C3C8C3B9A0BE863747814036
:105250001307C7FE584F6381E6029C4385C399CF6D
:105260008306E5000387E700E381E6FE158FE34848
:10527000E0FCBE86E1FFDDB78147CDB7B74781408F
:105280009387C7FED44F374781401307470018C1A3
:1052900054C188C2C8CFB74781409387C7FE98479B
:1052A000804FB7478140938747006305F4021DC0D4
:1052B0006308A7028347D700FD8B9DE38356E70071
:1052C0009307F00763FED700B74781409387C7FE77
:1052D000D8CB0DA0B74781409387C7FEC047C9BF51
:1052E000630587002285EF00D02FB7478140938761
:1052F000C7FEC0CBB240224441018280411106C6A4
:1053000022C426C22A848147F374043031A093F763
:10531000840073A00730854789EB2285EFF0BFA892
:105320007DF52285EFF07FA8DDB7B240224492449C
:10533000410182808147F37604302DA058411C4101
:105340001CC3D8C323200500232205008347D500B2
:10535000F59BA306F5002324050093F7860073A0B0
:105360000730854781E71C45F1FBC5BF82804111AD
:1053700006C622C426C22A848147F374043031A8A9
:105380008347D400ED9BA306F4002285EFF0FFA134
:1053900093F7840073A00730854785EB8347D400DB
:1053A00093F78702F5F71C44E1DF58401C401CC30B
:1053B000D8C323200400232204008347D400F59B94
:1053C000A306F4002324040065BFB24022449244A3
:1053D00041018280411106C685452115EFF03FF954
:1053E000B240410182802A878147737604300145AB
:1053F00039A001459377860073A0073085478DE774
:105400000843E308A7FE7DD554411C419CC2D4C388
:1054100023200500232205008347D500F59BA30622
:10542000F50023240500F9B78280411106C622C485
:105430002A84EFF03FF013058401EF009049B24059
:10544000224441018280011106CE22CC26CA4AC8DC
:105450004EC652C42A84AE848147F3790430014990
:10546000D5A093F7F707A306F40058401C401CC3CF
:10547000D8C3232004002322040093968401E186EC
:105480002307D4008347D40093E707F8A306F4006A
:10549000B74781409387C7FE9C4F3747814013072A
:1054A00047006394E70281470DA0D84358C01CC051
:1054B00000C3C0C3A9A03E86374781401307C7FE7B
:1054C000584F630FE6009C4391CF89CF0387E700D5
:1054D000E383E6FE158FE34AE0FC3E86F1FFEDB77D
:1054E0008147DDB7B74781409387C7FED44F374721
:1054F00081401307470018C054C080C2C0CFB747CF
:1055000081409387C7FE03AA8701B74781409387ED
:1055100047006306FA0463040A04B747814093878F
:10552000C7FE9C476305FA005285EF00900BB74712
:1055300081409387C7FE23AA470193F7890073A090
:1055400007308547D1E78347D40013F7F7011339B4
:10555000170001DB898B99EB23079400F9BFB7474C
:1055600081409387C7FE03AAC70045BF1444584033
:105570001C401CC3D8C3232004002322040013961C
:10558000840161862307C4009C426390F602814730
:1055900029A8D84358C01CC000C3C0C379BF3E87E8
:1055A000CC42630FB7009C4391CF89CF0387E700BC
:1055B000E307E6FE118FE34EE0FC3E87F5F3EDB71F
:1055C0008147DDB7DC4214C05CC080C3C0C2B5B740
:1055D0004A85F2406244D2444249B249224A0561B6
:1055E00082808147F376043005A0B74781409387D6
:1055F000C7FE98478347F700FD17A307F70093F707
:10560000860073A007308547EDD38280B74781407D
:105610009387C7FEC84B8280411106C622C426C2AA
:105620004AC02A84B74781409387C7FE03A98700F1
:10563000D5572322F908F3770430EFF03FFD630FCD
:10564000A900AA84B74781409387C7FE88C7EF00A7
:105650004079CA8503A58408EFD01FC5218873202F
:105660000430B74781409387C7FE9C4703A547088E
:10567000B2402244924402494101828093778500DE
:105680008DC7374781400327C7FE05E33747814071
:105690001307C7FE544B18476389E600411106C63D
:1056A000EFF09FF7B2404101828073A00730828003
:1056B000411106C622C426C28147F374043035A0C6
:1056C000374781401307C7FE404799A0638587008D
:1056D0002285EF000071B74781409387C7FEC0CB9A
:1056E00093F7840073A007308547B9E337478140BB
:1056F0001307C7FE1C4783C6F7008506A387D7009C
:10570000004F3747814013074700E30BE4FA4DD8B9
:1057100003C7D7007D8B5DFB83D6E7001307F00737
:10572000E376D7FA374781401307C7FE5CCB4DBFFE
:1057300073750430EFF09FF4B2402244924441016B
:105740008280411106C622C426C24AC02E84B747B1
:1057500081409387C7FE03A98700D5572322F90804
:10576000B74781409387C7006384A700F37704306D
:10577000EFF0DFE9AA84630DA900B7478140938762
:10578000C7FE88C7B92DCA8503A58408EFD0DFB14D
:10579000218873200430B74781409387C7FE9C4718
:1057A00003A54708B2402244924402494101828045
:1057B000411106C622C42E84B2853686BA86F37796
:1057C0000430B74781409387C7FE8847EFF05F9F5B
:1057D000A285374581401305C500EFF09FF6B24022
:1057E00022444101828093F785008DC7374781406D
:1057F0000327C7FE05E3374781401307C7FE544B15
:1058000018476389E600411106C6EFF09FF3B240E6
:105810004101828073A007308280B747814093871F
:10582000C7FED84B944723A4A60898C7032587082A
:105830008280411106C622C426C24AC0AA842A898F
:1058400000416304A400014521A00144EDBF0545CA
:1058500001CC2285EFF07FBD2285EFF03FAA80408A
:10586000E31789FE0144E5B7B2402244924402495D
:1058700041018280930745005CC11CC582804111B3
:1058800006C63745814013050500EFF0BFFEB24064
:1058900041018280411106C622C426C2F37404303D
:1058A000B74781409387C7FE9847DC4F6308F700EE
:1058B0001C435443184398C254C319A88147D5BF09
:1058C000374781401307C7FE584F6388E7029C4360
:1058D0009DC7374781401307C7FE10478306E60080
:1058E0000387E700E38EE6FC158FE35BE0FCD8431B
:1058F00058C21CC210C3D0C30DA08147D1BFB74747
:1059000081409387C7FE9847D04FB7468140938622
:10591000460014C350C318C2D8CFB74781409387FD
:10592000C7FE804FB747814093874700630DF4025D
:105930001DC8B74781409387C7FE9C476304F400A6
:1059400022854521B74781409387C7FEC0CBA685F6
:10595000374581401305C500EFF0BFDEB240224459
:10596000924441018280B74781409387C7FEC04778
:10597000C9B7011106CE22CC26CA4AC84EC6B3E723
:10598000A500A5C7AA842E84F37904303749814045
:105990001309C9FE03258900EFF02FD103258900E3
:1059A0002686A286B75580409385453D6105C12373
:1059B0002A84032789008347D70093E74700A3067B
:1059C000F700CE85374581401305C500EFF07FD73E
:1059D000832789009857DC5709CF0145F24062447C
:1059E000D2444249B24905618280EFF0BFEA0145E5
:1059F000F5B737070080E392E7FEEF005009330563
:105A0000A440E34DA0FC0145D1BF411106C622C40C
:105A100026C22A84AE84EFF0DFF5AA877D5763059E
:105A2000E40693D6F74113879700B337F700B6978C
:105A30003A86BE8689E7B9EFA54563FDE504914541
:105A400063E0D5068145B306F70063E3C604AE966E
:105A50001546B3F6C602B306D7403337D700998F41
:105A600037D7CCCC1306D7CCB387C7021307C7CC24
:105A70003387E602BA973385C602B3B6C602B69735
:105A8000FE0705815D8D01A82285E39CE4F821A035
:105A9000854575BF0145B240224492444101828050
:105AA000370500807D15C5BF411106C622C426C238
:105AB000F37404308347D500918B89EBA18873A0E0
:105AC0000430B24022449244410182802A8461051C
:105AD00009258347D400ED9BA306F4002285EFF04F
