:100000006F0000106F00C00F6F00800F6F00400F77
:100010006F00000F6F00C00E6F00800E6F00400E6B
:100020006F00000E6F00C00D6F00800D6F00400D5F
:100030006F00000D6F00C00C6F00800C6F00400C53
:100040006F00000C6F00C00B6F00800B6F00400B47
:100050006F00000B6F00C00A6F00800A6F00400A3B
:100060006F00000A6F00C0096F0080096F0040092F
:100070006F0000096F00C0086F0080086F00400823
:100080000000000000000000000000000000000070
:100090000000000000000000000000000000000060
:1000A0000000000000000000000000000000000050
:1000B0000000000000000000000000000000000040
:1000C0000000000000000000000000000000000030
:1000D0000000000000000000000000000000000020
:1000E0000000000000000000000000000000000010
:1000F0000000000000000000000000000000000000
:100100005D7116C21AC41EC672C876CA7ACC7ECE7B
:100110002AD02ED232D436D63AD83EDA42DC46DE67
:1001200006C0A2C417B4040013044424F3221034FC
:1001300096C0F32300309EC2F322203493D2F20102
:10014000639E0204F3222034B7030080FD13B3F250
:1001500072002D43638962000A8597000000938036
:10016000600B6F50604A8642910296C0924263844F
:1001700002000D4511A002558A852644397122C41A
:1001800026C64AC84ECA52CC56CE5AD05ED262D487
:1001900066D66AD86EDA0A866F5000170323040009
:1001A0009303130023207400631703008A82032142
:1001B0004400411116C073252034B7020080FD129F
:1001C00033755500EF000008976201009382828822
:1001D0000E05AA9203A5020003A34200E700030054
:1001E00083230400FD132320740063930302024160
:1001F0000C4441112EC013050000EF70104D8245D4
:10020000410119C5EF50C00417B4040013040416CB
:100210008642964373901234739003302644924280
:100220002243B243424ED24E624FF24F0255925594
:100230002256B2564257D2576258F25882406161F4
:100240007300203082800000411106C6EFE01043A9
:1002500097708201E780807CEF40805FEF50305ED6
:10026000411106C622C42A84A947630DF5001375FF
:10027000F40F970080FFE780A0DE0145B2402244E2
:10028000410182803545970080FFE78060DDC5B77A
:10029000BDC5014601438148B1A0B7D784401317BB
:1002A000260032970E079387071EBA9703A84702C6
:1002B000C28711A0DC5395C7E38E07FF37D7844070
:1002C00093162600B2968E061307071E3697185708
:1002D00058431843E300F7FE984FE31DA7FC3E8305
:1002E00085480506B7D7844083A7071EE367F6FA5B
:1002F000638A0800832743019CC10145828013055E
:1003000020108280130550108280411106C622C43D
:100310002A841C4591C79C4381C74845829711E5B3
:1003200008401C419C4382970145B2402244410150
:100330008280411106C622C42E841C4599C7DC4325
:1003400089C74845829711E02A842285B240224419
:1003500041018280011106CE22CC26CA4AC84EC66F
:10036000AA842E84B6893A8901EAB757814083A7C7
:1003700087119C4382970DE988401C41FC4391C73B
:100380004A86CE85829711E02A84B757814083A799
:100390008711DC43A28526858297F2406244D244CD
:1003A0004249B2490561828011E02A842285F5B76D
:1003B0005C4199C30545828001458280AA87084136
:1003C00009C9411106C6ED3711CD0145B2404101C1
:1003D000828037978440032507B488C37DF119656F
:1003E0000D05828019650D05D5B7011106CE22CC09
:1003F00026CA4AC84EC6AA848329850103A98182D8
:1004000021A81109B757814083A78711DC43A28532
:10041000268582972A8439E1032409001DC4268594
:10042000413F05E5C0C0B757814083A787119C4372
:10043000268582972A841DE1DC409C47CE8526854F
:10044000829761D123A204006DBF2685953721C113
:1004500003A78183894763EBE70001442285F240CB
:100460006244D2444249B24905618280EF9040140F
:10047000AA85DC409443375681401306C612138583
:10048000C177970080FFE78060BA0144C1BF1304C1
:100490005010E9B7797106D622D426D24AD04ECE72
:1004A00052CC2A84AE84B28921372A89B757814039
:1004B00083A787119C432285829729E96309090054
:1004C0005C4003A9070663040900228A39A0032AB5
:1004D000040083270A0003A98700A6855285029994
:1004E000AA85638E090001ED6C0052850299AA85E8
:1004F00019E59840B2476304F70099658D05B75731
:10050000814083A78711DC4322858297B250225411
:1005100092540259F249624A45618280797106D645
:1005200022D42AC62E84B757814083A787119C47BF
:100530006800829731E132455C419C4BB1C321C4D4
:10054000B757814083A787119C43829715E53245B1
:100550005C419C4B6C088297AA8501E9B247D84B55
:1005600019E37247D8CBF2471CC0B757814083A725
:100570008711DC4332458297B25022544561828014
:1005800019651505D5BF13052010FDB7797106D67D
:1005900022D426D24AD04ECE6302051A2A891C41A3
:1005A0006381071A98436301071ADC436381071AC2
:1005B0008329050102C6BD4763FD3705B70788409B
:1005C00083A7C7FE9C433EC6B247232CF9004A8549
:1005D000C53309E54A85113D2A8461E92C004A8525
:1005E000353F2A8429E983274900FC5BB5C74A8542
:1005F000829709893DE52247B707000163F3E706C3
:1006000003A78183854763EAE70CB70700013EC46F
:1006100089A8A94411A0BE846C004A85EFE0A076A9
:100620002A8499678D076316F5009387F4FFE344E6
:1006300090FE59D89DA883A78183A5CBEF805077E2
:10064000AA85375681401306C6121385C1799700D3
:1006500080FFE780A09D91A803A78183854763EE73
:10066000E70403A78183894763E7E708B757814019
:1006700083A787119C434A8582972A841DE5BD473D
:1006800063EC370183274900BC4F4A858297930763
:100690008010630DF5082A84B757814083A787111E
:1006A000DC43A2854A8582972A842285B25022544F
:1006B00092540259F24945618280EF80706FAA8599
:1006C000375681401306C612374581401305C56F62
:1006D000970080FFE780809569B7EF80706DAA85ED
:1006E000375681401306C6121385017C970080FFA0
:1006F000E780C09319BFEF80B06BAA85032709017B
:1007000093172700BA978607B74681409386867766
:10071000BE96375681401306C612374581401305F1
:10072000456A970080FFE780609089B783270901B9
:10073000F1170547E362F7F62A84B9BF13042010C6
:10074000ADB71304201095B713042010B9BF1304DC
:100750002010A1BF011106CE22CC26CAAA842E8465
:1007600023A0050002C66C00253619C50145F240DC
:100770006244D2440561828002C4B247858B99CB22
:10078000380089460546A685EFB0D03DA2471CC07B
:100790000545F1BF380085460546A6850145EFB001
:1007A000703CEDB7797106D622D426D24AD04ECE0F
:1007B00052CC4177B379E500330535412E95C167B9
:1007C000FD173309F5003379E9004E84014A29A861
:1007D000014A5285B250225492540259F249624A57
:1007E00045618280C1673E94B3872901E373F4FEBB
:1007F000B707884083A7C7FEDC43E37BF4FC02C64F
:100800006C002285813FAA8471DD324561DDC165BE
:10081000EFC02065268AF9B7411106C622C426C258
:100820004AC001440149814409A88147054733175B
:10083000A7003369E900DD8C0504954763E2870270
:100840002285EFE060529307F003E3E7A7FE13076A
:1008500005FEE34C07FC8547B397E7000147D1BF8E
:100860004A85A685EFE0206EB240224492440249B8
:1008700041018280411106C62E8597F07FFFE780F7
:10088000607C0145B24041018280411106C60945A4
:10089000EFC0E0590145B24041018280411106C6D6
:1008A0000945EFC0E0560145B24041018280014553
:1008B0008280411106C622C426C24AC02E843289D3
:1008C0002E85EF809038954701A805800D0471981A
:1008D0002285EF809037A68709E59384F7FF91C3BF
:1008E0006DF409C923208900B24022449244024990
:1008F000410182800144FDB7411106C622C42A8409
:10090000EF80401581473387A5006365A7043E97B4
:1009100095473377F7023307E5403335E500B38772
:10092000A540B7D6CCCC1386D6CCB387C702938666
:10093000C6CCB306D702B697B306C7023337C70291
:10094000BA97FE0713D716005D8F18C4B240224431
:1009500041018280854765BF411106C622C42A84B1
:10096000B797844083C7D7CD89C705458145EF70C8
:100970000077228551370145B240224441018280EF
:1009800099E519C2232006001305701082804111D9
:1009900006C697608301E78000F8411106C62E85E0
:1009A000EF801029B24041018280411106C62E8598
:1009B00097F07FFFE78000690145B24041018280E6
:1009C000411106C6EF100007B2404101828041117B
:1009D00006C60145F5370145B2404101828041110B
:1009E00006C6EF10C002B24041018280411106C626
:1009F0000145F5370145B24041018280411106C6EB
:100A000097F07FFFE7804064B7470F009387072484
:100A10003305F502B24041018280411106C6EFA0C4
:100A20003006B24041018280411106C6EFA0A041CC
:100A3000B7470F00938707243305F502B240410101
:100A400082809DC11C4198435C4B85899396A5008B
:100A500093F7F7BFD58F5CCB1C4198435C4BA60541
:100A600093F7F7DFCD8F5CCB828099C51C4198430B
:100A70005C4B93E7F71F5CCB82801C419C43D843BF
:100A800085891396D501B70600E0FD16758F518F45
:100A9000D8C3D84313969501B70600FEFD16758F8F
:100AA000518FD8C3D8431396A501B70600FCFD1695
:100AB000758F518FD8C3D8431396B501B70600F888
:100AC000FD16758F518FD8C3D8431396C501B7064D
:100AD00000F0FD16758F518FD8C31C419443DC4242
:100AE000FA05370700C07D17F98FCD8FDCC28280F1
:100AF0001C419443DC4A85891396150101777D17C3
:100B0000F98FD18FDCCA1C419443DC4ACA053707F0
:100B1000FCFF7D17F98FCD8FDCCA82801C41944386
:100B2000DC42858913967501370780FF7D17F98FA1
:100B3000D18FDCC21C419443DC42E205370700FF41
:100B40007D17F98FCD8FDCC282801C41D8431C4FAA
:100B500085898605F59BCD8F1CCF82801C41D843AB
:100B60001C4F85898A05ED9BCD8F1CCF82801C414F
:100B70009443DC428589DA053707C0FF7D17F98F7A
:100B8000CD8FDCC282801C419443DC421396F50178
:100B9000370700807D17F98FD18FDCC21C41944349
:100BA000DC428589D6053707E0FF7D17F98FCD8FA9
:100BB000DCC28280411106C60841EF00505EB2409F
:100BC00041018280411106C60841EF00D05AB2406F
:100BD0004101828001159D4763E8A7020A059387BA
:100BE00041293E951C4182870545828011458280BE
:100BF0001305400382801305401C82801305403496
:100C00008280130500048280411106C6976083012B
:100C1000E78060D0214582802D458280011106CE7B
:100C200022CC26CA4AC84EC6AA892E84F37704303D
:100C30005CC18144014919A0058085041DC49377D6
:100C40001400FDDB93973400CE97039987001307B8
:100C500019002394E700E31109FE93973400CE971F
:100C6000DC4785454E858297C1BF83A74900A18B8C
:100C700073A0073063490900F2406244D2444249FC
:100C8000B2490561828097608301E780C0C8011185
:100C900006CE22CC26CA4AC84EC6AA892E84F3772D
:100CA00004305CC10149814419A0058005091DC4B7
:100CB00093771400FDDB93173900CE978394870058
:100CC000FD14C204C18423949700E5F09317390002
:100CD000CE97DC4781454E858297C1BF83A74900E7
:100CE000A18B73A0073063C90400F2406244D24470
:100CF0004249B2490561828097608301E780A0C1C3
:100D0000375581401305C52A8280411106C622C489
:100D100026C2FD37F37704305CC1014435A0CD37DE
:100D2000A2850841EF00D03DAA84D93FB757814042
:100D30001317240093874728BA979043458EA285BE
:100D40000841EF00702D0504A547E3DA87FC4D3F0D
:100D50005C41A18B73A00730B24022449244410110
:100D60008280411106C622C42A84593FAA8773771C
:100D7000043058C1130710026300E4041307200273
:100D8000630EE40C130700026306E400976083011E
:100D9000E78060B818411843144B93E6064014CB23
:100DA000144B93F6F6BF14CBDC43A18B73A0073032
:100DB000B24022444101828018411843144B4166DD
:100DC000D18E14CB144B41767D16F18E14CB184185
:100DD0001843144B2166D18E14CB144B61767D16CB
:100DE000F18E14CB18411843144B37060040D18EB6
:100DF00014CB144B370600C07D16F18E14CB18416E
:100E00001843144B37060002D18E14CB144B37060F
:100E10000004D18E14CB144B37060008D18E14CBAE
:100E2000144B37060020D18E14CB144B370600FE2E
:100E30007D16F18E14CB144B370600FC7D16F18E17
:100E400014CB144B370600F87D16F18E14CB144BDF
:100E5000370600E07D16F18E14CBB9B71841184360
:100E6000144B37060001D18E14CB144B370600FF0C
:100E70007D16F18E14CB0DBF411106C622C4130797
:100E800005FE9D4763EEE7002A84413522859933AC
:100E90002A84BD35A2855933B24022444101828063
:100EA00097608301E78020A7411106C622C413077B
:100EB00005FE9D4763EBE700313B2A849135A2850F
:100EC000F933B24022444101828097608301E78078
:100ED00080A4411106C613054002793FB24041018A
:100EE0008280411106C6130540027D3FB240410198
:100EF000828082808280411106C622C473740430CD
:100F00005D2C218873200430B2402244410182804C
:100F1000411106C622C473740430292E218873201F
:100F20000430B240224441018280411106C622C4ED
:100F300073740430812E218873200430B24022441F
:100F400041018280411106C68545379584401305CD
:100F500045B5EF70D06119E573770430B7978440D9
:100F600023ACE7B4B24041018280411106C68545F9
:100F700037958440130545B5EF70D060854763050C
:100F8000F500B24041018280B797844083A787B5BE
:100F9000A18B73A00730F5B7B7578140938787338C
:100FA00003A5470C8280B75781409387873303A5F9
:100FB000870C828037558140130545688280011176
:100FC00006CE22CC26CA4AC8AE84328911CD8547C6
:100FD0006307F50037140B601304044011A837149D
:100FE00000601304040029A0370400601304040007
:100FF0006303090C935649019317C90033862741AF
:10100000B3B7C7009D8E3385C400B3379500B6973C
:10101000B335A000FD177D15BE95970080FFE780D2
:10102000209B1307F5FF9307F00F63E6E708920490
:101030003309A90233D62403935746008566FD166B
:10104000F58FC207C1835848F58FFD76758FD98F0C
:101050005CC85C483D8A5206370710FF7D17F98F40
:10106000D18F5CC8B7170B6093870740630BF404FC
:10107000B7070060938707006309F40437670960C6
:10108000130707001C4B3EC67D15B2471375F50FBD
:101090003205B716F0FFFD16F58FC98F3EC6B24771
:1010A0001CCB8327840993E71700232CF40883279C
:1010B0008409858BEDFFF2406244D24442490561C8
:1010C000828097608301E780408EB76609609386CF
:1010D0000600DC423EC41307F5FFA2471377F70F63
:1010E00032073716F0FF7D16F18FD98F3EC4A24725
:1010F000DCC245BFB7F70A60984F1367470098CF27
:10110000984B1367170098CB1305F5F91377F50F74
:10111000B14763EEE70813152700B757814093875F
:1011200007A63E951C41828737070B60032507827F
:1011300013750520B70700019387F7F7232EF78073
:1011400085A837070B600325078213750510B707BD
:1011500000019387F7FB232EF78099A837070B60D0
:101160000325078285677D8DB70700019387F7BF49
:10117000232EF78035A837070B60032507821375E8
:101180000540B70700019387F7EF232EF7800DA0E6
:1011900037070B60032507828567938707807D8D5E
:1011A000B70700019387F7DF232EF78011A00145D1
:1011B000133515008280011106CE22CC26CA4AC8FA
:1011C0004EC63384E6409D4763C287062A89B289AA
:1011D000BA840D37B7C70218938707E0AA978A0722
:1011E0008C4337080002B3F50501EDF5A209336918
:1011F000390123A027019043B70500026D8E65FEDB
:10120000884341811375F50F335595000504FD574B
:10121000B397870093C7F7FF93F7F70F7D8DF240E1
:101220006244D2444249B2490561828097508301A9
:10123000E780606E411106C622C426C24AC02A84D5
:101240003289B684453DB7C70218938707E0AA974D
:101250008A079843B70500026D8F75F7220933643A
:101260002401C204458C37070001598C80C3984380
:10127000B7060002758F65FFB240224492440249CE
:1012800041018280011106CE22CC26CA4AC84EC630
:1012900052C456C23E84B389E6409D4763C1370BB2
:1012A000AA8A328AB6843A89B135B7C502189385BD
:1012B00005E0AA958A0503A80500B7070002337860
:1012C000F800E31408FE220A33EA4A0123A045018C
:1012D00003A80500B70700023378F800E31A08FEF8
:1012E0009441C18293F6F60FFD57339727011347B8
:1012F000F7FF8504B3949700458F758F8509B397E1
:10130000370193C7F7FFE18FB3972701D98FC20742
:101310003707FF00F98FB3E7470137070001D98F7F
:101320009CC19C4137070002F98FE5FFF2406244FF
:10133000D2444249B249224A924A0561828097507A
:101340008301E780405D4841B7F7EDED9387E7DE25
:101350003E95133515008280411106C622C426C26F
:101360004AC02A842E89B284F93F19CD08488D2EAF
:10137000A9E0CA8501460848A12419E9B2402244DF
:10138000924402494101828097508301E780A0582E
:101390003797814213078722B79681429386461D6D
:1013A0001306D004B79581429385851DEFD0703721
:1013B000F1B7CA8501460848492469D13797814267
:1013C0001307C725B79681429386461D1306F0047E
:1013D000B79581429385851DEFD0B03445B7011193
:1013E00006CE22CC26CA4AC84EC6AA8432899307A2
:1013F000803EB389B70233B4B702B1370DC1884814
:10140000C52463130904CE8522868848552A01ED38
:10141000F2406244D2444249B24905618280975009
:101420008301E780404F3797814213078722B796A1
:1014300081429386461D13069005B7958142938598
:10144000851DEFD0102EE9B7CE8522868848F5227B
:1014500061D1379781421307C725B796814293869A
:10146000461D1306B005B79581429385851DEFD0C3
:10147000502B79BF411106C622C42A84E93509E5FB
:10148000B2402244410182800848992CD5BF1C41BA
:10149000584133E5E7003335A00082800346F5006C
:1014A000058A9317260037978440130707B7BA9722
:1014B00098431C4D99C3544DD4CF5C4D144D94C3E7
:1014C000814701481CC123220501232405005C45F6
:1014D000B70600FFF58F5CC56304E5000145828017
:1014E000411106C69317260037978440130707B7A4
:1014F000BA979C4381CB8843CC439D2C0145B24095
:10150000410182807D55FD55CDBF0346F500058A1A
:101510009317260037978440130707B7BA979C4361
:1015200099C3014731A81CCD9317260037978440F3
:10153000130707B7BA9788C35CCD91A03E879C4F2D
:1015400095C703280500584183A80700D443636664
:10155000D700E395E6FEE37318FFD84F58CD1CCDB6
:10156000D84F08C313078501D8CF11A81C4F1CCD35
:1015700081C793068501D4CF08CF610758CD99E97B
:101580009317260037978440130707B7BA979C43F1
:101590006384A70001458280411106C64C41084181
:1015A000C12A0145B24041018280411106C637D5AA
:1015B000844013058525EF504046B24041018280AA
:1015C0003DC5011106CE22CC26CA4AC84EC62A8481
:1015D000AE843289B797844083C7F7CCA1CFAD22C0
:1015E000AA9433B5A4003306B9003309C500F379D2
:1015F00004302285693D11CD1305301093F989001F
:1016000073A00930F2406244D2444249B2490561B4
:10161000828004C023222401232404005C44370771
:1016200000FFF98F5CC481452285C535C1BF130514
:101630002010828013053010F1B749CD011106CE7C
:1016400022CC26CA4AC84EC652C456C22A84AE8983
:10165000B284B797844083C7F7CCC1C3C12063FF6E
:101660009502DD20B38AA90033B5AA00B387B40080
:101670003309F500737A04302285113D05C913053D
:101680003010137A8A0073200A30F2406244D24448
:101690004249B249224A924A056182806394B40069
:1016A000E36135FDA528AA89AE8465BF23205401D6
:1016B0002322240123243401B7070001FD17FD8CE8
:1016C0005C44370700FFF98FC58F5CC481452285D4
:1016D0002D3D45BF1305201082801305301075B7CE
:1016E000B797844083C7F7CC9DC7411106C622C473
:1016F00026C22A84F3740430593B19E913053010CB
:10170000A18873A00430B2402244924441018280F7
:1017100022856933F5B71305301082801305200345
:1017200081458280411106C6B7D7844003A70727A9
:101730007C5793E747007CD7B797844083A7C7B708
:101740008297B24041018280411106C622C437D53A
:10175000844093070527C04381451305052797F06B
:101760007FFFE780E0C60294B240224441018280BC
:10177000411106C622C426C24AC02A89AE843284D8
:1017800097608201E780602AB70781409387877658
:10179000131634003E962320260144C29047D447B6
:1017A0009843DC4363E6D7006396F6006374C70092
:1017B0003A86BE86894537D584401305052797F0BC
:1017C0007FFFE78060C197608201E780A028B24078
:1017D00022449244024941018280411106C622C43A
:1017E000EFA07012930740063304F502EFA0B01289
:1017F0002295B240224441018280B7170B60938743
:101800000780A84B7981130740063305E502BC4BDE
:10181000ED839D8B3E958280A54763E2B70E8A05D6
:101820009387C11FBE959C4182871441DC46720696
:10183000370700107D17F98F5D8ED0C68280144166
:10184000DC463D8A6206370700F17D17F98FD18F9C
:10185000DCC682801441DC463D8A5206370710FF01
:101860007D17F98FD18FDCC682801441DC463D8A1A
:1018700042063707F1FF7D17F98FD18FDCC68280D2
:101880001441DC463D8A320645777D17F98FD18FAA
:10189000DCC682801441DC463D8A22067D77130730
:1018A000F70FF98FD18FDCC6828054419C527206AB
:1018B000370700107D17F98F5D8E90D282805441DA
:1018C0009C523D8A6206370700F17D17F98FD18F50
:1018D0009CD2828054419C523D8A5206370710FFA9
:1018E0007D17F98FD18F9CD2828054419C523D8AC2
:1018F00042063707F1FF7D17F98FD18F9CD2828086
:10190000A54763E8B7068A0593874122BE959C41A7
:1019100082871C41C847718182801C41C847618110
:101920003D8982801C41C84751813D8982801C418C
:10193000C84741813D8982801C41C84731813D892A
:1019400082801C41C84721813D8982805C41885347
:10195000718182805C41885361813D8982805C41D4
:10196000885351813D8982805C41885341813D8902
:101970008280014582809DC11441DC4A858913968D
:10198000050141777D17F98FD18FDCCA1441DC4AFC
:10199000B60579777D17F98FCD8FDCCA82809DC11E
:1019A0001441DC4A85891396F50061777D17F98F1C
:1019B000D18FDCCA1441DC4ABA0571777D17F98FE3
:1019C000CD8FDCCA82804111B757814083A7C76B96
:1019D000944B37070010558F98CBD84B3AC63245F9
:1019E0009C4F3EC4A245C205C18141018280411184
:1019F00006C60945EFB0C041B240410182804111A5
:101A000006C60945EFB0A042B240410182804111B3
:101A100006C673770430B797844023ACE7B8EF006D
:101A2000F007B79584409385C5B90145C937B240E1
:101A300041018280411106C6B797844083A5C7B98A
:101A40000145753FEF00100DB797844083A787B914
:101A5000A18B73A00730B24041018280411106C6BC
:101A60000945EFB0203FB240410182801357050184
:101A70001377F70F9357850093F7F70F1375F50F4B
:101A8000930600026312D70413070004638CE70077
:101A900013071004638EE700130700056380E70255
:101AA000014582803515B54763F2A7020145828062
:101AB0002515A54763FEA700014582802D158547A2
:101AC00063FAA70001458280014582800545828036
:101AD0000545828005458280411106C693080002B3
:101AE00063E3E8189308000263E30819B73800605D
:101AF0009388080083AE880003AE880103A3C80161
:101B0000370F200023A4E80103AF8801B70F00803E
:101B1000336FFF0123ACE80103AF0802B70F0010D9
:101B2000FD1F337FFF01B70F0070336FFF0123A04C
:101B3000E80303AF0802C17F337FFF013365AF00C5
:101B400023A0A80203A58801333FB0007A0FB70F86
:101B500000C0FD1F3375F5013365E50123ACA80016
:101B6000FD1503A5C801EA05370F00047D1F337575
:101B7000E501C98D23AEB80023A2C80036866309EB
:101B80000800370688400326C6FE034696013696AF
:101B9000B7360060938606008C4E3335C00076055C
:101BA000B70800E0FD18B3F51501C98D8CCE7D1680
:101BB000CC4E1376F60393F505FC4D8ED0CE904EA9
:101BC000B335E000EE05370500F87D15698E4D8EC2
:101BD00090CE55C37D171377F73FB73600609386D5
:101BE0000600D052137606C0518FD8D2BCCE9C4E80
:101BF000333700017207370600F07D16F18FD98F59
:101C00009CCE630C08061307F8FF1377F73FB7372E
:101C1000006093870700945793F606C0558F98D7B6
:101C20009843B7060400558F98C3B737006083A761
:101C30000700C983858BF5FBB737006093870700E2
:101C400023A4D70123ACC70123AE6700A84FFD47EB
:101C500063E80701FD57B397070193C7F7FF7D8D31
:101C6000B2404101828097508301E780C0CA9750FB
:101C70008301E78040CA01478DB7014749BF411141
:101C800006C6AE8732873688814601468145A9352A
:101C9000B24041018280011106CE22CC26CA4AC838
:101CA0004EC652C4370488400325C4FE97E07FFF28
:101CB000E78040468327C4FE98439357070193F774
:101CC000F70F9306D0096389D7049306200C638528
:101CD000D7049306800C6381D706A146014681454F
:101CE0001545713F131405014180A1460146814508
:101CF000130550036937220542054181498C9374CD
:101D00000420414A01498149631A94068147639B33
:101D100029096389070C55A8A14601468145154547
:101D2000B93F131405014180937434F4C204C18097
:101D3000214A01498149C9BF9357870093F7F70F9B
:101D400093060004E39BD7F81377F70FD547E3F624
:101D5000E7F8A146014681451545153713140501DD
:101D60004180A1460146814513055003093F9379FF
:101D7000F50F13792500214A814479B7B7078840C8
:101D800003A5C7FE97E07FFFE780C0388146014684
:101D900081451945ED3581465286A6850545C535EF
:101DA0008547B5B7B707884003A5C7FE97E07FFF13
:101DB000E78040368146014681451945C93581464F
:101DC0002146CA85130510035D3DB707884003A56A
:101DD000C7FE97E07FFFE780E033814601468145FB
:101DE0001145713D0145F2406244D2444249B24935
:101DF000224A05618280411106C6914763E0B7021D
:101E00002A868E0513F8850F81470147A146E145D3
:101E10001305A005D131B240410182809750830162
:101E2000E78060AF411106C6E146014681451305D2
:101E3000F009B135931705013707FF00F98F1357E4
:101E400005011377F70FD98F4167130707F0798DD5
:101E50005D8DB24041018280411106C622C426C276
:101E6000B707884083A7C7FE8843093119C50145D4
:101E7000B240224492444101828085454145A53FBC
:101E80001375F50F930700026317F50A03A7818303
:101E9000894763E3E7068146014681451305900BB8
:101EA000F93B81460146814513059007C93B8146B0
:101EB000014681451305F00FD9331305007D97E0E6
:101EC0007FFFE78020188146014681451305B00A4F
:101ED0007D33514597E07FFFE780C0163704884087
:101EE0008324C4FE813788C08327C4FE8843EFF073
:101EF000FFB705C10145ADBFB7558140938505705A
:101F0000375581401305056E97E07FFFE78000128B
:101F100059B783A7818399E37D5599BFB755814010
:101F200093850570375581401305056C97E07FFF59
:101F3000E780C00FD5B7014525BF411106C6EFE0C8
:101F40005FF9B24041018280411106C6EFE07FF99E
:101F5000B240410182808280411106C6EFE09FFEBF
:101F6000B24041018280411106C6EFF00F80B240BD
:101F700041018280931725003E950605828082806C
:101F80008280014582800145828001458280014531
:101F900082808280411106C622C4EF70004B2A84E1
:101FA00011C52285B2402244410182803796814288
:101FB0001306866A8545376581401305C5FAEF70BB
:101FC000707AC5B7011106CE22CC0010230604FE9C
:101FD0008947A306F4FE01110A87130607010DCEF7
:101FE000394509CA914763D7A700B79781429387BC
:101FF000476C5CCB230404FE8947A304F4FE0DCE9A
:10200000A14763D7A700B7A781429387C7801CCF9A
:102010009306C701814731A8370500807D15D1B7E8
:10202000938507FFA29583C585FF2380B6008507AA
:1020300085068545E3F6F5FEB54763D9A704B9459E
:102040001DC28D462306D4FEA30604FE230704FE0C
:102050008547A307F4FE2308D700A3080700230938
:102060000700A309F70093F5E57EA60593E50504AF
:102070008146376581401305C5FAEF70D07201457E
:10208000130104FEF24062440561828091554DBF08
:10209000011106CE22CC0010230604FE8947A306B8
:1020A000F4FE01110A87130607010DCE394509CA4E
:1020B000914763D7A700B79781429387476C5CCB62
:1020C000230404FE8947A304F4FE0DCEA14763D781
:1020D000A700B79781429387077F1CCF9306C7015C
:1020E000814731A8370500807D15D1B7938507FF5B
:1020F000A29583C585FF2380B600850785068545A3
:10210000E3F6F5FEB54763D9A704B9451DC28D4670
:102110002306D4FEA30604FE230704FE8547A30777
:10212000F4FE2308D700A308070023090700A3092A
:10213000F70093F5E57EA60593E50504814637652E
:1021400081401305C5FAEF7010660145130104FEC6
:10215000F24062440561828091554DBF411106C62F
:1021600022C4EF70A0302A8411C52285B2402244D7
:1021700041018280379681421306866A854537651C
:1021800081401305C5FAEF70F05DC5B7411106C671
:10219000AA850545E137B24041018280411106C65A
:1021A000AA850545EF70802CB24041018280411123
:1021B00006C6EF70A02BB24041018280411106C6D5
:1021C000EFF0EFA1B24041018280411106C622C466
:1021D000328401468146EF4040212320040005451A
:1021E000B240224441018280411106C6EF40604561
:1021F0000145B24041018280411106C6FD557D5620
:10220000EF4060340145B240410182800545828043
:10221000411106C6EF505055B24041018280411134
:1022200006C6EFF02FA5B24041018280411106C6DB
:10223000EFF08F92B24041018280411106C6EF70EB
:10224000C020B24041018280F37704301CC10145B7
:1022500082801C41A18B73A007308280411106C689
:1022600022C426C24041F374043029A05C440848CB
:102270008297404801CC83570400858BFDFB5C406E
:10228000F5D79C431844F98FEDD7CDB7A18873A03B
:102290000430B2402244924441018280011106CEB2
:1022A00022CC26CA4AC84EC673790430B7978440F8
:1022B00003A407CAB797844083C787C9A1EBB79720
:1022C00084400547238CE7C8B717002083A907007F
:1022D000F3740430228597E07FFFE780E044A18813
:1022E000F3A404300145EFE0DFC033743401B79745
:1022F000844023AE87C81379890073200930F240E7
:102300006244D2444249B2490561828097408301C8
:10231000E780A069411106C622C426C2F3740430C6
:10232000B797844003A5C7C9B797844083C787C9B7
:102330008DCBB7978440238C07C87374043097E023
:102340007FFFE780203E2188732404300145EFE0C1
:102350007FBAA18873A00430B24022449244410164
:10236000828097408301E780406445C9411106C6D9
:1023700022C4737404305C41B5C303D707001367EC
:1023800017002390E7005C4194439E06C206C18675
:10239000A186B6851C41D84311E797408301E780A9
:1023A0008057584B11CF1C439E07C207C187A18796
:1023B000E399F6FE83570700858BE5F7814711A067
:1023C000854763C305028DCF1C4103D527001946FD
:1023D000058997E07FFFE780E0351DA01C418C4315
:1023E0008A05E1858547F1BF184183572700858B12
:1023F00085E3084345817D8997708501E78080D911
:102400002188732004300145B2402244410182807A
:102410002188732004302955C5BF29558280411178
:1024200006C697908501E780A0DEB2404101828018
:102430005C411449D84709E7DC43F04FF0C711E28B
:102440008280411106C6AA851385460097A08501A2
:10245000E780C0D0B24041018280411106C637B545
:102460008242130505DDE937B24041018280011146
:1024700006CE22CC26CA4AC84EC652C42E89B28481
:10248000032A45000327CA008547630CF708014467
:102490004A94B7070080FD17B3D78700858BD1CB4F
:1024A000F3790430F94763E18702B7978142131744
:1024B0002400938747C0BA97884363470500854542
:1024C00097A08501E78080B7F94763E18708B79750
:1024D000814213172400938787B8BA9785458843AC
:1024E00097A08501E780E0B193F70401C1CBB7471E
:1024F00002188507A2978A0798431367071098C3A5
:1025000093F72400F1C393F74400CDC383274A0017
:102510001307C4010A07BA97D84313674700D8C303
:102520006DA8FD4763F4B70001449DB71304000292
:1025300085B737D681421306863E8545376581408B
:102540001305C5FCEF70102229550DA037D6814226
:10255000130686408545376581401305C5FCEF703D
:102560007020295593F9890073A00930F240624424
:10257000D2444249B249224A05618280B547630C80
:10258000F400B74702188507A2978A079843137784
:10259000F7EF98C3B5B7B7F70060984F1367071008
:1025A00098CF984F1377F7DF98CFE1BF37D68142A6
:1025B000130686418545376581401305C5FCEF70DC
:1025C000701A1305A0F779BF83274A001307C401C7
:1025D0000A07BA97D8436D9BD8C393F7040295CFE7
:1025E000B74702188507A2978A0798431367070819
:1025F00098C3B7070200E58FF9C7B7070080FD173A
:10260000B3D72701858B85C793F7046095CF130750
:1026100000606385E7082955B1B7B74702188507F9
:10262000A2978A0798431377F7F798C3D9B737D695
:1026300081421306C6438545376581401305C5FCB5
:10264000EF705012295539BFB74702188507A29776
:102650008A079843FD769386F63F758F8566938645
:1026600006C0558F98C3054933198900B71709600B
:102670009387070023A2270381460146930500089C
:10268000228597E07FFFE780A005B7070800E58F68
:1026900095C383274A0023A4270191A8B7470218AE
:1026A0008507A2978A079843FD769386F63F758F34
:1026B00098C355BFB7070400E58F95CB83274A0021
:1026C00023A627012DA08567E58F95E305473317DE
:1026D0008700B71709609387070098D7B747021894
:1026E00093875755A2978A071307000898C3C167B5
:1026F000E58F81CFB74702188507A2978A079843CD
:102700001367072098C30145B1BD8967FD8C81EC33
:10271000B747021885073E940A041C4093F7F7DF79
:102720001CC0014581B5014535BD104918428327BC
:10273000070893F717FC93E727012320F70883275F
:10274000070893E717002320F7085C438566938604
:102750000680D58F5CC383270708858BEDFF544324
:10276000856793870780DD8E54C31442D842D98F82
:10277000DCC28280411106C622C4004918405C4375
:1027800093E707405CC355371440DC4205671307E5
:102790000780D98FDCC2B2402244410182801049B7
:1027A0001C42984F8966558F98CF984FF976FD1641
:1027B000758F98CF1C42984F8566558F98CF984F4C
:1027C000FD76FD16758F98CF828014499842DC5EA5
:1027D00013861700D0DED1078A07BA970D6798C70E
:1027E000828014499842DC5E13861700D0DED10740
:1027F0008A07BA97056798C78280411106C622C426
:1028000026C2AA8400491440DC42056713070780EA
:10281000D98FDCC218405C4393E707025CC3232EC8
:102820000402130544008565938585380146EF4011
:10283000C02811ED585895476300F70258588D4746
:102840006301F702B240224492444101828026850E
:1028500015371305C0F8FDB72685293F1305C0F8C5
:10286000D5B74955C5B7011106CE03280501A30701
:10287000B1008547232AF8028326080001470DA0EE
:10288000DC4E3EC29307070133862700924703467A
:10289000F6FF93F707F0D18F3EC29247DCCE0507D3
:1028A000E350E0FE83278803858BC9C7A181A30776
:1028B000B1008326080001476343E002DC4E3EC4BA
:1028C0009307070133862700A2470346F6FF93F7D5
:1028D00007F0D18F3EC4A247DCCE0507F1BF094700
:1028E000136707108567938707805D8F832608002D
:1028F0008327C80313861700232EC802D1078A072F
:10290000B69798C7032708008327C8039386170044
:10291000232ED802D1078A07BA97096798C7832759
:1029200008007D57D8D31307805A98D7F935F2405D
:102930000561828005476DB7797106D622D426D20B
:102940004AD04ECE52CC56CA5AC8AA8A032905018B
:1029500003AA45008441232A0902896993890980D1
:10296000096B15A093E90940054489A0584E3AC661
:10297000B2463387F4002300D7008507E3C887FEFB
:10298000A294330A8A4063000A0852849307100213
:1029900063F44701130410021374F40F7D141374CD
:1029A000F40F8547E300FAFC93F9F9BF93F909F0B6
:1029B000B3E98900032709008327C9039386170019
:1029C000232ED902D1078A07BA9723A437010327F8
:1029D00009008327C90393861700232ED902D10744
:1029E0008A07BA9723A46701832709007D57D8D3A4
:1029F0001307805A98D75685093563470500032683
:102A000009008147A5BF0145B25022549254025992
:102A1000F249624AD24A424B45618280411106C660
:102A200022C426C24AC0AA842E8483C78500918B03
:102A300089CB13691600513BCA8526852D35634C19
:102A40000500A2852685CD3D6347050083478400A8
:102A5000898B81EB0145B2402244924402494101F5
:102A600082802685BD3B2685493BE34605FE014520
:102A7000DDB7797106D622D426D24AD04ECE52CCBA
:102A800056CA5AC8AA8A032A0501C44183A9050067
:102A90008547232AFA020569130909801369091079
:102AA000096B21A89377F40F137909F03369F900C2
:102AB00091EF1374F40FA299818CC9C426849307F3
:102AC0000002E3F197FE13040002E9BF83260A0027
:102AD000014739A8DC4E3EC63386E900B2470346BB
:102AE000060093F707F0D18F3EC6B247DCCE05074C
:102AF0009377F40FE340F7FE03270A008327CA0306
:102B000093861700232EDA02D1078A07BA9723A4E7
:102B1000270103270A008327CA0393861700232E61
:102B2000DA02D1078A07BA9723A4670183270A002C
:102B30007D57D8D31307805A98D756857D39E35AE5
:102B400005F611A00145B250225492540259F2499F
:102B5000624AD24A424B45618280411106C622C474
:102B600026C24AC0AA842E8483C78500918B89CB54
:102B70003289EFF09FC5CA852685F531634C050083
:102B8000A2852685FD356347050083478400898B30
:102B900081EB0145B24022449244024941018280C6
:102BA0002685EFF01FC42685EFF03FC5E34405FE00
:102BB0000145CDB7011106CE22CC26CA4AC84EC661
:102BC00052C456C25AC003290501630606102A8A58
:102BD000AE893284B68AB7A407009384041283278F
:102BE00009009C479183858B91CB0545EF20D05CF4
:102BF0009387F4FF638D040EBE84D5B783C7890025
:102C000093E747002384F9004E87854729A0898AE6
:102C1000B9E631078507A2866340F402E3DBD7FEFD
:102C2000834687008345470133C6B600058A65D2CF
:102C30009189F1FDA95411A08144D9EC130BC9016C
:102C4000FD557D565A85EF30506783278903858B64
:102C500089CB9307F03FB3FA5701860AB1A0A95474
:102C6000E9BF9307F007C5BF5285EFF0BFB05285AB
:102C7000EFF0FFB2032709001C57F176F58F1CD740
:102C8000032709009167FD175CD383C78900858BF3
:102C90008DCB5686CE8552855133AA8463C90402F2
:102CA0007D141374F40FB1091DC003274903954720
:102CB000E30CF7FA832709009C479183858BC5DBDA
:102CC00065B75686CE855285493DAA84C1BF5A85CF
:102CD000EF30B05411A081442685F2406244D244C2
:102CE0004249B249224A924A024B05618280C1544C
:102CF000E5B7011106CE22CC26CA4AC84EC652C438
:102D0000AE84032A4500032905012E8597A085017D
:102D1000E780E039AA8997A08501E780C0342A843A
:102D2000AA864E86A6854A8597508201E780E052A2
:102D300083274A02A1C737470F00130707243354DC
:102D4000E402B38787027D476373F700FD4783265C
:102D50000900D846FD8B019BD98FDCC6832609006C
:102D6000DC42056713070780D98FDCC2F24062445A
:102D7000D2444249B249224A0561828003270900B0
:102D80005C4793E7F7015CC7D1BF011106CE22CCA7
:102D9000004902C6585885476304F7025C5895C736
:102DA000B24709476388E7020D47638FE70205478B
:102DB000638FE70215476391E70291475CD829A822
:102DC0006C002285EFA0C00CE1BF6C002285EFA053
:102DD0006013F9B78D475CD813054400EF30F0431A
:102DE000F24062440561828095475CD8F5B795470B
:102DF0005CD8DDB7011106CE22CC26CA4AC84EC621
:102E0000AA844041832905018145084497A0850192
:102E1000E780603B634605084840EF20B04151CD54
:102E20004C44484097A08501E780A00C48481C4CC2
:102E30006352F00A8545B395F50093F5E50F5C4CB8
:102E400093F70710DD8D0147A686373680401306BD
:102E5000A6D893E5054097608501E780006A2A8936
:102E600025ED4E8597508201E780A044268597A0E6
:102E70008501E7808009085097A08501E780A016AA
:102E800093650501268597A08501E78000272A899B
:102E90004A85F2406244D2444249B2490561828087
:102EA00037D681421306866C854537658140130508
:102EB000C5FDEF70200B2959E1BF37D681421306BB
:102EC00046E28545376581401305C5FDEF708009F1
:102ED00035597DBF8145A5B7AA8637D681421306ED
:102EE000C6EB8545376581401305C5FDEF70C00809
:102EF00045B741118145654506C697E07FFFE780EC
:102F0000A0E5B737814093878733985FB2400507C4
:102F100098DF41018280AA851305000217E37FFF35
:102F2000670083E3011152C4370A88408327CAF639
:102F300026CAB7D4844083A7071922CC4AC84EC6F4
:102F400006CE56C2938404A8C058AA892E898297B7
:102F500001CDD844C177F98F370701016396E700A7
:102F6000638E090003A4041BF24022856244D2440C
:102F70004249B249224A924A05618280B7D70A6023
:102F8000804397608001E780E0278327CAF683AA01
:102F9000440383A9041B83A78710330424412A898F
:102FA0008297BC5CE372F5FC33095903330939415C
:102FB000E37C24FB3E94098C45BFB757814083A72F
:102FC000477791C3828782804111B737814022C4FD
:102FD00006C603A4873397B08801E78060022A877A
:102FE000854611E40145B2402244410182801C40E3
:102FF0001044F98313F51700E307D5FEE305E4FE5B
:103000003284C5B75D7152DC370A8840A2C456DAF3
:103010005AD85ED662D466D26AD086C6A6C2CAC064
:103020004EDE6ECE0144370B0018B70B8840370CCC
:103030008840B70A0800A16C130ACAD1116D97E045
:103040007FFFE78020DC19E161242A84612CAA89B2
:10305000552CAA8497E07FFFE78080E5B3673401B1
:10306000C58F2A89638F07102285852C5924B37553
:10307000640191CD2E852EC697108001E780000552
:10308000B24511E56D4597E07FFFE780E0CC2685EE
:10309000BD2C4A85AD2C93F5F40091C5694597E0A8
:1030A0007FFFE78060CB93F7040F9DCF01453EC6BD
:1030B00097208001E780407723AEABE2268597100A
:1030C0008001E780E0FAAA8D014597208001E78022
:1030D000A075232CACE2B24763980D00BE856D4508
:1030E00097E07FFFE78040C7B3F7540199C7A685F3
:1030F0007D4597E07FFFE78020C6B377940199C7AD
:103100008145754597E07FFFE78000C583274A002A
:10311000B374A40189C781C4B84B0507B8CBB707FE
:103120002000E18F99C78545394597E07FFFE7800B
:10313000A0C281C8B7070600B377F900A9C34A85C2
:10314000D93B9377040889C797E07FFFE780C0AE3B
:10315000B377540189C797E07FFFE78020AE93776C
:10316000041089C797E07FFFE78080ADE38909EC11
:103170008145794597E07FFFE78000BEC9B5953B63
:10318000C9B7B640264496440649F259625AD25A03
:10319000425BB25B225C925C025DF24D61618280B7
:1031A000894763E3A708B707884083A7C7F641119B
:1031B00022C483A7871006C62A8482979307C00279
:1031C0003304F402B75781409387C77737470A60C3
:1031D00093064708B240A29788C394422244D4C3BE
:1031E0009306C708944294C7930687089442D4C7AD
:1031F00093064709944294CB930607099442D4CB93
:10320000B7368140938686339042D44290CFD4CF54
:10321000944694D39306C73A94421307473BD4D3BA
:10322000184398D741018280828039712ACE09459E
:1032300006DE22DC26DA4AD84ED62ECC9537E24777
:103240007247B7A6824237548140938686710D46F5
:103250009305000205451304C47797308601E78083
:10326000203293044408B7A9824237A982425C48BD
:103270008328C400032884003EC21C48184093865B
:1032800089723EC05C400D469305000205459730AB
:103290008601E780E02E1C548328440203280402A0
:1032A000184C3EC05C4C930609740D469305000211
:1032B00005451304C40297308601E780602CE318AB
:1032C00094FAF2506254D2544259B2592161828028
:1032D000B7570A6003A587C48280B7570A6023A640
:1032E000A7C48280B7570A6003A547C385677D8D51
:1032F0008280B7570A60938787C398438566558F46
:1033000098C38280B7D70A6003A5070B8280B7D71E
:103310000A6023AAA70A828037170A608327878F4B
:10332000B706000893F707F093E74700232CF78EC2
:10333000B7070A6003A7C744558F23A6E74403A72E
:10334000C746B70600E0FD16758F23A6E74603A71C
:103350000745B7860080558F23A8E744B7760A60F3
:1033600083A7864271771307F70FF98F0567130755
:103370000740D98F23A4F64282800111B7D70A6093
:1033800026CA844322CC09644AC84EC652C406CE1B
:1033900037D90A601304F470B7198540130AB005D1
:1033A00083270900858F636CF40083A749350146A4
:1033B0008545BC4B130530068297E31345FFF24069
:1033C0006244D2444249B249224A05618280411195
:1033D00006C6EF7050271307000289476306E50011
:1033E000930765FE93B7170037378140A309F7505D
:1033F00037670960832707137D15B2401375F50FF2
:1034000093F707F05D8D2328A712410182804111B7
:1034100006C6193797E07FFFE78000F9B73781408C
:103420009387474C03C5171283C50712EF0070043A
:1034300005651305858297E07FFFE78020F7EF00A1
:10344000101197E07FFFE780E0F2EF00C0780545BC
:10345000EF00406B97E07FFFE780C0D7EF0090342C
:1034600097E07FFFE78000F5EF007035B24005453B
:10347000410117E37FFF6700A3EF011126CAB714CC
:10348000854083A7443506CE22CC9C434AC84EC60D
:1034900052C456C25AC0829737A90A60032B498189
:1034A00083274981B7090A60370A00E893E7474054
:1034B000232AF98083A7090C7D1A37070010B3F778
:1034C0004701D98F23A0F90CAA8A0545976082018C
:1034D000E78060BBED3D0145EF00701A0545EF0048
:1034E0005025C9282145EF00503297E07FFFE78043
:1034F000A0E897E07FFFE780E0C40145EF00B077E8
:1035000097E07FFFE78000E6914509453734814029
:10351000952A1304444C97E07FFFE78020E5A5231C
:10352000EF00105E8123EF00D0340345C411938473
:10353000443597E07FFFE780E0C197E07FFFE780B9
:1035400060E9F135054597E07FFFE78060BFEF0058
:10355000C06F97E07FFFE780A0DE6D2697E07FFFDA
:10356000E780C0C2014597E07FFFE78060E4014546
:10357000EF00301CA30B0400A30E041883A7090C52
:1035800033FA470123A0490D232A69818347E419AF
:1035900081C70145EF00F0259C406244F240D244CF
:1035A0004249B249224A024B03A347005685924A38
:1035B00005610283411106C622C43714854097E095
:1035C0007FFFE78020D68327443501468545FC5B95
:1035D000114582978327443501468945FC5B114597
:1035E00082978327443501468545FC5B15458297C4
:1035F0008327443501468945FC5B1545829783271F
:10360000443501468545FC5B014582978327443557
:1036100001468945FC5B0145829783274435014675
:103620008545FC5B054582978327443501468945DE
:10363000FC5B0545829783274435130600108545BA
:10364000FC5B0945829783274435130600108545A6
:10365000FC5B0D458297832744351306001089458E
:10366000FC5B094582978327443513060010894582
:10367000FC5B0D4582972244B240410117E37FFF76
:10368000670083CAB7070A6003A7070CB7C6FF5BCA
:10369000FD16758F23A0E70C03A7070CB7060002E1
:1036A000558F23A0E70CB737814083C7F76599C3CF
:1036B00089450145B7070A6003A7070C9205C98D24
:1036C000B70602FEC6053705FE01FD16758FE98DAA
:1036D000D98D23A0B70C03A7470D1377F78713677E
:1036E000073023AAE70C370780191307972423A470
:1036F000E70C37578225130707E523A6E70C8280DE
:10370000797162C4371C854083274C3506D622D494
:1037100003A8070626D24AD04ECE52CC56CA5AC863
:103720005EC666C26AC085472A84AE841305200639
:1037300085453289368A2D469946BA8A19470298B4
:1037400083274C352D468545BC4B13052006894CF7
:10375000829783274C3501468545BC4B2A8B130540
:103760003006829783274C35937B750F1365850050
:10377000BC4B85459379F50F0D461305700682976E
:103780009367450093F7F70F1375B50F139707016C
:103790002205598DB75881405D8D814693070002FF
:1037A00041470148A54E938888B8130F70060D4E07
:1037B00013032006AD4F9305300691429543194CF3
:1037C000054D13F6F60F63605603B250225492541F
:1037D0000259F249624AD24A424BB24B224C924CB5
:1037E000024D4561828063EFCE0C0A064696104278
:1037F0000286230064002380A4011386170023009F
:10380000F9009377F60F85066DBFA3006400A380CF
:10381000940113861700A300F900E5B72301B40053
:10382000238104002301E9001306170023247A01F1
:103830001377F60FC9BFA301B400A38184011386D7
:103840001700A301F90075BF2302B400238274009E
:10385000138617002302F9006DB7A302B400A382F8
:10386000540013861700A302F90061BF2303B400BC
:103870002383C401138617002303F90059B7A30358
:10388000B400A3830400A303E90013061700232E4A
:103890003A0179BF230464002384F4012304E9007E
:1038A0001306170023206A0361B7A304E401A3846D
:1038B000C401A3040901130618002322AA021378E5
:1038C000F60F91B73306D400230006003386D400E8
:1038D000230006003306D9002300060013962600B5
:1038E00052962320060005B737070A608327070C86
:1038F000B70600040945D58F2320F70C17C37FFFB7
:103900006700437437070A608327C70C93F70710D3
:10391000E5DF82805971A6D2CAD0CECED2CCD6CA2B
:10392000DAC8DEC6E2C4E6C286D6A2D4EAC06EDE3B
:103930002AC2AE8B328C3A8A02CE02D002D202D494
:1039400002D6B684014B3709FF00854A8D49994C50
:1039500063176A03D285680897E07FFFE78080815C
:10396000B650265496540659F649664AD64A464BEE
:10397000B64B264C964C064DF25D656182809247AF
:1039800033876B01034D0700338767010347070047
:10399000220D8C40336DED0033076C0103470700A7
:1039A000C205B3F525011374F7001183B3E5A50132
:1039B000A28619C7930644006314570193061400A6
:1039C0007C08338667012300D6003A852EC63AC4A8
:1039D00097D07FFFE780407822474204AA8D41803C
:1039E0009376F50FB2453DE3330734031D4693DD6F
:1039F0008D0036C693FDFD0F36973A853AC497C0C1
:103A00008801E780007333858D00330535038C40D2
:103A1000B2461D46A205B3F52501B3E5A501B38D58
:103A20009D03369597C08801E780A0708C4022479F
:103A30001D46B375B900B3E5A5013305B70197C0BD
:103A40008801E780006F050B910419B763175701D0
:103A5000330534031D463695DDB7131514000D46A6
:103A6000EA85D5BF1D71341070080C08480029473D
:103A700086CE7931341070080C0848002947593D2A
:103A8000F6402561828037170F0FB7170A607D1740
:103A900023ACE7803717FF00130747F623AEE78014
:103AA00003A70781FD76BD06758F1367075023A80E
:103AB000E7802D671307A7AA23A0E78203A7078142
:103AC000B70690FFFD16758FB7062000558F23A807
:103AD000E78003A74781B7E60060137707F0136715
:103AE000870023AAE7809C4237070020D98F9CC219
:103AF000B7160B60FC4A7D17F98F37070080D98F06
:103B0000FCCA8280B7770A60F84325C5B7063F0034
:103B1000558FF8C3F843F1769386F60F758F896653
:103B200093860610558FF8C303A74712C176938674
:103B3000F63F758FA16693860640558F23A2E71244
:103B400003A7471237860A60C576419B1367370083
:103B500023A2E7125842FD16758FA566558F58C2ED
:103B600003A74710137707E01367271E23A2E71068
:103B70008280B706C1FFFD16758FB7063E00558FD0
:103B8000F8C3F843F1769386F60F758F89669386AE
:103B90000680558FF8C383A6471241771307F73F76
:103BA000F98E9965CD8E23A2D71283A64712378648
:103BB0000A60C19A93E6460023A2D7125842C576FE
:103BC000FD16758F4D8F58C203A74710137707E076
:103BD0001367871C61BFB7860A6083A706C03707D3
:103BE000E0FF1307F77FF98F2967D98F23A0F6C06D
:103BF000B7170A6003A6878F41779305F70F6D8E7D
:103C00001567598E37D7400123ACC78E1307E7815C
:103C100023A6E6C603A606C337070E0A137606C018
:103C20001366E60123A8C6C283A6C78FC206C18257
:103C3000D98E23AED78E03A7C78FB566938606802D
:103C40006D8F558F23AEE78E828037770A605C5781
:103C5000B7060001FD1693F707F093E7970E5CD7C0
:103C60008327070AF58FB70600E9D58F2320F70AC7
:103C70008280B7770A601307F5FF03A6C713931670
:103C800027013708FC01B3F60601370804FE7D184A
:103C900033760601D18E23AED71283A647090A07D1
:103CA0001377C71F93F636E0558F23AAE7082166DE
:103CB000D45713178500130606F0718F617613062B
:103CC000F60FF18E558FD8D7B7160A6003A78695E1
:103CD0007D763D06718F1205498F23ACE69493855E
:103CE000050503A7869537F60F00B205F18D371647
:103CF000F0FF7D16718FD98D23ACB694D45737075A
:103D000000011306F7FFF18E37070032D98ED4D7A2
:103D1000D857B7068000558FD8D7D857B70680FF39
:103D2000FD16758FD8D703A78712B70600D2718FFB
:103D3000558F23A4E7128280B7860A6083A706CD39
:103D400037070F002D07D98F23A8F6CC828037774D
:103D50000A60832707409966370600FFD58F232026
:103D6000F740B7870A6083A6878437050001F18E84
:103D7000373604001306F63AD18E23A4D78483A6DF
:103D80008784370600E17D16F18E37060017D18E45
:103D900023A4D78403A68780F1769385F6076D8EDA
:103DA0008D66558E23A4C78083A6C78D3706C0FFB6
:103DB0007D16ED8E93E6061023AED78C83A6478E34
:103DC000B715F0FFFD15F18E23A2D78E83A607C38A
:103DD000ED8E23A8D7C283A6C790FD759385F57F86
:103DE000ED8E23A6D79083A687CAB7051000CD8E87
:103DF00023A4D7CA83A50798B70600FEFD16F58D44
:103E000023A0B79883A50789ED8E23A8D78883A51B
:103E10000789C98D23A8B78883A587A26D8E23A49F
:103E2000C7A283264742370620E07D16F18EC98E51
:103E30002322D74283A607CD37060F003D06D18E39
:103E400023A8D7CC83A607C037A60A6093E606202E
:103E500023A0D7C08327C681856693860680D58F29
:103E6000232EF6808327874393F7F7F3232CF7421B
:103E70008327874393F7F7EF232CF74275BD411152
:103E800006C60DC9B7070B6003A74715B706001094
:103E9000FD16758F23AAE71403A7C70CB70600F019
:103EA000FD16758F23A6E70C1305400697C07FFF0C
:103EB000E7804019B7070B6003A74715B70600F066
:103EC000558F23AAE71403A7C70CB7060010558F18
:103ED00023A6E70C03A747159316470063C80602FD
:103EE00003A74715B7060008558F23AAE71403A7B1
:103EF0004715B70600FCFD16758F23AAE71403A724
:103F00004715B7060004558F23AAE714B7070B60BF
:103F100003A747159316570063C9060003A7471563
:103F2000B7060004558F23AAE714B24041016FF091
:103F3000CFC4411126C2B7140A6083A7049122C4DA
:103F40007D741304F40F06C64AC0E18F1DCD0569C8
:103F500013070980D98F23A8F490054597C07FFFE8
:103F6000E780400E83A70491130909A07D8C336478
:103F7000240123A884902244B2409244024905457A
:103F8000410117C37FFF6700E30B93E7072023A8D6
:103F9000F490054597C07FFFE780C00A83A704918E
:103FA0007D8CC1BFB7770A60984FB7068000558FE8
:103FB00098CF984FB7060010558F98CF8280B717CB
:103FC0000A6003A70790B7060002558F23A0E79069
:103FD00003A70790B706C0FFFD16758F23A0E790D3
:103FE00003A70790B70680FEFD16758F23A0E79004
:103FF000828037A70A608327C78111C593E727000E
:10400000232EF7808280F59BE5BFB7070B6003A6E0
:104010004782131745009376077C1377F683558FF5
:1040200023A2E78203A7478205811375F50313775F
:1040300007FC498F23A2E78203A787821377F783C0
:10404000558F23A4E78203A78782137707FC498F44
:1040500023A4E78203A7C7821377F783558F23A68C
:10406000E78203A7C782137707FC598D23A6A7828F
:104070008280411126C2B714854083A7443522C4EB
:10408000373481401304444C8346D40EBC4F06C6DB
:104090005146854513057006829783A744358346AC
:1040A000D40E5546BC4F854513057006829783A7ED
:1040B00044358346E40E5946BC4F854513057006CA
:1040C000829783A744358346E40E5D46BC4F854501
:1040D00013057006829783A744358346D40E614644
:1040E000BC4F854513057006829783A744358346E8
:1040F000D40E6546BC4F854513057006829783A78D
:1041000044358346040F7146BC4F85451305700640
:10411000829783A744358346040F7546BC4F854577
:1041200013057006829783A744358346040F7946AA
:10413000BC4F93E60604854513057006829783A756
:1041400044358346040F7D46BC4F854513057006F4
:10415000829783A744358346940E1146BC4F85450C
:1041600013057006829783A744358346940E15463F
:10417000BC4F854513057006829783A74435834657
:10418000A40E1946BC4F854513057006829783A778
:1041900044358346A40E1D46BC4F85451305700665
:1041A000829783A744358346940E3146BC4F85459C
:1041B00013057006829783A744358346940E3546CF
:1041C000BC4F854513057006829783A74435834607
:1041D000A40E3946BC4F854513057006829783A708
:1041E00044358346A40E2244B240924403A387057B
:1041F0003D4685451305700641010283411122C4E5
:10420000371485408327443506C693062007BC4FE4
:10421000094685451305B0068297832744359306E2
:10422000C0030D46BC4F85451305B0068297832712
:1042300044359306400F1146BC4F85451305B00623
:1042400082978327443589461546BC4F854513051B
:10425000B006829783274435930680081946BC4FE1
:1042600085451305B0068297832744359306700B66
:104270001D46BC4F85451305B006829783274435FC
:10428000930610082146BC4F85451305B00682975A
:1042900083274435930680060146BC4F85451305A8
:1042A0002006829783274435930680021146BC4F2F
:1042B000854513052006829783274435373781408B
:1042C0008346A765BC4F3D4685451305200682976A
:1042D00083274435930640042D46BC4F854513057E
:1042E00020068297832744352244B24003A38705E2
:1042F0009306600209468545130570064101028355
:1043000039714AD8371985408327493506DE22DCC2
:10431000DC5B26DA02C0231201002303010002C481
:10432000231601002307010002C8231A0100230BF2
:10433000010002CC231E0100230F010002D0231232
:1043400001022303010202D4231601022307010202
:104350008297B7776B6B9387B7B63EC09D6793879D
:10436000B7B62312F1009307B0062303F100B70795
:104370000405938727303EC4930760702316F1002D
:10438000A1472307F100B747F402938727C73EC828
:10439000ED7793878778231AF100930710F8230BA2
:1043A000F1008D67938787862314F102B737814028
:1043B00083C7A7651305B00637040B602305F10218
:1043C000B7676262938727263ECC99679387777693
:1043D000231EF10093077006230FF100B7070F0BA0
:1043E000938707403ED0930720202312F10289478C
:1043F0002303F10293074004A305F1028967938721
:1044000067622316F102930760022307F1028327F4
:104410004935BC438297B7071000C1177D8DB70798
:10442000020003270482C1177D8D81779384F700F2
:10443000658F598D2320A4823C1018103408100871
:104440002C000A8581481D4897D07FFFE780C0E98E
:10445000832704820967130707F0E58FD98F23208C
:10446000F482832749359C5F8297F2506254D2547C
:10447000425921618280411122C426C237348140D1
:10448000B714854006C683A744351304444C15C9A8
:1044900003A80706094789478D461146814513053C
:1044A0006006029883A7443511468145BC4B13052D
:1044B000600682972305A404B2402244924441013D
:1044C00082808346A4042244B240924403A3870519
:1044D000114681451305600641010283397106DEEC
:1044E00022DC26DA4AD84ED652D456D25AD05ECEE4
:1044F00062CC66CAAA8CAE8483AB0500C177B3FBDD
:10450000FB0003AA4500337AFA0003ACC500337CF4
:10451000FC0083AA0501B3FAFA0001498147014B67
:104520006144A5A883A7818389CFEF506008AA853D
:10453000A286138641DE1385C1DE97C07FFFE78028
:10454000E0AE97208301E780404611C703A781832F
:10455000894763E3E70EA247D8446384E71698408F
:104560006389E716370780BF3E97B7060800636880
:10457000D700370700B0BA97116763F3E700050962
:10458000B247A29713848700B7D784409387C7198F
:1045900083C7170063872715CE87938917003D4788
:1045A000636FF702854621462C002285EFB0A06795
:1045B00035F92247B70700BEBA97B7060001E3E610
:1045C000D7F8B70780BFBA97B7060800E3EFD7F66A
:1045D0002DDFB70700B0BA979166E3E8D7F6638C92
:1045E0000910C1476389F910014597C07FFFE78033
:1045F000E0A80945EF80807D63810C1202C25C0057
:10460000D848D686628685456685EF7090465C0000
:104610009844D2865E8685456685EF709045DC4875
:10462000E297FD1737070042636CEC0E3707004333
:1046300063E5E7128147F5A0EF409077AA85A2478E
:10464000370700BE3E97B70600016360D702B70682
:1046500080BFBE963706080063E9C60099C7B70653
:1046600000B0BE96116663F6C602B70680BFBE965E
:104670003706080063E2C602B7060001636DD70281
:10468000370700B03E979166637AD702938681DD43
:1046900031A0938681DC19A0938601DC3248C28860
:1046A00013078400138641DE1385C1E197C07FFFA5
:1046B000E780C0974DB59386C1DCCDB7938641DDC9
:1046C000F1BF930A840023A854014177B3FAEA00AA
:1046D00079B5130A840023A244014177337AEA00B2
:1046E00051B5E31B0BEA9347F4FFBD8BA2971384EC
:1046F0001700054B55B583A7818381CFEF40506BE1
:10470000AA85138641DE138541E597C07FFFE780C8
:10471000E09197208301E7804029EF70B02EF9BD2A
:10472000814713F6170037870C6054431346F6FF92
:10473000F18E54C38983544393C7F7FFF58F5CC34D
:104740009C44DE97FD173707004263EAEB0037070A
:10475000004363E3E706814721A0A547D9B7814716
:1047600013F6170037870C6054431346F6FFF18E9B
:1047700054C38983544393C7F7FFF58F5CC309453E
:10478000EF80A0668844C167FD173E9541810A0508
:1047900093050040898D97C07FFFE78020F1F2509C
:1047A0006254D2544259B259225A925A025BF24B85
:1047B000624CD24C21618280A5475DB7411106C68B
:1047C00097C2FFFF9382028473905230F3770430D4
:1047D00097F100009381816AEF10801BEF00407A0F
:1047E0001DE5B7158140938545590145EFF01FCF71
:1047F000EF0030180145EF00807803A781838947D7
:1048000063E9E702EFB05FA4B2404101828083A771
:10481000818381CFEF40D059AA85138641DE13856D
:1048200081E797C07FFFE780608097208301E78062
:10483000C017EF40F057AA8583A641ECA9821386E2
:1048400041DE138501EA97B07FFFE780207E5DBFE0
:10485000411106C622C4EFB03006EFB0207919E945
:10486000EFB09FFB97208201E780A098B2402244DE
:10487000410182802A8483A7818389CFEF405053EE
:10488000AA85A286138681EC138541ED97B07FFF40
:10489000E780C07997208301E7802011411106C687
:1048A0008146014681451305A007EFD04FBDB707EC
:1048B000884003A5C7FE97C07FFFE780A085B24070
:1048C00041018280411106C622C426C2AA848347C0
:1048D0003500BD8B0947638DE7046365F704A1CFFD
:1048E0000547639DE704138481F003A7818389470B
:1048F00063ECE704B72700609847B7070001F98F1A
:10490000ADE3B7071000F98FC1E3B7078000F98F57
:10491000BDEF9167F98FBDEF89677D8F3DCF138420
:1049200081F391A03D47639EE700138481F175BF39
:10493000138401F15DBF138401F045BF138401F1BD
:104940006DB7138401F155B7EF409046AA85A28652
:10495000138681EC138581F697B07FFFE780006DA9
:1049600051BF138401F203A78183894763EAE702F9
:1049700083C73400918311476366F7068A0713875C
:1049800081FCBA979C438287138441F2E9BF138468
:10499000C1F2D1BF138401F3F9B7138441F4E1B735
:1049A000EF401041AA85A286138681EC138581F819
:1049B00097B07FFFE780806765BF138401F503A789
:1049C0008183894763E3E702B24022449244410174
:1049D0008280138481F5E5B71384C1F5CDB71384C4
:1049E00001F6F1BF138441F5D9BFEF40703CAA85B1
:1049F000A286138681EC138581FA97B07FFFE7804A
:104A0000E062D9B7011106CE834735009183114783
:104A10006360F7068A071387C1FDBA979C438287B4
:104A200085473EC60945EF80603AB707884003A531
:104A3000C7FEB245C167FD171307001085664166C2
:104A4000D205084197B07FFFE780C0710945EF802C
:104A5000C039F2400561828089473EC6E1B791477F
:104A60003EC6C9B7A1473EC675BFC1473EC65DBF7A
:104A700089473EC645BF411106C622C4B7078840D4
:104A800003A4C7FEEFD00FBA08C0B24022444101D0
:104A90008280B7270060984F1367070C98CF984B18
:104AA0001377F7C198CB984B019B98CB828041112B
:104AB00006C622C42A84AA85754597C07FFFE78071
:104AC000A0C4A285654597C07FFFE780E0C3A285AB
:104AD000794597C07FFFE78020C3A285614597C0D5
:104AE0007FFFE78060C2A285714597C07FFFE780A6
:104AF000A0C1A285694597C07FFFE780E0C0B240B2
:104B0000224441018280411106C605454D37513787
:104B1000B24041018280411106C622C4ED37EFF058
:104B2000FFD7EFD04F9737D484401307C41983477A
:104B3000370093E7F700A301F7001305C419EFF05E
:104B40007FD81305C419EFF0FFEBEFB060190145F2
:104B5000B240224441018280411106C697B07FFFD6
:104B6000E780804D014597B07FFFE7802051EF60DF
:104B70002071EF60402D716613060620B7470F00C5
:104B800093870724B305F5020145EFC04FC3B24038
:104B900041018280011106CE22CC26CA4AC84EC6E7
:104BA00052C456C22A840347C5008347D500A207D2
:104BB000D98F35476383E70483A7818399EB6D55CC
:104BC000F2406244D2444249B249224A924A0561C3
:104BD0008280EF40F01DAA850347C4008347D400BC
:104BE000A2075D8FB546138601FF1385C1FF97B0FD
:104BF0007FFFE780A0436D55E1B7AE84EFC0FFBDF6
:104C0000AA8993074006B35AF502337AF50203479F
:104C1000F40083470401A20733E9E700854763F402
:104C20009700014571BF637C250383A7818399E3C6
:104C30007D553DA0EF40D017AA85930640065288C7
:104C4000D6873377D902B356D902138601FF13856D
:104C5000010397B07FFFE780603D7D5511A00145BE
:104C60008547E39FF4F4834714010344240122049D
:104C70005D8CC167FD17E305F4F439D0E37234F5B8
:104C8000B7170B6093870780BC43858B95FB83A781
:104C9000818399E37D552DB7EF409011AA85930646
:104CA00040065288D6873377D402B356D40213868F
:104CB00001FF1385410797B07FFFE78020377D55BF
:104CC00001B7411106C603A78183894763EAE7005C
:104CD00003A78183894763E1E702B24041018280F3
:104CE000EF40100DAA85138601FF1385810B97B045
:104CF0007FFFE780A033E9BFEF40900BAA851386C2
:104D000001FF1385410D97B07FFFE7802032F1B797
:104D1000411106C685466146B7D584409385C519BD
:104D20000145EFA0507001E5B2404101828083A7A8
:104D3000818399E36D55CDBFEF409007AA85138617
:104D400001FF1385411097B07FFFE780202EDDB76C
:104D5000011106CE02C4B7270B60938707C03EC679
:104D6000280097B07FFFE780E0638145280097B077
:104D70007FFFE780A064280097B07FFFE780C062D4
:104D800085473EC0B7870060938707003EC20A850B
:104D900097B07FFFE780006181450A8597B07FFF6C
:104DA000E780C0610A8597B07FFFE780E05FF2404F
:104DB00005618280411106C622C426C2EFC0FFA150
:104DC00093074006B354F5023374F50203A78183B9
:104DD000894763EFE700814537D584401305C5193E
:104DE000EFF05FDB05E5B24022449244410182804E
:104DF000EF40007CAA852287A686138601FF1385D3
:104E0000811397B07FFFE7806022F1B77D55E1BF46
:104E1000011106CEB767096093870700D84F3AC6DD
:104E20003247C1769386F60F758F9366075036C664
:104E30003247D8CF8145054597B07FFFE7800034E2
:104E40008545054597B07FFFE7804033854501459F
:104E500097B07FFFE78000388545054597B07FFF15
:104E6000E7804037B7F70A60984F1367470098CF3D
:104E7000984B1367170098CBF2400561828009C9EF
:104E800037370B608327C7C0ED9B2326F7C082808E
:104E9000411106C697208301E780E0A737370B60F2
:104EA0008327C7C0F59B2326F7C009C9832747C0BE
:104EB000B7060080D58F2322F7C08280B7360B60FB
:104EC00083A746C0370700807D17F98F23A2F6C05D
:104ED0008280411106C605455D370545C137B240A0
:104EE00041018280B7270B603747D850130717AAB4
:104EF00023A0E7C203A7C7C1B7060400558F23AE9E
:104F0000E7C023A007C28280B767096003A7071024
:104F10001367170023A0E71003A70710759B23A0B2
:104F2000E710B7270C600D47F8C38280411106C611
:104F3000014597B07FFFE780600EA547630CF50041
:104F40006515A94763EDA70093073045B3D7A700C0
:104F5000858B91C703A78183854763E6E7006D379B
:104F6000B24041018280EF40A064AA85138601FF10
:104F70001385C11597B07FFFE780400BCDB78280C6
:104F8000411106C622C4EFF0BFE8EFF09FF4EFF046
:104F90007FF5B7470B6023A2078CB7A7096023A250
:104FA000078CB797096023A2070CEFB0C061EFA090
:104FB0003025EFF07FBAEFF0DFD0EF70D05CEF700C
:104FC0002026EFF05FABEFC03FE915C52A8483A729
:104FD000818391E72285B240224441018280EF40E3
:104FE000205DAA85138681181385011997B07FFF6C
:104FF000E780C003C5B7EFF0BFD12A8461FDEFF0B1
:105000007FDB2A8461F9EFF01FB12A8461F5EFF0AC
:10501000FFF1EFF0FFD3112075BF411106C6B7674E
:10502000096003A707081367270023A0E70803A761
:105030000708759B23A0E70803A707081367470025
:1050400023A0E70803A74708B7064000558F23A20F
:10505000E70803A74708B706D0FFFD16758F23A200
:10506000E70803A74708B716F0FFFD16758F23A2C0
:10507000E708B7070B6003A74715B7060004558F6D
:1050800023AAE71403A74715B7060008558F23AADC
:10509000E7148947014785461D468145130590065B
:1050A000EFB0BFE885470D478D461D468145130586
:1050B0009006EFB09FE78547114791461D46814511
:1050C00013059006EFB07FE68547194799461D46C0
:1050D000814513059006EFB05FE5A14701478D4676
:1050E0001146814513059006EFB03FE49307600633
:1050F00001479D460D46814513059006EFB0FFE23E
:10510000A14701478D460546814513059006EFB03E
:10511000DFE19307600601479D460146814513057F
:105120009006EFB09FE0B7E700603757060098CFD2
:105130009843B786FCFFFD16758FA166558F98C3FF
:105140009843E1769386F607758F1367077898C3BF
:10515000D843B71600FFFD16758FB7860C00558F24
:10516000D8C3D843B7060001558FD8C3B240410118
:105170008280411106C6B7E70060D843B70600FF3A
:10518000FD16758FD8C3370700017D1798CF930799
:10519000000601478D461146814513059006EFB084
:1051A000DFD8814701479D460D468145130590068E
:1051B000EFB0BFD79307000601478D4605468145EE
:1051C00013059006EFB07FD6814701479D46014603
:1051D000814513059006EFB05FD5814701478546AD
:1051E0001D46814513059006EFB03FD481470D471A
:1051F0008D461D46814513059006EFB01FD38147AC
:10520000114791461D46814513059006EFB0FFD129
:105210008147194799461D46814513059006EFB011
:10522000DFD0B7060B6083A74615370700FC7D1754
:10523000F98F23AAF614B76709603747400023A205
:10524000E708154723A0E708B2404101828000002B
:1052500023A21504A0C5E4C523A8250523AA350566
:1052600023AC450523AE550523A0650723A275078A
:1052700023A4850723A6950723A8A50723AAB50776
:1052800023A0250423A8B50A032105040322850BC6
:1052900083204504204564450329050583294505E8
:1052A000032A8505832AC505032B0506832B45069E
:1052B000032C8506832CC506032D0507832D450782
:1052C0008280411106C697108201E78040DF73009B
:1052D000501097108201E780A0DEA14773A007302D
:1052E000B24041018280014582801305050582801C
:1052F000C14763F3A7004145B7B781420A059387C9
:10530000C79AAA9788438280797106D622D426D27A
:105310004AD04ECE52CC56CA00182A8AAE84328960
:10532000F32A2034B7070080FD17B3FAFA00379646
:105330008042130646EA85453765814013054512CC
:10534000EF4050425685EFF0BFFA8A898547230E19
:10535000F4FC8D47A30EF4FC79710A87130607014C
:1053600021C2C94519CEAE86914763D7B700B7A70A
:105370008142938747665CCBA14763D4D700232C37
:1053800057018547230CF4FC8D47A30CF4FC0DCA90
:10539000B14763D3B70048CF93060702814731A8CE
:1053A000B7050080FD157DBF138507FE22950345D7
:1053B00085FF2380A600850785060545E376F5FE73
:1053C000C54763DCB722C9451DC29146230ED4FCF4
:1053D000A30E04FC230F04FC8547A30FF4FC230851
:1053E000D700A308070023090700A309F70093F5D6
:1053F000657FA60593E505048146B76A814013855C
:105400004A12EF40503A4E81F326303437A681429B
:1054100013068667854513854A12EF40F035638D84
:1054200004109450D84037A68142130686688545FB
:1054300013854A12EF40B035D450984437A68142C4
:105440001306466A854513854A12EF40503494543A
:10545000D84437A681421306066C854513854A1247
:10546000EF40F032D454984837A681421306C66DF7
:10547000854513854A12EF4090319458D84837A695
:1054800081421306866F854513854A12EF403030FE
:10549000D458984C37A6814213064671854513852A
:1054A0004A12EF40D02E945CD84C37A681421306A6
:1054B0000673854513854A12EF40702DD45C37A6DC
:1054C00081421306C674854513854A12EF40D02ADF
:1054D0002685EFF09FE1AA8637A681421306C6759E
:1054E000854513854A12EF403029944037A6814202
:1054F0001306C676854513854A12EF40F027B4405F
:1055000037A681421306C677854513854A12EF40B8
:10551000B026F44037A681421306C6788545138528
:105520004A12EF40702537968042130646EA8545B9
:1055300013854A12EF401023630B090A8326890062
:105540000327090237A681421306C6798545B76944
:10555000814013854912EF4090238326C900032719
:10556000490237A681421306867B85451385491279
:10557000EF40F021832609010327890237A68142E3
:105580001306467D854513854912EF40502083263A
:1055900049010327C90237A681421306067F8545C4
:1055A00013854912EF40B01E8326890103270903A2
:1055B00037B681421306C680854513854912EF40F0
:1055C000101D8326C9010327490337B681421306FC
:1055D0008682854513854912EF40701B37968042BD
:1055E000130646EA854513854912EF40B017CA8570
:1055F0002685E52CA6855285A1239155F1B341114D
:1056000006C60146EFF05FD0411106C622C42A84C7
:10561000EFF07FCD11C10945A285EFF05FFE41118A
:1056200006C6F3262034B7070080FD17FD8E37B677
:1056300081421306069F8545376581401305451253
:10564000EF40901381450545EFF07FFB411106C601
:1056500022C42A84B2853686F52C2285B2402244A3
:1056600041018280130606FB419A14D258D21CD6FF
:10567000232606038967938707887CC2B7570242AF
:10568000938787663CC230C1B707804093878720E5
:105690007CC12328A50A82801305A0F782804111CE
:1056A00006C622C426C22A84930480001306800002
:1056B000B7B582429385050997B07FFFE78040DF49
:1056C0001306800081453305940097B07FFFE78083
:1056D000E0DDB2402244924441018280411106C67D
:1056E00022C426C24AC02A8913048000930780007E
:1056F0003E94B38485402685EFF07FFA232C990AE7
:105700002285B2402244924402494101828093772B
:1057100035008DE303A7050A83A7450ABA97C19B05
:105720006366E5006366F50001458280014582807D
:10573000054582800145828093773500A1E389CDBC
:10574000B7B7844083A7873681EB411106C6EFF0D7
:105750001FFCB24041018280378782401307072A2D
:10576000856793870780BA976366E5006366F500EF
:105770000145828001458280054582800145828005
:10578000797106D622D426D24AD04ECE52CC56CAF1
:105790005AC85EC662C466C2AA8B2E8CB28A368A8A
:1057A0003A8B91CA3685EFF05FB42A8403290A0444
:1057B0008149814C0DA891CF37B7844013078736B4
:1057C0001847130707046306F700804303A947003F
:1057D000C5B70A843759804013090978D1BF032916
:1057E0000400A68C11049D4763CD3703A284528622
:1057F000D6852285029B15C563F58C02B70700424A
:1058000093870700E36DF9FCB75709429387872612
:10581000E377F9FC2686CA856285829B19C18509D2
:105820007DBFB250225492540259F249624AD24A80
:10583000424BB24B224C924C45618280011106CE04
:1058400022CC0010B28603280500930718001CC163
:1058500079718A871386070159C2514705CA3A856B
:10586000914863D8E800B7B88142938888A123AAF9
:105870001701A14863D4A80023AC07013148635342
:10588000A800D4CFC14663D3A6008CD3CD4663DC39
:10589000E604D14515C215472306E4FEA30604FE1F
:1058A000230704FEA30704FE2388E700A38807005C
:1058B00023890700A389070093F5457FA60593E593
:1058C000050481463765814013054512EF40A06D00
:1058D0000545130104FEF2406244056182803707EA
:1058E00000807D17A5BF915575B7011106CE22CC5A
:1058F00026CA4AC82A84AE8402C637B68142130635
:1059000086A385453769814013054912EF408065BC
:1059100037B68440A6873757804013078773A2861F
:105920001306863610466C00376580401305C58324
:10593000EFF01FE537968042130646EA85451305CA
:105940004912EF402062F2406244D244424905616C
:1059500082808280411106C622C426C22E84B2846F
:10596000EFF03FFFB76781400E05938707A5AA9721
:1059700084C3C0C3B2402244924441018280411199
:1059800006C697B07FFFE78060B2B24041018280D7
:10599000411106C637958440130605ABB7178540FD
:1059A0009387073B3386C7408145130505ABEFF06E
:1059B0001FFDB2404101828011E18280411106C683
:1059C00022C426C22A8497808501E780A063AA8426
:1059D000120497808501E780E062058DE36B85FE08
:1059E000B2402244924441018280411106C622C441
:1059F0002A845C4995CF829701CD634805029307BD
:105A0000F00F63D4A7001305F00F5C442380A700B8
:105A100058448347170093E71700A300F7003305A6
:105A2000A040B2402244410182803305A040C1BF62
:105A30000145F9BF19CD584583471700858B91C79C
:105A40008347070089C7014582800145828005455B
:105A5000828001458280411106C622C426C2AA84E2
:105A600039C583470500B1C737B48242130404DB4C
:105A7000B7B78242938707EF6374F4020C40638BDD
:105A80009500268597B07FFFE780C0A301C513046A
:105A90000402F9BF2285EFF0FFF901E5014411A0EE
:105AA00001442285B24022449244410182802A84EA
:105AB000CDBF0144FDB7914763E4A7020A05938770
:105AC000018D3E951C418287138501878280138555
:105AD000418982801385418A82801385018B82806F
